{
  "_format": "hh-sol-artifact-1",
  "contractName": "CertificateHashRegistry",
  "sourceName": "src/bc-cvs/CertificateHashRegistry.sol",
  "abi": [
    {
      "inputs": [
        {
          "internalType": "address",
          "name": "_admin",
          "type": "address"
        }
      ],
      "stateMutability": "nonpayable",
      "type": "constructor"
    },
    {
      "inputs": [],
      "name": "AccessControlBadConfirmation",
      "type": "error"
    },
    {
      "inputs": [
        {
          "internalType": "address",
          "name": "account",
          "type": "address"
        },
        {
          "internalType": "bytes32",
          "name": "neededRole",
          "type": "bytes32"
        }
      ],
      "name": "AccessControlUnauthorizedAccount",
      "type": "error"
    },
    {
      "inputs": [
        {
          "internalType": "bytes32",
          "name": "certificateHash",
          "type": "bytes32"
        }
      ],
      "name": "CertificateAlreadyExists",
      "type": "error"
    },
    {
      "inputs": [
        {
          "internalType": "bytes32",
          "name": "certificateHash",
          "type": "bytes32"
        }
      ],
      "name": "CertificateAlreadyRevoked",
      "type": "error"
    },
    {
      "inputs": [
        {
          "internalType": "bytes32",
          "name": "certificateHash",
          "type": "bytes32"
        }
      ],
      "name": "CertificateNotFound",
      "type": "error"
    },
    {
      "inputs": [],
      "name": "EmptyString",
      "type": "error"
    },
    {
      "inputs": [
        {
          "internalType": "address",
          "name": "institution",
          "type": "address"
        }
      ],
      "name": "InstitutionAlreadyRegistered",
      "type": "error"
    },
    {
      "inputs": [],
      "name": "InvalidCertificateHash",
      "type": "error"
    },
    {
      "inputs": [
        {
          "internalType": "address",
          "name": "holder",
          "type": "address"
        }
      ],
      "name": "InvalidHolder",
      "type": "error"
    },
    {
      "inputs": [],
      "name": "InvalidInput",
      "type": "error"
    },
    {
      "inputs": [],
      "name": "InvalidRSASignature",
      "type": "error"
    },
    {
      "inputs": [
        {
          "internalType": "address",
          "name": "caller",
          "type": "address"
        }
      ],
      "name": "NotAuthorizedIssuer",
      "type": "error"
    },
    {
      "inputs": [
        {
          "internalType": "address",
          "name": "caller",
          "type": "address"
        },
        {
          "internalType": "address",
          "name": "issuer",
          "type": "address"
        }
      ],
      "name": "NotCertificateIssuer",
      "type": "error"
    },
    {
      "inputs": [],
      "name": "ZeroAddress",
      "type": "error"
    },
    {
      "anonymous": false,
      "inputs": [
        {
          "indexed": true,
          "internalType": "bytes32",
          "name": "oldHash",
          "type": "bytes32"
        },
        {
          "indexed": true,
          "internalType": "bytes32",
          "name": "newHash",
          "type": "bytes32"
        },
        {
          "indexed": true,
          "internalType": "address",
          "name": "issuer",
          "type": "address"
        },
        {
          "indexed": false,
          "internalType": "uint256",
          "name": "timestamp",
          "type": "uint256"
        }
      ],
      "name": "CertificateCorrected",
      "type": "event"
    },
    {
      "anonymous": false,
      "inputs": [
        {
          "indexed": true,
          "internalType": "bytes32",
          "name": "certificateHash",
          "type": "bytes32"
        },
        {
          "indexed": true,
          "internalType": "address",
          "name": "issuer",
          "type": "address"
        },
        {
          "indexed": true,
          "internalType": "address",
          "name": "holder",
          "type": "address"
        },
        {
          "indexed": false,
          "internalType": "uint256",
          "name": "timestamp",
          "type": "uint256"
        }
      ],
      "name": "CertificateIssued",
      "type": "event"
    },
    {
      "anonymous": false,
      "inputs": [
        {
          "indexed": true,
          "internalType": "bytes32",
          "name": "certificateHash",
          "type": "bytes32"
        },
        {
          "indexed": true,
          "internalType": "address",
          "name": "issuer",
          "type": "address"
        },
        {
          "indexed": false,
          "internalType": "uint256",
          "name": "timestamp",
          "type": "uint256"
        },
        {
          "indexed": false,
          "internalType": "string",
          "name": "reason",
          "type": "string"
        }
      ],
      "name": "CertificateRevoked",
      "type": "event"
    },
    {
      "anonymous": false,
      "inputs": [
        {
          "indexed": true,
          "internalType": "bytes32",
          "name": "certificateHash",
          "type": "bytes32"
        },
        {
          "indexed": true,
          "internalType": "address",
          "name": "verifier",
          "type": "address"
        },
        {
          "indexed": false,
          "internalType": "bool",
          "name": "isValid",
          "type": "bool"
        },
        {
          "indexed": false,
          "internalType": "uint256",
          "name": "timestamp",
          "type": "uint256"
        }
      ],
      "name": "CertificateVerified",
      "type": "event"
    },
    {
      "anonymous": false,
      "inputs": [
        {
          "indexed": true,
          "internalType": "bytes32",
          "name": "role",
          "type": "bytes32"
        },
        {
          "indexed": true,
          "internalType": "bytes32",
          "name": "previousAdminRole",
          "type": "bytes32"
        },
        {
          "indexed": true,
          "internalType": "bytes32",
          "name": "newAdminRole",
          "type": "bytes32"
        }
      ],
      "name": "RoleAdminChanged",
      "type": "event"
    },
    {
      "anonymous": false,
      "inputs": [
        {
          "indexed": true,
          "internalType": "bytes32",
          "name": "role",
          "type": "bytes32"
        },
        {
          "indexed": true,
          "internalType": "address",
          "name": "account",
          "type": "address"
        },
        {
          "indexed": true,
          "internalType": "address",
          "name": "sender",
          "type": "address"
        }
      ],
      "name": "RoleGranted",
      "type": "event"
    },
    {
      "anonymous": false,
      "inputs": [
        {
          "indexed": true,
          "internalType": "bytes32",
          "name": "role",
          "type": "bytes32"
        },
        {
          "indexed": true,
          "internalType": "address",
          "name": "account",
          "type": "address"
        },
        {
          "indexed": true,
          "internalType": "address",
          "name": "sender",
          "type": "address"
        }
      ],
      "name": "RoleRevoked",
      "type": "event"
    },
    {
      "inputs": [],
      "name": "DEFAULT_ADMIN_ROLE",
      "outputs": [
        {
          "internalType": "bytes32",
          "name": "",
          "type": "bytes32"
        }
      ],
      "stateMutability": "view",
      "type": "function"
    },
    {
      "inputs": [
        {
          "internalType": "address",
          "name": "_issuer",
          "type": "address"
        }
      ],
      "name": "authorizeIssuer",
      "outputs": [],
      "stateMutability": "nonpayable",
      "type": "function"
    },
    {
      "inputs": [],
      "name": "bloomFilter",
      "outputs": [
        {
          "internalType": "contract IBloomFilter",
          "name": "",
          "type": "address"
        }
      ],
      "stateMutability": "view",
      "type": "function"
    },
    {
      "inputs": [
        {
          "internalType": "bytes32",
          "name": "_certificateHash",
          "type": "bytes32"
        }
      ],
      "name": "certificateExists",
      "outputs": [
        {
          "internalType": "bool",
          "name": "exists",
          "type": "bool"
        }
      ],
      "stateMutability": "view",
      "type": "function"
    },
    {
      "inputs": [
        {
          "internalType": "bytes32",
          "name": "_oldHash",
          "type": "bytes32"
        },
        {
          "internalType": "bytes32",
          "name": "_newHash",
          "type": "bytes32"
        },
        {
          "internalType": "bytes",
          "name": "_newRsaSignature",
          "type": "bytes"
        },
        {
          "internalType": "string",
          "name": "_metadata",
          "type": "string"
        }
      ],
      "name": "correctCertificate",
      "outputs": [],
      "stateMutability": "nonpayable",
      "type": "function"
    },
    {
      "inputs": [
        {
          "internalType": "bytes32",
          "name": "_certificateHash",
          "type": "bytes32"
        }
      ],
      "name": "getCertificate",
      "outputs": [
        {
          "components": [
            {
              "internalType": "bytes32",
              "name": "certificateHash",
              "type": "bytes32"
            },
            {
              "internalType": "bytes",
              "name": "rsaSignature",
              "type": "bytes"
            },
            {
              "internalType": "address",
              "name": "issuer",
              "type": "address"
            },
            {
              "internalType": "address",
              "name": "holder",
              "type": "address"
            },
            {
              "internalType": "uint256",
              "name": "issueDate",
              "type": "uint256"
            },
            {
              "internalType": "bool",
              "name": "isValid",
              "type": "bool"
            },
            {
              "internalType": "string",
              "name": "metadata",
              "type": "string"
            }
          ],
          "internalType": "struct ICertificateHashRegistry.Certificate",
          "name": "cert",
          "type": "tuple"
        }
      ],
      "stateMutability": "view",
      "type": "function"
    },
    {
      "inputs": [
        {
          "internalType": "address",
          "name": "_holder",
          "type": "address"
        }
      ],
      "name": "getCertificatesByHolder",
      "outputs": [
        {
          "internalType": "bytes32[]",
          "name": "hashes",
          "type": "bytes32[]"
        }
      ],
      "stateMutability": "view",
      "type": "function"
    },
    {
      "inputs": [
        {
          "internalType": "address",
          "name": "_issuer",
          "type": "address"
        }
      ],
      "name": "getCertificatesByIssuer",
      "outputs": [
        {
          "internalType": "bytes32[]",
          "name": "hashes",
          "type": "bytes32[]"
        }
      ],
      "stateMutability": "view",
      "type": "function"
    },
    {
      "inputs": [
        {
          "internalType": "bytes32",
          "name": "role",
          "type": "bytes32"
        }
      ],
      "name": "getRoleAdmin",
      "outputs": [
        {
          "internalType": "bytes32",
          "name": "",
          "type": "bytes32"
        }
      ],
      "stateMutability": "view",
      "type": "function"
    },
    {
      "inputs": [],
      "name": "getTotalCertificates",
      "outputs": [
        {
          "internalType": "uint256",
          "name": "count",
          "type": "uint256"
        }
      ],
      "stateMutability": "view",
      "type": "function"
    },
    {
      "inputs": [
        {
          "internalType": "address",
          "name": "_holder",
          "type": "address"
        }
      ],
      "name": "grantHolderRole",
      "outputs": [],
      "stateMutability": "nonpayable",
      "type": "function"
    },
    {
      "inputs": [
        {
          "internalType": "bytes32",
          "name": "role",
          "type": "bytes32"
        },
        {
          "internalType": "address",
          "name": "account",
          "type": "address"
        }
      ],
      "name": "grantRole",
      "outputs": [],
      "stateMutability": "nonpayable",
      "type": "function"
    },
    {
      "inputs": [
        {
          "internalType": "address",
          "name": "_verifier",
          "type": "address"
        }
      ],
      "name": "grantVerifierRole",
      "outputs": [],
      "stateMutability": "nonpayable",
      "type": "function"
    },
    {
      "inputs": [
        {
          "internalType": "bytes32",
          "name": "role",
          "type": "bytes32"
        },
        {
          "internalType": "address",
          "name": "account",
          "type": "address"
        }
      ],
      "name": "hasRole",
      "outputs": [
        {
          "internalType": "bool",
          "name": "",
          "type": "bool"
        }
      ],
      "stateMutability": "view",
      "type": "function"
    },
    {
      "inputs": [
        {
          "internalType": "address",
          "name": "_issuer",
          "type": "address"
        }
      ],
      "name": "isAuthorizedIssuer",
      "outputs": [
        {
          "internalType": "bool",
          "name": "isAuthorized",
          "type": "bool"
        }
      ],
      "stateMutability": "view",
      "type": "function"
    },
    {
      "inputs": [
        {
          "internalType": "bytes32",
          "name": "_certificateHash",
          "type": "bytes32"
        },
        {
          "internalType": "bytes",
          "name": "_rsaSignature",
          "type": "bytes"
        },
        {
          "internalType": "address",
          "name": "_holder",
          "type": "address"
        },
        {
          "internalType": "string",
          "name": "_metadata",
          "type": "string"
        }
      ],
      "name": "issueCertificate",
      "outputs": [],
      "stateMutability": "nonpayable",
      "type": "function"
    },
    {
      "inputs": [
        {
          "internalType": "bytes32",
          "name": "role",
          "type": "bytes32"
        },
        {
          "internalType": "address",
          "name": "callerConfirmation",
          "type": "address"
        }
      ],
      "name": "renounceRole",
      "outputs": [],
      "stateMutability": "nonpayable",
      "type": "function"
    },
    {
      "inputs": [],
      "name": "revocationRegistry",
      "outputs": [
        {
          "internalType": "contract IRevocationRegistry",
          "name": "",
          "type": "address"
        }
      ],
      "stateMutability": "view",
      "type": "function"
    },
    {
      "inputs": [
        {
          "internalType": "bytes32",
          "name": "_certificateHash",
          "type": "bytes32"
        },
        {
          "internalType": "string",
          "name": "_reason",
          "type": "string"
        }
      ],
      "name": "revokeCertificate",
      "outputs": [],
      "stateMutability": "nonpayable",
      "type": "function"
    },
    {
      "inputs": [
        {
          "internalType": "address",
          "name": "_issuer",
          "type": "address"
        }
      ],
      "name": "revokeIssuerAuthorization",
      "outputs": [],
      "stateMutability": "nonpayable",
      "type": "function"
    },
    {
      "inputs": [
        {
          "internalType": "bytes32",
          "name": "role",
          "type": "bytes32"
        },
        {
          "internalType": "address",
          "name": "account",
          "type": "address"
        }
      ],
      "name": "revokeRole",
      "outputs": [],
      "stateMutability": "nonpayable",
      "type": "function"
    },
    {
      "inputs": [
        {
          "internalType": "address",
          "name": "_bloomFilter",
          "type": "address"
        }
      ],
      "name": "setBloomFilter",
      "outputs": [],
      "stateMutability": "nonpayable",
      "type": "function"
    },
    {
      "inputs": [
        {
          "internalType": "address",
          "name": "_revocationRegistry",
          "type": "address"
        }
      ],
      "name": "setRevocationRegistry",
      "outputs": [],
      "stateMutability": "nonpayable",
      "type": "function"
    },
    {
      "inputs": [
        {
          "internalType": "bytes4",
          "name": "interfaceId",
          "type": "bytes4"
        }
      ],
      "name": "supportsInterface",
      "outputs": [
        {
          "internalType": "bool",
          "name": "",
          "type": "bool"
        }
      ],
      "stateMutability": "view",
      "type": "function"
    },
    {
      "inputs": [
        {
          "internalType": "bytes32",
          "name": "_certificateHash",
          "type": "bytes32"
        }
      ],
      "name": "verifyCertificate",
      "outputs": [
        {
          "internalType": "bool",
          "name": "isValid",
          "type": "bool"
        },
        {
          "components": [
            {
              "internalType": "bytes32",
              "name": "certificateHash",
              "type": "bytes32"
            },
            {
              "internalType": "bytes",
              "name": "rsaSignature",
              "type": "bytes"
            },
            {
              "internalType": "address",
              "name": "issuer",
              "type": "address"
            },
            {
              "internalType": "address",
              "name": "holder",
              "type": "address"
            },
            {
              "internalType": "uint256",
              "name": "issueDate",
              "type": "uint256"
            },
            {
              "internalType": "bool",
              "name": "isValid",
              "type": "bool"
            },
            {
              "internalType": "string",
              "name": "metadata",
              "type": "string"
            }
          ],
          "internalType": "struct ICertificateHashRegistry.Certificate",
          "name": "cert",
          "type": "tuple"
        }
      ],
      "stateMutability": "view",
      "type": "function"
    }
  ],
  "bytecode": "0x6080346200009557601f62001f4e38819003918201601f19168301916001600160401b038311848410176200009a578084926020946040528339810103126200009557516001600160a01b0381168082036200009557156200008357806200006b6200007292620000b0565b5062000130565b50604051611d5b9081620001d38239f35b60405163d92e233d60e01b8152600490fd5b600080fd5b634e487b7160e01b600052604160045260246000fd5b6001600160a01b031660008181527fad3228b676f7d3cd4284a5443f17f1962b36e491b30a40b2405849e597ba5fb5602052604081205490919060ff166200012c57818052816020526040822081835260205260408220600160ff19825416179055339160008051602062001f2e8339815191528180a4600190565b5090565b6001600160a01b031660008181527fcef3a433619e8274f84bbe9ad5323e8b252fcf8ed48affbce8d2049d944ea6de60205260408120549091907fb346b2ddc13f08bd9685b83a95304a79a2caac0aa7aa64129e1ae9f4361b46619060ff16620001cd57808352826020526040832082845260205260408320600160ff1982541617905560008051602062001f2e833981519152339380a4600190565b50509056fe608080604052600436101561001357600080fd5b600090813560e01c90816301ffc9a714611339575080630337c061146112ff578063248a9ca3146112d35780632f2ff15d1461129657806331ba19661461125757806336568abe1461120f578063436693d51461118e57806349d5f6f814610c5a5780635bf4adfb14610ac85780635ff5bd5214610a9f5780636a8bc419146105c65780637843bb79146105a8578063850c17681461056c57806391d148541461052157806395f94bc4146104da578063a217fddf146104be578063b440983e14610490578063b450288614610456578063c16fb3131461040f578063d547741f146103d2578063e18ac8ec1461035f578063f0f2740d14610336578063f333fe0814610252578063f4f7a815146101bd5763feef67141461013457600080fd5b346101ba576020806003193601126101b6576001600160a01b0361015661138e565b1682526002815260408220916040518092808554928381520194835280832092905b82821061019f5761019b8561018f81890382611400565b60405191829182611524565b0390f35b835486529485019460019384019390910190610178565b5080fd5b80fd5b50346101ba5760203660031901126101ba576101d761138e565b906101e061155f565b6001600160a01b03821691821561024057828252600460205260ff60408320541615610227578192610223925260046020526040832060ff198154169055611898565b5080f35b604051632a5bbf8560e21b815260048101849052602490fd5b60405163d92e233d60e01b8152600490fd5b50346101ba5760203660031901126101ba57604060043591610272611af2565b50828152600160205220906040519161028a836113ba565b805483526040516102a9816102a28160018601611b2d565b0382611400565b602084015260018060a01b03806002830154166040850152600382015416606084015260066102fd6004830154926080860193845260ff600582015416151560a08701526102a26040518094819301611b2d565b60c0840152511561031e576040516020808252819061019b908201856114b9565b60249060405190630eb0bcc760e31b82526004820152fd5b50346101ba57806003193601126101ba576008546040516001600160a01b039091168152602090f35b50346101ba576020806003193601126101b6576001600160a01b0361038261138e565b1682526003815260408220916040518092808554928381520194835280832092905b8282106103bb5761019b8561018f81890382611400565b8354865294850194600193840193909101906103a4565b50346101ba5760403660031901126101ba576102236004356103f26113a4565b908084528360205261040a6001604086200154611635565b611943565b50346101ba5760203660031901126101ba5761042961138e565b61043161155f565b6001600160a01b03168015610240576001600160601b0360a01b600754161760075580f35b50346101ba5760203660031901126101ba5761047061138e565b61047861155f565b6001600160a01b038116156102405761022390611796565b50346101ba5760203660031901126101ba576004604060209282358152600184522001541515604051908152f35b50346101ba57806003193601126101ba57602090604051908152f35b50346101ba5760203660031901126101ba576104f461138e565b6104fc61155f565b6001600160a01b03168015610240576001600160601b0360a01b600854161760085580f35b50346101ba5760403660031901126101ba57604061053d6113a4565b91600435815280602052209060018060a01b0316600052602052602060ff604060002054166040519015158152f35b50346101ba5760203660031901126101ba57610589600435611bc3565b9061019b604051928392151583526040602084015260408301906114b9565b50346101ba57806003193601126101ba576020600654604051908152f35b50346101ba5760803660031901126101ba5767ffffffffffffffff906024358281116101b6576105fa903690600401611422565b604435906001600160a01b0382168203610a9a57606435848111610a9657610626903690600401611422565b9061062f6115d9565b60043515610a84576001600160a01b03831615610a6357805115610a5157815115610a3f57610400825111610a2d57600435845260016020526004604085200154610a1457338452600460205260ff604085205416156109fc5760405191610696836113ba565b60043583526020830191825233604084015260018060a01b0384166060840152426080840152600160a084015260c083015260043584526001602052604084209082518255518051908682116109e857610700826106f760018601546119b8565b600186016119f2565b602090601f831160011461097657918060c09492600694899261096b575b50508160011b916000199060031b1c19161760018201555b6002810160018060a01b03604086015116906001600160601b0360a01b9182825416179055600382019060018060a01b03606087015116908254161790556080840151600482015561079d60a08501511515600583019060ff801983541691151516179055565b01910151938451908111610957576107bf816107b984546119b8565b846119f2565b602094601f82116001146108f45794849582939495926108e9575b50508160011b916000199060031b1c19161790555b338252600260205261080660043560408420611aa4565b6001600160a01b03811682526003602052604082206108289060043590611aa4565b610833600435611a46565b61083e600654611acd565b60065560075482906001600160a01b031680610898575b50506040514281526001600160a01b03909116903390600435907f8a9f2fdd359409354808bbba510d19f4d4facf7f77d5802fc3326db79a73029990602090a480f35b803b156101b657818091602460405180948193632235ffdd60e11b835260043560048401525af180156108de5715610855576108d3906113ec565b6101b6578138610855565b6040513d84823e3d90fd5b0151905038806107da565b601f198216958386526020862091865b88811061093f57508360019596979810610926575b505050811b0190556107ef565b015160001960f88460031b161c19169055388080610919565b91926020600181928685015181550194019201610904565b634e487b7160e01b84526041600452602484fd5b01519050388061071e565b906001840187526020872091875b601f19851681106109d057509260c0949260019260069583601f198116106109b7575b505050811b016001820155610736565b015160001960f88460031b161c191690553880806109a7565b91926020600181928685015181550194019201610984565b634e487b7160e01b86526041600452602486fd5b604051632a5bbf8560e21b8152336004820152602490fd5b60246040516316b35fe360e01b81526004356004820152fd5b60405163b4fa3fb360e01b8152600490fd5b60405163ecd7b0d160e01b8152600490fd5b6040516359a4a39d60e11b8152600490fd5b6040516378b27f2360e11b81526001600160a01b0384166004820152602490fd5b604051635006807360e11b8152600490fd5b8380fd5b600080fd5b50346101ba57806003193601126101ba576007546040516001600160a01b039091168152602090f35b50346101ba5760403660031901126101ba5760043560243567ffffffffffffffff8111610bfb57610afd903690600401611422565b90610b066115d9565b808352600160205260408320600481015415610c415760028101546001600160a01b0391908216338103610c1857506005019081549160ff831615610bff57845115610a3f57859260ff191690556008541680610ba4575b50507f2dc910602b63b3a70fad6ced1f1ec487c86fc854530555b5fce6c82ebbd1604e6040514281526040602082015280610b9e33956040830190611479565b0390a380f35b803b156101b657816040518092635bf4adfb60e01b825285600483015260406024830152818381610bd8604482018b611479565b03925af180156108de5715610b5e57610bf0906113ec565b610bfb578238610b5e565b8280fd5b60405163b93e450d60e01b815260048101859052602490fd5b604051634223ce1d60e11b81523360048201526001600160a01b03919091166024820152604490fd5b604051630eb0bcc760e31b815260048101839052602490fd5b50346101ba5760803660031901126101ba5760443567ffffffffffffffff81116101b657610c8c903690600401611422565b9060643567ffffffffffffffff81116101b657610cad903690600401611422565b91610cb66115d9565b60043582526001602052604082206004810154156111755760028101546001600160a01b0316338103610c185750600581019081549160ff83161561115c576024358552600160205260046040862001546111435760ff1990921690915560030180546040519194906001600160a01b0316610d31836113ba565b6024358352602083019384523360408401526060830152426080830152600160a083015260c0820152602435835260016020526040832091815183555180519067ffffffffffffffff821161112f57610d9a82610d9160018701546119b8565b600187016119f2565b602090601f83116001146110bf5760c09392918691836110b4575b50508160011b916000199060031b1c19161760018401555b6002830160018060a01b03604083015116906001600160601b0360a01b9182825416179055600384019060018060a01b036060840151169082541617905560808101516004840155610e3460a08201511515600585019060ff801983541691151516179055565b015180519067ffffffffffffffff821161095757610e6282610e5960068601546119b8565b600686016119f2565b602090601f8311600114611047576006929185918361103c575b50508160011b916000199060031b1c1916179101555b3381526002602052610ea960243560408320611aa4565b81546001600160a01b03168152600360205260408120610ecc9060243590611aa4565b610ed7602435611a46565b610ee2600654611acd565b6006556007546001600160a01b031680610ffc575b5060085490919082906001600160a01b031680610f82575b50506040514281523390602435907f0bdec61cc56fa0fb6269f7fa5c6eaef0ec0b7566d18a3563592237135761ed45602060043592a460018060a01b0390541660405142815233907f8a9f2fdd359409354808bbba510d19f4d4facf7f77d5802fc3326db79a730299602060243592a480f35b803b156101b65781809160a460405180948193630758867360e31b83526004356004840152602435602484015260606044840152601560648401527410d95c9d1a599a58d85d194818dbdc9c9958dd1959605a1b60848401525af180156108de5715610f0f57610ff1906113ec565b6101b6578138610f0f565b803b156101b657818091602460405180948193632235ffdd60e11b8352833560048401525af180156108de5715610ef757611036906113ec565b38610ef7565b015190503880610e7c565b906006840185526020852091855b601f198516811061109c5750918391600193600695601f19811610611083575b505050811b01910155610e92565b015160001960f88460031b161c19169055388080611075565b91926020600181928685015181550194019201611055565b015190503880610db5565b906001850186526020862091865b601f1985168110611117575091839160019360c09695601f198116106110fe575b505050811b016001840155610dcd565b015160001960f88460031b161c191690553880806110ee565b919260206001819286850151815501940192016110cd565b634e487b7160e01b85526041600452602485fd5b6040516316b35fe360e01b815260248035600483015290fd5b602460405163b93e450d60e01b81526004356004820152fd5b6024604051630eb0bcc760e31b81526004356004820152fd5b50346101ba5760203660031901126101ba576111a861138e565b906111b161155f565b6001600160a01b03821691821561024057828252600460205260ff6040832054166111f65781926102239252600460205260408320600160ff198254161790556116fb565b60405163c28e848f60e01b815260048101849052602490fd5b50346101ba5760403660031901126101ba576112296113a4565b336001600160a01b038216036112455761022390600435611943565b60405163334bd91960e11b8152600490fd5b50346101ba5760203660031901126101ba5760209060ff906040906001600160a01b0361128261138e565b168152600484522054166040519015158152f35b50346101ba5760403660031901126101ba576102236004356112b66113a4565b90808452836020526112ce6001604086200154611635565b611831565b50346101ba5760203660031901126101ba57600160406020926004358152808452200154604051908152f35b50346101ba5760203660031901126101ba5761131961138e565b61132161155f565b6001600160a01b03811615610240576102239061165b565b9050346101b65760203660031901126101b65760043563ffffffff60e01b8116809103610bfb5760209250637965db0b60e01b811490811561137d575b5015158152f35b6301ffc9a760e01b14905038611376565b600435906001600160a01b0382168203610a9a57565b602435906001600160a01b0382168203610a9a57565b60e0810190811067ffffffffffffffff8211176113d657604052565b634e487b7160e01b600052604160045260246000fd5b67ffffffffffffffff81116113d657604052565b90601f8019910116810190811067ffffffffffffffff8211176113d657604052565b81601f82011215610a9a5780359067ffffffffffffffff82116113d65760405192611457601f8401601f191660200185611400565b82845260208383010111610a9a57816000926020809301838601378301015290565b919082519283825260005b8481106114a5575050826000602080949584010152601f8019910116010190565b602081830181015184830182015201611484565b611521918151815260c06114dc602084015160e0602085015260e0840190611479565b9260018060a01b0380604083015116604085015260608201511660608401526080810151608084015260a0810151151560a084015201519060c0818403910152611479565b90565b6020908160408183019282815285518094520193019160005b82811061154b575050505090565b83518552938101939281019260010161153d565b3360009081527fcef3a433619e8274f84bbe9ad5323e8b252fcf8ed48affbce8d2049d944ea6de60205260409020547fb346b2ddc13f08bd9685b83a95304a79a2caac0aa7aa64129e1ae9f4361b46619060ff16156115bb5750565b6044906040519063e2517d3f60e01b82523360048301526024820152fd5b3360009081527f75a62d95ad9fef7bba5c4dde6e3ff662d5c539a6d57cb138a3d5c2f3a42773ff60205260409020547f4b90e70a23ad1c016cdba1a015076c2de977e305fcad3881690cafbe99d361909060ff16156115bb5750565b80600052600060205260406000203360005260205260ff60406000205416156115bb5750565b6001600160a01b031660008181527f47b209c9573d16f2ca15bdb23e32336b26a4895c2e8fadad21581ebf5c674b5360205260408120549091907fa48c898f5241be426b79d4b5a3c206f9c9a06576e1b72c338c3ec849771d56869060ff166116f657808352826020526040832082845260205260408320600160ff19825416179055600080516020611d06833981519152339380a4600190565b505090565b6001600160a01b031660008181527f75a62d95ad9fef7bba5c4dde6e3ff662d5c539a6d57cb138a3d5c2f3a42773ff60205260408120549091907f4b90e70a23ad1c016cdba1a015076c2de977e305fcad3881690cafbe99d361909060ff166116f657808352826020526040832082845260205260408320600160ff19825416179055600080516020611d06833981519152339380a4600190565b6001600160a01b031660008181527f0243c3a114fcc565356afcc3dfbc60278634b704337fa7c3352c3a0c54e0f96f60205260408120549091907f95db38da2bdceeb0c3cc1c1c6bf13d1b48a5cc148ba8dd82ab7367ba40ca30279060ff166116f657808352826020526040832082845260205260408320600160ff19825416179055600080516020611d06833981519152339380a4600190565b9060009180835282602052604083209160018060a01b03169182845260205260ff604084205416156000146116f657808352826020526040832082845260205260408320600160ff19825416179055600080516020611d06833981519152339380a4600190565b6001600160a01b031660008181527f75a62d95ad9fef7bba5c4dde6e3ff662d5c539a6d57cb138a3d5c2f3a42773ff60205260408120549091907f4b90e70a23ad1c016cdba1a015076c2de977e305fcad3881690cafbe99d361909060ff16156116f65780835282602052604083208284526020526040832060ff1981541690557ff6391f5c32d9c69d2a47ea670b442974b53935d1edc7fd64eb21e047a839171b339380a4600190565b9060009180835282602052604083209160018060a01b03169182845260205260ff6040842054166000146116f65780835282602052604083208284526020526040832060ff1981541690557ff6391f5c32d9c69d2a47ea670b442974b53935d1edc7fd64eb21e047a839171b339380a4600190565b90600182811c921680156119e8575b60208310146119d257565b634e487b7160e01b600052602260045260246000fd5b91607f16916119c7565b90601f8111611a0057505050565b600091825260208220906020601f850160051c83019410611a3c575b601f0160051c01915b828110611a3157505050565b818155600101611a25565b9092508290611a1c565b600554600160401b8110156113d6576001810180600555811015611a8e5760056000527f036b6384b5eca791c62761152d0c79bb0604c104a5fb6f4eb0703f3154bb3db00155565b634e487b7160e01b600052603260045260246000fd5b805490600160401b8210156113d65760018201808255821015611a8e5760005260206000200155565b6000198114611adc5760010190565b634e487b7160e01b600052601160045260246000fd5b60405190611aff826113ba565b606060c083600081528260208201526000604082015260008382015260006080820152600060a08201520152565b9060009291805491611b3e836119b8565b918282526001938481169081600014611ba05750600114611b60575b50505050565b90919394506000526020928360002092846000945b838610611b8c575050505001019038808080611b5a565b805485870183015294019385908201611b75565b9294505050602093945060ff191683830152151560051b01019038808080611b5a565b90611bcc611af2565b50600082815260209260018452604090818320948251611beb816113ba565b865481528351611c02816102a28160018c01611b2d565b8282015260018060a01b039081600289015416858201528160038901541660608201526006611c5560048a015499608084019a8b5260ff600582015416151560a08501526102a288518094819301611b2d565b60c082015280975115611cfb5750600854169182611c7e575b505050505060a082015115159190565b81906024855180958193634294857f60e01b835260048301525afa928315611cf257508392611cbb575b5050611cb75780808080611c6e565b9190565b90809250813d8311611ceb575b611cd28183611400565b810103126101b6575180151581036101b6573880611ca8565b503d611cc8565b513d85823e3d90fd5b965050505050919056fe2f8788117e7eff1d82e926ec794901d17c78024a50270940304540a733656f0da2646970667358221220e8f11da73bfb8fbf1962f4188641f098a91aea2b7908dc85e5b53945533b03c764736f6c634300081400332f8788117e7eff1d82e926ec794901d17c78024a50270940304540a733656f0d",
  "linkReferences": {},
  "deployedLinkReferences": {}
}