{
  "_format": "hh-sol-artifact-1",
  "contractName": "RevocationRegistry",
  "sourceName": "src/bc-cvs/RevocationRegistry.sol",
  "abi": [
    {
      "inputs": [
        {
          "internalType": "address",
          "name": "_admin",
          "type": "address"
        }
      ],
      "stateMutability": "nonpayable",
      "type": "constructor"
    },
    {
      "inputs": [],
      "name": "AccessControlBadConfirmation",
      "type": "error"
    },
    {
      "inputs": [
        {
          "internalType": "address",
          "name": "account",
          "type": "address"
        },
        {
          "internalType": "bytes32",
          "name": "neededRole",
          "type": "bytes32"
        }
      ],
      "name": "AccessControlUnauthorizedAccount",
      "type": "error"
    },
    {
      "inputs": [
        {
          "internalType": "bytes32",
          "name": "certificateHash",
          "type": "bytes32"
        }
      ],
      "name": "AlreadyCorrected",
      "type": "error"
    },
    {
      "inputs": [
        {
          "internalType": "bytes32",
          "name": "certificateHash",
          "type": "bytes32"
        }
      ],
      "name": "AlreadyRevoked",
      "type": "error"
    },
    {
      "inputs": [],
      "name": "EmptyString",
      "type": "error"
    },
    {
      "inputs": [],
      "name": "InvalidCertificateHash",
      "type": "error"
    },
    {
      "inputs": [],
      "name": "InvalidInput",
      "type": "error"
    },
    {
      "inputs": [
        {
          "internalType": "bytes32",
          "name": "certificateHash",
          "type": "bytes32"
        }
      ],
      "name": "NotRevoked",
      "type": "error"
    },
    {
      "inputs": [],
      "name": "ZeroAddress",
      "type": "error"
    },
    {
      "anonymous": false,
      "inputs": [
        {
          "indexed": true,
          "internalType": "bytes32",
          "name": "originalHash",
          "type": "bytes32"
        },
        {
          "indexed": true,
          "internalType": "bytes32",
          "name": "replacementHash",
          "type": "bytes32"
        },
        {
          "indexed": true,
          "internalType": "address",
          "name": "issuer",
          "type": "address"
        },
        {
          "indexed": false,
          "internalType": "uint256",
          "name": "timestamp",
          "type": "uint256"
        }
      ],
      "name": "CertificateCorrected",
      "type": "event"
    },
    {
      "anonymous": false,
      "inputs": [
        {
          "indexed": true,
          "internalType": "bytes32",
          "name": "originalHash",
          "type": "bytes32"
        },
        {
          "indexed": true,
          "internalType": "address",
          "name": "issuer",
          "type": "address"
        },
        {
          "indexed": false,
          "internalType": "uint256",
          "name": "timestamp",
          "type": "uint256"
        },
        {
          "indexed": false,
          "internalType": "string",
          "name": "reason",
          "type": "string"
        }
      ],
      "name": "CertificateRevoked",
      "type": "event"
    },
    {
      "anonymous": false,
      "inputs": [
        {
          "indexed": true,
          "internalType": "bytes32",
          "name": "role",
          "type": "bytes32"
        },
        {
          "indexed": true,
          "internalType": "bytes32",
          "name": "previousAdminRole",
          "type": "bytes32"
        },
        {
          "indexed": true,
          "internalType": "bytes32",
          "name": "newAdminRole",
          "type": "bytes32"
        }
      ],
      "name": "RoleAdminChanged",
      "type": "event"
    },
    {
      "anonymous": false,
      "inputs": [
        {
          "indexed": true,
          "internalType": "bytes32",
          "name": "role",
          "type": "bytes32"
        },
        {
          "indexed": true,
          "internalType": "address",
          "name": "account",
          "type": "address"
        },
        {
          "indexed": true,
          "internalType": "address",
          "name": "sender",
          "type": "address"
        }
      ],
      "name": "RoleGranted",
      "type": "event"
    },
    {
      "anonymous": false,
      "inputs": [
        {
          "indexed": true,
          "internalType": "bytes32",
          "name": "role",
          "type": "bytes32"
        },
        {
          "indexed": true,
          "internalType": "address",
          "name": "account",
          "type": "address"
        },
        {
          "indexed": true,
          "internalType": "address",
          "name": "sender",
          "type": "address"
        }
      ],
      "name": "RoleRevoked",
      "type": "event"
    },
    {
      "inputs": [],
      "name": "DEFAULT_ADMIN_ROLE",
      "outputs": [
        {
          "internalType": "bytes32",
          "name": "",
          "type": "bytes32"
        }
      ],
      "stateMutability": "view",
      "type": "function"
    },
    {
      "inputs": [
        {
          "internalType": "bytes32",
          "name": "_originalHash",
          "type": "bytes32"
        },
        {
          "internalType": "bytes32",
          "name": "_replacementHash",
          "type": "bytes32"
        },
        {
          "internalType": "string",
          "name": "_reason",
          "type": "string"
        }
      ],
      "name": "correctCertificate",
      "outputs": [],
      "stateMutability": "nonpayable",
      "type": "function"
    },
    {
      "inputs": [
        {
          "internalType": "bytes32",
          "name": "_certificateHash",
          "type": "bytes32"
        },
        {
          "internalType": "string",
          "name": "_reason",
          "type": "string"
        }
      ],
      "name": "emergencyRevoke",
      "outputs": [],
      "stateMutability": "nonpayable",
      "type": "function"
    },
    {
      "inputs": [],
      "name": "getAllRevokedCertificates",
      "outputs": [
        {
          "internalType": "bytes32[]",
          "name": "hashes",
          "type": "bytes32[]"
        }
      ],
      "stateMutability": "view",
      "type": "function"
    },
    {
      "inputs": [
        {
          "internalType": "bytes32",
          "name": "_certificateHash",
          "type": "bytes32"
        }
      ],
      "name": "getAuditTrail",
      "outputs": [
        {
          "internalType": "bytes32",
          "name": "originalHash",
          "type": "bytes32"
        },
        {
          "internalType": "bytes32",
          "name": "replacementHash",
          "type": "bytes32"
        },
        {
          "internalType": "address",
          "name": "revokedBy",
          "type": "address"
        },
        {
          "internalType": "uint256",
          "name": "revocationDate",
          "type": "uint256"
        },
        {
          "internalType": "string",
          "name": "reason",
          "type": "string"
        },
        {
          "internalType": "bool",
          "name": "isCorrected",
          "type": "bool"
        }
      ],
      "stateMutability": "view",
      "type": "function"
    },
    {
      "inputs": [
        {
          "internalType": "bytes32",
          "name": "_originalHash",
          "type": "bytes32"
        }
      ],
      "name": "getReplacementCertificate",
      "outputs": [
        {
          "internalType": "bytes32",
          "name": "replacementHash",
          "type": "bytes32"
        }
      ],
      "stateMutability": "view",
      "type": "function"
    },
    {
      "inputs": [
        {
          "internalType": "bytes32",
          "name": "_certificateHash",
          "type": "bytes32"
        }
      ],
      "name": "getRevocationRecord",
      "outputs": [
        {
          "components": [
            {
              "internalType": "bytes32",
              "name": "originalHash",
              "type": "bytes32"
            },
            {
              "internalType": "bytes32",
              "name": "replacementHash",
              "type": "bytes32"
            },
            {
              "internalType": "uint256",
              "name": "revocationDate",
              "type": "uint256"
            },
            {
              "internalType": "string",
              "name": "reason",
              "type": "string"
            },
            {
              "internalType": "address",
              "name": "revokedBy",
              "type": "address"
            },
            {
              "internalType": "bool",
              "name": "isCorrected",
              "type": "bool"
            }
          ],
          "internalType": "struct IRevocationRegistry.RevocationRecord",
          "name": "record",
          "type": "tuple"
        }
      ],
      "stateMutability": "view",
      "type": "function"
    },
    {
      "inputs": [
        {
          "internalType": "address",
          "name": "_issuer",
          "type": "address"
        }
      ],
      "name": "getRevokedCertificatesByIssuer",
      "outputs": [
        {
          "internalType": "bytes32[]",
          "name": "hashes",
          "type": "bytes32[]"
        }
      ],
      "stateMutability": "view",
      "type": "function"
    },
    {
      "inputs": [
        {
          "internalType": "bytes32",
          "name": "role",
          "type": "bytes32"
        }
      ],
      "name": "getRoleAdmin",
      "outputs": [
        {
          "internalType": "bytes32",
          "name": "",
          "type": "bytes32"
        }
      ],
      "stateMutability": "view",
      "type": "function"
    },
    {
      "inputs": [],
      "name": "getStatistics",
      "outputs": [
        {
          "internalType": "uint256",
          "name": "totalRevocations",
          "type": "uint256"
        },
        {
          "internalType": "uint256",
          "name": "totalCorrected",
          "type": "uint256"
        },
        {
          "internalType": "uint256",
          "name": "totalSimpleRevocations",
          "type": "uint256"
        }
      ],
      "stateMutability": "view",
      "type": "function"
    },
    {
      "inputs": [],
      "name": "getTotalRevocations",
      "outputs": [
        {
          "internalType": "uint256",
          "name": "count",
          "type": "uint256"
        }
      ],
      "stateMutability": "view",
      "type": "function"
    },
    {
      "inputs": [
        {
          "internalType": "bytes32",
          "name": "role",
          "type": "bytes32"
        },
        {
          "internalType": "address",
          "name": "account",
          "type": "address"
        }
      ],
      "name": "grantRole",
      "outputs": [],
      "stateMutability": "nonpayable",
      "type": "function"
    },
    {
      "inputs": [
        {
          "internalType": "bytes32",
          "name": "role",
          "type": "bytes32"
        },
        {
          "internalType": "address",
          "name": "account",
          "type": "address"
        }
      ],
      "name": "hasRole",
      "outputs": [
        {
          "internalType": "bool",
          "name": "",
          "type": "bool"
        }
      ],
      "stateMutability": "view",
      "type": "function"
    },
    {
      "inputs": [
        {
          "internalType": "bytes32",
          "name": "_certificateHash",
          "type": "bytes32"
        }
      ],
      "name": "isCertificateCorrected",
      "outputs": [
        {
          "internalType": "bool",
          "name": "isCorrected",
          "type": "bool"
        }
      ],
      "stateMutability": "view",
      "type": "function"
    },
    {
      "inputs": [
        {
          "internalType": "bytes32",
          "name": "_certificateHash",
          "type": "bytes32"
        }
      ],
      "name": "isRevoked",
      "outputs": [
        {
          "internalType": "bool",
          "name": "",
          "type": "bool"
        }
      ],
      "stateMutability": "view",
      "type": "function"
    },
    {
      "inputs": [
        {
          "internalType": "bytes32",
          "name": "role",
          "type": "bytes32"
        },
        {
          "internalType": "address",
          "name": "callerConfirmation",
          "type": "address"
        }
      ],
      "name": "renounceRole",
      "outputs": [],
      "stateMutability": "nonpayable",
      "type": "function"
    },
    {
      "inputs": [
        {
          "internalType": "bytes32",
          "name": "_certificateHash",
          "type": "bytes32"
        },
        {
          "internalType": "string",
          "name": "_reason",
          "type": "string"
        }
      ],
      "name": "revokeCertificate",
      "outputs": [],
      "stateMutability": "nonpayable",
      "type": "function"
    },
    {
      "inputs": [
        {
          "internalType": "bytes32",
          "name": "role",
          "type": "bytes32"
        },
        {
          "internalType": "address",
          "name": "account",
          "type": "address"
        }
      ],
      "name": "revokeRole",
      "outputs": [],
      "stateMutability": "nonpayable",
      "type": "function"
    },
    {
      "inputs": [
        {
          "internalType": "bytes4",
          "name": "interfaceId",
          "type": "bytes4"
        }
      ],
      "name": "supportsInterface",
      "outputs": [
        {
          "internalType": "bool",
          "name": "",
          "type": "bool"
        }
      ],
      "stateMutability": "view",
      "type": "function"
    }
  ],
  "bytecode": "0x6080346200009557601f6200174a38819003918201601f19168301916001600160401b038311848410176200009a578084926020946040528339810103126200009557516001600160a01b0381168082036200009557156200008357806200006b6200007292620000b0565b5062000130565b506040516115579081620001d38239f35b60405163d92e233d60e01b8152600490fd5b600080fd5b634e487b7160e01b600052604160045260246000fd5b6001600160a01b031660008181527fad3228b676f7d3cd4284a5443f17f1962b36e491b30a40b2405849e597ba5fb5602052604081205490919060ff166200012c57818052816020526040822081835260205260408220600160ff1982541617905533916000805160206200172a8339815191528180a4600190565b5090565b6001600160a01b031660008181527fcef3a433619e8274f84bbe9ad5323e8b252fcf8ed48affbce8d2049d944ea6de60205260408120549091907fb346b2ddc13f08bd9685b83a95304a79a2caac0aa7aa64129e1ae9f4361b46619060ff16620001cd57808352826020526040832082845260205260408320600160ff198254161790556000805160206200172a833981519152339380a4600190565b50509056fe608060408181526004908136101561001657600080fd5b600092833560e01c90816301ffc9a714611086575080631405e7cf14611067578063217cd91b14611012578063248a9ca314610fe857806326568c4014610d315780632f2ff15d14610d0957806336568abe14610cc2578063372d6b2714610c0c5780633ac43398146108eb5780634294857f146108be5780635503f593146108465780635bf4adfb1461055c57806373a8ce8b146103ee57806391d14854146103a857806398408a4314610321578063a217fddf14610302578063d547741f146102c5578063dec6ac4e1461029c5763f6593f66146100f557600080fd5b3461029857602092836003193601126102955782358160a08451610118816110da565b8281528288820152828682015260608082015282608082015201528082526002855260ff83832054161561028057815260018085528282209083519461015d866110da565b82548652818301549287870193845260028101549486880195865288600383018851958382549261018d846113e9565b808a529383811690811561025c5750600114610224575b5050505050906101bb84610210959493038461110c565b60608801928352015493608087019560018060a01b0394858716885260ff60a08a019760a01c16151587528151998a99818b5251908a015251908801525160608701525160c0608087015260e0860190611231565b92511660a084015251151560c08301520390f35b9080949550528383205b8284106102495750505084010188846102106101bb386101a4565b805488850186015292840192810161022e565b60ff1916868b015250505050151560051b850101905088846102106101bb386101a4565b836024918451916248f34d60e51b8352820152fd5b80fd5b8280fd5b50823461029557602036600319011261029557506102bc602092356114cf565b90519015158152f35b50346102985780600319360112610298576102fe91356102f960016102e86111bd565b9383875286602052862001546112d0565b611374565b5080f35b83823461031d578160031936011261031d5751908152602090f35b5080fd5b503461029857602091826003193601126103a457356001600160a01b038116908190036103a4578352600382528083209281518093808654928381520195835280832092905b82821061038d57610389868661037f828b038361110c565b51918291826111d3565b0390f35b835487529586019560019384019390910190610367565b8380fd5b5090346102985781600319360112610298578160209360ff926103c96111bd565b903582528186528282206001600160a01b039091168252855220549151911615158152f35b5091903461031d57602092836003193601126102985781358084526002855260ff828520541615610548578352600180855281842082519261042f846110da565b81548452828201549487850195865260028301549282860193845260038101898451968a83549361045f856113e9565b808b529483811690811561052357506001146104e7575b505050505061048c856104dd979899038661110c565b84606088015201549060ff60018060a01b0383169283608089015260a01c161515958660a082015251965192519281519889988952880152860152606085015260c0608085015260c0840190611231565b9060a08301520390f35b908094939c50528a83205b8284106105105750505085019097019661048c896104dd8738610476565b80548985018d0152928b019281016104f2565b60ff1916858c01525050505090151560051b860101975061048c896104dd8738610476565b90516248f34d60e51b815291820152602490fd5b5082903461031d5761056d3661118a565b610575611256565b81156108365780511561082657610200815111610816578184526020906002825260ff84862054166107ff5783516105ac816110da565b838152828101908682528581014281526060820198848a52608083019233845260a08101928a8452888b526001958689528a8c20925183555186830155516002820155600381019a519a8b5167ffffffffffffffff81116107ec5761061182546113e9565b601f81116107aa575b508b809d8c9d9c9a9b9c508b91601f84116001146107075792806000805160206115028339815191529d9b9996936106f69b9996936106a39996926106fc575b5050600019600383901b1c191690881b1790555b92519201805491516001600160a81b03199092166001600160a01b03939093169290921790151560a01b60ff60a01b16179055565b868952600284528489209060ff19825416179055338852600383526106ca86858a20611481565b6106d386611423565b6106de6005546114aa565b60055583519384934285528401523396830190611231565b0390a380f35b01519050388061065a565b90601f9c9a99989796959493929c1983168483528b8320925b81811061077757509289989694926000805160206115028339815191529e6106f69c9b93836106a39b99971061075e575b505050811b01905561066e565b015160001960f88460031b161c19169055388080610751565b939597999b8e9597999b9d508c819f948495839495015181550195019301908f9c9a98969492919d9b999795939d610720565b828d52898d20601f830160051c8101918b84106107e2575b601f0160051c01905b8181106107d8575061061a565b8d815588016107cb565b90915081906107c2565b634e487b7160e01b8c526041845260248cfd5b83516390315de160e01b8152808701849052602490fd5b825163b4fa3fb360e01b81528590fd5b825163ecd7b0d160e01b81528590fd5b8251635006807360e11b81528590fd5b5082903461031d578160031936011261031d578051918284549081815260208091019583527f8a35acfbc15ff81a39ae7d344fd709f28e8600b4aa8c65c6b64bfe7fe36bd19b92905b8282106108a757610389868661037f828b038361110c565b83548752958601956001938401939091019061088f565b509034610298576020366003190112610298578160209360ff923581526002855220541690519015158152f35b5082903461031d57606036600319011261031d5767ffffffffffffffff926044358481116103a457610920903690830161112e565b91610929611256565b81359182158015610c02575b610bf457835115610be657610200845111610bd8578285526020936002855260ff83872054166000146109ed57509091848194959650526001845260ff81838720015460a01c166109d85782855260018085528286206024359181019190915501805460ff60a01b1916600160a01b1790555b51904282527f0bdec61cc56fa0fb6269f7fa5c6eaef0ec0b7566d18a3563592237135761ed45339360243593a480f35b826024925191630524e3b160e31b8352820152fd5b82516109f8816110da565b8481528581019260243584528482019142835260608101938452608081019333855260a0820193600196878652898c52878b52888c2093518455518784015551600283015551998a51908111610bc5576003820190610a5782546113e9565b601f8111610b7f575b5089601f8211600114610b145781908c9d610ac6999a9b9c9d92610b09575050600019600383901b1c191690881b17905592519201805491516001600160a81b03199092166001600160a01b03939093169290921790151560a01b60ff60a01b16179055565b828552600284528185209060ff1982541617905533845260038352610aed82828620611481565b610af682611423565b610b016005546114aa565b6005556109a8565b015190508d8061065a565b828c528a8c209c601f1983168d5b818110610b64575091899a9b9c9d9e9184610ac69b959410610b4b57505050811b01905561066e565b015160001960f88460031b161c191690558d8080610751565b919e8f8b8f928684930151815501940192019e91929e610b22565b828c528a8c20601f830160051c8101918c8410610bbb575b601f0160051c019088905b828110610bb0575050610a60565b8d8155018890610ba2565b9091508190610b97565b634e487b7160e01b8a526041835260248afd5b905163b4fa3fb360e01b8152fd5b905163ecd7b0d160e01b8152fd5b9051635006807360e11b8152fd5b5060243515610935565b5082346102955780600319360112610295576005549181828554905b818110610c6357505080840392848411610c5057506060945081519384526020840152820152f35b634e487b7160e01b815260118652602490fd5b807f8a35acfbc15ff81a39ae7d344fd709f28e8600b4aa8c65c6b64bfe7fe36bd19b01548552600160205260ff87858720015460a01c16610cad575b610ca8906114aa565b610c28565b91610cba610ca8916114aa565b929050610c9f565b5082903461031d578060031936011261031d57610cdd6111bd565b90336001600160a01b03831603610cfa57506102fe919235611374565b5163334bd91960e11b81528390fd5b50346102985780600319360112610298576102fe9135610d2c60016102e86111bd565b6112f6565b5082903461031d57610d423661118a565b7fb346b2ddc13f08bd9685b83a95304a79a2caac0aa7aa64129e1ae9f4361b466190818552602091858352848620338752835260ff858720541615610fca57508215610fba57805115610faa578285526002825260ff84862054166107ff578351956b02da2a6a2a923a2a721acae960a51b83880152610ddf602c888451610dcf8184840189890161120e565b810103600c81018a52018861110c565b8451610dea816110da565b848152838101918783528682019042825260608301998a52608083019233845260a08101928a8452888b526001958689528a8c20925183555186830155516002820155600381019a519a8b5167ffffffffffffffff81116107ec57610e4f82546113e9565b601f8111610f68575b508b809d8c9d9c9a9b9c508b91601f8411600114610edf5792806000805160206115028339815191529d9b9996936106f69b9996936106a39996926106fc575050600019600383901b1c191690881b17905592519201805491516001600160a81b03199092166001600160a01b03939093169290921790151560a01b60ff60a01b16179055565b90601f9c9a99989796959493929c1983168483528b8320925b818110610f3557509289989694926000805160206115028339815191529e6106f69c9b93836106a39b99971061075e57505050811b01905561066e565b939597999b8e9597999b9d508c819f948495839495015181550195019301908f9c9a98969492919d9b999795939d610ef8565b828d52898d20601f830160051c8101918b8410610fa0575b601f0160051c01905b818110610f965750610e58565b8d81558801610f89565b9091508190610f80565b835163ecd7b0d160e01b81528690fd5b8351635006807360e11b81528690fd5b845163e2517d3f60e01b815233818901526024810191909152604490fd5b50903461029857602036600319011261029857816020936001923581528085522001549051908152f35b50903461029857602036600319011261029857803590818452600260205260ff83852054161561105357508183600192602095528285522001549051908152f35b91516248f34d60e51b815291820152602490fd5b83823461031d578160031936011261031d576020906005549051908152f35b84908434610298576020366003190112610298573563ffffffff60e01b81168091036102985760209250637965db0b60e01b81149081156110c9575b5015158152f35b6301ffc9a760e01b149050836110c2565b60c0810190811067ffffffffffffffff8211176110f657604052565b634e487b7160e01b600052604160045260246000fd5b90601f8019910116810190811067ffffffffffffffff8211176110f657604052565b81601f820112156111855780359067ffffffffffffffff82116110f65760405192611163601f8401601f19166020018561110c565b8284526020838301011161118557816000926020809301838601378301015290565b600080fd5b90604060031983011261118557600435916024359067ffffffffffffffff8211611185576111ba9160040161112e565b90565b602435906001600160a01b038216820361118557565b6020908160408183019282815285518094520193019160005b8281106111fa575050505090565b8351855293810193928101926001016111ec565b60005b8381106112215750506000910152565b8181015183820152602001611211565b9060209161124a8151809281855285808601910161120e565b601f01601f1916010190565b3360009081527f75a62d95ad9fef7bba5c4dde6e3ff662d5c539a6d57cb138a3d5c2f3a42773ff60205260409020547f4b90e70a23ad1c016cdba1a015076c2de977e305fcad3881690cafbe99d361909060ff16156112b25750565b6044906040519063e2517d3f60e01b82523360048301526024820152fd5b80600052600060205260406000203360005260205260ff60406000205416156112b25750565b9060009180835282602052604083209160018060a01b03169182845260205260ff6040842054161560001461136f57808352826020526040832082845260205260408320600160ff198254161790557f2f8788117e7eff1d82e926ec794901d17c78024a50270940304540a733656f0d339380a4600190565b505090565b9060009180835282602052604083209160018060a01b03169182845260205260ff60408420541660001461136f5780835282602052604083208284526020526040832060ff1981541690557ff6391f5c32d9c69d2a47ea670b442974b53935d1edc7fd64eb21e047a839171b339380a4600190565b90600182811c92168015611419575b602083101461140357565b634e487b7160e01b600052602260045260246000fd5b91607f16916113f8565b600454600160401b8110156110f657600181018060045581101561146b5760046000527f8a35acfbc15ff81a39ae7d344fd709f28e8600b4aa8c65c6b64bfe7fe36bd19b0155565b634e487b7160e01b600052603260045260246000fd5b805490600160401b8210156110f6576001820180825582101561146b5760005260206000200155565b60001981146114b95760010190565b634e487b7160e01b600052601160045260246000fd5b600052600260205260ff60406000205416156114fc57600160205260ff60046040600020015460a01c1690565b60009056fe2dc910602b63b3a70fad6ced1f1ec487c86fc854530555b5fce6c82ebbd1604ea26469706673582212209e8c5abfc01c5a67d55b20d711424af4ba5a57b14065d2739d5f4e8382a2774064736f6c634300081400332f8788117e7eff1d82e926ec794901d17c78024a50270940304540a733656f0d",
  "linkReferences": {},
  "deployedLinkReferences": {}
}