{"src/bc-cvs/BloomFilter.sol":{"BloomFilter":{"abi":[{"inputs":[{"internalType":"address","name":"_admin","type":"address"}],"stateMutability":"nonpayable","type":"constructor"},{"inputs":[],"name":"AccessControlBadConfirmation","type":"error"},{"inputs":[{"internalType":"address","name":"account","type":"address"},{"internalType":"bytes32","name":"neededRole","type":"bytes32"}],"name":"AccessControlUnauthorizedAccount","type":"error"},{"inputs":[],"name":"EmptyBatchOperation","type":"error"},{"inputs":[{"internalType":"uint256","name":"index","type":"uint256"}],"name":"InvalidBitIndex","type":"error"},{"inputs":[],"name":"InvalidCertificateHash","type":"error"},{"inputs":[],"name":"ZeroAddress","type":"error"},{"anonymous":false,"inputs":[{"indexed":true,"internalType":"address","name":"admin","type":"address"},{"indexed":false,"internalType":"uint256","name":"timestamp","type":"uint256"}],"name":"BloomFilterReset","type":"event"},{"anonymous":false,"inputs":[{"indexed":true,"internalType":"bytes32","name":"element","type":"bytes32"},{"indexed":true,"internalType":"uint256","name":"index","type":"uint256"},{"indexed":false,"internalType":"uint256","name":"timestamp","type":"uint256"}],"name":"ElementAdded","type":"event"},{"anonymous":false,"inputs":[{"indexed":true,"internalType":"bytes32","name":"role","type":"bytes32"},{"indexed":true,"internalType":"bytes32","name":"previousAdminRole","type":"bytes32"},{"indexed":true,"internalType":"bytes32","name":"newAdminRole","type":"bytes32"}],"name":"RoleAdminChanged","type":"event"},{"anonymous":false,"inputs":[{"indexed":true,"internalType":"bytes32","name":"role","type":"bytes32"},{"indexed":true,"internalType":"address","name":"account","type":"address"},{"indexed":true,"internalType":"address","name":"sender","type":"address"}],"name":"RoleGranted","type":"event"},{"anonymous":false,"inputs":[{"indexed":true,"internalType":"bytes32","name":"role","type":"bytes32"},{"indexed":true,"internalType":"address","name":"account","type":"address"},{"indexed":true,"internalType":"address","name":"sender","type":"address"}],"name":"RoleRevoked","type":"event"},{"anonymous":false,"inputs":[{"indexed":false,"internalType":"uint256","name":"totalElements","type":"uint256"},{"indexed":false,"internalType":"uint256","name":"timestamp","type":"uint256"}],"name":"StatisticsUpdated","type":"event"},{"inputs":[],"name":"ARRAY_SIZE","outputs":[{"internalType":"uint256","name":"","type":"uint256"}],"stateMutability":"view","type":"function"},{"inputs":[],"name":"DEFAULT_ADMIN_ROLE","outputs":[{"internalType":"bytes32","name":"","type":"bytes32"}],"stateMutability":"view","type":"function"},{"inputs":[],"name":"TOTAL_BITS","outputs":[{"internalType":"uint256","name":"","type":"uint256"}],"stateMutability":"view","type":"function"},{"inputs":[{"internalType":"bytes32","name":"_hash","type":"bytes32"}],"name":"add","outputs":[],"stateMutability":"nonpayable","type":"function"},{"inputs":[{"internalType":"bytes32[]","name":"_hashes","type":"bytes32[]"}],"name":"addBatch","outputs":[],"stateMutability":"nonpayable","type":"function"},{"inputs":[{"internalType":"bytes32","name":"_hash","type":"bytes32"}],"name":"check","outputs":[{"internalType":"bool","name":"mightExist","type":"bool"}],"stateMutability":"view","type":"function"},{"inputs":[{"internalType":"bytes32[]","name":"_hashes","type":"bytes32[]"}],"name":"checkBatch","outputs":[{"internalType":"bool[]","name":"results","type":"bool[]"}],"stateMutability":"view","type":"function"},{"inputs":[],"name":"getBitArraySize","outputs":[{"internalType":"uint256","name":"size","type":"uint256"}],"stateMutability":"pure","type":"function"},{"inputs":[{"internalType":"bytes32","name":"_hash","type":"bytes32"}],"name":"getIndex","outputs":[{"internalType":"uint256","name":"index","type":"uint256"}],"stateMutability":"pure","type":"function"},{"inputs":[{"internalType":"bytes32","name":"role","type":"bytes32"}],"name":"getRoleAdmin","outputs":[{"internalType":"bytes32","name":"","type":"bytes32"}],"stateMutability":"view","type":"function"},{"inputs":[],"name":"getStatistics","outputs":[{"internalType":"uint256","name":"totalBits","type":"uint256"},{"internalType":"uint256","name":"elementsAdded","type":"uint256"},{"internalType":"uint256","name":"fillRate","type":"uint256"}],"stateMutability":"view","type":"function"},{"inputs":[],"name":"getTotalElements","outputs":[{"internalType":"uint256","name":"count","type":"uint256"}],"stateMutability":"view","type":"function"},{"inputs":[{"internalType":"address","name":"_manager","type":"address"}],"name":"grantManagerRole","outputs":[],"stateMutability":"nonpayable","type":"function"},{"inputs":[{"internalType":"bytes32","name":"role","type":"bytes32"},{"internalType":"address","name":"account","type":"address"}],"name":"grantRole","outputs":[],"stateMutability":"nonpayable","type":"function"},{"inputs":[{"internalType":"bytes32","name":"role","type":"bytes32"},{"internalType":"address","name":"account","type":"address"}],"name":"hasRole","outputs":[{"internalType":"bool","name":"","type":"bool"}],"stateMutability":"view","type":"function"},{"inputs":[{"internalType":"bytes32","name":"role","type":"bytes32"},{"internalType":"address","name":"callerConfirmation","type":"address"}],"name":"renounceRole","outputs":[],"stateMutability":"nonpayable","type":"function"},{"inputs":[],"name":"reset","outputs":[],"stateMutability":"nonpayable","type":"function"},{"inputs":[{"internalType":"address","name":"_manager","type":"address"}],"name":"revokeManagerRole","outputs":[],"stateMutability":"nonpayable","type":"function"},{"inputs":[{"internalType":"bytes32","name":"role","type":"bytes32"},{"internalType":"address","name":"account","type":"address"}],"name":"revokeRole","outputs":[],"stateMutability":"nonpayable","type":"function"},{"inputs":[{"internalType":"bytes4","name":"interfaceId","type":"bytes4"}],"name":"supportsInterface","outputs":[{"internalType":"bool","name":"","type":"bool"}],"stateMutability":"view","type":"function"},{"inputs":[{"internalType":"bytes32","name":"_hash","type":"bytes32"}],"name":"wasExplicitlyAdded","outputs":[{"internalType":"bool","name":"wasAdded","type":"bool"}],"stateMutability":"view","type":"function"}],"evm":{"bytecode":{"linkReferences":{},"object":"60803461009457601f610fb638819003918201601f19168301916001600160401b038311848410176100995780849260209460405283398101031261009457516001600160a01b03811680820361009457156100825780610062610072926100af565b5061006c8161012d565b506101cd565b50604051610d2d90816102698239f35b60405163d92e233d60e01b8152600490fd5b600080fd5b634e487b7160e01b600052604160045260246000fd5b6001600160a01b031660008181527fad3228b676f7d3cd4284a5443f17f1962b36e491b30a40b2405849e597ba5fb5602052604081205490919060ff1661012957818052816020526040822081835260205260408220600160ff198254161790553391600080516020610f968339815191528180a4600190565b5090565b6001600160a01b031660008181527fcef3a433619e8274f84bbe9ad5323e8b252fcf8ed48affbce8d2049d944ea6de60205260408120549091907fb346b2ddc13f08bd9685b83a95304a79a2caac0aa7aa64129e1ae9f4361b46619060ff166101c857808352826020526040832082845260205260408320600160ff19825416179055600080516020610f96833981519152339380a4600190565b505090565b6001600160a01b031660008181527fe466daab6bb65a41449e91bfac16f15530d3e7df6c277e389842463c9c78f96560205260408120549091907f502392af4b20018a8e94aec3e8c015aa38c7090fe5e5b7ecbb16f99c3a1ec14d9060ff166101c857808352826020526040832082845260205260408320600160ff19825416179055600080516020610f96833981519152339380a460019056fe608060408181526004918236101561001657600080fd5b600092833560e01c91826301ffc9a71461078b57508163245c7ee61461076e578163248a9ca31461074457816326e885e3146107075781632f2ff15d146106dd57816336568abe14610697578163372d6b271461061a578163399e0792146105f1578163446bffba1461054a578163735c4cb9146103155781637aa63a861461052a5781638527831b1461050357816391d14854146104bd57816397168c2f1461037c57816398a51e5d1461034e578163a217fddf14610333578163ac9a748f14610315578163be4dc94f146102cb578163d547741f1461028857508063d826f88f146101ee5763f81a8f1e1461010c57600080fd5b346101ea5761011a36610863565b805161013961013061012b8361084b565b61080f565b9180835261084b565b6020939082850190601f1901368237855b84518110156101a957806101616101939287610c44565b51156101985761017f627fffff6101788389610c44565b5116610ccd565b6101898287610c44565b9015159052610c1f565b61014a565b876101a38287610c44565b52610c1f565b5081518581528351818701819052909283929083019187895b8281106101d157505050500390f35b83511515855286955093810193928101926001016101c2565b5080fd5b50346101ea57816003193601126101ea576102076108d8565b815b618000811061027457507f338f67e2968e67831be923fa5195d483621b5773680f59506aca37ca7be148fa90826180015580514281527f4fc82f9ae74bf06d68b7ccb0bbc5f809919ed02e4eed4642499e5d597a3cef9160203392a28051838152426020820152a180f35b80836102839260010155610c1f565b610209565b919050346102c757806003193601126102c7576102c391356102be60016102ad6107f9565b9383875286602052862001546109ae565b610baa565b5080f35b8280fd5b9050346102c75760203660031901126102c7576102e66107de565b916102ef6108d8565b6001600160a01b0383161561030857836102c384610aff565b5163d92e233d60e01b8152fd5b5050346101ea57816003193601126101ea5760209051628000008152f35b5050346101ea57816003193601126101ea5751908152602090f35b9050346102c75760203660031901126102c7578160209360ff92358152618002855220541690519015158152f35b919050346102c75761038d36610863565b90610396610952565b8151156104ae57835b8251811015610478576103b28184610c44565b51156104685780627fffff6103ca6104319386610c44565b51166103d581610c8b565b6103df8286610c44565b51875261800260209080825260ff868a20541615610436575b507f018fc6e41869aeb9db060f0f058a1cddfb10fa9d315dbdae82caddd74026054a6104248488610c44565b51918651428152a3610c1f565b61039f565b6104408488610c44565b5189528152848820600160ff198254161790556180016104608154610c1f565b9055386103f8565b8151635006807360e11b81528490fd5b847f338f67e2968e67831be923fa5195d483621b5773680f59506aca37ca7be148fa83618001548151908152426020820152a180f35b51631b87119360e31b81529050fd5b9050346102c757816003193601126102c7578160209360ff926104de6107f9565b903582528186528282206001600160a01b039091168252855220549151911615158152f35b905082346105275760203660031901126105275750627fffff602092519135168152f35b80fd5b5050346101ea57816003193601126101ea57602090618001549051908152f35b9050346102c75760203660031901126102c757803590610568610952565b81156105e357507f018fc6e41869aeb9db060f0f058a1cddfb10fa9d315dbdae82caddd74026054a6020627fffff8316936105a285610c8b565b8386526180028252808620805460ff8116156105c3575b505051428152a380f35b60ff1916600117905561800180546105da90610c1f565b905538806105b9565b8251635006807360e11b8152fd5b828434610527576020366003190112610527575061061160209235610c6e565b90519015158152f35b8383346101ea57816003193601126101ea5761800154918261064f5760609350905b8051926280000084526020840152820152f35b6280000083111561066757506060925060649061063c565b606483029083820460640361068457506060935060171c9061063c565b634e487b7160e01b815260118552602490fd5b8383346101ea57806003193601126101ea576106b16107f9565b90336001600160a01b038316036106ce57506102c3919235610baa565b5163334bd91960e11b81528390fd5b919050346102c757806003193601126102c7576102c3913561070260016102ad6107f9565b610a86565b9050346102c75760203660031901126102c7576107226107de565b9161072b6108d8565b6001600160a01b0383161561030857836102c3846109d4565b9050346102c75760203660031901126102c757816020936001923581528085522001549051908152f35b5050346101ea57816003193601126101ea57602090516180008152f35b8491346102c75760203660031901126102c7573563ffffffff60e01b81168091036102c75760209250637965db0b60e01b81149081156107cd575b5015158152f35b6301ffc9a760e01b149050836107c6565b600435906001600160a01b03821682036107f457565b600080fd5b602435906001600160a01b03821682036107f457565b6040519190601f01601f1916820167ffffffffffffffff81118382101761083557604052565b634e487b7160e01b600052604160045260246000fd5b67ffffffffffffffff81116108355760051b60200190565b6020806003198301126107f4576004359167ffffffffffffffff83116107f457806023840112156107f457826004013561089f61012b8261084b565b9360248486848152019260051b8201019283116107f457602401905b8282106108c9575050505090565b813581529083019083016108bb565b3360009081527fcef3a433619e8274f84bbe9ad5323e8b252fcf8ed48affbce8d2049d944ea6de60205260409020547fb346b2ddc13f08bd9685b83a95304a79a2caac0aa7aa64129e1ae9f4361b46619060ff16156109345750565b6044906040519063e2517d3f60e01b82523360048301526024820152fd5b3360009081527fe466daab6bb65a41449e91bfac16f15530d3e7df6c277e389842463c9c78f96560205260409020547f502392af4b20018a8e94aec3e8c015aa38c7090fe5e5b7ecbb16f99c3a1ec14d9060ff16156109345750565b80600052600060205260406000203360005260205260ff60406000205416156109345750565b6001600160a01b031660008181527fe466daab6bb65a41449e91bfac16f15530d3e7df6c277e389842463c9c78f96560205260408120549091907f502392af4b20018a8e94aec3e8c015aa38c7090fe5e5b7ecbb16f99c3a1ec14d9060ff16610a8157808352826020526040832082845260205260408320600160ff198254161790557f2f8788117e7eff1d82e926ec794901d17c78024a50270940304540a733656f0d339380a4600190565b505090565b9060009180835282602052604083209160018060a01b03169182845260205260ff60408420541615600014610a8157808352826020526040832082845260205260408320600160ff198254161790557f2f8788117e7eff1d82e926ec794901d17c78024a50270940304540a733656f0d339380a4600190565b6001600160a01b031660008181527fe466daab6bb65a41449e91bfac16f15530d3e7df6c277e389842463c9c78f96560205260408120549091907f502392af4b20018a8e94aec3e8c015aa38c7090fe5e5b7ecbb16f99c3a1ec14d9060ff1615610a815780835282602052604083208284526020526040832060ff1981541690557ff6391f5c32d9c69d2a47ea670b442974b53935d1edc7fd64eb21e047a839171b339380a4600190565b9060009180835282602052604083209160018060a01b03169182845260205260ff604084205416600014610a815780835282602052604083208284526020526040832060ff1981541690557ff6391f5c32d9c69d2a47ea670b442974b53935d1edc7fd64eb21e047a839171b339380a4600190565b6000198114610c2e5760010190565b634e487b7160e01b600052601160045260246000fd5b8051821015610c585760209160051b010190565b634e487b7160e01b600052603260045260246000fd5b8015610c8557627fffff610c829116610ccd565b90565b50600090565b62800000811015610cb5578060081c618000811015610c585760ff600191820192161b8154179055565b6024906040519063492e683f60e11b82526004820152fd5b62800000811015610c85578060081c618000811015610c585760ff60019182015492161b1615159056fea2646970667358221220998ef918418c1e934ae58fe650e223613251bdfc006a1aaf8fd8472ef564320664736f6c634300081400332f8788117e7eff1d82e926ec794901d17c78024a50270940304540a733656f0d","opcodes":"PUSH1 0x80 CALLVALUE PUSH2 0x94 JUMPI PUSH1 0x1F PUSH2 0xFB6 CODESIZE DUP2 SWAP1 SUB SWAP2 DUP3 ADD PUSH1 0x1F NOT AND DUP4 ADD SWAP2 PUSH1 0x1 PUSH1 0x1 PUSH1 0x40 SHL SUB DUP4 GT DUP5 DUP5 LT OR PUSH2 0x99 JUMPI DUP1 DUP5 SWAP3 PUSH1 0x20 SWAP5 PUSH1 0x40 MSTORE DUP4 CODECOPY DUP2 ADD SUB SLT PUSH2 0x94 JUMPI MLOAD PUSH1 0x1 PUSH1 0x1 PUSH1 0xA0 SHL SUB DUP2 AND DUP1 DUP3 SUB PUSH2 0x94 JUMPI ISZERO PUSH2 0x82 JUMPI DUP1 PUSH2 0x62 PUSH2 0x72 SWAP3 PUSH2 0xAF JUMP JUMPDEST POP PUSH2 0x6C DUP2 PUSH2 0x12D JUMP JUMPDEST POP PUSH2 0x1CD JUMP JUMPDEST POP PUSH1 0x40 MLOAD PUSH2 0xD2D SWAP1 DUP2 PUSH2 0x269 DUP3 CODECOPY RETURN JUMPDEST PUSH1 0x40 MLOAD PUSH4 0xD92E233D PUSH1 0xE0 SHL DUP2 MSTORE PUSH1 0x4 SWAP1 REVERT JUMPDEST PUSH1 0x0 DUP1 REVERT JUMPDEST PUSH4 0x4E487B71 PUSH1 0xE0 SHL PUSH1 0x0 MSTORE PUSH1 0x41 PUSH1 0x4 MSTORE PUSH1 0x24 PUSH1 0x0 REVERT JUMPDEST PUSH1 0x1 PUSH1 0x1 PUSH1 0xA0 SHL SUB AND PUSH1 0x0 DUP2 DUP2 MSTORE PUSH32 0xAD3228B676F7D3CD4284A5443F17F1962B36E491B30A40B2405849E597BA5FB5 PUSH1 0x20 MSTORE PUSH1 0x40 DUP2 KECCAK256 SLOAD SWAP1 SWAP2 SWAP1 PUSH1 0xFF AND PUSH2 0x129 JUMPI DUP2 DUP1 MSTORE DUP2 PUSH1 0x20 MSTORE PUSH1 0x40 DUP3 KECCAK256 DUP2 DUP4 MSTORE PUSH1 0x20 MSTORE PUSH1 0x40 DUP3 KECCAK256 PUSH1 0x1 PUSH1 0xFF NOT DUP3 SLOAD AND OR SWAP1 SSTORE CALLER SWAP2 PUSH1 0x0 DUP1 MLOAD PUSH1 0x20 PUSH2 0xF96 DUP4 CODECOPY DUP2 MLOAD SWAP2 MSTORE DUP2 DUP1 LOG4 PUSH1 0x1 SWAP1 JUMP JUMPDEST POP SWAP1 JUMP JUMPDEST PUSH1 0x1 PUSH1 0x1 PUSH1 0xA0 SHL SUB AND PUSH1 0x0 DUP2 DUP2 MSTORE PUSH32 0xCEF3A433619E8274F84BBE9AD5323E8B252FCF8ED48AFFBCE8D2049D944EA6DE PUSH1 0x20 MSTORE PUSH1 0x40 DUP2 KECCAK256 SLOAD SWAP1 SWAP2 SWAP1 PUSH32 0xB346B2DDC13F08BD9685B83A95304A79A2CAAC0AA7AA64129E1AE9F4361B4661 SWAP1 PUSH1 0xFF AND PUSH2 0x1C8 JUMPI DUP1 DUP4 MSTORE DUP3 PUSH1 0x20 MSTORE PUSH1 0x40 DUP4 KECCAK256 DUP3 DUP5 MSTORE PUSH1 0x20 MSTORE PUSH1 0x40 DUP4 KECCAK256 PUSH1 0x1 PUSH1 0xFF NOT DUP3 SLOAD AND OR SWAP1 SSTORE PUSH1 0x0 DUP1 MLOAD PUSH1 0x20 PUSH2 0xF96 DUP4 CODECOPY DUP2 MLOAD SWAP2 MSTORE CALLER SWAP4 DUP1 LOG4 PUSH1 0x1 SWAP1 JUMP JUMPDEST POP POP SWAP1 JUMP JUMPDEST PUSH1 0x1 PUSH1 0x1 PUSH1 0xA0 SHL SUB AND PUSH1 0x0 DUP2 DUP2 MSTORE PUSH32 0xE466DAAB6BB65A41449E91BFAC16F15530D3E7DF6C277E389842463C9C78F965 PUSH1 0x20 MSTORE PUSH1 0x40 DUP2 KECCAK256 SLOAD SWAP1 SWAP2 SWAP1 PUSH32 0x502392AF4B20018A8E94AEC3E8C015AA38C7090FE5E5B7ECBB16F99C3A1EC14D SWAP1 PUSH1 0xFF AND PUSH2 0x1C8 JUMPI DUP1 DUP4 MSTORE DUP3 PUSH1 0x20 MSTORE PUSH1 0x40 DUP4 KECCAK256 DUP3 DUP5 MSTORE PUSH1 0x20 MSTORE PUSH1 0x40 DUP4 KECCAK256 PUSH1 0x1 PUSH1 0xFF NOT DUP3 SLOAD AND OR SWAP1 SSTORE PUSH1 0x0 DUP1 MLOAD PUSH1 0x20 PUSH2 0xF96 DUP4 CODECOPY DUP2 MLOAD SWAP2 MSTORE CALLER SWAP4 DUP1 LOG4 PUSH1 0x1 SWAP1 JUMP INVALID PUSH1 0x80 PUSH1 0x40 DUP2 DUP2 MSTORE PUSH1 0x4 SWAP2 DUP3 CALLDATASIZE LT ISZERO PUSH2 0x16 JUMPI PUSH1 0x0 DUP1 REVERT JUMPDEST PUSH1 0x0 SWAP3 DUP4 CALLDATALOAD PUSH1 0xE0 SHR SWAP2 DUP3 PUSH4 0x1FFC9A7 EQ PUSH2 0x78B JUMPI POP DUP2 PUSH4 0x245C7EE6 EQ PUSH2 0x76E JUMPI DUP2 PUSH4 0x248A9CA3 EQ PUSH2 0x744 JUMPI DUP2 PUSH4 0x26E885E3 EQ PUSH2 0x707 JUMPI DUP2 PUSH4 0x2F2FF15D EQ PUSH2 0x6DD JUMPI DUP2 PUSH4 0x36568ABE EQ PUSH2 0x697 JUMPI DUP2 PUSH4 0x372D6B27 EQ PUSH2 0x61A JUMPI DUP2 PUSH4 0x399E0792 EQ PUSH2 0x5F1 JUMPI DUP2 PUSH4 0x446BFFBA EQ PUSH2 0x54A JUMPI DUP2 PUSH4 0x735C4CB9 EQ PUSH2 0x315 JUMPI DUP2 PUSH4 0x7AA63A86 EQ PUSH2 0x52A JUMPI DUP2 PUSH4 0x8527831B EQ PUSH2 0x503 JUMPI DUP2 PUSH4 0x91D14854 EQ PUSH2 0x4BD JUMPI DUP2 PUSH4 0x97168C2F EQ PUSH2 0x37C JUMPI DUP2 PUSH4 0x98A51E5D EQ PUSH2 0x34E JUMPI DUP2 PUSH4 0xA217FDDF EQ PUSH2 0x333 JUMPI DUP2 PUSH4 0xAC9A748F EQ PUSH2 0x315 JUMPI DUP2 PUSH4 0xBE4DC94F EQ PUSH2 0x2CB JUMPI DUP2 PUSH4 0xD547741F EQ PUSH2 0x288 JUMPI POP DUP1 PUSH4 0xD826F88F EQ PUSH2 0x1EE JUMPI PUSH4 0xF81A8F1E EQ PUSH2 0x10C JUMPI PUSH1 0x0 DUP1 REVERT JUMPDEST CALLVALUE PUSH2 0x1EA JUMPI PUSH2 0x11A CALLDATASIZE PUSH2 0x863 JUMP JUMPDEST DUP1 MLOAD PUSH2 0x139 PUSH2 0x130 PUSH2 0x12B DUP4 PUSH2 0x84B JUMP JUMPDEST PUSH2 0x80F JUMP JUMPDEST SWAP2 DUP1 DUP4 MSTORE PUSH2 0x84B JUMP JUMPDEST PUSH1 0x20 SWAP4 SWAP1 DUP3 DUP6 ADD SWAP1 PUSH1 0x1F NOT ADD CALLDATASIZE DUP3 CALLDATACOPY DUP6 JUMPDEST DUP5 MLOAD DUP2 LT ISZERO PUSH2 0x1A9 JUMPI DUP1 PUSH2 0x161 PUSH2 0x193 SWAP3 DUP8 PUSH2 0xC44 JUMP JUMPDEST MLOAD ISZERO PUSH2 0x198 JUMPI PUSH2 0x17F PUSH3 0x7FFFFF PUSH2 0x178 DUP4 DUP10 PUSH2 0xC44 JUMP JUMPDEST MLOAD AND PUSH2 0xCCD JUMP JUMPDEST PUSH2 0x189 DUP3 DUP8 PUSH2 0xC44 JUMP JUMPDEST SWAP1 ISZERO ISZERO SWAP1 MSTORE PUSH2 0xC1F JUMP JUMPDEST PUSH2 0x14A JUMP JUMPDEST DUP8 PUSH2 0x1A3 DUP3 DUP8 PUSH2 0xC44 JUMP JUMPDEST MSTORE PUSH2 0xC1F JUMP JUMPDEST POP DUP2 MLOAD DUP6 DUP2 MSTORE DUP4 MLOAD DUP2 DUP8 ADD DUP2 SWAP1 MSTORE SWAP1 SWAP3 DUP4 SWAP3 SWAP1 DUP4 ADD SWAP2 DUP8 DUP10 JUMPDEST DUP3 DUP2 LT PUSH2 0x1D1 JUMPI POP POP POP POP SUB SWAP1 RETURN JUMPDEST DUP4 MLOAD ISZERO ISZERO DUP6 MSTORE DUP7 SWAP6 POP SWAP4 DUP2 ADD SWAP4 SWAP3 DUP2 ADD SWAP3 PUSH1 0x1 ADD PUSH2 0x1C2 JUMP JUMPDEST POP DUP1 REVERT JUMPDEST POP CALLVALUE PUSH2 0x1EA JUMPI DUP2 PUSH1 0x3 NOT CALLDATASIZE ADD SLT PUSH2 0x1EA JUMPI PUSH2 0x207 PUSH2 0x8D8 JUMP JUMPDEST DUP2 JUMPDEST PUSH2 0x8000 DUP2 LT PUSH2 0x274 JUMPI POP PUSH32 0x338F67E2968E67831BE923FA5195D483621B5773680F59506ACA37CA7BE148FA SWAP1 DUP3 PUSH2 0x8001 SSTORE DUP1 MLOAD TIMESTAMP DUP2 MSTORE PUSH32 0x4FC82F9AE74BF06D68B7CCB0BBC5F809919ED02E4EED4642499E5D597A3CEF91 PUSH1 0x20 CALLER SWAP3 LOG2 DUP1 MLOAD DUP4 DUP2 MSTORE TIMESTAMP PUSH1 0x20 DUP3 ADD MSTORE LOG1 DUP1 RETURN JUMPDEST DUP1 DUP4 PUSH2 0x283 SWAP3 PUSH1 0x1 ADD SSTORE PUSH2 0xC1F JUMP JUMPDEST PUSH2 0x209 JUMP JUMPDEST SWAP2 SWAP1 POP CALLVALUE PUSH2 0x2C7 JUMPI DUP1 PUSH1 0x3 NOT CALLDATASIZE ADD SLT PUSH2 0x2C7 JUMPI PUSH2 0x2C3 SWAP2 CALLDATALOAD PUSH2 0x2BE PUSH1 0x1 PUSH2 0x2AD PUSH2 0x7F9 JUMP JUMPDEST SWAP4 DUP4 DUP8 MSTORE DUP7 PUSH1 0x20 MSTORE DUP7 KECCAK256 ADD SLOAD PUSH2 0x9AE JUMP JUMPDEST PUSH2 0xBAA JUMP JUMPDEST POP DUP1 RETURN JUMPDEST DUP3 DUP1 REVERT JUMPDEST SWAP1 POP CALLVALUE PUSH2 0x2C7 JUMPI PUSH1 0x20 CALLDATASIZE PUSH1 0x3 NOT ADD SLT PUSH2 0x2C7 JUMPI PUSH2 0x2E6 PUSH2 0x7DE JUMP JUMPDEST SWAP2 PUSH2 0x2EF PUSH2 0x8D8 JUMP JUMPDEST PUSH1 0x1 PUSH1 0x1 PUSH1 0xA0 SHL SUB DUP4 AND ISZERO PUSH2 0x308 JUMPI DUP4 PUSH2 0x2C3 DUP5 PUSH2 0xAFF JUMP JUMPDEST MLOAD PUSH4 0xD92E233D PUSH1 0xE0 SHL DUP2 MSTORE REVERT JUMPDEST POP POP CALLVALUE PUSH2 0x1EA JUMPI DUP2 PUSH1 0x3 NOT CALLDATASIZE ADD SLT PUSH2 0x1EA JUMPI PUSH1 0x20 SWAP1 MLOAD PUSH3 0x800000 DUP2 MSTORE RETURN JUMPDEST POP POP CALLVALUE PUSH2 0x1EA JUMPI DUP2 PUSH1 0x3 NOT CALLDATASIZE ADD SLT PUSH2 0x1EA JUMPI MLOAD SWAP1 DUP2 MSTORE PUSH1 0x20 SWAP1 RETURN JUMPDEST SWAP1 POP CALLVALUE PUSH2 0x2C7 JUMPI PUSH1 0x20 CALLDATASIZE PUSH1 0x3 NOT ADD SLT PUSH2 0x2C7 JUMPI DUP2 PUSH1 0x20 SWAP4 PUSH1 0xFF SWAP3 CALLDATALOAD DUP2 MSTORE PUSH2 0x8002 DUP6 MSTORE KECCAK256 SLOAD AND SWAP1 MLOAD SWAP1 ISZERO ISZERO DUP2 MSTORE RETURN JUMPDEST SWAP2 SWAP1 POP CALLVALUE PUSH2 0x2C7 JUMPI PUSH2 0x38D CALLDATASIZE PUSH2 0x863 JUMP JUMPDEST SWAP1 PUSH2 0x396 PUSH2 0x952 JUMP JUMPDEST DUP2 MLOAD ISZERO PUSH2 0x4AE JUMPI DUP4 JUMPDEST DUP3 MLOAD DUP2 LT ISZERO PUSH2 0x478 JUMPI PUSH2 0x3B2 DUP2 DUP5 PUSH2 0xC44 JUMP JUMPDEST MLOAD ISZERO PUSH2 0x468 JUMPI DUP1 PUSH3 0x7FFFFF PUSH2 0x3CA PUSH2 0x431 SWAP4 DUP7 PUSH2 0xC44 JUMP JUMPDEST MLOAD AND PUSH2 0x3D5 DUP2 PUSH2 0xC8B JUMP JUMPDEST PUSH2 0x3DF DUP3 DUP7 PUSH2 0xC44 JUMP JUMPDEST MLOAD DUP8 MSTORE PUSH2 0x8002 PUSH1 0x20 SWAP1 DUP1 DUP3 MSTORE PUSH1 0xFF DUP7 DUP11 KECCAK256 SLOAD AND ISZERO PUSH2 0x436 JUMPI JUMPDEST POP PUSH32 0x18FC6E41869AEB9DB060F0F058A1CDDFB10FA9D315DBDAE82CADDD74026054A PUSH2 0x424 DUP5 DUP9 PUSH2 0xC44 JUMP JUMPDEST MLOAD SWAP2 DUP7 MLOAD TIMESTAMP DUP2 MSTORE LOG3 PUSH2 0xC1F JUMP JUMPDEST PUSH2 0x39F JUMP JUMPDEST PUSH2 0x440 DUP5 DUP9 PUSH2 0xC44 JUMP JUMPDEST MLOAD DUP10 MSTORE DUP2 MSTORE DUP5 DUP9 KECCAK256 PUSH1 0x1 PUSH1 0xFF NOT DUP3 SLOAD AND OR SWAP1 SSTORE PUSH2 0x8001 PUSH2 0x460 DUP2 SLOAD PUSH2 0xC1F JUMP JUMPDEST SWAP1 SSTORE CODESIZE PUSH2 0x3F8 JUMP JUMPDEST DUP2 MLOAD PUSH4 0x50068073 PUSH1 0xE1 SHL DUP2 MSTORE DUP5 SWAP1 REVERT JUMPDEST DUP5 PUSH32 0x338F67E2968E67831BE923FA5195D483621B5773680F59506ACA37CA7BE148FA DUP4 PUSH2 0x8001 SLOAD DUP2 MLOAD SWAP1 DUP2 MSTORE TIMESTAMP PUSH1 0x20 DUP3 ADD MSTORE LOG1 DUP1 RETURN JUMPDEST MLOAD PUSH4 0x1B871193 PUSH1 0xE3 SHL DUP2 MSTORE SWAP1 POP REVERT JUMPDEST SWAP1 POP CALLVALUE PUSH2 0x2C7 JUMPI DUP2 PUSH1 0x3 NOT CALLDATASIZE ADD SLT PUSH2 0x2C7 JUMPI DUP2 PUSH1 0x20 SWAP4 PUSH1 0xFF SWAP3 PUSH2 0x4DE PUSH2 0x7F9 JUMP JUMPDEST SWAP1 CALLDATALOAD DUP3 MSTORE DUP2 DUP7 MSTORE DUP3 DUP3 KECCAK256 PUSH1 0x1 PUSH1 0x1 PUSH1 0xA0 SHL SUB SWAP1 SWAP2 AND DUP3 MSTORE DUP6 MSTORE KECCAK256 SLOAD SWAP2 MLOAD SWAP2 AND ISZERO ISZERO DUP2 MSTORE RETURN JUMPDEST SWAP1 POP DUP3 CALLVALUE PUSH2 0x527 JUMPI PUSH1 0x20 CALLDATASIZE PUSH1 0x3 NOT ADD SLT PUSH2 0x527 JUMPI POP PUSH3 0x7FFFFF PUSH1 0x20 SWAP3 MLOAD SWAP2 CALLDATALOAD AND DUP2 MSTORE RETURN JUMPDEST DUP1 REVERT JUMPDEST POP POP CALLVALUE PUSH2 0x1EA JUMPI DUP2 PUSH1 0x3 NOT CALLDATASIZE ADD SLT PUSH2 0x1EA JUMPI PUSH1 0x20 SWAP1 PUSH2 0x8001 SLOAD SWAP1 MLOAD SWAP1 DUP2 MSTORE RETURN JUMPDEST SWAP1 POP CALLVALUE PUSH2 0x2C7 JUMPI PUSH1 0x20 CALLDATASIZE PUSH1 0x3 NOT ADD SLT PUSH2 0x2C7 JUMPI DUP1 CALLDATALOAD SWAP1 PUSH2 0x568 PUSH2 0x952 JUMP JUMPDEST DUP2 ISZERO PUSH2 0x5E3 JUMPI POP PUSH32 0x18FC6E41869AEB9DB060F0F058A1CDDFB10FA9D315DBDAE82CADDD74026054A PUSH1 0x20 PUSH3 0x7FFFFF DUP4 AND SWAP4 PUSH2 0x5A2 DUP6 PUSH2 0xC8B JUMP JUMPDEST DUP4 DUP7 MSTORE PUSH2 0x8002 DUP3 MSTORE DUP1 DUP7 KECCAK256 DUP1 SLOAD PUSH1 0xFF DUP2 AND ISZERO PUSH2 0x5C3 JUMPI JUMPDEST POP POP MLOAD TIMESTAMP DUP2 MSTORE LOG3 DUP1 RETURN JUMPDEST PUSH1 0xFF NOT AND PUSH1 0x1 OR SWAP1 SSTORE PUSH2 0x8001 DUP1 SLOAD PUSH2 0x5DA SWAP1 PUSH2 0xC1F JUMP JUMPDEST SWAP1 SSTORE CODESIZE DUP1 PUSH2 0x5B9 JUMP JUMPDEST DUP3 MLOAD PUSH4 0x50068073 PUSH1 0xE1 SHL DUP2 MSTORE REVERT JUMPDEST DUP3 DUP5 CALLVALUE PUSH2 0x527 JUMPI PUSH1 0x20 CALLDATASIZE PUSH1 0x3 NOT ADD SLT PUSH2 0x527 JUMPI POP PUSH2 0x611 PUSH1 0x20 SWAP3 CALLDATALOAD PUSH2 0xC6E JUMP JUMPDEST SWAP1 MLOAD SWAP1 ISZERO ISZERO DUP2 MSTORE RETURN JUMPDEST DUP4 DUP4 CALLVALUE PUSH2 0x1EA JUMPI DUP2 PUSH1 0x3 NOT CALLDATASIZE ADD SLT PUSH2 0x1EA JUMPI PUSH2 0x8001 SLOAD SWAP2 DUP3 PUSH2 0x64F JUMPI PUSH1 0x60 SWAP4 POP SWAP1 JUMPDEST DUP1 MLOAD SWAP3 PUSH3 0x800000 DUP5 MSTORE PUSH1 0x20 DUP5 ADD MSTORE DUP3 ADD MSTORE RETURN JUMPDEST PUSH3 0x800000 DUP4 GT ISZERO PUSH2 0x667 JUMPI POP PUSH1 0x60 SWAP3 POP PUSH1 0x64 SWAP1 PUSH2 0x63C JUMP JUMPDEST PUSH1 0x64 DUP4 MUL SWAP1 DUP4 DUP3 DIV PUSH1 0x64 SUB PUSH2 0x684 JUMPI POP PUSH1 0x60 SWAP4 POP PUSH1 0x17 SHR SWAP1 PUSH2 0x63C JUMP JUMPDEST PUSH4 0x4E487B71 PUSH1 0xE0 SHL DUP2 MSTORE PUSH1 0x11 DUP6 MSTORE PUSH1 0x24 SWAP1 REVERT JUMPDEST DUP4 DUP4 CALLVALUE PUSH2 0x1EA JUMPI DUP1 PUSH1 0x3 NOT CALLDATASIZE ADD SLT PUSH2 0x1EA JUMPI PUSH2 0x6B1 PUSH2 0x7F9 JUMP JUMPDEST SWAP1 CALLER PUSH1 0x1 PUSH1 0x1 PUSH1 0xA0 SHL SUB DUP4 AND SUB PUSH2 0x6CE JUMPI POP PUSH2 0x2C3 SWAP2 SWAP3 CALLDATALOAD PUSH2 0xBAA JUMP JUMPDEST MLOAD PUSH4 0x334BD919 PUSH1 0xE1 SHL DUP2 MSTORE DUP4 SWAP1 REVERT JUMPDEST SWAP2 SWAP1 POP CALLVALUE PUSH2 0x2C7 JUMPI DUP1 PUSH1 0x3 NOT CALLDATASIZE ADD SLT PUSH2 0x2C7 JUMPI PUSH2 0x2C3 SWAP2 CALLDATALOAD PUSH2 0x702 PUSH1 0x1 PUSH2 0x2AD PUSH2 0x7F9 JUMP JUMPDEST PUSH2 0xA86 JUMP JUMPDEST SWAP1 POP CALLVALUE PUSH2 0x2C7 JUMPI PUSH1 0x20 CALLDATASIZE PUSH1 0x3 NOT ADD SLT PUSH2 0x2C7 JUMPI PUSH2 0x722 PUSH2 0x7DE JUMP JUMPDEST SWAP2 PUSH2 0x72B PUSH2 0x8D8 JUMP JUMPDEST PUSH1 0x1 PUSH1 0x1 PUSH1 0xA0 SHL SUB DUP4 AND ISZERO PUSH2 0x308 JUMPI DUP4 PUSH2 0x2C3 DUP5 PUSH2 0x9D4 JUMP JUMPDEST SWAP1 POP CALLVALUE PUSH2 0x2C7 JUMPI PUSH1 0x20 CALLDATASIZE PUSH1 0x3 NOT ADD SLT PUSH2 0x2C7 JUMPI DUP2 PUSH1 0x20 SWAP4 PUSH1 0x1 SWAP3 CALLDATALOAD DUP2 MSTORE DUP1 DUP6 MSTORE KECCAK256 ADD SLOAD SWAP1 MLOAD SWAP1 DUP2 MSTORE RETURN JUMPDEST POP POP CALLVALUE PUSH2 0x1EA JUMPI DUP2 PUSH1 0x3 NOT CALLDATASIZE ADD SLT PUSH2 0x1EA JUMPI PUSH1 0x20 SWAP1 MLOAD PUSH2 0x8000 DUP2 MSTORE RETURN JUMPDEST DUP5 SWAP2 CALLVALUE PUSH2 0x2C7 JUMPI PUSH1 0x20 CALLDATASIZE PUSH1 0x3 NOT ADD SLT PUSH2 0x2C7 JUMPI CALLDATALOAD PUSH4 0xFFFFFFFF PUSH1 0xE0 SHL DUP2 AND DUP1 SWAP2 SUB PUSH2 0x2C7 JUMPI PUSH1 0x20 SWAP3 POP PUSH4 0x7965DB0B PUSH1 0xE0 SHL DUP2 EQ SWAP1 DUP2 ISZERO PUSH2 0x7CD JUMPI JUMPDEST POP ISZERO ISZERO DUP2 MSTORE RETURN JUMPDEST PUSH4 0x1FFC9A7 PUSH1 0xE0 SHL EQ SWAP1 POP DUP4 PUSH2 0x7C6 JUMP JUMPDEST PUSH1 0x4 CALLDATALOAD SWAP1 PUSH1 0x1 PUSH1 0x1 PUSH1 0xA0 SHL SUB DUP3 AND DUP3 SUB PUSH2 0x7F4 JUMPI JUMP JUMPDEST PUSH1 0x0 DUP1 REVERT JUMPDEST PUSH1 0x24 CALLDATALOAD SWAP1 PUSH1 0x1 PUSH1 0x1 PUSH1 0xA0 SHL SUB DUP3 AND DUP3 SUB PUSH2 0x7F4 JUMPI JUMP JUMPDEST PUSH1 0x40 MLOAD SWAP2 SWAP1 PUSH1 0x1F ADD PUSH1 0x1F NOT AND DUP3 ADD PUSH8 0xFFFFFFFFFFFFFFFF DUP2 GT DUP4 DUP3 LT OR PUSH2 0x835 JUMPI PUSH1 0x40 MSTORE JUMP JUMPDEST PUSH4 0x4E487B71 PUSH1 0xE0 SHL PUSH1 0x0 MSTORE PUSH1 0x41 PUSH1 0x4 MSTORE PUSH1 0x24 PUSH1 0x0 REVERT JUMPDEST PUSH8 0xFFFFFFFFFFFFFFFF DUP2 GT PUSH2 0x835 JUMPI PUSH1 0x5 SHL PUSH1 0x20 ADD SWAP1 JUMP JUMPDEST PUSH1 0x20 DUP1 PUSH1 0x3 NOT DUP4 ADD SLT PUSH2 0x7F4 JUMPI PUSH1 0x4 CALLDATALOAD SWAP2 PUSH8 0xFFFFFFFFFFFFFFFF DUP4 GT PUSH2 0x7F4 JUMPI DUP1 PUSH1 0x23 DUP5 ADD SLT ISZERO PUSH2 0x7F4 JUMPI DUP3 PUSH1 0x4 ADD CALLDATALOAD PUSH2 0x89F PUSH2 0x12B DUP3 PUSH2 0x84B JUMP JUMPDEST SWAP4 PUSH1 0x24 DUP5 DUP7 DUP5 DUP2 MSTORE ADD SWAP3 PUSH1 0x5 SHL DUP3 ADD ADD SWAP3 DUP4 GT PUSH2 0x7F4 JUMPI PUSH1 0x24 ADD SWAP1 JUMPDEST DUP3 DUP3 LT PUSH2 0x8C9 JUMPI POP POP POP POP SWAP1 JUMP JUMPDEST DUP2 CALLDATALOAD DUP2 MSTORE SWAP1 DUP4 ADD SWAP1 DUP4 ADD PUSH2 0x8BB JUMP JUMPDEST CALLER PUSH1 0x0 SWAP1 DUP2 MSTORE PUSH32 0xCEF3A433619E8274F84BBE9AD5323E8B252FCF8ED48AFFBCE8D2049D944EA6DE PUSH1 0x20 MSTORE PUSH1 0x40 SWAP1 KECCAK256 SLOAD PUSH32 0xB346B2DDC13F08BD9685B83A95304A79A2CAAC0AA7AA64129E1AE9F4361B4661 SWAP1 PUSH1 0xFF AND ISZERO PUSH2 0x934 JUMPI POP JUMP JUMPDEST PUSH1 0x44 SWAP1 PUSH1 0x40 MLOAD SWAP1 PUSH4 0xE2517D3F PUSH1 0xE0 SHL DUP3 MSTORE CALLER PUSH1 0x4 DUP4 ADD MSTORE PUSH1 0x24 DUP3 ADD MSTORE REVERT JUMPDEST CALLER PUSH1 0x0 SWAP1 DUP2 MSTORE PUSH32 0xE466DAAB6BB65A41449E91BFAC16F15530D3E7DF6C277E389842463C9C78F965 PUSH1 0x20 MSTORE PUSH1 0x40 SWAP1 KECCAK256 SLOAD PUSH32 0x502392AF4B20018A8E94AEC3E8C015AA38C7090FE5E5B7ECBB16F99C3A1EC14D SWAP1 PUSH1 0xFF AND ISZERO PUSH2 0x934 JUMPI POP JUMP JUMPDEST DUP1 PUSH1 0x0 MSTORE PUSH1 0x0 PUSH1 0x20 MSTORE PUSH1 0x40 PUSH1 0x0 KECCAK256 CALLER PUSH1 0x0 MSTORE PUSH1 0x20 MSTORE PUSH1 0xFF PUSH1 0x40 PUSH1 0x0 KECCAK256 SLOAD AND ISZERO PUSH2 0x934 JUMPI POP JUMP JUMPDEST PUSH1 0x1 PUSH1 0x1 PUSH1 0xA0 SHL SUB AND PUSH1 0x0 DUP2 DUP2 MSTORE PUSH32 0xE466DAAB6BB65A41449E91BFAC16F15530D3E7DF6C277E389842463C9C78F965 PUSH1 0x20 MSTORE PUSH1 0x40 DUP2 KECCAK256 SLOAD SWAP1 SWAP2 SWAP1 PUSH32 0x502392AF4B20018A8E94AEC3E8C015AA38C7090FE5E5B7ECBB16F99C3A1EC14D SWAP1 PUSH1 0xFF AND PUSH2 0xA81 JUMPI DUP1 DUP4 MSTORE DUP3 PUSH1 0x20 MSTORE PUSH1 0x40 DUP4 KECCAK256 DUP3 DUP5 MSTORE PUSH1 0x20 MSTORE PUSH1 0x40 DUP4 KECCAK256 PUSH1 0x1 PUSH1 0xFF NOT DUP3 SLOAD AND OR SWAP1 SSTORE PUSH32 0x2F8788117E7EFF1D82E926EC794901D17C78024A50270940304540A733656F0D CALLER SWAP4 DUP1 LOG4 PUSH1 0x1 SWAP1 JUMP JUMPDEST POP POP SWAP1 JUMP JUMPDEST SWAP1 PUSH1 0x0 SWAP2 DUP1 DUP4 MSTORE DUP3 PUSH1 0x20 MSTORE PUSH1 0x40 DUP4 KECCAK256 SWAP2 PUSH1 0x1 DUP1 PUSH1 0xA0 SHL SUB AND SWAP2 DUP3 DUP5 MSTORE PUSH1 0x20 MSTORE PUSH1 0xFF PUSH1 0x40 DUP5 KECCAK256 SLOAD AND ISZERO PUSH1 0x0 EQ PUSH2 0xA81 JUMPI DUP1 DUP4 MSTORE DUP3 PUSH1 0x20 MSTORE PUSH1 0x40 DUP4 KECCAK256 DUP3 DUP5 MSTORE PUSH1 0x20 MSTORE PUSH1 0x40 DUP4 KECCAK256 PUSH1 0x1 PUSH1 0xFF NOT DUP3 SLOAD AND OR SWAP1 SSTORE PUSH32 0x2F8788117E7EFF1D82E926EC794901D17C78024A50270940304540A733656F0D CALLER SWAP4 DUP1 LOG4 PUSH1 0x1 SWAP1 JUMP JUMPDEST PUSH1 0x1 PUSH1 0x1 PUSH1 0xA0 SHL SUB AND PUSH1 0x0 DUP2 DUP2 MSTORE PUSH32 0xE466DAAB6BB65A41449E91BFAC16F15530D3E7DF6C277E389842463C9C78F965 PUSH1 0x20 MSTORE PUSH1 0x40 DUP2 KECCAK256 SLOAD SWAP1 SWAP2 SWAP1 PUSH32 0x502392AF4B20018A8E94AEC3E8C015AA38C7090FE5E5B7ECBB16F99C3A1EC14D SWAP1 PUSH1 0xFF AND ISZERO PUSH2 0xA81 JUMPI DUP1 DUP4 MSTORE DUP3 PUSH1 0x20 MSTORE PUSH1 0x40 DUP4 KECCAK256 DUP3 DUP5 MSTORE PUSH1 0x20 MSTORE PUSH1 0x40 DUP4 KECCAK256 PUSH1 0xFF NOT DUP2 SLOAD AND SWAP1 SSTORE PUSH32 0xF6391F5C32D9C69D2A47EA670B442974B53935D1EDC7FD64EB21E047A839171B CALLER SWAP4 DUP1 LOG4 PUSH1 0x1 SWAP1 JUMP JUMPDEST SWAP1 PUSH1 0x0 SWAP2 DUP1 DUP4 MSTORE DUP3 PUSH1 0x20 MSTORE PUSH1 0x40 DUP4 KECCAK256 SWAP2 PUSH1 0x1 DUP1 PUSH1 0xA0 SHL SUB AND SWAP2 DUP3 DUP5 MSTORE PUSH1 0x20 MSTORE PUSH1 0xFF PUSH1 0x40 DUP5 KECCAK256 SLOAD AND PUSH1 0x0 EQ PUSH2 0xA81 JUMPI DUP1 DUP4 MSTORE DUP3 PUSH1 0x20 MSTORE PUSH1 0x40 DUP4 KECCAK256 DUP3 DUP5 MSTORE PUSH1 0x20 MSTORE PUSH1 0x40 DUP4 KECCAK256 PUSH1 0xFF NOT DUP2 SLOAD AND SWAP1 SSTORE PUSH32 0xF6391F5C32D9C69D2A47EA670B442974B53935D1EDC7FD64EB21E047A839171B CALLER SWAP4 DUP1 LOG4 PUSH1 0x1 SWAP1 JUMP JUMPDEST PUSH1 0x0 NOT DUP2 EQ PUSH2 0xC2E JUMPI PUSH1 0x1 ADD SWAP1 JUMP JUMPDEST PUSH4 0x4E487B71 PUSH1 0xE0 SHL PUSH1 0x0 MSTORE PUSH1 0x11 PUSH1 0x4 MSTORE PUSH1 0x24 PUSH1 0x0 REVERT JUMPDEST DUP1 MLOAD DUP3 LT ISZERO PUSH2 0xC58 JUMPI PUSH1 0x20 SWAP2 PUSH1 0x5 SHL ADD ADD SWAP1 JUMP JUMPDEST PUSH4 0x4E487B71 PUSH1 0xE0 SHL PUSH1 0x0 MSTORE PUSH1 0x32 PUSH1 0x4 MSTORE PUSH1 0x24 PUSH1 0x0 REVERT JUMPDEST DUP1 ISZERO PUSH2 0xC85 JUMPI PUSH3 0x7FFFFF PUSH2 0xC82 SWAP2 AND PUSH2 0xCCD JUMP JUMPDEST SWAP1 JUMP JUMPDEST POP PUSH1 0x0 SWAP1 JUMP JUMPDEST PUSH3 0x800000 DUP2 LT ISZERO PUSH2 0xCB5 JUMPI DUP1 PUSH1 0x8 SHR PUSH2 0x8000 DUP2 LT ISZERO PUSH2 0xC58 JUMPI PUSH1 0xFF PUSH1 0x1 SWAP2 DUP3 ADD SWAP3 AND SHL DUP2 SLOAD OR SWAP1 SSTORE JUMP JUMPDEST PUSH1 0x24 SWAP1 PUSH1 0x40 MLOAD SWAP1 PUSH4 0x492E683F PUSH1 0xE1 SHL DUP3 MSTORE PUSH1 0x4 DUP3 ADD MSTORE REVERT JUMPDEST PUSH3 0x800000 DUP2 LT ISZERO PUSH2 0xC85 JUMPI DUP1 PUSH1 0x8 SHR PUSH2 0x8000 DUP2 LT ISZERO PUSH2 0xC58 JUMPI PUSH1 0xFF PUSH1 0x1 SWAP2 DUP3 ADD SLOAD SWAP3 AND SHL AND ISZERO ISZERO SWAP1 JUMP INVALID LOG2 PUSH5 0x6970667358 0x22 SLT KECCAK256 SWAP10 DUP15 0xF9 XOR COINBASE DUP13 0x1E SWAP4 0x4A 0xE5 DUP16 0xE6 POP 0xE2 0x23 PUSH2 0x3251 0xBD 0xFC STOP PUSH11 0x1AAF8FD8472EF564320664 PUSH20 0x6F6C634300081400332F8788117E7EFF1D82E926 0xEC PUSH26 0x4901D17C78024A50270940304540A733656F0D00000000000000 "},"methodIdentifiers":{"ARRAY_SIZE()":"245c7ee6","DEFAULT_ADMIN_ROLE()":"a217fddf","TOTAL_BITS()":"735c4cb9","add(bytes32)":"446bffba","addBatch(bytes32[])":"97168c2f","check(bytes32)":"399e0792","checkBatch(bytes32[])":"f81a8f1e","getBitArraySize()":"ac9a748f","getIndex(bytes32)":"8527831b","getRoleAdmin(bytes32)":"248a9ca3","getStatistics()":"372d6b27","getTotalElements()":"7aa63a86","grantManagerRole(address)":"26e885e3","grantRole(bytes32,address)":"2f2ff15d","hasRole(bytes32,address)":"91d14854","renounceRole(bytes32,address)":"36568abe","reset()":"d826f88f","revokeManagerRole(address)":"be4dc94f","revokeRole(bytes32,address)":"d547741f","supportsInterface(bytes4)":"01ffc9a7","wasExplicitlyAdded(bytes32)":"98a51e5d"}}}}}