{"src/bc-cvs/CertificateHashRegistry.sol":{"CertificateHashRegistry":{"abi":[{"inputs":[{"internalType":"address","name":"_admin","type":"address"}],"stateMutability":"nonpayable","type":"constructor"},{"inputs":[],"name":"AccessControlBadConfirmation","type":"error"},{"inputs":[{"internalType":"address","name":"account","type":"address"},{"internalType":"bytes32","name":"neededRole","type":"bytes32"}],"name":"AccessControlUnauthorizedAccount","type":"error"},{"inputs":[{"internalType":"bytes32","name":"certificateHash","type":"bytes32"}],"name":"CertificateAlreadyExists","type":"error"},{"inputs":[{"internalType":"bytes32","name":"certificateHash","type":"bytes32"}],"name":"CertificateAlreadyRevoked","type":"error"},{"inputs":[{"internalType":"bytes32","name":"certificateHash","type":"bytes32"}],"name":"CertificateNotFound","type":"error"},{"inputs":[],"name":"EmptyString","type":"error"},{"inputs":[{"internalType":"address","name":"institution","type":"address"}],"name":"InstitutionAlreadyRegistered","type":"error"},{"inputs":[],"name":"InvalidCertificateHash","type":"error"},{"inputs":[{"internalType":"address","name":"holder","type":"address"}],"name":"InvalidHolder","type":"error"},{"inputs":[],"name":"InvalidInput","type":"error"},{"inputs":[],"name":"InvalidRSASignature","type":"error"},{"inputs":[{"internalType":"address","name":"caller","type":"address"}],"name":"NotAuthorizedIssuer","type":"error"},{"inputs":[{"internalType":"address","name":"caller","type":"address"},{"internalType":"address","name":"issuer","type":"address"}],"name":"NotCertificateIssuer","type":"error"},{"inputs":[],"name":"ZeroAddress","type":"error"},{"anonymous":false,"inputs":[{"indexed":true,"internalType":"bytes32","name":"oldHash","type":"bytes32"},{"indexed":true,"internalType":"bytes32","name":"newHash","type":"bytes32"},{"indexed":true,"internalType":"address","name":"issuer","type":"address"},{"indexed":false,"internalType":"uint256","name":"timestamp","type":"uint256"}],"name":"CertificateCorrected","type":"event"},{"anonymous":false,"inputs":[{"indexed":true,"internalType":"bytes32","name":"certificateHash","type":"bytes32"},{"indexed":true,"internalType":"address","name":"issuer","type":"address"},{"indexed":true,"internalType":"address","name":"holder","type":"address"},{"indexed":false,"internalType":"uint256","name":"timestamp","type":"uint256"}],"name":"CertificateIssued","type":"event"},{"anonymous":false,"inputs":[{"indexed":true,"internalType":"bytes32","name":"certificateHash","type":"bytes32"},{"indexed":true,"internalType":"address","name":"issuer","type":"address"},{"indexed":false,"internalType":"uint256","name":"timestamp","type":"uint256"},{"indexed":false,"internalType":"string","name":"reason","type":"string"}],"name":"CertificateRevoked","type":"event"},{"anonymous":false,"inputs":[{"indexed":true,"internalType":"bytes32","name":"certificateHash","type":"bytes32"},{"indexed":true,"internalType":"address","name":"verifier","type":"address"},{"indexed":false,"internalType":"bool","name":"isValid","type":"bool"},{"indexed":false,"internalType":"uint256","name":"timestamp","type":"uint256"}],"name":"CertificateVerified","type":"event"},{"anonymous":false,"inputs":[{"indexed":true,"internalType":"bytes32","name":"role","type":"bytes32"},{"indexed":true,"internalType":"bytes32","name":"previousAdminRole","type":"bytes32"},{"indexed":true,"internalType":"bytes32","name":"newAdminRole","type":"bytes32"}],"name":"RoleAdminChanged","type":"event"},{"anonymous":false,"inputs":[{"indexed":true,"internalType":"bytes32","name":"role","type":"bytes32"},{"indexed":true,"internalType":"address","name":"account","type":"address"},{"indexed":true,"internalType":"address","name":"sender","type":"address"}],"name":"RoleGranted","type":"event"},{"anonymous":false,"inputs":[{"indexed":true,"internalType":"bytes32","name":"role","type":"bytes32"},{"indexed":true,"internalType":"address","name":"account","type":"address"},{"indexed":true,"internalType":"address","name":"sender","type":"address"}],"name":"RoleRevoked","type":"event"},{"inputs":[],"name":"DEFAULT_ADMIN_ROLE","outputs":[{"internalType":"bytes32","name":"","type":"bytes32"}],"stateMutability":"view","type":"function"},{"inputs":[{"internalType":"address","name":"_issuer","type":"address"}],"name":"authorizeIssuer","outputs":[],"stateMutability":"nonpayable","type":"function"},{"inputs":[],"name":"bloomFilter","outputs":[{"internalType":"contract IBloomFilter","name":"","type":"address"}],"stateMutability":"view","type":"function"},{"inputs":[{"internalType":"bytes32","name":"_certificateHash","type":"bytes32"}],"name":"certificateExists","outputs":[{"internalType":"bool","name":"exists","type":"bool"}],"stateMutability":"view","type":"function"},{"inputs":[{"internalType":"bytes32","name":"_oldHash","type":"bytes32"},{"internalType":"bytes32","name":"_newHash","type":"bytes32"},{"internalType":"bytes","name":"_newRsaSignature","type":"bytes"},{"internalType":"string","name":"_metadata","type":"string"}],"name":"correctCertificate","outputs":[],"stateMutability":"nonpayable","type":"function"},{"inputs":[{"internalType":"bytes32","name":"_certificateHash","type":"bytes32"}],"name":"getCertificate","outputs":[{"components":[{"internalType":"bytes32","name":"certificateHash","type":"bytes32"},{"internalType":"bytes","name":"rsaSignature","type":"bytes"},{"internalType":"address","name":"issuer","type":"address"},{"internalType":"address","name":"holder","type":"address"},{"internalType":"uint256","name":"issueDate","type":"uint256"},{"internalType":"bool","name":"isValid","type":"bool"},{"internalType":"string","name":"metadata","type":"string"}],"internalType":"struct ICertificateHashRegistry.Certificate","name":"cert","type":"tuple"}],"stateMutability":"view","type":"function"},{"inputs":[{"internalType":"address","name":"_holder","type":"address"}],"name":"getCertificatesByHolder","outputs":[{"internalType":"bytes32[]","name":"hashes","type":"bytes32[]"}],"stateMutability":"view","type":"function"},{"inputs":[{"internalType":"address","name":"_issuer","type":"address"}],"name":"getCertificatesByIssuer","outputs":[{"internalType":"bytes32[]","name":"hashes","type":"bytes32[]"}],"stateMutability":"view","type":"function"},{"inputs":[{"internalType":"bytes32","name":"role","type":"bytes32"}],"name":"getRoleAdmin","outputs":[{"internalType":"bytes32","name":"","type":"bytes32"}],"stateMutability":"view","type":"function"},{"inputs":[],"name":"getTotalCertificates","outputs":[{"internalType":"uint256","name":"count","type":"uint256"}],"stateMutability":"view","type":"function"},{"inputs":[{"internalType":"address","name":"_holder","type":"address"}],"name":"grantHolderRole","outputs":[],"stateMutability":"nonpayable","type":"function"},{"inputs":[{"internalType":"bytes32","name":"role","type":"bytes32"},{"internalType":"address","name":"account","type":"address"}],"name":"grantRole","outputs":[],"stateMutability":"nonpayable","type":"function"},{"inputs":[{"internalType":"address","name":"_verifier","type":"address"}],"name":"grantVerifierRole","outputs":[],"stateMutability":"nonpayable","type":"function"},{"inputs":[{"internalType":"bytes32","name":"role","type":"bytes32"},{"internalType":"address","name":"account","type":"address"}],"name":"hasRole","outputs":[{"internalType":"bool","name":"","type":"bool"}],"stateMutability":"view","type":"function"},{"inputs":[{"internalType":"address","name":"_issuer","type":"address"}],"name":"isAuthorizedIssuer","outputs":[{"internalType":"bool","name":"isAuthorized","type":"bool"}],"stateMutability":"view","type":"function"},{"inputs":[{"internalType":"bytes32","name":"_certificateHash","type":"bytes32"},{"internalType":"bytes","name":"_rsaSignature","type":"bytes"},{"internalType":"address","name":"_holder","type":"address"},{"internalType":"string","name":"_metadata","type":"string"}],"name":"issueCertificate","outputs":[],"stateMutability":"nonpayable","type":"function"},{"inputs":[{"internalType":"bytes32","name":"role","type":"bytes32"},{"internalType":"address","name":"callerConfirmation","type":"address"}],"name":"renounceRole","outputs":[],"stateMutability":"nonpayable","type":"function"},{"inputs":[],"name":"revocationRegistry","outputs":[{"internalType":"contract IRevocationRegistry","name":"","type":"address"}],"stateMutability":"view","type":"function"},{"inputs":[{"internalType":"bytes32","name":"_certificateHash","type":"bytes32"},{"internalType":"string","name":"_reason","type":"string"}],"name":"revokeCertificate","outputs":[],"stateMutability":"nonpayable","type":"function"},{"inputs":[{"internalType":"address","name":"_issuer","type":"address"}],"name":"revokeIssuerAuthorization","outputs":[],"stateMutability":"nonpayable","type":"function"},{"inputs":[{"internalType":"bytes32","name":"role","type":"bytes32"},{"internalType":"address","name":"account","type":"address"}],"name":"revokeRole","outputs":[],"stateMutability":"nonpayable","type":"function"},{"inputs":[{"internalType":"address","name":"_bloomFilter","type":"address"}],"name":"setBloomFilter","outputs":[],"stateMutability":"nonpayable","type":"function"},{"inputs":[{"internalType":"address","name":"_revocationRegistry","type":"address"}],"name":"setRevocationRegistry","outputs":[],"stateMutability":"nonpayable","type":"function"},{"inputs":[{"internalType":"bytes4","name":"interfaceId","type":"bytes4"}],"name":"supportsInterface","outputs":[{"internalType":"bool","name":"","type":"bool"}],"stateMutability":"view","type":"function"},{"inputs":[{"internalType":"bytes32","name":"_certificateHash","type":"bytes32"}],"name":"verifyCertificate","outputs":[{"internalType":"bool","name":"isValid","type":"bool"},{"components":[{"internalType":"bytes32","name":"certificateHash","type":"bytes32"},{"internalType":"bytes","name":"rsaSignature","type":"bytes"},{"internalType":"address","name":"issuer","type":"address"},{"internalType":"address","name":"holder","type":"address"},{"internalType":"uint256","name":"issueDate","type":"uint256"},{"internalType":"bool","name":"isValid","type":"bool"},{"internalType":"string","name":"metadata","type":"string"}],"internalType":"struct ICertificateHashRegistry.Certificate","name":"cert","type":"tuple"}],"stateMutability":"view","type":"function"}],"evm":{"bytecode":{"linkReferences":{},"object":"6080346200009557601f62001f4e38819003918201601f19168301916001600160401b038311848410176200009a578084926020946040528339810103126200009557516001600160a01b0381168082036200009557156200008357806200006b6200007292620000b0565b5062000130565b50604051611d5b9081620001d38239f35b60405163d92e233d60e01b8152600490fd5b600080fd5b634e487b7160e01b600052604160045260246000fd5b6001600160a01b031660008181527fad3228b676f7d3cd4284a5443f17f1962b36e491b30a40b2405849e597ba5fb5602052604081205490919060ff166200012c57818052816020526040822081835260205260408220600160ff19825416179055339160008051602062001f2e8339815191528180a4600190565b5090565b6001600160a01b031660008181527fcef3a433619e8274f84bbe9ad5323e8b252fcf8ed48affbce8d2049d944ea6de60205260408120549091907fb346b2ddc13f08bd9685b83a95304a79a2caac0aa7aa64129e1ae9f4361b46619060ff16620001cd57808352826020526040832082845260205260408320600160ff1982541617905560008051602062001f2e833981519152339380a4600190565b50509056fe608080604052600436101561001357600080fd5b600090813560e01c90816301ffc9a714611339575080630337c061146112ff578063248a9ca3146112d35780632f2ff15d1461129657806331ba19661461125757806336568abe1461120f578063436693d51461118e57806349d5f6f814610c5a5780635bf4adfb14610ac85780635ff5bd5214610a9f5780636a8bc419146105c65780637843bb79146105a8578063850c17681461056c57806391d148541461052157806395f94bc4146104da578063a217fddf146104be578063b440983e14610490578063b450288614610456578063c16fb3131461040f578063d547741f146103d2578063e18ac8ec1461035f578063f0f2740d14610336578063f333fe0814610252578063f4f7a815146101bd5763feef67141461013457600080fd5b346101ba576020806003193601126101b6576001600160a01b0361015661138e565b1682526002815260408220916040518092808554928381520194835280832092905b82821061019f5761019b8561018f81890382611400565b60405191829182611524565b0390f35b835486529485019460019384019390910190610178565b5080fd5b80fd5b50346101ba5760203660031901126101ba576101d761138e565b906101e061155f565b6001600160a01b03821691821561024057828252600460205260ff60408320541615610227578192610223925260046020526040832060ff198154169055611898565b5080f35b604051632a5bbf8560e21b815260048101849052602490fd5b60405163d92e233d60e01b8152600490fd5b50346101ba5760203660031901126101ba57604060043591610272611af2565b50828152600160205220906040519161028a836113ba565b805483526040516102a9816102a28160018601611b2d565b0382611400565b602084015260018060a01b03806002830154166040850152600382015416606084015260066102fd6004830154926080860193845260ff600582015416151560a08701526102a26040518094819301611b2d565b60c0840152511561031e576040516020808252819061019b908201856114b9565b60249060405190630eb0bcc760e31b82526004820152fd5b50346101ba57806003193601126101ba576008546040516001600160a01b039091168152602090f35b50346101ba576020806003193601126101b6576001600160a01b0361038261138e565b1682526003815260408220916040518092808554928381520194835280832092905b8282106103bb5761019b8561018f81890382611400565b8354865294850194600193840193909101906103a4565b50346101ba5760403660031901126101ba576102236004356103f26113a4565b908084528360205261040a6001604086200154611635565b611943565b50346101ba5760203660031901126101ba5761042961138e565b61043161155f565b6001600160a01b03168015610240576001600160601b0360a01b600754161760075580f35b50346101ba5760203660031901126101ba5761047061138e565b61047861155f565b6001600160a01b038116156102405761022390611796565b50346101ba5760203660031901126101ba576004604060209282358152600184522001541515604051908152f35b50346101ba57806003193601126101ba57602090604051908152f35b50346101ba5760203660031901126101ba576104f461138e565b6104fc61155f565b6001600160a01b03168015610240576001600160601b0360a01b600854161760085580f35b50346101ba5760403660031901126101ba57604061053d6113a4565b91600435815280602052209060018060a01b0316600052602052602060ff604060002054166040519015158152f35b50346101ba5760203660031901126101ba57610589600435611bc3565b9061019b604051928392151583526040602084015260408301906114b9565b50346101ba57806003193601126101ba576020600654604051908152f35b50346101ba5760803660031901126101ba5767ffffffffffffffff906024358281116101b6576105fa903690600401611422565b604435906001600160a01b0382168203610a9a57606435848111610a9657610626903690600401611422565b9061062f6115d9565b60043515610a84576001600160a01b03831615610a6357805115610a5157815115610a3f57610400825111610a2d57600435845260016020526004604085200154610a1457338452600460205260ff604085205416156109fc5760405191610696836113ba565b60043583526020830191825233604084015260018060a01b0384166060840152426080840152600160a084015260c083015260043584526001602052604084209082518255518051908682116109e857610700826106f760018601546119b8565b600186016119f2565b602090601f831160011461097657918060c09492600694899261096b575b50508160011b916000199060031b1c19161760018201555b6002810160018060a01b03604086015116906001600160601b0360a01b9182825416179055600382019060018060a01b03606087015116908254161790556080840151600482015561079d60a08501511515600583019060ff801983541691151516179055565b01910151938451908111610957576107bf816107b984546119b8565b846119f2565b602094601f82116001146108f45794849582939495926108e9575b50508160011b916000199060031b1c19161790555b338252600260205261080660043560408420611aa4565b6001600160a01b03811682526003602052604082206108289060043590611aa4565b610833600435611a46565b61083e600654611acd565b60065560075482906001600160a01b031680610898575b50506040514281526001600160a01b03909116903390600435907f8a9f2fdd359409354808bbba510d19f4d4facf7f77d5802fc3326db79a73029990602090a480f35b803b156101b657818091602460405180948193632235ffdd60e11b835260043560048401525af180156108de5715610855576108d3906113ec565b6101b6578138610855565b6040513d84823e3d90fd5b0151905038806107da565b601f198216958386526020862091865b88811061093f57508360019596979810610926575b505050811b0190556107ef565b015160001960f88460031b161c19169055388080610919565b91926020600181928685015181550194019201610904565b634e487b7160e01b84526041600452602484fd5b01519050388061071e565b906001840187526020872091875b601f19851681106109d057509260c0949260019260069583601f198116106109b7575b505050811b016001820155610736565b015160001960f88460031b161c191690553880806109a7565b91926020600181928685015181550194019201610984565b634e487b7160e01b86526041600452602486fd5b604051632a5bbf8560e21b8152336004820152602490fd5b60246040516316b35fe360e01b81526004356004820152fd5b60405163b4fa3fb360e01b8152600490fd5b60405163ecd7b0d160e01b8152600490fd5b6040516359a4a39d60e11b8152600490fd5b6040516378b27f2360e11b81526001600160a01b0384166004820152602490fd5b604051635006807360e11b8152600490fd5b8380fd5b600080fd5b50346101ba57806003193601126101ba576007546040516001600160a01b039091168152602090f35b50346101ba5760403660031901126101ba5760043560243567ffffffffffffffff8111610bfb57610afd903690600401611422565b90610b066115d9565b808352600160205260408320600481015415610c415760028101546001600160a01b0391908216338103610c1857506005019081549160ff831615610bff57845115610a3f57859260ff191690556008541680610ba4575b50507f2dc910602b63b3a70fad6ced1f1ec487c86fc854530555b5fce6c82ebbd1604e6040514281526040602082015280610b9e33956040830190611479565b0390a380f35b803b156101b657816040518092635bf4adfb60e01b825285600483015260406024830152818381610bd8604482018b611479565b03925af180156108de5715610b5e57610bf0906113ec565b610bfb578238610b5e565b8280fd5b60405163b93e450d60e01b815260048101859052602490fd5b604051634223ce1d60e11b81523360048201526001600160a01b03919091166024820152604490fd5b604051630eb0bcc760e31b815260048101839052602490fd5b50346101ba5760803660031901126101ba5760443567ffffffffffffffff81116101b657610c8c903690600401611422565b9060643567ffffffffffffffff81116101b657610cad903690600401611422565b91610cb66115d9565b60043582526001602052604082206004810154156111755760028101546001600160a01b0316338103610c185750600581019081549160ff83161561115c576024358552600160205260046040862001546111435760ff1990921690915560030180546040519194906001600160a01b0316610d31836113ba565b6024358352602083019384523360408401526060830152426080830152600160a083015260c0820152602435835260016020526040832091815183555180519067ffffffffffffffff821161112f57610d9a82610d9160018701546119b8565b600187016119f2565b602090601f83116001146110bf5760c09392918691836110b4575b50508160011b916000199060031b1c19161760018401555b6002830160018060a01b03604083015116906001600160601b0360a01b9182825416179055600384019060018060a01b036060840151169082541617905560808101516004840155610e3460a08201511515600585019060ff801983541691151516179055565b015180519067ffffffffffffffff821161095757610e6282610e5960068601546119b8565b600686016119f2565b602090601f8311600114611047576006929185918361103c575b50508160011b916000199060031b1c1916179101555b3381526002602052610ea960243560408320611aa4565b81546001600160a01b03168152600360205260408120610ecc9060243590611aa4565b610ed7602435611a46565b610ee2600654611acd565b6006556007546001600160a01b031680610ffc575b5060085490919082906001600160a01b031680610f82575b50506040514281523390602435907f0bdec61cc56fa0fb6269f7fa5c6eaef0ec0b7566d18a3563592237135761ed45602060043592a460018060a01b0390541660405142815233907f8a9f2fdd359409354808bbba510d19f4d4facf7f77d5802fc3326db79a730299602060243592a480f35b803b156101b65781809160a460405180948193630758867360e31b83526004356004840152602435602484015260606044840152601560648401527410d95c9d1a599a58d85d194818dbdc9c9958dd1959605a1b60848401525af180156108de5715610f0f57610ff1906113ec565b6101b6578138610f0f565b803b156101b657818091602460405180948193632235ffdd60e11b8352833560048401525af180156108de5715610ef757611036906113ec565b38610ef7565b015190503880610e7c565b906006840185526020852091855b601f198516811061109c5750918391600193600695601f19811610611083575b505050811b01910155610e92565b015160001960f88460031b161c19169055388080611075565b91926020600181928685015181550194019201611055565b015190503880610db5565b906001850186526020862091865b601f1985168110611117575091839160019360c09695601f198116106110fe575b505050811b016001840155610dcd565b015160001960f88460031b161c191690553880806110ee565b919260206001819286850151815501940192016110cd565b634e487b7160e01b85526041600452602485fd5b6040516316b35fe360e01b815260248035600483015290fd5b602460405163b93e450d60e01b81526004356004820152fd5b6024604051630eb0bcc760e31b81526004356004820152fd5b50346101ba5760203660031901126101ba576111a861138e565b906111b161155f565b6001600160a01b03821691821561024057828252600460205260ff6040832054166111f65781926102239252600460205260408320600160ff198254161790556116fb565b60405163c28e848f60e01b815260048101849052602490fd5b50346101ba5760403660031901126101ba576112296113a4565b336001600160a01b038216036112455761022390600435611943565b60405163334bd91960e11b8152600490fd5b50346101ba5760203660031901126101ba5760209060ff906040906001600160a01b0361128261138e565b168152600484522054166040519015158152f35b50346101ba5760403660031901126101ba576102236004356112b66113a4565b90808452836020526112ce6001604086200154611635565b611831565b50346101ba5760203660031901126101ba57600160406020926004358152808452200154604051908152f35b50346101ba5760203660031901126101ba5761131961138e565b61132161155f565b6001600160a01b03811615610240576102239061165b565b9050346101b65760203660031901126101b65760043563ffffffff60e01b8116809103610bfb5760209250637965db0b60e01b811490811561137d575b5015158152f35b6301ffc9a760e01b14905038611376565b600435906001600160a01b0382168203610a9a57565b602435906001600160a01b0382168203610a9a57565b60e0810190811067ffffffffffffffff8211176113d657604052565b634e487b7160e01b600052604160045260246000fd5b67ffffffffffffffff81116113d657604052565b90601f8019910116810190811067ffffffffffffffff8211176113d657604052565b81601f82011215610a9a5780359067ffffffffffffffff82116113d65760405192611457601f8401601f191660200185611400565b82845260208383010111610a9a57816000926020809301838601378301015290565b919082519283825260005b8481106114a5575050826000602080949584010152601f8019910116010190565b602081830181015184830182015201611484565b611521918151815260c06114dc602084015160e0602085015260e0840190611479565b9260018060a01b0380604083015116604085015260608201511660608401526080810151608084015260a0810151151560a084015201519060c0818403910152611479565b90565b6020908160408183019282815285518094520193019160005b82811061154b575050505090565b83518552938101939281019260010161153d565b3360009081527fcef3a433619e8274f84bbe9ad5323e8b252fcf8ed48affbce8d2049d944ea6de60205260409020547fb346b2ddc13f08bd9685b83a95304a79a2caac0aa7aa64129e1ae9f4361b46619060ff16156115bb5750565b6044906040519063e2517d3f60e01b82523360048301526024820152fd5b3360009081527f75a62d95ad9fef7bba5c4dde6e3ff662d5c539a6d57cb138a3d5c2f3a42773ff60205260409020547f4b90e70a23ad1c016cdba1a015076c2de977e305fcad3881690cafbe99d361909060ff16156115bb5750565b80600052600060205260406000203360005260205260ff60406000205416156115bb5750565b6001600160a01b031660008181527f47b209c9573d16f2ca15bdb23e32336b26a4895c2e8fadad21581ebf5c674b5360205260408120549091907fa48c898f5241be426b79d4b5a3c206f9c9a06576e1b72c338c3ec849771d56869060ff166116f657808352826020526040832082845260205260408320600160ff19825416179055600080516020611d06833981519152339380a4600190565b505090565b6001600160a01b031660008181527f75a62d95ad9fef7bba5c4dde6e3ff662d5c539a6d57cb138a3d5c2f3a42773ff60205260408120549091907f4b90e70a23ad1c016cdba1a015076c2de977e305fcad3881690cafbe99d361909060ff166116f657808352826020526040832082845260205260408320600160ff19825416179055600080516020611d06833981519152339380a4600190565b6001600160a01b031660008181527f0243c3a114fcc565356afcc3dfbc60278634b704337fa7c3352c3a0c54e0f96f60205260408120549091907f95db38da2bdceeb0c3cc1c1c6bf13d1b48a5cc148ba8dd82ab7367ba40ca30279060ff166116f657808352826020526040832082845260205260408320600160ff19825416179055600080516020611d06833981519152339380a4600190565b9060009180835282602052604083209160018060a01b03169182845260205260ff604084205416156000146116f657808352826020526040832082845260205260408320600160ff19825416179055600080516020611d06833981519152339380a4600190565b6001600160a01b031660008181527f75a62d95ad9fef7bba5c4dde6e3ff662d5c539a6d57cb138a3d5c2f3a42773ff60205260408120549091907f4b90e70a23ad1c016cdba1a015076c2de977e305fcad3881690cafbe99d361909060ff16156116f65780835282602052604083208284526020526040832060ff1981541690557ff6391f5c32d9c69d2a47ea670b442974b53935d1edc7fd64eb21e047a839171b339380a4600190565b9060009180835282602052604083209160018060a01b03169182845260205260ff6040842054166000146116f65780835282602052604083208284526020526040832060ff1981541690557ff6391f5c32d9c69d2a47ea670b442974b53935d1edc7fd64eb21e047a839171b339380a4600190565b90600182811c921680156119e8575b60208310146119d257565b634e487b7160e01b600052602260045260246000fd5b91607f16916119c7565b90601f8111611a0057505050565b600091825260208220906020601f850160051c83019410611a3c575b601f0160051c01915b828110611a3157505050565b818155600101611a25565b9092508290611a1c565b600554600160401b8110156113d6576001810180600555811015611a8e5760056000527f036b6384b5eca791c62761152d0c79bb0604c104a5fb6f4eb0703f3154bb3db00155565b634e487b7160e01b600052603260045260246000fd5b805490600160401b8210156113d65760018201808255821015611a8e5760005260206000200155565b6000198114611adc5760010190565b634e487b7160e01b600052601160045260246000fd5b60405190611aff826113ba565b606060c083600081528260208201526000604082015260008382015260006080820152600060a08201520152565b9060009291805491611b3e836119b8565b918282526001938481169081600014611ba05750600114611b60575b50505050565b90919394506000526020928360002092846000945b838610611b8c575050505001019038808080611b5a565b805485870183015294019385908201611b75565b9294505050602093945060ff191683830152151560051b01019038808080611b5a565b90611bcc611af2565b50600082815260209260018452604090818320948251611beb816113ba565b865481528351611c02816102a28160018c01611b2d565b8282015260018060a01b039081600289015416858201528160038901541660608201526006611c5560048a015499608084019a8b5260ff600582015416151560a08501526102a288518094819301611b2d565b60c082015280975115611cfb5750600854169182611c7e575b505050505060a082015115159190565b81906024855180958193634294857f60e01b835260048301525afa928315611cf257508392611cbb575b5050611cb75780808080611c6e565b9190565b90809250813d8311611ceb575b611cd28183611400565b810103126101b6575180151581036101b6573880611ca8565b503d611cc8565b513d85823e3d90fd5b965050505050919056fe2f8788117e7eff1d82e926ec794901d17c78024a50270940304540a733656f0da2646970667358221220e8f11da73bfb8fbf1962f4188641f098a91aea2b7908dc85e5b53945533b03c764736f6c634300081400332f8788117e7eff1d82e926ec794901d17c78024a50270940304540a733656f0d","opcodes":"PUSH1 0x80 CALLVALUE PUSH3 0x95 JUMPI PUSH1 0x1F PUSH3 0x1F4E CODESIZE DUP2 SWAP1 SUB SWAP2 DUP3 ADD PUSH1 0x1F NOT AND DUP4 ADD SWAP2 PUSH1 0x1 PUSH1 0x1 PUSH1 0x40 SHL SUB DUP4 GT DUP5 DUP5 LT OR PUSH3 0x9A JUMPI DUP1 DUP5 SWAP3 PUSH1 0x20 SWAP5 PUSH1 0x40 MSTORE DUP4 CODECOPY DUP2 ADD SUB SLT PUSH3 0x95 JUMPI MLOAD PUSH1 0x1 PUSH1 0x1 PUSH1 0xA0 SHL SUB DUP2 AND DUP1 DUP3 SUB PUSH3 0x95 JUMPI ISZERO PUSH3 0x83 JUMPI DUP1 PUSH3 0x6B PUSH3 0x72 SWAP3 PUSH3 0xB0 JUMP JUMPDEST POP PUSH3 0x130 JUMP JUMPDEST POP PUSH1 0x40 MLOAD PUSH2 0x1D5B SWAP1 DUP2 PUSH3 0x1D3 DUP3 CODECOPY RETURN JUMPDEST PUSH1 0x40 MLOAD PUSH4 0xD92E233D PUSH1 0xE0 SHL DUP2 MSTORE PUSH1 0x4 SWAP1 REVERT JUMPDEST PUSH1 0x0 DUP1 REVERT JUMPDEST PUSH4 0x4E487B71 PUSH1 0xE0 SHL PUSH1 0x0 MSTORE PUSH1 0x41 PUSH1 0x4 MSTORE PUSH1 0x24 PUSH1 0x0 REVERT JUMPDEST PUSH1 0x1 PUSH1 0x1 PUSH1 0xA0 SHL SUB AND PUSH1 0x0 DUP2 DUP2 MSTORE PUSH32 0xAD3228B676F7D3CD4284A5443F17F1962B36E491B30A40B2405849E597BA5FB5 PUSH1 0x20 MSTORE PUSH1 0x40 DUP2 KECCAK256 SLOAD SWAP1 SWAP2 SWAP1 PUSH1 0xFF AND PUSH3 0x12C JUMPI DUP2 DUP1 MSTORE DUP2 PUSH1 0x20 MSTORE PUSH1 0x40 DUP3 KECCAK256 DUP2 DUP4 MSTORE PUSH1 0x20 MSTORE PUSH1 0x40 DUP3 KECCAK256 PUSH1 0x1 PUSH1 0xFF NOT DUP3 SLOAD AND OR SWAP1 SSTORE CALLER SWAP2 PUSH1 0x0 DUP1 MLOAD PUSH1 0x20 PUSH3 0x1F2E DUP4 CODECOPY DUP2 MLOAD SWAP2 MSTORE DUP2 DUP1 LOG4 PUSH1 0x1 SWAP1 JUMP JUMPDEST POP SWAP1 JUMP JUMPDEST PUSH1 0x1 PUSH1 0x1 PUSH1 0xA0 SHL SUB AND PUSH1 0x0 DUP2 DUP2 MSTORE PUSH32 0xCEF3A433619E8274F84BBE9AD5323E8B252FCF8ED48AFFBCE8D2049D944EA6DE PUSH1 0x20 MSTORE PUSH1 0x40 DUP2 KECCAK256 SLOAD SWAP1 SWAP2 SWAP1 PUSH32 0xB346B2DDC13F08BD9685B83A95304A79A2CAAC0AA7AA64129E1AE9F4361B4661 SWAP1 PUSH1 0xFF AND PUSH3 0x1CD JUMPI DUP1 DUP4 MSTORE DUP3 PUSH1 0x20 MSTORE PUSH1 0x40 DUP4 KECCAK256 DUP3 DUP5 MSTORE PUSH1 0x20 MSTORE PUSH1 0x40 DUP4 KECCAK256 PUSH1 0x1 PUSH1 0xFF NOT DUP3 SLOAD AND OR SWAP1 SSTORE PUSH1 0x0 DUP1 MLOAD PUSH1 0x20 PUSH3 0x1F2E DUP4 CODECOPY DUP2 MLOAD SWAP2 MSTORE CALLER SWAP4 DUP1 LOG4 PUSH1 0x1 SWAP1 JUMP JUMPDEST POP POP SWAP1 JUMP INVALID PUSH1 0x80 DUP1 PUSH1 0x40 MSTORE PUSH1 0x4 CALLDATASIZE LT ISZERO PUSH2 0x13 JUMPI PUSH1 0x0 DUP1 REVERT JUMPDEST PUSH1 0x0 SWAP1 DUP2 CALLDATALOAD PUSH1 0xE0 SHR SWAP1 DUP2 PUSH4 0x1FFC9A7 EQ PUSH2 0x1339 JUMPI POP DUP1 PUSH4 0x337C061 EQ PUSH2 0x12FF JUMPI DUP1 PUSH4 0x248A9CA3 EQ PUSH2 0x12D3 JUMPI DUP1 PUSH4 0x2F2FF15D EQ PUSH2 0x1296 JUMPI DUP1 PUSH4 0x31BA1966 EQ PUSH2 0x1257 JUMPI DUP1 PUSH4 0x36568ABE EQ PUSH2 0x120F JUMPI DUP1 PUSH4 0x436693D5 EQ PUSH2 0x118E JUMPI DUP1 PUSH4 0x49D5F6F8 EQ PUSH2 0xC5A JUMPI DUP1 PUSH4 0x5BF4ADFB EQ PUSH2 0xAC8 JUMPI DUP1 PUSH4 0x5FF5BD52 EQ PUSH2 0xA9F JUMPI DUP1 PUSH4 0x6A8BC419 EQ PUSH2 0x5C6 JUMPI DUP1 PUSH4 0x7843BB79 EQ PUSH2 0x5A8 JUMPI DUP1 PUSH4 0x850C1768 EQ PUSH2 0x56C JUMPI DUP1 PUSH4 0x91D14854 EQ PUSH2 0x521 JUMPI DUP1 PUSH4 0x95F94BC4 EQ PUSH2 0x4DA JUMPI DUP1 PUSH4 0xA217FDDF EQ PUSH2 0x4BE JUMPI DUP1 PUSH4 0xB440983E EQ PUSH2 0x490 JUMPI DUP1 PUSH4 0xB4502886 EQ PUSH2 0x456 JUMPI DUP1 PUSH4 0xC16FB313 EQ PUSH2 0x40F JUMPI DUP1 PUSH4 0xD547741F EQ PUSH2 0x3D2 JUMPI DUP1 PUSH4 0xE18AC8EC EQ PUSH2 0x35F JUMPI DUP1 PUSH4 0xF0F2740D EQ PUSH2 0x336 JUMPI DUP1 PUSH4 0xF333FE08 EQ PUSH2 0x252 JUMPI DUP1 PUSH4 0xF4F7A815 EQ PUSH2 0x1BD JUMPI PUSH4 0xFEEF6714 EQ PUSH2 0x134 JUMPI PUSH1 0x0 DUP1 REVERT JUMPDEST CALLVALUE PUSH2 0x1BA JUMPI PUSH1 0x20 DUP1 PUSH1 0x3 NOT CALLDATASIZE ADD SLT PUSH2 0x1B6 JUMPI PUSH1 0x1 PUSH1 0x1 PUSH1 0xA0 SHL SUB PUSH2 0x156 PUSH2 0x138E JUMP JUMPDEST AND DUP3 MSTORE PUSH1 0x2 DUP2 MSTORE PUSH1 0x40 DUP3 KECCAK256 SWAP2 PUSH1 0x40 MLOAD DUP1 SWAP3 DUP1 DUP6 SLOAD SWAP3 DUP4 DUP2 MSTORE ADD SWAP5 DUP4 MSTORE DUP1 DUP4 KECCAK256 SWAP3 SWAP1 JUMPDEST DUP3 DUP3 LT PUSH2 0x19F JUMPI PUSH2 0x19B DUP6 PUSH2 0x18F DUP2 DUP10 SUB DUP3 PUSH2 0x1400 JUMP JUMPDEST PUSH1 0x40 MLOAD SWAP2 DUP3 SWAP2 DUP3 PUSH2 0x1524 JUMP JUMPDEST SUB SWAP1 RETURN JUMPDEST DUP4 SLOAD DUP7 MSTORE SWAP5 DUP6 ADD SWAP5 PUSH1 0x1 SWAP4 DUP5 ADD SWAP4 SWAP1 SWAP2 ADD SWAP1 PUSH2 0x178 JUMP JUMPDEST POP DUP1 REVERT JUMPDEST DUP1 REVERT JUMPDEST POP CALLVALUE PUSH2 0x1BA JUMPI PUSH1 0x20 CALLDATASIZE PUSH1 0x3 NOT ADD SLT PUSH2 0x1BA JUMPI PUSH2 0x1D7 PUSH2 0x138E JUMP JUMPDEST SWAP1 PUSH2 0x1E0 PUSH2 0x155F JUMP JUMPDEST PUSH1 0x1 PUSH1 0x1 PUSH1 0xA0 SHL SUB DUP3 AND SWAP2 DUP3 ISZERO PUSH2 0x240 JUMPI DUP3 DUP3 MSTORE PUSH1 0x4 PUSH1 0x20 MSTORE PUSH1 0xFF PUSH1 0x40 DUP4 KECCAK256 SLOAD AND ISZERO PUSH2 0x227 JUMPI DUP2 SWAP3 PUSH2 0x223 SWAP3 MSTORE PUSH1 0x4 PUSH1 0x20 MSTORE PUSH1 0x40 DUP4 KECCAK256 PUSH1 0xFF NOT DUP2 SLOAD AND SWAP1 SSTORE PUSH2 0x1898 JUMP JUMPDEST POP DUP1 RETURN JUMPDEST PUSH1 0x40 MLOAD PUSH4 0x2A5BBF85 PUSH1 0xE2 SHL DUP2 MSTORE PUSH1 0x4 DUP2 ADD DUP5 SWAP1 MSTORE PUSH1 0x24 SWAP1 REVERT JUMPDEST PUSH1 0x40 MLOAD PUSH4 0xD92E233D PUSH1 0xE0 SHL DUP2 MSTORE PUSH1 0x4 SWAP1 REVERT JUMPDEST POP CALLVALUE PUSH2 0x1BA JUMPI PUSH1 0x20 CALLDATASIZE PUSH1 0x3 NOT ADD SLT PUSH2 0x1BA JUMPI PUSH1 0x40 PUSH1 0x4 CALLDATALOAD SWAP2 PUSH2 0x272 PUSH2 0x1AF2 JUMP JUMPDEST POP DUP3 DUP2 MSTORE PUSH1 0x1 PUSH1 0x20 MSTORE KECCAK256 SWAP1 PUSH1 0x40 MLOAD SWAP2 PUSH2 0x28A DUP4 PUSH2 0x13BA JUMP JUMPDEST DUP1 SLOAD DUP4 MSTORE PUSH1 0x40 MLOAD PUSH2 0x2A9 DUP2 PUSH2 0x2A2 DUP2 PUSH1 0x1 DUP7 ADD PUSH2 0x1B2D JUMP JUMPDEST SUB DUP3 PUSH2 0x1400 JUMP JUMPDEST PUSH1 0x20 DUP5 ADD MSTORE PUSH1 0x1 DUP1 PUSH1 0xA0 SHL SUB DUP1 PUSH1 0x2 DUP4 ADD SLOAD AND PUSH1 0x40 DUP6 ADD MSTORE PUSH1 0x3 DUP3 ADD SLOAD AND PUSH1 0x60 DUP5 ADD MSTORE PUSH1 0x6 PUSH2 0x2FD PUSH1 0x4 DUP4 ADD SLOAD SWAP3 PUSH1 0x80 DUP7 ADD SWAP4 DUP5 MSTORE PUSH1 0xFF PUSH1 0x5 DUP3 ADD SLOAD AND ISZERO ISZERO PUSH1 0xA0 DUP8 ADD MSTORE PUSH2 0x2A2 PUSH1 0x40 MLOAD DUP1 SWAP5 DUP2 SWAP4 ADD PUSH2 0x1B2D JUMP JUMPDEST PUSH1 0xC0 DUP5 ADD MSTORE MLOAD ISZERO PUSH2 0x31E JUMPI PUSH1 0x40 MLOAD PUSH1 0x20 DUP1 DUP3 MSTORE DUP2 SWAP1 PUSH2 0x19B SWAP1 DUP3 ADD DUP6 PUSH2 0x14B9 JUMP JUMPDEST PUSH1 0x24 SWAP1 PUSH1 0x40 MLOAD SWAP1 PUSH4 0xEB0BCC7 PUSH1 0xE3 SHL DUP3 MSTORE PUSH1 0x4 DUP3 ADD MSTORE REVERT JUMPDEST POP CALLVALUE PUSH2 0x1BA JUMPI DUP1 PUSH1 0x3 NOT CALLDATASIZE ADD SLT PUSH2 0x1BA JUMPI PUSH1 0x8 SLOAD PUSH1 0x40 MLOAD PUSH1 0x1 PUSH1 0x1 PUSH1 0xA0 SHL SUB SWAP1 SWAP2 AND DUP2 MSTORE PUSH1 0x20 SWAP1 RETURN JUMPDEST POP CALLVALUE PUSH2 0x1BA JUMPI PUSH1 0x20 DUP1 PUSH1 0x3 NOT CALLDATASIZE ADD SLT PUSH2 0x1B6 JUMPI PUSH1 0x1 PUSH1 0x1 PUSH1 0xA0 SHL SUB PUSH2 0x382 PUSH2 0x138E JUMP JUMPDEST AND DUP3 MSTORE PUSH1 0x3 DUP2 MSTORE PUSH1 0x40 DUP3 KECCAK256 SWAP2 PUSH1 0x40 MLOAD DUP1 SWAP3 DUP1 DUP6 SLOAD SWAP3 DUP4 DUP2 MSTORE ADD SWAP5 DUP4 MSTORE DUP1 DUP4 KECCAK256 SWAP3 SWAP1 JUMPDEST DUP3 DUP3 LT PUSH2 0x3BB JUMPI PUSH2 0x19B DUP6 PUSH2 0x18F DUP2 DUP10 SUB DUP3 PUSH2 0x1400 JUMP JUMPDEST DUP4 SLOAD DUP7 MSTORE SWAP5 DUP6 ADD SWAP5 PUSH1 0x1 SWAP4 DUP5 ADD SWAP4 SWAP1 SWAP2 ADD SWAP1 PUSH2 0x3A4 JUMP JUMPDEST POP CALLVALUE PUSH2 0x1BA JUMPI PUSH1 0x40 CALLDATASIZE PUSH1 0x3 NOT ADD SLT PUSH2 0x1BA JUMPI PUSH2 0x223 PUSH1 0x4 CALLDATALOAD PUSH2 0x3F2 PUSH2 0x13A4 JUMP JUMPDEST SWAP1 DUP1 DUP5 MSTORE DUP4 PUSH1 0x20 MSTORE PUSH2 0x40A PUSH1 0x1 PUSH1 0x40 DUP7 KECCAK256 ADD SLOAD PUSH2 0x1635 JUMP JUMPDEST PUSH2 0x1943 JUMP JUMPDEST POP CALLVALUE PUSH2 0x1BA JUMPI PUSH1 0x20 CALLDATASIZE PUSH1 0x3 NOT ADD SLT PUSH2 0x1BA JUMPI PUSH2 0x429 PUSH2 0x138E JUMP JUMPDEST PUSH2 0x431 PUSH2 0x155F JUMP JUMPDEST PUSH1 0x1 PUSH1 0x1 PUSH1 0xA0 SHL SUB AND DUP1 ISZERO PUSH2 0x240 JUMPI PUSH1 0x1 PUSH1 0x1 PUSH1 0x60 SHL SUB PUSH1 0xA0 SHL PUSH1 0x7 SLOAD AND OR PUSH1 0x7 SSTORE DUP1 RETURN JUMPDEST POP CALLVALUE PUSH2 0x1BA JUMPI PUSH1 0x20 CALLDATASIZE PUSH1 0x3 NOT ADD SLT PUSH2 0x1BA JUMPI PUSH2 0x470 PUSH2 0x138E JUMP JUMPDEST PUSH2 0x478 PUSH2 0x155F JUMP JUMPDEST PUSH1 0x1 PUSH1 0x1 PUSH1 0xA0 SHL SUB DUP2 AND ISZERO PUSH2 0x240 JUMPI PUSH2 0x223 SWAP1 PUSH2 0x1796 JUMP JUMPDEST POP CALLVALUE PUSH2 0x1BA JUMPI PUSH1 0x20 CALLDATASIZE PUSH1 0x3 NOT ADD SLT PUSH2 0x1BA JUMPI PUSH1 0x4 PUSH1 0x40 PUSH1 0x20 SWAP3 DUP3 CALLDATALOAD DUP2 MSTORE PUSH1 0x1 DUP5 MSTORE KECCAK256 ADD SLOAD ISZERO ISZERO PUSH1 0x40 MLOAD SWAP1 DUP2 MSTORE RETURN JUMPDEST POP CALLVALUE PUSH2 0x1BA JUMPI DUP1 PUSH1 0x3 NOT CALLDATASIZE ADD SLT PUSH2 0x1BA JUMPI PUSH1 0x20 SWAP1 PUSH1 0x40 MLOAD SWAP1 DUP2 MSTORE RETURN JUMPDEST POP CALLVALUE PUSH2 0x1BA JUMPI PUSH1 0x20 CALLDATASIZE PUSH1 0x3 NOT ADD SLT PUSH2 0x1BA JUMPI PUSH2 0x4F4 PUSH2 0x138E JUMP JUMPDEST PUSH2 0x4FC PUSH2 0x155F JUMP JUMPDEST PUSH1 0x1 PUSH1 0x1 PUSH1 0xA0 SHL SUB AND DUP1 ISZERO PUSH2 0x240 JUMPI PUSH1 0x1 PUSH1 0x1 PUSH1 0x60 SHL SUB PUSH1 0xA0 SHL PUSH1 0x8 SLOAD AND OR PUSH1 0x8 SSTORE DUP1 RETURN JUMPDEST POP CALLVALUE PUSH2 0x1BA JUMPI PUSH1 0x40 CALLDATASIZE PUSH1 0x3 NOT ADD SLT PUSH2 0x1BA JUMPI PUSH1 0x40 PUSH2 0x53D PUSH2 0x13A4 JUMP JUMPDEST SWAP2 PUSH1 0x4 CALLDATALOAD DUP2 MSTORE DUP1 PUSH1 0x20 MSTORE KECCAK256 SWAP1 PUSH1 0x1 DUP1 PUSH1 0xA0 SHL SUB AND PUSH1 0x0 MSTORE PUSH1 0x20 MSTORE PUSH1 0x20 PUSH1 0xFF PUSH1 0x40 PUSH1 0x0 KECCAK256 SLOAD AND PUSH1 0x40 MLOAD SWAP1 ISZERO ISZERO DUP2 MSTORE RETURN JUMPDEST POP CALLVALUE PUSH2 0x1BA JUMPI PUSH1 0x20 CALLDATASIZE PUSH1 0x3 NOT ADD SLT PUSH2 0x1BA JUMPI PUSH2 0x589 PUSH1 0x4 CALLDATALOAD PUSH2 0x1BC3 JUMP JUMPDEST SWAP1 PUSH2 0x19B PUSH1 0x40 MLOAD SWAP3 DUP4 SWAP3 ISZERO ISZERO DUP4 MSTORE PUSH1 0x40 PUSH1 0x20 DUP5 ADD MSTORE PUSH1 0x40 DUP4 ADD SWAP1 PUSH2 0x14B9 JUMP JUMPDEST POP CALLVALUE PUSH2 0x1BA JUMPI DUP1 PUSH1 0x3 NOT CALLDATASIZE ADD SLT PUSH2 0x1BA JUMPI PUSH1 0x20 PUSH1 0x6 SLOAD PUSH1 0x40 MLOAD SWAP1 DUP2 MSTORE RETURN JUMPDEST POP CALLVALUE PUSH2 0x1BA JUMPI PUSH1 0x80 CALLDATASIZE PUSH1 0x3 NOT ADD SLT PUSH2 0x1BA JUMPI PUSH8 0xFFFFFFFFFFFFFFFF SWAP1 PUSH1 0x24 CALLDATALOAD DUP3 DUP2 GT PUSH2 0x1B6 JUMPI PUSH2 0x5FA SWAP1 CALLDATASIZE SWAP1 PUSH1 0x4 ADD PUSH2 0x1422 JUMP JUMPDEST PUSH1 0x44 CALLDATALOAD SWAP1 PUSH1 0x1 PUSH1 0x1 PUSH1 0xA0 SHL SUB DUP3 AND DUP3 SUB PUSH2 0xA9A JUMPI PUSH1 0x64 CALLDATALOAD DUP5 DUP2 GT PUSH2 0xA96 JUMPI PUSH2 0x626 SWAP1 CALLDATASIZE SWAP1 PUSH1 0x4 ADD PUSH2 0x1422 JUMP JUMPDEST SWAP1 PUSH2 0x62F PUSH2 0x15D9 JUMP JUMPDEST PUSH1 0x4 CALLDATALOAD ISZERO PUSH2 0xA84 JUMPI PUSH1 0x1 PUSH1 0x1 PUSH1 0xA0 SHL SUB DUP4 AND ISZERO PUSH2 0xA63 JUMPI DUP1 MLOAD ISZERO PUSH2 0xA51 JUMPI DUP2 MLOAD ISZERO PUSH2 0xA3F JUMPI PUSH2 0x400 DUP3 MLOAD GT PUSH2 0xA2D JUMPI PUSH1 0x4 CALLDATALOAD DUP5 MSTORE PUSH1 0x1 PUSH1 0x20 MSTORE PUSH1 0x4 PUSH1 0x40 DUP6 KECCAK256 ADD SLOAD PUSH2 0xA14 JUMPI CALLER DUP5 MSTORE PUSH1 0x4 PUSH1 0x20 MSTORE PUSH1 0xFF PUSH1 0x40 DUP6 KECCAK256 SLOAD AND ISZERO PUSH2 0x9FC JUMPI PUSH1 0x40 MLOAD SWAP2 PUSH2 0x696 DUP4 PUSH2 0x13BA JUMP JUMPDEST PUSH1 0x4 CALLDATALOAD DUP4 MSTORE PUSH1 0x20 DUP4 ADD SWAP2 DUP3 MSTORE CALLER PUSH1 0x40 DUP5 ADD MSTORE PUSH1 0x1 DUP1 PUSH1 0xA0 SHL SUB DUP5 AND PUSH1 0x60 DUP5 ADD MSTORE TIMESTAMP PUSH1 0x80 DUP5 ADD MSTORE PUSH1 0x1 PUSH1 0xA0 DUP5 ADD MSTORE PUSH1 0xC0 DUP4 ADD MSTORE PUSH1 0x4 CALLDATALOAD DUP5 MSTORE PUSH1 0x1 PUSH1 0x20 MSTORE PUSH1 0x40 DUP5 KECCAK256 SWAP1 DUP3 MLOAD DUP3 SSTORE MLOAD DUP1 MLOAD SWAP1 DUP7 DUP3 GT PUSH2 0x9E8 JUMPI PUSH2 0x700 DUP3 PUSH2 0x6F7 PUSH1 0x1 DUP7 ADD SLOAD PUSH2 0x19B8 JUMP JUMPDEST PUSH1 0x1 DUP7 ADD PUSH2 0x19F2 JUMP JUMPDEST PUSH1 0x20 SWAP1 PUSH1 0x1F DUP4 GT PUSH1 0x1 EQ PUSH2 0x976 JUMPI SWAP2 DUP1 PUSH1 0xC0 SWAP5 SWAP3 PUSH1 0x6 SWAP5 DUP10 SWAP3 PUSH2 0x96B JUMPI JUMPDEST POP POP DUP2 PUSH1 0x1 SHL SWAP2 PUSH1 0x0 NOT SWAP1 PUSH1 0x3 SHL SHR NOT AND OR PUSH1 0x1 DUP3 ADD SSTORE JUMPDEST PUSH1 0x2 DUP2 ADD PUSH1 0x1 DUP1 PUSH1 0xA0 SHL SUB PUSH1 0x40 DUP7 ADD MLOAD AND SWAP1 PUSH1 0x1 PUSH1 0x1 PUSH1 0x60 SHL SUB PUSH1 0xA0 SHL SWAP2 DUP3 DUP3 SLOAD AND OR SWAP1 SSTORE PUSH1 0x3 DUP3 ADD SWAP1 PUSH1 0x1 DUP1 PUSH1 0xA0 SHL SUB PUSH1 0x60 DUP8 ADD MLOAD AND SWAP1 DUP3 SLOAD AND OR SWAP1 SSTORE PUSH1 0x80 DUP5 ADD MLOAD PUSH1 0x4 DUP3 ADD SSTORE PUSH2 0x79D PUSH1 0xA0 DUP6 ADD MLOAD ISZERO ISZERO PUSH1 0x5 DUP4 ADD SWAP1 PUSH1 0xFF DUP1 NOT DUP4 SLOAD AND SWAP2 ISZERO ISZERO AND OR SWAP1 SSTORE JUMP JUMPDEST ADD SWAP2 ADD MLOAD SWAP4 DUP5 MLOAD SWAP1 DUP2 GT PUSH2 0x957 JUMPI PUSH2 0x7BF DUP2 PUSH2 0x7B9 DUP5 SLOAD PUSH2 0x19B8 JUMP JUMPDEST DUP5 PUSH2 0x19F2 JUMP JUMPDEST PUSH1 0x20 SWAP5 PUSH1 0x1F DUP3 GT PUSH1 0x1 EQ PUSH2 0x8F4 JUMPI SWAP5 DUP5 SWAP6 DUP3 SWAP4 SWAP5 SWAP6 SWAP3 PUSH2 0x8E9 JUMPI JUMPDEST POP POP DUP2 PUSH1 0x1 SHL SWAP2 PUSH1 0x0 NOT SWAP1 PUSH1 0x3 SHL SHR NOT AND OR SWAP1 SSTORE JUMPDEST CALLER DUP3 MSTORE PUSH1 0x2 PUSH1 0x20 MSTORE PUSH2 0x806 PUSH1 0x4 CALLDATALOAD PUSH1 0x40 DUP5 KECCAK256 PUSH2 0x1AA4 JUMP JUMPDEST PUSH1 0x1 PUSH1 0x1 PUSH1 0xA0 SHL SUB DUP2 AND DUP3 MSTORE PUSH1 0x3 PUSH1 0x20 MSTORE PUSH1 0x40 DUP3 KECCAK256 PUSH2 0x828 SWAP1 PUSH1 0x4 CALLDATALOAD SWAP1 PUSH2 0x1AA4 JUMP JUMPDEST PUSH2 0x833 PUSH1 0x4 CALLDATALOAD PUSH2 0x1A46 JUMP JUMPDEST PUSH2 0x83E PUSH1 0x6 SLOAD PUSH2 0x1ACD JUMP JUMPDEST PUSH1 0x6 SSTORE PUSH1 0x7 SLOAD DUP3 SWAP1 PUSH1 0x1 PUSH1 0x1 PUSH1 0xA0 SHL SUB AND DUP1 PUSH2 0x898 JUMPI JUMPDEST POP POP PUSH1 0x40 MLOAD TIMESTAMP DUP2 MSTORE PUSH1 0x1 PUSH1 0x1 PUSH1 0xA0 SHL SUB SWAP1 SWAP2 AND SWAP1 CALLER SWAP1 PUSH1 0x4 CALLDATALOAD SWAP1 PUSH32 0x8A9F2FDD359409354808BBBA510D19F4D4FACF7F77D5802FC3326DB79A730299 SWAP1 PUSH1 0x20 SWAP1 LOG4 DUP1 RETURN JUMPDEST DUP1 EXTCODESIZE ISZERO PUSH2 0x1B6 JUMPI DUP2 DUP1 SWAP2 PUSH1 0x24 PUSH1 0x40 MLOAD DUP1 SWAP5 DUP2 SWAP4 PUSH4 0x2235FFDD PUSH1 0xE1 SHL DUP4 MSTORE PUSH1 0x4 CALLDATALOAD PUSH1 0x4 DUP5 ADD MSTORE GAS CALL DUP1 ISZERO PUSH2 0x8DE JUMPI ISZERO PUSH2 0x855 JUMPI PUSH2 0x8D3 SWAP1 PUSH2 0x13EC JUMP JUMPDEST PUSH2 0x1B6 JUMPI DUP2 CODESIZE PUSH2 0x855 JUMP JUMPDEST PUSH1 0x40 MLOAD RETURNDATASIZE DUP5 DUP3 RETURNDATACOPY RETURNDATASIZE SWAP1 REVERT JUMPDEST ADD MLOAD SWAP1 POP CODESIZE DUP1 PUSH2 0x7DA JUMP JUMPDEST PUSH1 0x1F NOT DUP3 AND SWAP6 DUP4 DUP7 MSTORE PUSH1 0x20 DUP7 KECCAK256 SWAP2 DUP7 JUMPDEST DUP9 DUP2 LT PUSH2 0x93F JUMPI POP DUP4 PUSH1 0x1 SWAP6 SWAP7 SWAP8 SWAP9 LT PUSH2 0x926 JUMPI JUMPDEST POP POP POP DUP2 SHL ADD SWAP1 SSTORE PUSH2 0x7EF JUMP JUMPDEST ADD MLOAD PUSH1 0x0 NOT PUSH1 0xF8 DUP5 PUSH1 0x3 SHL AND SHR NOT AND SWAP1 SSTORE CODESIZE DUP1 DUP1 PUSH2 0x919 JUMP JUMPDEST SWAP2 SWAP3 PUSH1 0x20 PUSH1 0x1 DUP2 SWAP3 DUP7 DUP6 ADD MLOAD DUP2 SSTORE ADD SWAP5 ADD SWAP3 ADD PUSH2 0x904 JUMP JUMPDEST PUSH4 0x4E487B71 PUSH1 0xE0 SHL DUP5 MSTORE PUSH1 0x41 PUSH1 0x4 MSTORE PUSH1 0x24 DUP5 REVERT JUMPDEST ADD MLOAD SWAP1 POP CODESIZE DUP1 PUSH2 0x71E JUMP JUMPDEST SWAP1 PUSH1 0x1 DUP5 ADD DUP8 MSTORE PUSH1 0x20 DUP8 KECCAK256 SWAP2 DUP8 JUMPDEST PUSH1 0x1F NOT DUP6 AND DUP2 LT PUSH2 0x9D0 JUMPI POP SWAP3 PUSH1 0xC0 SWAP5 SWAP3 PUSH1 0x1 SWAP3 PUSH1 0x6 SWAP6 DUP4 PUSH1 0x1F NOT DUP2 AND LT PUSH2 0x9B7 JUMPI JUMPDEST POP POP POP DUP2 SHL ADD PUSH1 0x1 DUP3 ADD SSTORE PUSH2 0x736 JUMP JUMPDEST ADD MLOAD PUSH1 0x0 NOT PUSH1 0xF8 DUP5 PUSH1 0x3 SHL AND SHR NOT AND SWAP1 SSTORE CODESIZE DUP1 DUP1 PUSH2 0x9A7 JUMP JUMPDEST SWAP2 SWAP3 PUSH1 0x20 PUSH1 0x1 DUP2 SWAP3 DUP7 DUP6 ADD MLOAD DUP2 SSTORE ADD SWAP5 ADD SWAP3 ADD PUSH2 0x984 JUMP JUMPDEST PUSH4 0x4E487B71 PUSH1 0xE0 SHL DUP7 MSTORE PUSH1 0x41 PUSH1 0x4 MSTORE PUSH1 0x24 DUP7 REVERT JUMPDEST PUSH1 0x40 MLOAD PUSH4 0x2A5BBF85 PUSH1 0xE2 SHL DUP2 MSTORE CALLER PUSH1 0x4 DUP3 ADD MSTORE PUSH1 0x24 SWAP1 REVERT JUMPDEST PUSH1 0x24 PUSH1 0x40 MLOAD PUSH4 0x16B35FE3 PUSH1 0xE0 SHL DUP2 MSTORE PUSH1 0x4 CALLDATALOAD PUSH1 0x4 DUP3 ADD MSTORE REVERT JUMPDEST PUSH1 0x40 MLOAD PUSH4 0xB4FA3FB3 PUSH1 0xE0 SHL DUP2 MSTORE PUSH1 0x4 SWAP1 REVERT JUMPDEST PUSH1 0x40 MLOAD PUSH4 0xECD7B0D1 PUSH1 0xE0 SHL DUP2 MSTORE PUSH1 0x4 SWAP1 REVERT JUMPDEST PUSH1 0x40 MLOAD PUSH4 0x59A4A39D PUSH1 0xE1 SHL DUP2 MSTORE PUSH1 0x4 SWAP1 REVERT JUMPDEST PUSH1 0x40 MLOAD PUSH4 0x78B27F23 PUSH1 0xE1 SHL DUP2 MSTORE PUSH1 0x1 PUSH1 0x1 PUSH1 0xA0 SHL SUB DUP5 AND PUSH1 0x4 DUP3 ADD MSTORE PUSH1 0x24 SWAP1 REVERT JUMPDEST PUSH1 0x40 MLOAD PUSH4 0x50068073 PUSH1 0xE1 SHL DUP2 MSTORE PUSH1 0x4 SWAP1 REVERT JUMPDEST DUP4 DUP1 REVERT JUMPDEST PUSH1 0x0 DUP1 REVERT JUMPDEST POP CALLVALUE PUSH2 0x1BA JUMPI DUP1 PUSH1 0x3 NOT CALLDATASIZE ADD SLT PUSH2 0x1BA JUMPI PUSH1 0x7 SLOAD PUSH1 0x40 MLOAD PUSH1 0x1 PUSH1 0x1 PUSH1 0xA0 SHL SUB SWAP1 SWAP2 AND DUP2 MSTORE PUSH1 0x20 SWAP1 RETURN JUMPDEST POP CALLVALUE PUSH2 0x1BA JUMPI PUSH1 0x40 CALLDATASIZE PUSH1 0x3 NOT ADD SLT PUSH2 0x1BA JUMPI PUSH1 0x4 CALLDATALOAD PUSH1 0x24 CALLDATALOAD PUSH8 0xFFFFFFFFFFFFFFFF DUP2 GT PUSH2 0xBFB JUMPI PUSH2 0xAFD SWAP1 CALLDATASIZE SWAP1 PUSH1 0x4 ADD PUSH2 0x1422 JUMP JUMPDEST SWAP1 PUSH2 0xB06 PUSH2 0x15D9 JUMP JUMPDEST DUP1 DUP4 MSTORE PUSH1 0x1 PUSH1 0x20 MSTORE PUSH1 0x40 DUP4 KECCAK256 PUSH1 0x4 DUP2 ADD SLOAD ISZERO PUSH2 0xC41 JUMPI PUSH1 0x2 DUP2 ADD SLOAD PUSH1 0x1 PUSH1 0x1 PUSH1 0xA0 SHL SUB SWAP2 SWAP1 DUP3 AND CALLER DUP2 SUB PUSH2 0xC18 JUMPI POP PUSH1 0x5 ADD SWAP1 DUP2 SLOAD SWAP2 PUSH1 0xFF DUP4 AND ISZERO PUSH2 0xBFF JUMPI DUP5 MLOAD ISZERO PUSH2 0xA3F JUMPI DUP6 SWAP3 PUSH1 0xFF NOT AND SWAP1 SSTORE PUSH1 0x8 SLOAD AND DUP1 PUSH2 0xBA4 JUMPI JUMPDEST POP POP PUSH32 0x2DC910602B63B3A70FAD6CED1F1EC487C86FC854530555B5FCE6C82EBBD1604E PUSH1 0x40 MLOAD TIMESTAMP DUP2 MSTORE PUSH1 0x40 PUSH1 0x20 DUP3 ADD MSTORE DUP1 PUSH2 0xB9E CALLER SWAP6 PUSH1 0x40 DUP4 ADD SWAP1 PUSH2 0x1479 JUMP JUMPDEST SUB SWAP1 LOG3 DUP1 RETURN JUMPDEST DUP1 EXTCODESIZE ISZERO PUSH2 0x1B6 JUMPI DUP2 PUSH1 0x40 MLOAD DUP1 SWAP3 PUSH4 0x5BF4ADFB PUSH1 0xE0 SHL DUP3 MSTORE DUP6 PUSH1 0x4 DUP4 ADD MSTORE PUSH1 0x40 PUSH1 0x24 DUP4 ADD MSTORE DUP2 DUP4 DUP2 PUSH2 0xBD8 PUSH1 0x44 DUP3 ADD DUP12 PUSH2 0x1479 JUMP JUMPDEST SUB SWAP3 GAS CALL DUP1 ISZERO PUSH2 0x8DE JUMPI ISZERO PUSH2 0xB5E JUMPI PUSH2 0xBF0 SWAP1 PUSH2 0x13EC JUMP JUMPDEST PUSH2 0xBFB JUMPI DUP3 CODESIZE PUSH2 0xB5E JUMP JUMPDEST DUP3 DUP1 REVERT JUMPDEST PUSH1 0x40 MLOAD PUSH4 0xB93E450D PUSH1 0xE0 SHL DUP2 MSTORE PUSH1 0x4 DUP2 ADD DUP6 SWAP1 MSTORE PUSH1 0x24 SWAP1 REVERT JUMPDEST PUSH1 0x40 MLOAD PUSH4 0x4223CE1D PUSH1 0xE1 SHL DUP2 MSTORE CALLER PUSH1 0x4 DUP3 ADD MSTORE PUSH1 0x1 PUSH1 0x1 PUSH1 0xA0 SHL SUB SWAP2 SWAP1 SWAP2 AND PUSH1 0x24 DUP3 ADD MSTORE PUSH1 0x44 SWAP1 REVERT JUMPDEST PUSH1 0x40 MLOAD PUSH4 0xEB0BCC7 PUSH1 0xE3 SHL DUP2 MSTORE PUSH1 0x4 DUP2 ADD DUP4 SWAP1 MSTORE PUSH1 0x24 SWAP1 REVERT JUMPDEST POP CALLVALUE PUSH2 0x1BA JUMPI PUSH1 0x80 CALLDATASIZE PUSH1 0x3 NOT ADD SLT PUSH2 0x1BA JUMPI PUSH1 0x44 CALLDATALOAD PUSH8 0xFFFFFFFFFFFFFFFF DUP2 GT PUSH2 0x1B6 JUMPI PUSH2 0xC8C SWAP1 CALLDATASIZE SWAP1 PUSH1 0x4 ADD PUSH2 0x1422 JUMP JUMPDEST SWAP1 PUSH1 0x64 CALLDATALOAD PUSH8 0xFFFFFFFFFFFFFFFF DUP2 GT PUSH2 0x1B6 JUMPI PUSH2 0xCAD SWAP1 CALLDATASIZE SWAP1 PUSH1 0x4 ADD PUSH2 0x1422 JUMP JUMPDEST SWAP2 PUSH2 0xCB6 PUSH2 0x15D9 JUMP JUMPDEST PUSH1 0x4 CALLDATALOAD DUP3 MSTORE PUSH1 0x1 PUSH1 0x20 MSTORE PUSH1 0x40 DUP3 KECCAK256 PUSH1 0x4 DUP2 ADD SLOAD ISZERO PUSH2 0x1175 JUMPI PUSH1 0x2 DUP2 ADD SLOAD PUSH1 0x1 PUSH1 0x1 PUSH1 0xA0 SHL SUB AND CALLER DUP2 SUB PUSH2 0xC18 JUMPI POP PUSH1 0x5 DUP2 ADD SWAP1 DUP2 SLOAD SWAP2 PUSH1 0xFF DUP4 AND ISZERO PUSH2 0x115C JUMPI PUSH1 0x24 CALLDATALOAD DUP6 MSTORE PUSH1 0x1 PUSH1 0x20 MSTORE PUSH1 0x4 PUSH1 0x40 DUP7 KECCAK256 ADD SLOAD PUSH2 0x1143 JUMPI PUSH1 0xFF NOT SWAP1 SWAP3 AND SWAP1 SWAP2 SSTORE PUSH1 0x3 ADD DUP1 SLOAD PUSH1 0x40 MLOAD SWAP2 SWAP5 SWAP1 PUSH1 0x1 PUSH1 0x1 PUSH1 0xA0 SHL SUB AND PUSH2 0xD31 DUP4 PUSH2 0x13BA JUMP JUMPDEST PUSH1 0x24 CALLDATALOAD DUP4 MSTORE PUSH1 0x20 DUP4 ADD SWAP4 DUP5 MSTORE CALLER PUSH1 0x40 DUP5 ADD MSTORE PUSH1 0x60 DUP4 ADD MSTORE TIMESTAMP PUSH1 0x80 DUP4 ADD MSTORE PUSH1 0x1 PUSH1 0xA0 DUP4 ADD MSTORE PUSH1 0xC0 DUP3 ADD MSTORE PUSH1 0x24 CALLDATALOAD DUP4 MSTORE PUSH1 0x1 PUSH1 0x20 MSTORE PUSH1 0x40 DUP4 KECCAK256 SWAP2 DUP2 MLOAD DUP4 SSTORE MLOAD DUP1 MLOAD SWAP1 PUSH8 0xFFFFFFFFFFFFFFFF DUP3 GT PUSH2 0x112F JUMPI PUSH2 0xD9A DUP3 PUSH2 0xD91 PUSH1 0x1 DUP8 ADD SLOAD PUSH2 0x19B8 JUMP JUMPDEST PUSH1 0x1 DUP8 ADD PUSH2 0x19F2 JUMP JUMPDEST PUSH1 0x20 SWAP1 PUSH1 0x1F DUP4 GT PUSH1 0x1 EQ PUSH2 0x10BF JUMPI PUSH1 0xC0 SWAP4 SWAP3 SWAP2 DUP7 SWAP2 DUP4 PUSH2 0x10B4 JUMPI JUMPDEST POP POP DUP2 PUSH1 0x1 SHL SWAP2 PUSH1 0x0 NOT SWAP1 PUSH1 0x3 SHL SHR NOT AND OR PUSH1 0x1 DUP5 ADD SSTORE JUMPDEST PUSH1 0x2 DUP4 ADD PUSH1 0x1 DUP1 PUSH1 0xA0 SHL SUB PUSH1 0x40 DUP4 ADD MLOAD AND SWAP1 PUSH1 0x1 PUSH1 0x1 PUSH1 0x60 SHL SUB PUSH1 0xA0 SHL SWAP2 DUP3 DUP3 SLOAD AND OR SWAP1 SSTORE PUSH1 0x3 DUP5 ADD SWAP1 PUSH1 0x1 DUP1 PUSH1 0xA0 SHL SUB PUSH1 0x60 DUP5 ADD MLOAD AND SWAP1 DUP3 SLOAD AND OR SWAP1 SSTORE PUSH1 0x80 DUP2 ADD MLOAD PUSH1 0x4 DUP5 ADD SSTORE PUSH2 0xE34 PUSH1 0xA0 DUP3 ADD MLOAD ISZERO ISZERO PUSH1 0x5 DUP6 ADD SWAP1 PUSH1 0xFF DUP1 NOT DUP4 SLOAD AND SWAP2 ISZERO ISZERO AND OR SWAP1 SSTORE JUMP JUMPDEST ADD MLOAD DUP1 MLOAD SWAP1 PUSH8 0xFFFFFFFFFFFFFFFF DUP3 GT PUSH2 0x957 JUMPI PUSH2 0xE62 DUP3 PUSH2 0xE59 PUSH1 0x6 DUP7 ADD SLOAD PUSH2 0x19B8 JUMP JUMPDEST PUSH1 0x6 DUP7 ADD PUSH2 0x19F2 JUMP JUMPDEST PUSH1 0x20 SWAP1 PUSH1 0x1F DUP4 GT PUSH1 0x1 EQ PUSH2 0x1047 JUMPI PUSH1 0x6 SWAP3 SWAP2 DUP6 SWAP2 DUP4 PUSH2 0x103C JUMPI JUMPDEST POP POP DUP2 PUSH1 0x1 SHL SWAP2 PUSH1 0x0 NOT SWAP1 PUSH1 0x3 SHL SHR NOT AND OR SWAP2 ADD SSTORE JUMPDEST CALLER DUP2 MSTORE PUSH1 0x2 PUSH1 0x20 MSTORE PUSH2 0xEA9 PUSH1 0x24 CALLDATALOAD PUSH1 0x40 DUP4 KECCAK256 PUSH2 0x1AA4 JUMP JUMPDEST DUP2 SLOAD PUSH1 0x1 PUSH1 0x1 PUSH1 0xA0 SHL SUB AND DUP2 MSTORE PUSH1 0x3 PUSH1 0x20 MSTORE PUSH1 0x40 DUP2 KECCAK256 PUSH2 0xECC SWAP1 PUSH1 0x24 CALLDATALOAD SWAP1 PUSH2 0x1AA4 JUMP JUMPDEST PUSH2 0xED7 PUSH1 0x24 CALLDATALOAD PUSH2 0x1A46 JUMP JUMPDEST PUSH2 0xEE2 PUSH1 0x6 SLOAD PUSH2 0x1ACD JUMP JUMPDEST PUSH1 0x6 SSTORE PUSH1 0x7 SLOAD PUSH1 0x1 PUSH1 0x1 PUSH1 0xA0 SHL SUB AND DUP1 PUSH2 0xFFC JUMPI JUMPDEST POP PUSH1 0x8 SLOAD SWAP1 SWAP2 SWAP1 DUP3 SWAP1 PUSH1 0x1 PUSH1 0x1 PUSH1 0xA0 SHL SUB AND DUP1 PUSH2 0xF82 JUMPI JUMPDEST POP POP PUSH1 0x40 MLOAD TIMESTAMP DUP2 MSTORE CALLER SWAP1 PUSH1 0x24 CALLDATALOAD SWAP1 PUSH32 0xBDEC61CC56FA0FB6269F7FA5C6EAEF0EC0B7566D18A3563592237135761ED45 PUSH1 0x20 PUSH1 0x4 CALLDATALOAD SWAP3 LOG4 PUSH1 0x1 DUP1 PUSH1 0xA0 SHL SUB SWAP1 SLOAD AND PUSH1 0x40 MLOAD TIMESTAMP DUP2 MSTORE CALLER SWAP1 PUSH32 0x8A9F2FDD359409354808BBBA510D19F4D4FACF7F77D5802FC3326DB79A730299 PUSH1 0x20 PUSH1 0x24 CALLDATALOAD SWAP3 LOG4 DUP1 RETURN JUMPDEST DUP1 EXTCODESIZE ISZERO PUSH2 0x1B6 JUMPI DUP2 DUP1 SWAP2 PUSH1 0xA4 PUSH1 0x40 MLOAD DUP1 SWAP5 DUP2 SWAP4 PUSH4 0x7588673 PUSH1 0xE3 SHL DUP4 MSTORE PUSH1 0x4 CALLDATALOAD PUSH1 0x4 DUP5 ADD MSTORE PUSH1 0x24 CALLDATALOAD PUSH1 0x24 DUP5 ADD MSTORE PUSH1 0x60 PUSH1 0x44 DUP5 ADD MSTORE PUSH1 0x15 PUSH1 0x64 DUP5 ADD MSTORE PUSH21 0x10D95C9D1A599A58D85D194818DBDC9C9958DD1959 PUSH1 0x5A SHL PUSH1 0x84 DUP5 ADD MSTORE GAS CALL DUP1 ISZERO PUSH2 0x8DE JUMPI ISZERO PUSH2 0xF0F JUMPI PUSH2 0xFF1 SWAP1 PUSH2 0x13EC JUMP JUMPDEST PUSH2 0x1B6 JUMPI DUP2 CODESIZE PUSH2 0xF0F JUMP JUMPDEST DUP1 EXTCODESIZE ISZERO PUSH2 0x1B6 JUMPI DUP2 DUP1 SWAP2 PUSH1 0x24 PUSH1 0x40 MLOAD DUP1 SWAP5 DUP2 SWAP4 PUSH4 0x2235FFDD PUSH1 0xE1 SHL DUP4 MSTORE DUP4 CALLDATALOAD PUSH1 0x4 DUP5 ADD MSTORE GAS CALL DUP1 ISZERO PUSH2 0x8DE JUMPI ISZERO PUSH2 0xEF7 JUMPI PUSH2 0x1036 SWAP1 PUSH2 0x13EC JUMP JUMPDEST CODESIZE PUSH2 0xEF7 JUMP JUMPDEST ADD MLOAD SWAP1 POP CODESIZE DUP1 PUSH2 0xE7C JUMP JUMPDEST SWAP1 PUSH1 0x6 DUP5 ADD DUP6 MSTORE PUSH1 0x20 DUP6 KECCAK256 SWAP2 DUP6 JUMPDEST PUSH1 0x1F NOT DUP6 AND DUP2 LT PUSH2 0x109C JUMPI POP SWAP2 DUP4 SWAP2 PUSH1 0x1 SWAP4 PUSH1 0x6 SWAP6 PUSH1 0x1F NOT DUP2 AND LT PUSH2 0x1083 JUMPI JUMPDEST POP POP POP DUP2 SHL ADD SWAP2 ADD SSTORE PUSH2 0xE92 JUMP JUMPDEST ADD MLOAD PUSH1 0x0 NOT PUSH1 0xF8 DUP5 PUSH1 0x3 SHL AND SHR NOT AND SWAP1 SSTORE CODESIZE DUP1 DUP1 PUSH2 0x1075 JUMP JUMPDEST SWAP2 SWAP3 PUSH1 0x20 PUSH1 0x1 DUP2 SWAP3 DUP7 DUP6 ADD MLOAD DUP2 SSTORE ADD SWAP5 ADD SWAP3 ADD PUSH2 0x1055 JUMP JUMPDEST ADD MLOAD SWAP1 POP CODESIZE DUP1 PUSH2 0xDB5 JUMP JUMPDEST SWAP1 PUSH1 0x1 DUP6 ADD DUP7 MSTORE PUSH1 0x20 DUP7 KECCAK256 SWAP2 DUP7 JUMPDEST PUSH1 0x1F NOT DUP6 AND DUP2 LT PUSH2 0x1117 JUMPI POP SWAP2 DUP4 SWAP2 PUSH1 0x1 SWAP4 PUSH1 0xC0 SWAP7 SWAP6 PUSH1 0x1F NOT DUP2 AND LT PUSH2 0x10FE JUMPI JUMPDEST POP POP POP DUP2 SHL ADD PUSH1 0x1 DUP5 ADD SSTORE PUSH2 0xDCD JUMP JUMPDEST ADD MLOAD PUSH1 0x0 NOT PUSH1 0xF8 DUP5 PUSH1 0x3 SHL AND SHR NOT AND SWAP1 SSTORE CODESIZE DUP1 DUP1 PUSH2 0x10EE JUMP JUMPDEST SWAP2 SWAP3 PUSH1 0x20 PUSH1 0x1 DUP2 SWAP3 DUP7 DUP6 ADD MLOAD DUP2 SSTORE ADD SWAP5 ADD SWAP3 ADD PUSH2 0x10CD JUMP JUMPDEST PUSH4 0x4E487B71 PUSH1 0xE0 SHL DUP6 MSTORE PUSH1 0x41 PUSH1 0x4 MSTORE PUSH1 0x24 DUP6 REVERT JUMPDEST PUSH1 0x40 MLOAD PUSH4 0x16B35FE3 PUSH1 0xE0 SHL DUP2 MSTORE PUSH1 0x24 DUP1 CALLDATALOAD PUSH1 0x4 DUP4 ADD MSTORE SWAP1 REVERT JUMPDEST PUSH1 0x24 PUSH1 0x40 MLOAD PUSH4 0xB93E450D PUSH1 0xE0 SHL DUP2 MSTORE PUSH1 0x4 CALLDATALOAD PUSH1 0x4 DUP3 ADD MSTORE REVERT JUMPDEST PUSH1 0x24 PUSH1 0x40 MLOAD PUSH4 0xEB0BCC7 PUSH1 0xE3 SHL DUP2 MSTORE PUSH1 0x4 CALLDATALOAD PUSH1 0x4 DUP3 ADD MSTORE REVERT JUMPDEST POP CALLVALUE PUSH2 0x1BA JUMPI PUSH1 0x20 CALLDATASIZE PUSH1 0x3 NOT ADD SLT PUSH2 0x1BA JUMPI PUSH2 0x11A8 PUSH2 0x138E JUMP JUMPDEST SWAP1 PUSH2 0x11B1 PUSH2 0x155F JUMP JUMPDEST PUSH1 0x1 PUSH1 0x1 PUSH1 0xA0 SHL SUB DUP3 AND SWAP2 DUP3 ISZERO PUSH2 0x240 JUMPI DUP3 DUP3 MSTORE PUSH1 0x4 PUSH1 0x20 MSTORE PUSH1 0xFF PUSH1 0x40 DUP4 KECCAK256 SLOAD AND PUSH2 0x11F6 JUMPI DUP2 SWAP3 PUSH2 0x223 SWAP3 MSTORE PUSH1 0x4 PUSH1 0x20 MSTORE PUSH1 0x40 DUP4 KECCAK256 PUSH1 0x1 PUSH1 0xFF NOT DUP3 SLOAD AND OR SWAP1 SSTORE PUSH2 0x16FB JUMP JUMPDEST PUSH1 0x40 MLOAD PUSH4 0xC28E848F PUSH1 0xE0 SHL DUP2 MSTORE PUSH1 0x4 DUP2 ADD DUP5 SWAP1 MSTORE PUSH1 0x24 SWAP1 REVERT JUMPDEST POP CALLVALUE PUSH2 0x1BA JUMPI PUSH1 0x40 CALLDATASIZE PUSH1 0x3 NOT ADD SLT PUSH2 0x1BA JUMPI PUSH2 0x1229 PUSH2 0x13A4 JUMP JUMPDEST CALLER PUSH1 0x1 PUSH1 0x1 PUSH1 0xA0 SHL SUB DUP3 AND SUB PUSH2 0x1245 JUMPI PUSH2 0x223 SWAP1 PUSH1 0x4 CALLDATALOAD PUSH2 0x1943 JUMP JUMPDEST PUSH1 0x40 MLOAD PUSH4 0x334BD919 PUSH1 0xE1 SHL DUP2 MSTORE PUSH1 0x4 SWAP1 REVERT JUMPDEST POP CALLVALUE PUSH2 0x1BA JUMPI PUSH1 0x20 CALLDATASIZE PUSH1 0x3 NOT ADD SLT PUSH2 0x1BA JUMPI PUSH1 0x20 SWAP1 PUSH1 0xFF SWAP1 PUSH1 0x40 SWAP1 PUSH1 0x1 PUSH1 0x1 PUSH1 0xA0 SHL SUB PUSH2 0x1282 PUSH2 0x138E JUMP JUMPDEST AND DUP2 MSTORE PUSH1 0x4 DUP5 MSTORE KECCAK256 SLOAD AND PUSH1 0x40 MLOAD SWAP1 ISZERO ISZERO DUP2 MSTORE RETURN JUMPDEST POP CALLVALUE PUSH2 0x1BA JUMPI PUSH1 0x40 CALLDATASIZE PUSH1 0x3 NOT ADD SLT PUSH2 0x1BA JUMPI PUSH2 0x223 PUSH1 0x4 CALLDATALOAD PUSH2 0x12B6 PUSH2 0x13A4 JUMP JUMPDEST SWAP1 DUP1 DUP5 MSTORE DUP4 PUSH1 0x20 MSTORE PUSH2 0x12CE PUSH1 0x1 PUSH1 0x40 DUP7 KECCAK256 ADD SLOAD PUSH2 0x1635 JUMP JUMPDEST PUSH2 0x1831 JUMP JUMPDEST POP CALLVALUE PUSH2 0x1BA JUMPI PUSH1 0x20 CALLDATASIZE PUSH1 0x3 NOT ADD SLT PUSH2 0x1BA JUMPI PUSH1 0x1 PUSH1 0x40 PUSH1 0x20 SWAP3 PUSH1 0x4 CALLDATALOAD DUP2 MSTORE DUP1 DUP5 MSTORE KECCAK256 ADD SLOAD PUSH1 0x40 MLOAD SWAP1 DUP2 MSTORE RETURN JUMPDEST POP CALLVALUE PUSH2 0x1BA JUMPI PUSH1 0x20 CALLDATASIZE PUSH1 0x3 NOT ADD SLT PUSH2 0x1BA JUMPI PUSH2 0x1319 PUSH2 0x138E JUMP JUMPDEST PUSH2 0x1321 PUSH2 0x155F JUMP JUMPDEST PUSH1 0x1 PUSH1 0x1 PUSH1 0xA0 SHL SUB DUP2 AND ISZERO PUSH2 0x240 JUMPI PUSH2 0x223 SWAP1 PUSH2 0x165B JUMP JUMPDEST SWAP1 POP CALLVALUE PUSH2 0x1B6 JUMPI PUSH1 0x20 CALLDATASIZE PUSH1 0x3 NOT ADD SLT PUSH2 0x1B6 JUMPI PUSH1 0x4 CALLDATALOAD PUSH4 0xFFFFFFFF PUSH1 0xE0 SHL DUP2 AND DUP1 SWAP2 SUB PUSH2 0xBFB JUMPI PUSH1 0x20 SWAP3 POP PUSH4 0x7965DB0B PUSH1 0xE0 SHL DUP2 EQ SWAP1 DUP2 ISZERO PUSH2 0x137D JUMPI JUMPDEST POP ISZERO ISZERO DUP2 MSTORE RETURN JUMPDEST PUSH4 0x1FFC9A7 PUSH1 0xE0 SHL EQ SWAP1 POP CODESIZE PUSH2 0x1376 JUMP JUMPDEST PUSH1 0x4 CALLDATALOAD SWAP1 PUSH1 0x1 PUSH1 0x1 PUSH1 0xA0 SHL SUB DUP3 AND DUP3 SUB PUSH2 0xA9A JUMPI JUMP JUMPDEST PUSH1 0x24 CALLDATALOAD SWAP1 PUSH1 0x1 PUSH1 0x1 PUSH1 0xA0 SHL SUB DUP3 AND DUP3 SUB PUSH2 0xA9A JUMPI JUMP JUMPDEST PUSH1 0xE0 DUP2 ADD SWAP1 DUP2 LT PUSH8 0xFFFFFFFFFFFFFFFF DUP3 GT OR PUSH2 0x13D6 JUMPI PUSH1 0x40 MSTORE JUMP JUMPDEST PUSH4 0x4E487B71 PUSH1 0xE0 SHL PUSH1 0x0 MSTORE PUSH1 0x41 PUSH1 0x4 MSTORE PUSH1 0x24 PUSH1 0x0 REVERT JUMPDEST PUSH8 0xFFFFFFFFFFFFFFFF DUP2 GT PUSH2 0x13D6 JUMPI PUSH1 0x40 MSTORE JUMP JUMPDEST SWAP1 PUSH1 0x1F DUP1 NOT SWAP2 ADD AND DUP2 ADD SWAP1 DUP2 LT PUSH8 0xFFFFFFFFFFFFFFFF DUP3 GT OR PUSH2 0x13D6 JUMPI PUSH1 0x40 MSTORE JUMP JUMPDEST DUP2 PUSH1 0x1F DUP3 ADD SLT ISZERO PUSH2 0xA9A JUMPI DUP1 CALLDATALOAD SWAP1 PUSH8 0xFFFFFFFFFFFFFFFF DUP3 GT PUSH2 0x13D6 JUMPI PUSH1 0x40 MLOAD SWAP3 PUSH2 0x1457 PUSH1 0x1F DUP5 ADD PUSH1 0x1F NOT AND PUSH1 0x20 ADD DUP6 PUSH2 0x1400 JUMP JUMPDEST DUP3 DUP5 MSTORE PUSH1 0x20 DUP4 DUP4 ADD ADD GT PUSH2 0xA9A JUMPI DUP2 PUSH1 0x0 SWAP3 PUSH1 0x20 DUP1 SWAP4 ADD DUP4 DUP7 ADD CALLDATACOPY DUP4 ADD ADD MSTORE SWAP1 JUMP JUMPDEST SWAP2 SWAP1 DUP3 MLOAD SWAP3 DUP4 DUP3 MSTORE PUSH1 0x0 JUMPDEST DUP5 DUP2 LT PUSH2 0x14A5 JUMPI POP POP DUP3 PUSH1 0x0 PUSH1 0x20 DUP1 SWAP5 SWAP6 DUP5 ADD ADD MSTORE PUSH1 0x1F DUP1 NOT SWAP2 ADD AND ADD ADD SWAP1 JUMP JUMPDEST PUSH1 0x20 DUP2 DUP4 ADD DUP2 ADD MLOAD DUP5 DUP4 ADD DUP3 ADD MSTORE ADD PUSH2 0x1484 JUMP JUMPDEST PUSH2 0x1521 SWAP2 DUP2 MLOAD DUP2 MSTORE PUSH1 0xC0 PUSH2 0x14DC PUSH1 0x20 DUP5 ADD MLOAD PUSH1 0xE0 PUSH1 0x20 DUP6 ADD MSTORE PUSH1 0xE0 DUP5 ADD SWAP1 PUSH2 0x1479 JUMP JUMPDEST SWAP3 PUSH1 0x1 DUP1 PUSH1 0xA0 SHL SUB DUP1 PUSH1 0x40 DUP4 ADD MLOAD AND PUSH1 0x40 DUP6 ADD MSTORE PUSH1 0x60 DUP3 ADD MLOAD AND PUSH1 0x60 DUP5 ADD MSTORE PUSH1 0x80 DUP2 ADD MLOAD PUSH1 0x80 DUP5 ADD MSTORE PUSH1 0xA0 DUP2 ADD MLOAD ISZERO ISZERO PUSH1 0xA0 DUP5 ADD MSTORE ADD MLOAD SWAP1 PUSH1 0xC0 DUP2 DUP5 SUB SWAP2 ADD MSTORE PUSH2 0x1479 JUMP JUMPDEST SWAP1 JUMP JUMPDEST PUSH1 0x20 SWAP1 DUP2 PUSH1 0x40 DUP2 DUP4 ADD SWAP3 DUP3 DUP2 MSTORE DUP6 MLOAD DUP1 SWAP5 MSTORE ADD SWAP4 ADD SWAP2 PUSH1 0x0 JUMPDEST DUP3 DUP2 LT PUSH2 0x154B JUMPI POP POP POP POP SWAP1 JUMP JUMPDEST DUP4 MLOAD DUP6 MSTORE SWAP4 DUP2 ADD SWAP4 SWAP3 DUP2 ADD SWAP3 PUSH1 0x1 ADD PUSH2 0x153D JUMP JUMPDEST CALLER PUSH1 0x0 SWAP1 DUP2 MSTORE PUSH32 0xCEF3A433619E8274F84BBE9AD5323E8B252FCF8ED48AFFBCE8D2049D944EA6DE PUSH1 0x20 MSTORE PUSH1 0x40 SWAP1 KECCAK256 SLOAD PUSH32 0xB346B2DDC13F08BD9685B83A95304A79A2CAAC0AA7AA64129E1AE9F4361B4661 SWAP1 PUSH1 0xFF AND ISZERO PUSH2 0x15BB JUMPI POP JUMP JUMPDEST PUSH1 0x44 SWAP1 PUSH1 0x40 MLOAD SWAP1 PUSH4 0xE2517D3F PUSH1 0xE0 SHL DUP3 MSTORE CALLER PUSH1 0x4 DUP4 ADD MSTORE PUSH1 0x24 DUP3 ADD MSTORE REVERT JUMPDEST CALLER PUSH1 0x0 SWAP1 DUP2 MSTORE PUSH32 0x75A62D95AD9FEF7BBA5C4DDE6E3FF662D5C539A6D57CB138A3D5C2F3A42773FF PUSH1 0x20 MSTORE PUSH1 0x40 SWAP1 KECCAK256 SLOAD PUSH32 0x4B90E70A23AD1C016CDBA1A015076C2DE977E305FCAD3881690CAFBE99D36190 SWAP1 PUSH1 0xFF AND ISZERO PUSH2 0x15BB JUMPI POP JUMP JUMPDEST DUP1 PUSH1 0x0 MSTORE PUSH1 0x0 PUSH1 0x20 MSTORE PUSH1 0x40 PUSH1 0x0 KECCAK256 CALLER PUSH1 0x0 MSTORE PUSH1 0x20 MSTORE PUSH1 0xFF PUSH1 0x40 PUSH1 0x0 KECCAK256 SLOAD AND ISZERO PUSH2 0x15BB JUMPI POP JUMP JUMPDEST PUSH1 0x1 PUSH1 0x1 PUSH1 0xA0 SHL SUB AND PUSH1 0x0 DUP2 DUP2 MSTORE PUSH32 0x47B209C9573D16F2CA15BDB23E32336B26A4895C2E8FADAD21581EBF5C674B53 PUSH1 0x20 MSTORE PUSH1 0x40 DUP2 KECCAK256 SLOAD SWAP1 SWAP2 SWAP1 PUSH32 0xA48C898F5241BE426B79D4B5A3C206F9C9A06576E1B72C338C3EC849771D5686 SWAP1 PUSH1 0xFF AND PUSH2 0x16F6 JUMPI DUP1 DUP4 MSTORE DUP3 PUSH1 0x20 MSTORE PUSH1 0x40 DUP4 KECCAK256 DUP3 DUP5 MSTORE PUSH1 0x20 MSTORE PUSH1 0x40 DUP4 KECCAK256 PUSH1 0x1 PUSH1 0xFF NOT DUP3 SLOAD AND OR SWAP1 SSTORE PUSH1 0x0 DUP1 MLOAD PUSH1 0x20 PUSH2 0x1D06 DUP4 CODECOPY DUP2 MLOAD SWAP2 MSTORE CALLER SWAP4 DUP1 LOG4 PUSH1 0x1 SWAP1 JUMP JUMPDEST POP POP SWAP1 JUMP JUMPDEST PUSH1 0x1 PUSH1 0x1 PUSH1 0xA0 SHL SUB AND PUSH1 0x0 DUP2 DUP2 MSTORE PUSH32 0x75A62D95AD9FEF7BBA5C4DDE6E3FF662D5C539A6D57CB138A3D5C2F3A42773FF PUSH1 0x20 MSTORE PUSH1 0x40 DUP2 KECCAK256 SLOAD SWAP1 SWAP2 SWAP1 PUSH32 0x4B90E70A23AD1C016CDBA1A015076C2DE977E305FCAD3881690CAFBE99D36190 SWAP1 PUSH1 0xFF AND PUSH2 0x16F6 JUMPI DUP1 DUP4 MSTORE DUP3 PUSH1 0x20 MSTORE PUSH1 0x40 DUP4 KECCAK256 DUP3 DUP5 MSTORE PUSH1 0x20 MSTORE PUSH1 0x40 DUP4 KECCAK256 PUSH1 0x1 PUSH1 0xFF NOT DUP3 SLOAD AND OR SWAP1 SSTORE PUSH1 0x0 DUP1 MLOAD PUSH1 0x20 PUSH2 0x1D06 DUP4 CODECOPY DUP2 MLOAD SWAP2 MSTORE CALLER SWAP4 DUP1 LOG4 PUSH1 0x1 SWAP1 JUMP JUMPDEST PUSH1 0x1 PUSH1 0x1 PUSH1 0xA0 SHL SUB AND PUSH1 0x0 DUP2 DUP2 MSTORE PUSH32 0x243C3A114FCC565356AFCC3DFBC60278634B704337FA7C3352C3A0C54E0F96F PUSH1 0x20 MSTORE PUSH1 0x40 DUP2 KECCAK256 SLOAD SWAP1 SWAP2 SWAP1 PUSH32 0x95DB38DA2BDCEEB0C3CC1C1C6BF13D1B48A5CC148BA8DD82AB7367BA40CA3027 SWAP1 PUSH1 0xFF AND PUSH2 0x16F6 JUMPI DUP1 DUP4 MSTORE DUP3 PUSH1 0x20 MSTORE PUSH1 0x40 DUP4 KECCAK256 DUP3 DUP5 MSTORE PUSH1 0x20 MSTORE PUSH1 0x40 DUP4 KECCAK256 PUSH1 0x1 PUSH1 0xFF NOT DUP3 SLOAD AND OR SWAP1 SSTORE PUSH1 0x0 DUP1 MLOAD PUSH1 0x20 PUSH2 0x1D06 DUP4 CODECOPY DUP2 MLOAD SWAP2 MSTORE CALLER SWAP4 DUP1 LOG4 PUSH1 0x1 SWAP1 JUMP JUMPDEST SWAP1 PUSH1 0x0 SWAP2 DUP1 DUP4 MSTORE DUP3 PUSH1 0x20 MSTORE PUSH1 0x40 DUP4 KECCAK256 SWAP2 PUSH1 0x1 DUP1 PUSH1 0xA0 SHL SUB AND SWAP2 DUP3 DUP5 MSTORE PUSH1 0x20 MSTORE PUSH1 0xFF PUSH1 0x40 DUP5 KECCAK256 SLOAD AND ISZERO PUSH1 0x0 EQ PUSH2 0x16F6 JUMPI DUP1 DUP4 MSTORE DUP3 PUSH1 0x20 MSTORE PUSH1 0x40 DUP4 KECCAK256 DUP3 DUP5 MSTORE PUSH1 0x20 MSTORE PUSH1 0x40 DUP4 KECCAK256 PUSH1 0x1 PUSH1 0xFF NOT DUP3 SLOAD AND OR SWAP1 SSTORE PUSH1 0x0 DUP1 MLOAD PUSH1 0x20 PUSH2 0x1D06 DUP4 CODECOPY DUP2 MLOAD SWAP2 MSTORE CALLER SWAP4 DUP1 LOG4 PUSH1 0x1 SWAP1 JUMP JUMPDEST PUSH1 0x1 PUSH1 0x1 PUSH1 0xA0 SHL SUB AND PUSH1 0x0 DUP2 DUP2 MSTORE PUSH32 0x75A62D95AD9FEF7BBA5C4DDE6E3FF662D5C539A6D57CB138A3D5C2F3A42773FF PUSH1 0x20 MSTORE PUSH1 0x40 DUP2 KECCAK256 SLOAD SWAP1 SWAP2 SWAP1 PUSH32 0x4B90E70A23AD1C016CDBA1A015076C2DE977E305FCAD3881690CAFBE99D36190 SWAP1 PUSH1 0xFF AND ISZERO PUSH2 0x16F6 JUMPI DUP1 DUP4 MSTORE DUP3 PUSH1 0x20 MSTORE PUSH1 0x40 DUP4 KECCAK256 DUP3 DUP5 MSTORE PUSH1 0x20 MSTORE PUSH1 0x40 DUP4 KECCAK256 PUSH1 0xFF NOT DUP2 SLOAD AND SWAP1 SSTORE PUSH32 0xF6391F5C32D9C69D2A47EA670B442974B53935D1EDC7FD64EB21E047A839171B CALLER SWAP4 DUP1 LOG4 PUSH1 0x1 SWAP1 JUMP JUMPDEST SWAP1 PUSH1 0x0 SWAP2 DUP1 DUP4 MSTORE DUP3 PUSH1 0x20 MSTORE PUSH1 0x40 DUP4 KECCAK256 SWAP2 PUSH1 0x1 DUP1 PUSH1 0xA0 SHL SUB AND SWAP2 DUP3 DUP5 MSTORE PUSH1 0x20 MSTORE PUSH1 0xFF PUSH1 0x40 DUP5 KECCAK256 SLOAD AND PUSH1 0x0 EQ PUSH2 0x16F6 JUMPI DUP1 DUP4 MSTORE DUP3 PUSH1 0x20 MSTORE PUSH1 0x40 DUP4 KECCAK256 DUP3 DUP5 MSTORE PUSH1 0x20 MSTORE PUSH1 0x40 DUP4 KECCAK256 PUSH1 0xFF NOT DUP2 SLOAD AND SWAP1 SSTORE PUSH32 0xF6391F5C32D9C69D2A47EA670B442974B53935D1EDC7FD64EB21E047A839171B CALLER SWAP4 DUP1 LOG4 PUSH1 0x1 SWAP1 JUMP JUMPDEST SWAP1 PUSH1 0x1 DUP3 DUP2 SHR SWAP3 AND DUP1 ISZERO PUSH2 0x19E8 JUMPI JUMPDEST PUSH1 0x20 DUP4 LT EQ PUSH2 0x19D2 JUMPI JUMP JUMPDEST PUSH4 0x4E487B71 PUSH1 0xE0 SHL PUSH1 0x0 MSTORE PUSH1 0x22 PUSH1 0x4 MSTORE PUSH1 0x24 PUSH1 0x0 REVERT JUMPDEST SWAP2 PUSH1 0x7F AND SWAP2 PUSH2 0x19C7 JUMP JUMPDEST SWAP1 PUSH1 0x1F DUP2 GT PUSH2 0x1A00 JUMPI POP POP POP JUMP JUMPDEST PUSH1 0x0 SWAP2 DUP3 MSTORE PUSH1 0x20 DUP3 KECCAK256 SWAP1 PUSH1 0x20 PUSH1 0x1F DUP6 ADD PUSH1 0x5 SHR DUP4 ADD SWAP5 LT PUSH2 0x1A3C JUMPI JUMPDEST PUSH1 0x1F ADD PUSH1 0x5 SHR ADD SWAP2 JUMPDEST DUP3 DUP2 LT PUSH2 0x1A31 JUMPI POP POP POP JUMP JUMPDEST DUP2 DUP2 SSTORE PUSH1 0x1 ADD PUSH2 0x1A25 JUMP JUMPDEST SWAP1 SWAP3 POP DUP3 SWAP1 PUSH2 0x1A1C JUMP JUMPDEST PUSH1 0x5 SLOAD PUSH1 0x1 PUSH1 0x40 SHL DUP2 LT ISZERO PUSH2 0x13D6 JUMPI PUSH1 0x1 DUP2 ADD DUP1 PUSH1 0x5 SSTORE DUP2 LT ISZERO PUSH2 0x1A8E JUMPI PUSH1 0x5 PUSH1 0x0 MSTORE PUSH32 0x36B6384B5ECA791C62761152D0C79BB0604C104A5FB6F4EB0703F3154BB3DB0 ADD SSTORE JUMP JUMPDEST PUSH4 0x4E487B71 PUSH1 0xE0 SHL PUSH1 0x0 MSTORE PUSH1 0x32 PUSH1 0x4 MSTORE PUSH1 0x24 PUSH1 0x0 REVERT JUMPDEST DUP1 SLOAD SWAP1 PUSH1 0x1 PUSH1 0x40 SHL DUP3 LT ISZERO PUSH2 0x13D6 JUMPI PUSH1 0x1 DUP3 ADD DUP1 DUP3 SSTORE DUP3 LT ISZERO PUSH2 0x1A8E JUMPI PUSH1 0x0 MSTORE PUSH1 0x20 PUSH1 0x0 KECCAK256 ADD SSTORE JUMP JUMPDEST PUSH1 0x0 NOT DUP2 EQ PUSH2 0x1ADC JUMPI PUSH1 0x1 ADD SWAP1 JUMP JUMPDEST PUSH4 0x4E487B71 PUSH1 0xE0 SHL PUSH1 0x0 MSTORE PUSH1 0x11 PUSH1 0x4 MSTORE PUSH1 0x24 PUSH1 0x0 REVERT JUMPDEST PUSH1 0x40 MLOAD SWAP1 PUSH2 0x1AFF DUP3 PUSH2 0x13BA JUMP JUMPDEST PUSH1 0x60 PUSH1 0xC0 DUP4 PUSH1 0x0 DUP2 MSTORE DUP3 PUSH1 0x20 DUP3 ADD MSTORE PUSH1 0x0 PUSH1 0x40 DUP3 ADD MSTORE PUSH1 0x0 DUP4 DUP3 ADD MSTORE PUSH1 0x0 PUSH1 0x80 DUP3 ADD MSTORE PUSH1 0x0 PUSH1 0xA0 DUP3 ADD MSTORE ADD MSTORE JUMP JUMPDEST SWAP1 PUSH1 0x0 SWAP3 SWAP2 DUP1 SLOAD SWAP2 PUSH2 0x1B3E DUP4 PUSH2 0x19B8 JUMP JUMPDEST SWAP2 DUP3 DUP3 MSTORE PUSH1 0x1 SWAP4 DUP5 DUP2 AND SWAP1 DUP2 PUSH1 0x0 EQ PUSH2 0x1BA0 JUMPI POP PUSH1 0x1 EQ PUSH2 0x1B60 JUMPI JUMPDEST POP POP POP POP JUMP JUMPDEST SWAP1 SWAP2 SWAP4 SWAP5 POP PUSH1 0x0 MSTORE PUSH1 0x20 SWAP3 DUP4 PUSH1 0x0 KECCAK256 SWAP3 DUP5 PUSH1 0x0 SWAP5 JUMPDEST DUP4 DUP7 LT PUSH2 0x1B8C JUMPI POP POP POP POP ADD ADD SWAP1 CODESIZE DUP1 DUP1 DUP1 PUSH2 0x1B5A JUMP JUMPDEST DUP1 SLOAD DUP6 DUP8 ADD DUP4 ADD MSTORE SWAP5 ADD SWAP4 DUP6 SWAP1 DUP3 ADD PUSH2 0x1B75 JUMP JUMPDEST SWAP3 SWAP5 POP POP POP PUSH1 0x20 SWAP4 SWAP5 POP PUSH1 0xFF NOT AND DUP4 DUP4 ADD MSTORE ISZERO ISZERO PUSH1 0x5 SHL ADD ADD SWAP1 CODESIZE DUP1 DUP1 DUP1 PUSH2 0x1B5A JUMP JUMPDEST SWAP1 PUSH2 0x1BCC PUSH2 0x1AF2 JUMP JUMPDEST POP PUSH1 0x0 DUP3 DUP2 MSTORE PUSH1 0x20 SWAP3 PUSH1 0x1 DUP5 MSTORE PUSH1 0x40 SWAP1 DUP2 DUP4 KECCAK256 SWAP5 DUP3 MLOAD PUSH2 0x1BEB DUP2 PUSH2 0x13BA JUMP JUMPDEST DUP7 SLOAD DUP2 MSTORE DUP4 MLOAD PUSH2 0x1C02 DUP2 PUSH2 0x2A2 DUP2 PUSH1 0x1 DUP13 ADD PUSH2 0x1B2D JUMP JUMPDEST DUP3 DUP3 ADD MSTORE PUSH1 0x1 DUP1 PUSH1 0xA0 SHL SUB SWAP1 DUP2 PUSH1 0x2 DUP10 ADD SLOAD AND DUP6 DUP3 ADD MSTORE DUP2 PUSH1 0x3 DUP10 ADD SLOAD AND PUSH1 0x60 DUP3 ADD MSTORE PUSH1 0x6 PUSH2 0x1C55 PUSH1 0x4 DUP11 ADD SLOAD SWAP10 PUSH1 0x80 DUP5 ADD SWAP11 DUP12 MSTORE PUSH1 0xFF PUSH1 0x5 DUP3 ADD SLOAD AND ISZERO ISZERO PUSH1 0xA0 DUP6 ADD MSTORE PUSH2 0x2A2 DUP9 MLOAD DUP1 SWAP5 DUP2 SWAP4 ADD PUSH2 0x1B2D JUMP JUMPDEST PUSH1 0xC0 DUP3 ADD MSTORE DUP1 SWAP8 MLOAD ISZERO PUSH2 0x1CFB JUMPI POP PUSH1 0x8 SLOAD AND SWAP2 DUP3 PUSH2 0x1C7E JUMPI JUMPDEST POP POP POP POP POP PUSH1 0xA0 DUP3 ADD MLOAD ISZERO ISZERO SWAP2 SWAP1 JUMP JUMPDEST DUP2 SWAP1 PUSH1 0x24 DUP6 MLOAD DUP1 SWAP6 DUP2 SWAP4 PUSH4 0x4294857F PUSH1 0xE0 SHL DUP4 MSTORE PUSH1 0x4 DUP4 ADD MSTORE GAS STATICCALL SWAP3 DUP4 ISZERO PUSH2 0x1CF2 JUMPI POP DUP4 SWAP3 PUSH2 0x1CBB JUMPI JUMPDEST POP POP PUSH2 0x1CB7 JUMPI DUP1 DUP1 DUP1 DUP1 PUSH2 0x1C6E JUMP JUMPDEST SWAP2 SWAP1 JUMP JUMPDEST SWAP1 DUP1 SWAP3 POP DUP2 RETURNDATASIZE DUP4 GT PUSH2 0x1CEB JUMPI JUMPDEST PUSH2 0x1CD2 DUP2 DUP4 PUSH2 0x1400 JUMP JUMPDEST DUP2 ADD SUB SLT PUSH2 0x1B6 JUMPI MLOAD DUP1 ISZERO ISZERO DUP2 SUB PUSH2 0x1B6 JUMPI CODESIZE DUP1 PUSH2 0x1CA8 JUMP JUMPDEST POP RETURNDATASIZE PUSH2 0x1CC8 JUMP JUMPDEST MLOAD RETURNDATASIZE DUP6 DUP3 RETURNDATACOPY RETURNDATASIZE SWAP1 REVERT JUMPDEST SWAP7 POP POP POP POP POP SWAP2 SWAP1 JUMP INVALID 0x2F DUP8 DUP9 GT PUSH31 0x7EFF1D82E926EC794901D17C78024A50270940304540A733656F0DA2646970 PUSH7 0x7358221220E8F1 SAR 0xA7 EXTCODESIZE 0xFB DUP16 0xBF NOT PUSH3 0xF41886 COINBASE CREATE SWAP9 0xA9 BYTE 0xEA 0x2B PUSH26 0x8DC85E5B53945533B03C764736F6C634300081400332F878811 PUSH31 0x7EFF1D82E926EC794901D17C78024A50270940304540A733656F0D00000000 "},"methodIdentifiers":{"DEFAULT_ADMIN_ROLE()":"a217fddf","authorizeIssuer(address)":"436693d5","bloomFilter()":"5ff5bd52","certificateExists(bytes32)":"b440983e","correctCertificate(bytes32,bytes32,bytes,string)":"49d5f6f8","getCertificate(bytes32)":"f333fe08","getCertificatesByHolder(address)":"e18ac8ec","getCertificatesByIssuer(address)":"feef6714","getRoleAdmin(bytes32)":"248a9ca3","getTotalCertificates()":"7843bb79","grantHolderRole(address)":"b4502886","grantRole(bytes32,address)":"2f2ff15d","grantVerifierRole(address)":"0337c061","hasRole(bytes32,address)":"91d14854","isAuthorizedIssuer(address)":"31ba1966","issueCertificate(bytes32,bytes,address,string)":"6a8bc419","renounceRole(bytes32,address)":"36568abe","revocationRegistry()":"f0f2740d","revokeCertificate(bytes32,string)":"5bf4adfb","revokeIssuerAuthorization(address)":"f4f7a815","revokeRole(bytes32,address)":"d547741f","setBloomFilter(address)":"c16fb313","setRevocationRegistry(address)":"95f94bc4","supportsInterface(bytes4)":"01ffc9a7","verifyCertificate(bytes32)":"850c1768"}}}}}