{"src/bc-cvs/RevocationRegistry.sol":{"RevocationRegistry":{"abi":[{"inputs":[{"internalType":"address","name":"_admin","type":"address"}],"stateMutability":"nonpayable","type":"constructor"},{"inputs":[],"name":"AccessControlBadConfirmation","type":"error"},{"inputs":[{"internalType":"address","name":"account","type":"address"},{"internalType":"bytes32","name":"neededRole","type":"bytes32"}],"name":"AccessControlUnauthorizedAccount","type":"error"},{"inputs":[{"internalType":"bytes32","name":"certificateHash","type":"bytes32"}],"name":"AlreadyCorrected","type":"error"},{"inputs":[{"internalType":"bytes32","name":"certificateHash","type":"bytes32"}],"name":"AlreadyRevoked","type":"error"},{"inputs":[],"name":"EmptyString","type":"error"},{"inputs":[],"name":"InvalidCertificateHash","type":"error"},{"inputs":[],"name":"InvalidInput","type":"error"},{"inputs":[{"internalType":"bytes32","name":"certificateHash","type":"bytes32"}],"name":"NotRevoked","type":"error"},{"inputs":[],"name":"ZeroAddress","type":"error"},{"anonymous":false,"inputs":[{"indexed":true,"internalType":"bytes32","name":"originalHash","type":"bytes32"},{"indexed":true,"internalType":"bytes32","name":"replacementHash","type":"bytes32"},{"indexed":true,"internalType":"address","name":"issuer","type":"address"},{"indexed":false,"internalType":"uint256","name":"timestamp","type":"uint256"}],"name":"CertificateCorrected","type":"event"},{"anonymous":false,"inputs":[{"indexed":true,"internalType":"bytes32","name":"originalHash","type":"bytes32"},{"indexed":true,"internalType":"address","name":"issuer","type":"address"},{"indexed":false,"internalType":"uint256","name":"timestamp","type":"uint256"},{"indexed":false,"internalType":"string","name":"reason","type":"string"}],"name":"CertificateRevoked","type":"event"},{"anonymous":false,"inputs":[{"indexed":true,"internalType":"bytes32","name":"role","type":"bytes32"},{"indexed":true,"internalType":"bytes32","name":"previousAdminRole","type":"bytes32"},{"indexed":true,"internalType":"bytes32","name":"newAdminRole","type":"bytes32"}],"name":"RoleAdminChanged","type":"event"},{"anonymous":false,"inputs":[{"indexed":true,"internalType":"bytes32","name":"role","type":"bytes32"},{"indexed":true,"internalType":"address","name":"account","type":"address"},{"indexed":true,"internalType":"address","name":"sender","type":"address"}],"name":"RoleGranted","type":"event"},{"anonymous":false,"inputs":[{"indexed":true,"internalType":"bytes32","name":"role","type":"bytes32"},{"indexed":true,"internalType":"address","name":"account","type":"address"},{"indexed":true,"internalType":"address","name":"sender","type":"address"}],"name":"RoleRevoked","type":"event"},{"inputs":[],"name":"DEFAULT_ADMIN_ROLE","outputs":[{"internalType":"bytes32","name":"","type":"bytes32"}],"stateMutability":"view","type":"function"},{"inputs":[{"internalType":"bytes32","name":"_originalHash","type":"bytes32"},{"internalType":"bytes32","name":"_replacementHash","type":"bytes32"},{"internalType":"string","name":"_reason","type":"string"}],"name":"correctCertificate","outputs":[],"stateMutability":"nonpayable","type":"function"},{"inputs":[{"internalType":"bytes32","name":"_certificateHash","type":"bytes32"},{"internalType":"string","name":"_reason","type":"string"}],"name":"emergencyRevoke","outputs":[],"stateMutability":"nonpayable","type":"function"},{"inputs":[],"name":"getAllRevokedCertificates","outputs":[{"internalType":"bytes32[]","name":"hashes","type":"bytes32[]"}],"stateMutability":"view","type":"function"},{"inputs":[{"internalType":"bytes32","name":"_certificateHash","type":"bytes32"}],"name":"getAuditTrail","outputs":[{"internalType":"bytes32","name":"originalHash","type":"bytes32"},{"internalType":"bytes32","name":"replacementHash","type":"bytes32"},{"internalType":"address","name":"revokedBy","type":"address"},{"internalType":"uint256","name":"revocationDate","type":"uint256"},{"internalType":"string","name":"reason","type":"string"},{"internalType":"bool","name":"isCorrected","type":"bool"}],"stateMutability":"view","type":"function"},{"inputs":[{"internalType":"bytes32","name":"_originalHash","type":"bytes32"}],"name":"getReplacementCertificate","outputs":[{"internalType":"bytes32","name":"replacementHash","type":"bytes32"}],"stateMutability":"view","type":"function"},{"inputs":[{"internalType":"bytes32","name":"_certificateHash","type":"bytes32"}],"name":"getRevocationRecord","outputs":[{"components":[{"internalType":"bytes32","name":"originalHash","type":"bytes32"},{"internalType":"bytes32","name":"replacementHash","type":"bytes32"},{"internalType":"uint256","name":"revocationDate","type":"uint256"},{"internalType":"string","name":"reason","type":"string"},{"internalType":"address","name":"revokedBy","type":"address"},{"internalType":"bool","name":"isCorrected","type":"bool"}],"internalType":"struct IRevocationRegistry.RevocationRecord","name":"record","type":"tuple"}],"stateMutability":"view","type":"function"},{"inputs":[{"internalType":"address","name":"_issuer","type":"address"}],"name":"getRevokedCertificatesByIssuer","outputs":[{"internalType":"bytes32[]","name":"hashes","type":"bytes32[]"}],"stateMutability":"view","type":"function"},{"inputs":[{"internalType":"bytes32","name":"role","type":"bytes32"}],"name":"getRoleAdmin","outputs":[{"internalType":"bytes32","name":"","type":"bytes32"}],"stateMutability":"view","type":"function"},{"inputs":[],"name":"getStatistics","outputs":[{"internalType":"uint256","name":"totalRevocations","type":"uint256"},{"internalType":"uint256","name":"totalCorrected","type":"uint256"},{"internalType":"uint256","name":"totalSimpleRevocations","type":"uint256"}],"stateMutability":"view","type":"function"},{"inputs":[],"name":"getTotalRevocations","outputs":[{"internalType":"uint256","name":"count","type":"uint256"}],"stateMutability":"view","type":"function"},{"inputs":[{"internalType":"bytes32","name":"role","type":"bytes32"},{"internalType":"address","name":"account","type":"address"}],"name":"grantRole","outputs":[],"stateMutability":"nonpayable","type":"function"},{"inputs":[{"internalType":"bytes32","name":"role","type":"bytes32"},{"internalType":"address","name":"account","type":"address"}],"name":"hasRole","outputs":[{"internalType":"bool","name":"","type":"bool"}],"stateMutability":"view","type":"function"},{"inputs":[{"internalType":"bytes32","name":"_certificateHash","type":"bytes32"}],"name":"isCertificateCorrected","outputs":[{"internalType":"bool","name":"isCorrected","type":"bool"}],"stateMutability":"view","type":"function"},{"inputs":[{"internalType":"bytes32","name":"_certificateHash","type":"bytes32"}],"name":"isRevoked","outputs":[{"internalType":"bool","name":"","type":"bool"}],"stateMutability":"view","type":"function"},{"inputs":[{"internalType":"bytes32","name":"role","type":"bytes32"},{"internalType":"address","name":"callerConfirmation","type":"address"}],"name":"renounceRole","outputs":[],"stateMutability":"nonpayable","type":"function"},{"inputs":[{"internalType":"bytes32","name":"_certificateHash","type":"bytes32"},{"internalType":"string","name":"_reason","type":"string"}],"name":"revokeCertificate","outputs":[],"stateMutability":"nonpayable","type":"function"},{"inputs":[{"internalType":"bytes32","name":"role","type":"bytes32"},{"internalType":"address","name":"account","type":"address"}],"name":"revokeRole","outputs":[],"stateMutability":"nonpayable","type":"function"},{"inputs":[{"internalType":"bytes4","name":"interfaceId","type":"bytes4"}],"name":"supportsInterface","outputs":[{"internalType":"bool","name":"","type":"bool"}],"stateMutability":"view","type":"function"}],"evm":{"bytecode":{"linkReferences":{},"object":"6080346200009557601f6200174a38819003918201601f19168301916001600160401b038311848410176200009a578084926020946040528339810103126200009557516001600160a01b0381168082036200009557156200008357806200006b6200007292620000b0565b5062000130565b506040516115579081620001d38239f35b60405163d92e233d60e01b8152600490fd5b600080fd5b634e487b7160e01b600052604160045260246000fd5b6001600160a01b031660008181527fad3228b676f7d3cd4284a5443f17f1962b36e491b30a40b2405849e597ba5fb5602052604081205490919060ff166200012c57818052816020526040822081835260205260408220600160ff1982541617905533916000805160206200172a8339815191528180a4600190565b5090565b6001600160a01b031660008181527fcef3a433619e8274f84bbe9ad5323e8b252fcf8ed48affbce8d2049d944ea6de60205260408120549091907fb346b2ddc13f08bd9685b83a95304a79a2caac0aa7aa64129e1ae9f4361b46619060ff16620001cd57808352826020526040832082845260205260408320600160ff198254161790556000805160206200172a833981519152339380a4600190565b50509056fe608060408181526004908136101561001657600080fd5b600092833560e01c90816301ffc9a714611086575080631405e7cf14611067578063217cd91b14611012578063248a9ca314610fe857806326568c4014610d315780632f2ff15d14610d0957806336568abe14610cc2578063372d6b2714610c0c5780633ac43398146108eb5780634294857f146108be5780635503f593146108465780635bf4adfb1461055c57806373a8ce8b146103ee57806391d14854146103a857806398408a4314610321578063a217fddf14610302578063d547741f146102c5578063dec6ac4e1461029c5763f6593f66146100f557600080fd5b3461029857602092836003193601126102955782358160a08451610118816110da565b8281528288820152828682015260608082015282608082015201528082526002855260ff83832054161561028057815260018085528282209083519461015d866110da565b82548652818301549287870193845260028101549486880195865288600383018851958382549261018d846113e9565b808a529383811690811561025c5750600114610224575b5050505050906101bb84610210959493038461110c565b60608801928352015493608087019560018060a01b0394858716885260ff60a08a019760a01c16151587528151998a99818b5251908a015251908801525160608701525160c0608087015260e0860190611231565b92511660a084015251151560c08301520390f35b9080949550528383205b8284106102495750505084010188846102106101bb386101a4565b805488850186015292840192810161022e565b60ff1916868b015250505050151560051b850101905088846102106101bb386101a4565b836024918451916248f34d60e51b8352820152fd5b80fd5b8280fd5b50823461029557602036600319011261029557506102bc602092356114cf565b90519015158152f35b50346102985780600319360112610298576102fe91356102f960016102e86111bd565b9383875286602052862001546112d0565b611374565b5080f35b83823461031d578160031936011261031d5751908152602090f35b5080fd5b503461029857602091826003193601126103a457356001600160a01b038116908190036103a4578352600382528083209281518093808654928381520195835280832092905b82821061038d57610389868661037f828b038361110c565b51918291826111d3565b0390f35b835487529586019560019384019390910190610367565b8380fd5b5090346102985781600319360112610298578160209360ff926103c96111bd565b903582528186528282206001600160a01b039091168252855220549151911615158152f35b5091903461031d57602092836003193601126102985781358084526002855260ff828520541615610548578352600180855281842082519261042f846110da565b81548452828201549487850195865260028301549282860193845260038101898451968a83549361045f856113e9565b808b529483811690811561052357506001146104e7575b505050505061048c856104dd979899038661110c565b84606088015201549060ff60018060a01b0383169283608089015260a01c161515958660a082015251965192519281519889988952880152860152606085015260c0608085015260c0840190611231565b9060a08301520390f35b908094939c50528a83205b8284106105105750505085019097019661048c896104dd8738610476565b80548985018d0152928b019281016104f2565b60ff1916858c01525050505090151560051b860101975061048c896104dd8738610476565b90516248f34d60e51b815291820152602490fd5b5082903461031d5761056d3661118a565b610575611256565b81156108365780511561082657610200815111610816578184526020906002825260ff84862054166107ff5783516105ac816110da565b838152828101908682528581014281526060820198848a52608083019233845260a08101928a8452888b526001958689528a8c20925183555186830155516002820155600381019a519a8b5167ffffffffffffffff81116107ec5761061182546113e9565b601f81116107aa575b508b809d8c9d9c9a9b9c508b91601f84116001146107075792806000805160206115028339815191529d9b9996936106f69b9996936106a39996926106fc575b5050600019600383901b1c191690881b1790555b92519201805491516001600160a81b03199092166001600160a01b03939093169290921790151560a01b60ff60a01b16179055565b868952600284528489209060ff19825416179055338852600383526106ca86858a20611481565b6106d386611423565b6106de6005546114aa565b60055583519384934285528401523396830190611231565b0390a380f35b01519050388061065a565b90601f9c9a99989796959493929c1983168483528b8320925b81811061077757509289989694926000805160206115028339815191529e6106f69c9b93836106a39b99971061075e575b505050811b01905561066e565b015160001960f88460031b161c19169055388080610751565b939597999b8e9597999b9d508c819f948495839495015181550195019301908f9c9a98969492919d9b999795939d610720565b828d52898d20601f830160051c8101918b84106107e2575b601f0160051c01905b8181106107d8575061061a565b8d815588016107cb565b90915081906107c2565b634e487b7160e01b8c526041845260248cfd5b83516390315de160e01b8152808701849052602490fd5b825163b4fa3fb360e01b81528590fd5b825163ecd7b0d160e01b81528590fd5b8251635006807360e11b81528590fd5b5082903461031d578160031936011261031d578051918284549081815260208091019583527f8a35acfbc15ff81a39ae7d344fd709f28e8600b4aa8c65c6b64bfe7fe36bd19b92905b8282106108a757610389868661037f828b038361110c565b83548752958601956001938401939091019061088f565b509034610298576020366003190112610298578160209360ff923581526002855220541690519015158152f35b5082903461031d57606036600319011261031d5767ffffffffffffffff926044358481116103a457610920903690830161112e565b91610929611256565b81359182158015610c02575b610bf457835115610be657610200845111610bd8578285526020936002855260ff83872054166000146109ed57509091848194959650526001845260ff81838720015460a01c166109d85782855260018085528286206024359181019190915501805460ff60a01b1916600160a01b1790555b51904282527f0bdec61cc56fa0fb6269f7fa5c6eaef0ec0b7566d18a3563592237135761ed45339360243593a480f35b826024925191630524e3b160e31b8352820152fd5b82516109f8816110da565b8481528581019260243584528482019142835260608101938452608081019333855260a0820193600196878652898c52878b52888c2093518455518784015551600283015551998a51908111610bc5576003820190610a5782546113e9565b601f8111610b7f575b5089601f8211600114610b145781908c9d610ac6999a9b9c9d92610b09575050600019600383901b1c191690881b17905592519201805491516001600160a81b03199092166001600160a01b03939093169290921790151560a01b60ff60a01b16179055565b828552600284528185209060ff1982541617905533845260038352610aed82828620611481565b610af682611423565b610b016005546114aa565b6005556109a8565b015190508d8061065a565b828c528a8c209c601f1983168d5b818110610b64575091899a9b9c9d9e9184610ac69b959410610b4b57505050811b01905561066e565b015160001960f88460031b161c191690558d8080610751565b919e8f8b8f928684930151815501940192019e91929e610b22565b828c528a8c20601f830160051c8101918c8410610bbb575b601f0160051c019088905b828110610bb0575050610a60565b8d8155018890610ba2565b9091508190610b97565b634e487b7160e01b8a526041835260248afd5b905163b4fa3fb360e01b8152fd5b905163ecd7b0d160e01b8152fd5b9051635006807360e11b8152fd5b5060243515610935565b5082346102955780600319360112610295576005549181828554905b818110610c6357505080840392848411610c5057506060945081519384526020840152820152f35b634e487b7160e01b815260118652602490fd5b807f8a35acfbc15ff81a39ae7d344fd709f28e8600b4aa8c65c6b64bfe7fe36bd19b01548552600160205260ff87858720015460a01c16610cad575b610ca8906114aa565b610c28565b91610cba610ca8916114aa565b929050610c9f565b5082903461031d578060031936011261031d57610cdd6111bd565b90336001600160a01b03831603610cfa57506102fe919235611374565b5163334bd91960e11b81528390fd5b50346102985780600319360112610298576102fe9135610d2c60016102e86111bd565b6112f6565b5082903461031d57610d423661118a565b7fb346b2ddc13f08bd9685b83a95304a79a2caac0aa7aa64129e1ae9f4361b466190818552602091858352848620338752835260ff858720541615610fca57508215610fba57805115610faa578285526002825260ff84862054166107ff578351956b02da2a6a2a923a2a721acae960a51b83880152610ddf602c888451610dcf8184840189890161120e565b810103600c81018a52018861110c565b8451610dea816110da565b848152838101918783528682019042825260608301998a52608083019233845260a08101928a8452888b526001958689528a8c20925183555186830155516002820155600381019a519a8b5167ffffffffffffffff81116107ec57610e4f82546113e9565b601f8111610f68575b508b809d8c9d9c9a9b9c508b91601f8411600114610edf5792806000805160206115028339815191529d9b9996936106f69b9996936106a39996926106fc575050600019600383901b1c191690881b17905592519201805491516001600160a81b03199092166001600160a01b03939093169290921790151560a01b60ff60a01b16179055565b90601f9c9a99989796959493929c1983168483528b8320925b818110610f3557509289989694926000805160206115028339815191529e6106f69c9b93836106a39b99971061075e57505050811b01905561066e565b939597999b8e9597999b9d508c819f948495839495015181550195019301908f9c9a98969492919d9b999795939d610ef8565b828d52898d20601f830160051c8101918b8410610fa0575b601f0160051c01905b818110610f965750610e58565b8d81558801610f89565b9091508190610f80565b835163ecd7b0d160e01b81528690fd5b8351635006807360e11b81528690fd5b845163e2517d3f60e01b815233818901526024810191909152604490fd5b50903461029857602036600319011261029857816020936001923581528085522001549051908152f35b50903461029857602036600319011261029857803590818452600260205260ff83852054161561105357508183600192602095528285522001549051908152f35b91516248f34d60e51b815291820152602490fd5b83823461031d578160031936011261031d576020906005549051908152f35b84908434610298576020366003190112610298573563ffffffff60e01b81168091036102985760209250637965db0b60e01b81149081156110c9575b5015158152f35b6301ffc9a760e01b149050836110c2565b60c0810190811067ffffffffffffffff8211176110f657604052565b634e487b7160e01b600052604160045260246000fd5b90601f8019910116810190811067ffffffffffffffff8211176110f657604052565b81601f820112156111855780359067ffffffffffffffff82116110f65760405192611163601f8401601f19166020018561110c565b8284526020838301011161118557816000926020809301838601378301015290565b600080fd5b90604060031983011261118557600435916024359067ffffffffffffffff8211611185576111ba9160040161112e565b90565b602435906001600160a01b038216820361118557565b6020908160408183019282815285518094520193019160005b8281106111fa575050505090565b8351855293810193928101926001016111ec565b60005b8381106112215750506000910152565b8181015183820152602001611211565b9060209161124a8151809281855285808601910161120e565b601f01601f1916010190565b3360009081527f75a62d95ad9fef7bba5c4dde6e3ff662d5c539a6d57cb138a3d5c2f3a42773ff60205260409020547f4b90e70a23ad1c016cdba1a015076c2de977e305fcad3881690cafbe99d361909060ff16156112b25750565b6044906040519063e2517d3f60e01b82523360048301526024820152fd5b80600052600060205260406000203360005260205260ff60406000205416156112b25750565b9060009180835282602052604083209160018060a01b03169182845260205260ff6040842054161560001461136f57808352826020526040832082845260205260408320600160ff198254161790557f2f8788117e7eff1d82e926ec794901d17c78024a50270940304540a733656f0d339380a4600190565b505090565b9060009180835282602052604083209160018060a01b03169182845260205260ff60408420541660001461136f5780835282602052604083208284526020526040832060ff1981541690557ff6391f5c32d9c69d2a47ea670b442974b53935d1edc7fd64eb21e047a839171b339380a4600190565b90600182811c92168015611419575b602083101461140357565b634e487b7160e01b600052602260045260246000fd5b91607f16916113f8565b600454600160401b8110156110f657600181018060045581101561146b5760046000527f8a35acfbc15ff81a39ae7d344fd709f28e8600b4aa8c65c6b64bfe7fe36bd19b0155565b634e487b7160e01b600052603260045260246000fd5b805490600160401b8210156110f6576001820180825582101561146b5760005260206000200155565b60001981146114b95760010190565b634e487b7160e01b600052601160045260246000fd5b600052600260205260ff60406000205416156114fc57600160205260ff60046040600020015460a01c1690565b60009056fe2dc910602b63b3a70fad6ced1f1ec487c86fc854530555b5fce6c82ebbd1604ea26469706673582212209e8c5abfc01c5a67d55b20d711424af4ba5a57b14065d2739d5f4e8382a2774064736f6c634300081400332f8788117e7eff1d82e926ec794901d17c78024a50270940304540a733656f0d","opcodes":"PUSH1 0x80 CALLVALUE PUSH3 0x95 JUMPI PUSH1 0x1F PUSH3 0x174A CODESIZE DUP2 SWAP1 SUB SWAP2 DUP3 ADD PUSH1 0x1F NOT AND DUP4 ADD SWAP2 PUSH1 0x1 PUSH1 0x1 PUSH1 0x40 SHL SUB DUP4 GT DUP5 DUP5 LT OR PUSH3 0x9A JUMPI DUP1 DUP5 SWAP3 PUSH1 0x20 SWAP5 PUSH1 0x40 MSTORE DUP4 CODECOPY DUP2 ADD SUB SLT PUSH3 0x95 JUMPI MLOAD PUSH1 0x1 PUSH1 0x1 PUSH1 0xA0 SHL SUB DUP2 AND DUP1 DUP3 SUB PUSH3 0x95 JUMPI ISZERO PUSH3 0x83 JUMPI DUP1 PUSH3 0x6B PUSH3 0x72 SWAP3 PUSH3 0xB0 JUMP JUMPDEST POP PUSH3 0x130 JUMP JUMPDEST POP PUSH1 0x40 MLOAD PUSH2 0x1557 SWAP1 DUP2 PUSH3 0x1D3 DUP3 CODECOPY RETURN JUMPDEST PUSH1 0x40 MLOAD PUSH4 0xD92E233D PUSH1 0xE0 SHL DUP2 MSTORE PUSH1 0x4 SWAP1 REVERT JUMPDEST PUSH1 0x0 DUP1 REVERT JUMPDEST PUSH4 0x4E487B71 PUSH1 0xE0 SHL PUSH1 0x0 MSTORE PUSH1 0x41 PUSH1 0x4 MSTORE PUSH1 0x24 PUSH1 0x0 REVERT JUMPDEST PUSH1 0x1 PUSH1 0x1 PUSH1 0xA0 SHL SUB AND PUSH1 0x0 DUP2 DUP2 MSTORE PUSH32 0xAD3228B676F7D3CD4284A5443F17F1962B36E491B30A40B2405849E597BA5FB5 PUSH1 0x20 MSTORE PUSH1 0x40 DUP2 KECCAK256 SLOAD SWAP1 SWAP2 SWAP1 PUSH1 0xFF AND PUSH3 0x12C JUMPI DUP2 DUP1 MSTORE DUP2 PUSH1 0x20 MSTORE PUSH1 0x40 DUP3 KECCAK256 DUP2 DUP4 MSTORE PUSH1 0x20 MSTORE PUSH1 0x40 DUP3 KECCAK256 PUSH1 0x1 PUSH1 0xFF NOT DUP3 SLOAD AND OR SWAP1 SSTORE CALLER SWAP2 PUSH1 0x0 DUP1 MLOAD PUSH1 0x20 PUSH3 0x172A DUP4 CODECOPY DUP2 MLOAD SWAP2 MSTORE DUP2 DUP1 LOG4 PUSH1 0x1 SWAP1 JUMP JUMPDEST POP SWAP1 JUMP JUMPDEST PUSH1 0x1 PUSH1 0x1 PUSH1 0xA0 SHL SUB AND PUSH1 0x0 DUP2 DUP2 MSTORE PUSH32 0xCEF3A433619E8274F84BBE9AD5323E8B252FCF8ED48AFFBCE8D2049D944EA6DE PUSH1 0x20 MSTORE PUSH1 0x40 DUP2 KECCAK256 SLOAD SWAP1 SWAP2 SWAP1 PUSH32 0xB346B2DDC13F08BD9685B83A95304A79A2CAAC0AA7AA64129E1AE9F4361B4661 SWAP1 PUSH1 0xFF AND PUSH3 0x1CD JUMPI DUP1 DUP4 MSTORE DUP3 PUSH1 0x20 MSTORE PUSH1 0x40 DUP4 KECCAK256 DUP3 DUP5 MSTORE PUSH1 0x20 MSTORE PUSH1 0x40 DUP4 KECCAK256 PUSH1 0x1 PUSH1 0xFF NOT DUP3 SLOAD AND OR SWAP1 SSTORE PUSH1 0x0 DUP1 MLOAD PUSH1 0x20 PUSH3 0x172A DUP4 CODECOPY DUP2 MLOAD SWAP2 MSTORE CALLER SWAP4 DUP1 LOG4 PUSH1 0x1 SWAP1 JUMP JUMPDEST POP POP SWAP1 JUMP INVALID PUSH1 0x80 PUSH1 0x40 DUP2 DUP2 MSTORE PUSH1 0x4 SWAP1 DUP2 CALLDATASIZE LT ISZERO PUSH2 0x16 JUMPI PUSH1 0x0 DUP1 REVERT JUMPDEST PUSH1 0x0 SWAP3 DUP4 CALLDATALOAD PUSH1 0xE0 SHR SWAP1 DUP2 PUSH4 0x1FFC9A7 EQ PUSH2 0x1086 JUMPI POP DUP1 PUSH4 0x1405E7CF EQ PUSH2 0x1067 JUMPI DUP1 PUSH4 0x217CD91B EQ PUSH2 0x1012 JUMPI DUP1 PUSH4 0x248A9CA3 EQ PUSH2 0xFE8 JUMPI DUP1 PUSH4 0x26568C40 EQ PUSH2 0xD31 JUMPI DUP1 PUSH4 0x2F2FF15D EQ PUSH2 0xD09 JUMPI DUP1 PUSH4 0x36568ABE EQ PUSH2 0xCC2 JUMPI DUP1 PUSH4 0x372D6B27 EQ PUSH2 0xC0C JUMPI DUP1 PUSH4 0x3AC43398 EQ PUSH2 0x8EB JUMPI DUP1 PUSH4 0x4294857F EQ PUSH2 0x8BE JUMPI DUP1 PUSH4 0x5503F593 EQ PUSH2 0x846 JUMPI DUP1 PUSH4 0x5BF4ADFB EQ PUSH2 0x55C JUMPI DUP1 PUSH4 0x73A8CE8B EQ PUSH2 0x3EE JUMPI DUP1 PUSH4 0x91D14854 EQ PUSH2 0x3A8 JUMPI DUP1 PUSH4 0x98408A43 EQ PUSH2 0x321 JUMPI DUP1 PUSH4 0xA217FDDF EQ PUSH2 0x302 JUMPI DUP1 PUSH4 0xD547741F EQ PUSH2 0x2C5 JUMPI DUP1 PUSH4 0xDEC6AC4E EQ PUSH2 0x29C JUMPI PUSH4 0xF6593F66 EQ PUSH2 0xF5 JUMPI PUSH1 0x0 DUP1 REVERT JUMPDEST CALLVALUE PUSH2 0x298 JUMPI PUSH1 0x20 SWAP3 DUP4 PUSH1 0x3 NOT CALLDATASIZE ADD SLT PUSH2 0x295 JUMPI DUP3 CALLDATALOAD DUP2 PUSH1 0xA0 DUP5 MLOAD PUSH2 0x118 DUP2 PUSH2 0x10DA JUMP JUMPDEST DUP3 DUP2 MSTORE DUP3 DUP9 DUP3 ADD MSTORE DUP3 DUP7 DUP3 ADD MSTORE PUSH1 0x60 DUP1 DUP3 ADD MSTORE DUP3 PUSH1 0x80 DUP3 ADD MSTORE ADD MSTORE DUP1 DUP3 MSTORE PUSH1 0x2 DUP6 MSTORE PUSH1 0xFF DUP4 DUP4 KECCAK256 SLOAD AND ISZERO PUSH2 0x280 JUMPI DUP2 MSTORE PUSH1 0x1 DUP1 DUP6 MSTORE DUP3 DUP3 KECCAK256 SWAP1 DUP4 MLOAD SWAP5 PUSH2 0x15D DUP7 PUSH2 0x10DA JUMP JUMPDEST DUP3 SLOAD DUP7 MSTORE DUP2 DUP4 ADD SLOAD SWAP3 DUP8 DUP8 ADD SWAP4 DUP5 MSTORE PUSH1 0x2 DUP2 ADD SLOAD SWAP5 DUP7 DUP9 ADD SWAP6 DUP7 MSTORE DUP9 PUSH1 0x3 DUP4 ADD DUP9 MLOAD SWAP6 DUP4 DUP3 SLOAD SWAP3 PUSH2 0x18D DUP5 PUSH2 0x13E9 JUMP JUMPDEST DUP1 DUP11 MSTORE SWAP4 DUP4 DUP2 AND SWAP1 DUP2 ISZERO PUSH2 0x25C JUMPI POP PUSH1 0x1 EQ PUSH2 0x224 JUMPI JUMPDEST POP POP POP POP POP SWAP1 PUSH2 0x1BB DUP5 PUSH2 0x210 SWAP6 SWAP5 SWAP4 SUB DUP5 PUSH2 0x110C JUMP JUMPDEST PUSH1 0x60 DUP9 ADD SWAP3 DUP4 MSTORE ADD SLOAD SWAP4 PUSH1 0x80 DUP8 ADD SWAP6 PUSH1 0x1 DUP1 PUSH1 0xA0 SHL SUB SWAP5 DUP6 DUP8 AND DUP9 MSTORE PUSH1 0xFF PUSH1 0xA0 DUP11 ADD SWAP8 PUSH1 0xA0 SHR AND ISZERO ISZERO DUP8 MSTORE DUP2 MLOAD SWAP10 DUP11 SWAP10 DUP2 DUP12 MSTORE MLOAD SWAP1 DUP11 ADD MSTORE MLOAD SWAP1 DUP9 ADD MSTORE MLOAD PUSH1 0x60 DUP8 ADD MSTORE MLOAD PUSH1 0xC0 PUSH1 0x80 DUP8 ADD MSTORE PUSH1 0xE0 DUP7 ADD SWAP1 PUSH2 0x1231 JUMP JUMPDEST SWAP3 MLOAD AND PUSH1 0xA0 DUP5 ADD MSTORE MLOAD ISZERO ISZERO PUSH1 0xC0 DUP4 ADD MSTORE SUB SWAP1 RETURN JUMPDEST SWAP1 DUP1 SWAP5 SWAP6 POP MSTORE DUP4 DUP4 KECCAK256 JUMPDEST DUP3 DUP5 LT PUSH2 0x249 JUMPI POP POP POP DUP5 ADD ADD DUP9 DUP5 PUSH2 0x210 PUSH2 0x1BB CODESIZE PUSH2 0x1A4 JUMP JUMPDEST DUP1 SLOAD DUP9 DUP6 ADD DUP7 ADD MSTORE SWAP3 DUP5 ADD SWAP3 DUP2 ADD PUSH2 0x22E JUMP JUMPDEST PUSH1 0xFF NOT AND DUP7 DUP12 ADD MSTORE POP POP POP POP ISZERO ISZERO PUSH1 0x5 SHL DUP6 ADD ADD SWAP1 POP DUP9 DUP5 PUSH2 0x210 PUSH2 0x1BB CODESIZE PUSH2 0x1A4 JUMP JUMPDEST DUP4 PUSH1 0x24 SWAP2 DUP5 MLOAD SWAP2 PUSH3 0x48F34D PUSH1 0xE5 SHL DUP4 MSTORE DUP3 ADD MSTORE REVERT JUMPDEST DUP1 REVERT JUMPDEST DUP3 DUP1 REVERT JUMPDEST POP DUP3 CALLVALUE PUSH2 0x295 JUMPI PUSH1 0x20 CALLDATASIZE PUSH1 0x3 NOT ADD SLT PUSH2 0x295 JUMPI POP PUSH2 0x2BC PUSH1 0x20 SWAP3 CALLDATALOAD PUSH2 0x14CF JUMP JUMPDEST SWAP1 MLOAD SWAP1 ISZERO ISZERO DUP2 MSTORE RETURN JUMPDEST POP CALLVALUE PUSH2 0x298 JUMPI DUP1 PUSH1 0x3 NOT CALLDATASIZE ADD SLT PUSH2 0x298 JUMPI PUSH2 0x2FE SWAP2 CALLDATALOAD PUSH2 0x2F9 PUSH1 0x1 PUSH2 0x2E8 PUSH2 0x11BD JUMP JUMPDEST SWAP4 DUP4 DUP8 MSTORE DUP7 PUSH1 0x20 MSTORE DUP7 KECCAK256 ADD SLOAD PUSH2 0x12D0 JUMP JUMPDEST PUSH2 0x1374 JUMP JUMPDEST POP DUP1 RETURN JUMPDEST DUP4 DUP3 CALLVALUE PUSH2 0x31D JUMPI DUP2 PUSH1 0x3 NOT CALLDATASIZE ADD SLT PUSH2 0x31D JUMPI MLOAD SWAP1 DUP2 MSTORE PUSH1 0x20 SWAP1 RETURN JUMPDEST POP DUP1 REVERT JUMPDEST POP CALLVALUE PUSH2 0x298 JUMPI PUSH1 0x20 SWAP2 DUP3 PUSH1 0x3 NOT CALLDATASIZE ADD SLT PUSH2 0x3A4 JUMPI CALLDATALOAD PUSH1 0x1 PUSH1 0x1 PUSH1 0xA0 SHL SUB DUP2 AND SWAP1 DUP2 SWAP1 SUB PUSH2 0x3A4 JUMPI DUP4 MSTORE PUSH1 0x3 DUP3 MSTORE DUP1 DUP4 KECCAK256 SWAP3 DUP2 MLOAD DUP1 SWAP4 DUP1 DUP7 SLOAD SWAP3 DUP4 DUP2 MSTORE ADD SWAP6 DUP4 MSTORE DUP1 DUP4 KECCAK256 SWAP3 SWAP1 JUMPDEST DUP3 DUP3 LT PUSH2 0x38D JUMPI PUSH2 0x389 DUP7 DUP7 PUSH2 0x37F DUP3 DUP12 SUB DUP4 PUSH2 0x110C JUMP JUMPDEST MLOAD SWAP2 DUP3 SWAP2 DUP3 PUSH2 0x11D3 JUMP JUMPDEST SUB SWAP1 RETURN JUMPDEST DUP4 SLOAD DUP8 MSTORE SWAP6 DUP7 ADD SWAP6 PUSH1 0x1 SWAP4 DUP5 ADD SWAP4 SWAP1 SWAP2 ADD SWAP1 PUSH2 0x367 JUMP JUMPDEST DUP4 DUP1 REVERT JUMPDEST POP SWAP1 CALLVALUE PUSH2 0x298 JUMPI DUP2 PUSH1 0x3 NOT CALLDATASIZE ADD SLT PUSH2 0x298 JUMPI DUP2 PUSH1 0x20 SWAP4 PUSH1 0xFF SWAP3 PUSH2 0x3C9 PUSH2 0x11BD JUMP JUMPDEST SWAP1 CALLDATALOAD DUP3 MSTORE DUP2 DUP7 MSTORE DUP3 DUP3 KECCAK256 PUSH1 0x1 PUSH1 0x1 PUSH1 0xA0 SHL SUB SWAP1 SWAP2 AND DUP3 MSTORE DUP6 MSTORE KECCAK256 SLOAD SWAP2 MLOAD SWAP2 AND ISZERO ISZERO DUP2 MSTORE RETURN JUMPDEST POP SWAP2 SWAP1 CALLVALUE PUSH2 0x31D JUMPI PUSH1 0x20 SWAP3 DUP4 PUSH1 0x3 NOT CALLDATASIZE ADD SLT PUSH2 0x298 JUMPI DUP2 CALLDATALOAD DUP1 DUP5 MSTORE PUSH1 0x2 DUP6 MSTORE PUSH1 0xFF DUP3 DUP6 KECCAK256 SLOAD AND ISZERO PUSH2 0x548 JUMPI DUP4 MSTORE PUSH1 0x1 DUP1 DUP6 MSTORE DUP2 DUP5 KECCAK256 DUP3 MLOAD SWAP3 PUSH2 0x42F DUP5 PUSH2 0x10DA JUMP JUMPDEST DUP2 SLOAD DUP5 MSTORE DUP3 DUP3 ADD SLOAD SWAP5 DUP8 DUP6 ADD SWAP6 DUP7 MSTORE PUSH1 0x2 DUP4 ADD SLOAD SWAP3 DUP3 DUP7 ADD SWAP4 DUP5 MSTORE PUSH1 0x3 DUP2 ADD DUP10 DUP5 MLOAD SWAP7 DUP11 DUP4 SLOAD SWAP4 PUSH2 0x45F DUP6 PUSH2 0x13E9 JUMP JUMPDEST DUP1 DUP12 MSTORE SWAP5 DUP4 DUP2 AND SWAP1 DUP2 ISZERO PUSH2 0x523 JUMPI POP PUSH1 0x1 EQ PUSH2 0x4E7 JUMPI JUMPDEST POP POP POP POP POP PUSH2 0x48C DUP6 PUSH2 0x4DD SWAP8 SWAP9 SWAP10 SUB DUP7 PUSH2 0x110C JUMP JUMPDEST DUP5 PUSH1 0x60 DUP9 ADD MSTORE ADD SLOAD SWAP1 PUSH1 0xFF PUSH1 0x1 DUP1 PUSH1 0xA0 SHL SUB DUP4 AND SWAP3 DUP4 PUSH1 0x80 DUP10 ADD MSTORE PUSH1 0xA0 SHR AND ISZERO ISZERO SWAP6 DUP7 PUSH1 0xA0 DUP3 ADD MSTORE MLOAD SWAP7 MLOAD SWAP3 MLOAD SWAP3 DUP2 MLOAD SWAP9 DUP10 SWAP9 DUP10 MSTORE DUP9 ADD MSTORE DUP7 ADD MSTORE PUSH1 0x60 DUP6 ADD MSTORE PUSH1 0xC0 PUSH1 0x80 DUP6 ADD MSTORE PUSH1 0xC0 DUP5 ADD SWAP1 PUSH2 0x1231 JUMP JUMPDEST SWAP1 PUSH1 0xA0 DUP4 ADD MSTORE SUB SWAP1 RETURN JUMPDEST SWAP1 DUP1 SWAP5 SWAP4 SWAP13 POP MSTORE DUP11 DUP4 KECCAK256 JUMPDEST DUP3 DUP5 LT PUSH2 0x510 JUMPI POP POP POP DUP6 ADD SWAP1 SWAP8 ADD SWAP7 PUSH2 0x48C DUP10 PUSH2 0x4DD DUP8 CODESIZE PUSH2 0x476 JUMP JUMPDEST DUP1 SLOAD DUP10 DUP6 ADD DUP14 ADD MSTORE SWAP3 DUP12 ADD SWAP3 DUP2 ADD PUSH2 0x4F2 JUMP JUMPDEST PUSH1 0xFF NOT AND DUP6 DUP13 ADD MSTORE POP POP POP POP SWAP1 ISZERO ISZERO PUSH1 0x5 SHL DUP7 ADD ADD SWAP8 POP PUSH2 0x48C DUP10 PUSH2 0x4DD DUP8 CODESIZE PUSH2 0x476 JUMP JUMPDEST SWAP1 MLOAD PUSH3 0x48F34D PUSH1 0xE5 SHL DUP2 MSTORE SWAP2 DUP3 ADD MSTORE PUSH1 0x24 SWAP1 REVERT JUMPDEST POP DUP3 SWAP1 CALLVALUE PUSH2 0x31D JUMPI PUSH2 0x56D CALLDATASIZE PUSH2 0x118A JUMP JUMPDEST PUSH2 0x575 PUSH2 0x1256 JUMP JUMPDEST DUP2 ISZERO PUSH2 0x836 JUMPI DUP1 MLOAD ISZERO PUSH2 0x826 JUMPI PUSH2 0x200 DUP2 MLOAD GT PUSH2 0x816 JUMPI DUP2 DUP5 MSTORE PUSH1 0x20 SWAP1 PUSH1 0x2 DUP3 MSTORE PUSH1 0xFF DUP5 DUP7 KECCAK256 SLOAD AND PUSH2 0x7FF JUMPI DUP4 MLOAD PUSH2 0x5AC DUP2 PUSH2 0x10DA JUMP JUMPDEST DUP4 DUP2 MSTORE DUP3 DUP2 ADD SWAP1 DUP7 DUP3 MSTORE DUP6 DUP2 ADD TIMESTAMP DUP2 MSTORE PUSH1 0x60 DUP3 ADD SWAP9 DUP5 DUP11 MSTORE PUSH1 0x80 DUP4 ADD SWAP3 CALLER DUP5 MSTORE PUSH1 0xA0 DUP2 ADD SWAP3 DUP11 DUP5 MSTORE DUP9 DUP12 MSTORE PUSH1 0x1 SWAP6 DUP7 DUP10 MSTORE DUP11 DUP13 KECCAK256 SWAP3 MLOAD DUP4 SSTORE MLOAD DUP7 DUP4 ADD SSTORE MLOAD PUSH1 0x2 DUP3 ADD SSTORE PUSH1 0x3 DUP2 ADD SWAP11 MLOAD SWAP11 DUP12 MLOAD PUSH8 0xFFFFFFFFFFFFFFFF DUP2 GT PUSH2 0x7EC JUMPI PUSH2 0x611 DUP3 SLOAD PUSH2 0x13E9 JUMP JUMPDEST PUSH1 0x1F DUP2 GT PUSH2 0x7AA JUMPI JUMPDEST POP DUP12 DUP1 SWAP14 DUP13 SWAP14 SWAP13 SWAP11 SWAP12 SWAP13 POP DUP12 SWAP2 PUSH1 0x1F DUP5 GT PUSH1 0x1 EQ PUSH2 0x707 JUMPI SWAP3 DUP1 PUSH1 0x0 DUP1 MLOAD PUSH1 0x20 PUSH2 0x1502 DUP4 CODECOPY DUP2 MLOAD SWAP2 MSTORE SWAP14 SWAP12 SWAP10 SWAP7 SWAP4 PUSH2 0x6F6 SWAP12 SWAP10 SWAP7 SWAP4 PUSH2 0x6A3 SWAP10 SWAP7 SWAP3 PUSH2 0x6FC JUMPI JUMPDEST POP POP PUSH1 0x0 NOT PUSH1 0x3 DUP4 SWAP1 SHL SHR NOT AND SWAP1 DUP9 SHL OR SWAP1 SSTORE JUMPDEST SWAP3 MLOAD SWAP3 ADD DUP1 SLOAD SWAP2 MLOAD PUSH1 0x1 PUSH1 0x1 PUSH1 0xA8 SHL SUB NOT SWAP1 SWAP3 AND PUSH1 0x1 PUSH1 0x1 PUSH1 0xA0 SHL SUB SWAP4 SWAP1 SWAP4 AND SWAP3 SWAP1 SWAP3 OR SWAP1 ISZERO ISZERO PUSH1 0xA0 SHL PUSH1 0xFF PUSH1 0xA0 SHL AND OR SWAP1 SSTORE JUMP JUMPDEST DUP7 DUP10 MSTORE PUSH1 0x2 DUP5 MSTORE DUP5 DUP10 KECCAK256 SWAP1 PUSH1 0xFF NOT DUP3 SLOAD AND OR SWAP1 SSTORE CALLER DUP9 MSTORE PUSH1 0x3 DUP4 MSTORE PUSH2 0x6CA DUP7 DUP6 DUP11 KECCAK256 PUSH2 0x1481 JUMP JUMPDEST PUSH2 0x6D3 DUP7 PUSH2 0x1423 JUMP JUMPDEST PUSH2 0x6DE PUSH1 0x5 SLOAD PUSH2 0x14AA JUMP JUMPDEST PUSH1 0x5 SSTORE DUP4 MLOAD SWAP4 DUP5 SWAP4 TIMESTAMP DUP6 MSTORE DUP5 ADD MSTORE CALLER SWAP7 DUP4 ADD SWAP1 PUSH2 0x1231 JUMP JUMPDEST SUB SWAP1 LOG3 DUP1 RETURN JUMPDEST ADD MLOAD SWAP1 POP CODESIZE DUP1 PUSH2 0x65A JUMP JUMPDEST SWAP1 PUSH1 0x1F SWAP13 SWAP11 SWAP10 SWAP9 SWAP8 SWAP7 SWAP6 SWAP5 SWAP4 SWAP3 SWAP13 NOT DUP4 AND DUP5 DUP4 MSTORE DUP12 DUP4 KECCAK256 SWAP3 JUMPDEST DUP2 DUP2 LT PUSH2 0x777 JUMPI POP SWAP3 DUP10 SWAP9 SWAP7 SWAP5 SWAP3 PUSH1 0x0 DUP1 MLOAD PUSH1 0x20 PUSH2 0x1502 DUP4 CODECOPY DUP2 MLOAD SWAP2 MSTORE SWAP15 PUSH2 0x6F6 SWAP13 SWAP12 SWAP4 DUP4 PUSH2 0x6A3 SWAP12 SWAP10 SWAP8 LT PUSH2 0x75E JUMPI JUMPDEST POP POP POP DUP2 SHL ADD SWAP1 SSTORE PUSH2 0x66E JUMP JUMPDEST ADD MLOAD PUSH1 0x0 NOT PUSH1 0xF8 DUP5 PUSH1 0x3 SHL AND SHR NOT AND SWAP1 SSTORE CODESIZE DUP1 DUP1 PUSH2 0x751 JUMP JUMPDEST SWAP4 SWAP6 SWAP8 SWAP10 SWAP12 DUP15 SWAP6 SWAP8 SWAP10 SWAP12 SWAP14 POP DUP13 DUP2 SWAP16 SWAP5 DUP5 SWAP6 DUP4 SWAP5 SWAP6 ADD MLOAD DUP2 SSTORE ADD SWAP6 ADD SWAP4 ADD SWAP1 DUP16 SWAP13 SWAP11 SWAP9 SWAP7 SWAP5 SWAP3 SWAP2 SWAP14 SWAP12 SWAP10 SWAP8 SWAP6 SWAP4 SWAP14 PUSH2 0x720 JUMP JUMPDEST DUP3 DUP14 MSTORE DUP10 DUP14 KECCAK256 PUSH1 0x1F DUP4 ADD PUSH1 0x5 SHR DUP2 ADD SWAP2 DUP12 DUP5 LT PUSH2 0x7E2 JUMPI JUMPDEST PUSH1 0x1F ADD PUSH1 0x5 SHR ADD SWAP1 JUMPDEST DUP2 DUP2 LT PUSH2 0x7D8 JUMPI POP PUSH2 0x61A JUMP JUMPDEST DUP14 DUP2 SSTORE DUP9 ADD PUSH2 0x7CB JUMP JUMPDEST SWAP1 SWAP2 POP DUP2 SWAP1 PUSH2 0x7C2 JUMP JUMPDEST PUSH4 0x4E487B71 PUSH1 0xE0 SHL DUP13 MSTORE PUSH1 0x41 DUP5 MSTORE PUSH1 0x24 DUP13 REVERT JUMPDEST DUP4 MLOAD PUSH4 0x90315DE1 PUSH1 0xE0 SHL DUP2 MSTORE DUP1 DUP8 ADD DUP5 SWAP1 MSTORE PUSH1 0x24 SWAP1 REVERT JUMPDEST DUP3 MLOAD PUSH4 0xB4FA3FB3 PUSH1 0xE0 SHL DUP2 MSTORE DUP6 SWAP1 REVERT JUMPDEST DUP3 MLOAD PUSH4 0xECD7B0D1 PUSH1 0xE0 SHL DUP2 MSTORE DUP6 SWAP1 REVERT JUMPDEST DUP3 MLOAD PUSH4 0x50068073 PUSH1 0xE1 SHL DUP2 MSTORE DUP6 SWAP1 REVERT JUMPDEST POP DUP3 SWAP1 CALLVALUE PUSH2 0x31D JUMPI DUP2 PUSH1 0x3 NOT CALLDATASIZE ADD SLT PUSH2 0x31D JUMPI DUP1 MLOAD SWAP2 DUP3 DUP5 SLOAD SWAP1 DUP2 DUP2 MSTORE PUSH1 0x20 DUP1 SWAP2 ADD SWAP6 DUP4 MSTORE PUSH32 0x8A35ACFBC15FF81A39AE7D344FD709F28E8600B4AA8C65C6B64BFE7FE36BD19B SWAP3 SWAP1 JUMPDEST DUP3 DUP3 LT PUSH2 0x8A7 JUMPI PUSH2 0x389 DUP7 DUP7 PUSH2 0x37F DUP3 DUP12 SUB DUP4 PUSH2 0x110C JUMP JUMPDEST DUP4 SLOAD DUP8 MSTORE SWAP6 DUP7 ADD SWAP6 PUSH1 0x1 SWAP4 DUP5 ADD SWAP4 SWAP1 SWAP2 ADD SWAP1 PUSH2 0x88F JUMP JUMPDEST POP SWAP1 CALLVALUE PUSH2 0x298 JUMPI PUSH1 0x20 CALLDATASIZE PUSH1 0x3 NOT ADD SLT PUSH2 0x298 JUMPI DUP2 PUSH1 0x20 SWAP4 PUSH1 0xFF SWAP3 CALLDATALOAD DUP2 MSTORE PUSH1 0x2 DUP6 MSTORE KECCAK256 SLOAD AND SWAP1 MLOAD SWAP1 ISZERO ISZERO DUP2 MSTORE RETURN JUMPDEST POP DUP3 SWAP1 CALLVALUE PUSH2 0x31D JUMPI PUSH1 0x60 CALLDATASIZE PUSH1 0x3 NOT ADD SLT PUSH2 0x31D JUMPI PUSH8 0xFFFFFFFFFFFFFFFF SWAP3 PUSH1 0x44 CALLDATALOAD DUP5 DUP2 GT PUSH2 0x3A4 JUMPI PUSH2 0x920 SWAP1 CALLDATASIZE SWAP1 DUP4 ADD PUSH2 0x112E JUMP JUMPDEST SWAP2 PUSH2 0x929 PUSH2 0x1256 JUMP JUMPDEST DUP2 CALLDATALOAD SWAP2 DUP3 ISZERO DUP1 ISZERO PUSH2 0xC02 JUMPI JUMPDEST PUSH2 0xBF4 JUMPI DUP4 MLOAD ISZERO PUSH2 0xBE6 JUMPI PUSH2 0x200 DUP5 MLOAD GT PUSH2 0xBD8 JUMPI DUP3 DUP6 MSTORE PUSH1 0x20 SWAP4 PUSH1 0x2 DUP6 MSTORE PUSH1 0xFF DUP4 DUP8 KECCAK256 SLOAD AND PUSH1 0x0 EQ PUSH2 0x9ED JUMPI POP SWAP1 SWAP2 DUP5 DUP2 SWAP5 SWAP6 SWAP7 POP MSTORE PUSH1 0x1 DUP5 MSTORE PUSH1 0xFF DUP2 DUP4 DUP8 KECCAK256 ADD SLOAD PUSH1 0xA0 SHR AND PUSH2 0x9D8 JUMPI DUP3 DUP6 MSTORE PUSH1 0x1 DUP1 DUP6 MSTORE DUP3 DUP7 KECCAK256 PUSH1 0x24 CALLDATALOAD SWAP2 DUP2 ADD SWAP2 SWAP1 SWAP2 SSTORE ADD DUP1 SLOAD PUSH1 0xFF PUSH1 0xA0 SHL NOT AND PUSH1 0x1 PUSH1 0xA0 SHL OR SWAP1 SSTORE JUMPDEST MLOAD SWAP1 TIMESTAMP DUP3 MSTORE PUSH32 0xBDEC61CC56FA0FB6269F7FA5C6EAEF0EC0B7566D18A3563592237135761ED45 CALLER SWAP4 PUSH1 0x24 CALLDATALOAD SWAP4 LOG4 DUP1 RETURN JUMPDEST DUP3 PUSH1 0x24 SWAP3 MLOAD SWAP2 PUSH4 0x524E3B1 PUSH1 0xE3 SHL DUP4 MSTORE DUP3 ADD MSTORE REVERT JUMPDEST DUP3 MLOAD PUSH2 0x9F8 DUP2 PUSH2 0x10DA JUMP JUMPDEST DUP5 DUP2 MSTORE DUP6 DUP2 ADD SWAP3 PUSH1 0x24 CALLDATALOAD DUP5 MSTORE DUP5 DUP3 ADD SWAP2 TIMESTAMP DUP4 MSTORE PUSH1 0x60 DUP2 ADD SWAP4 DUP5 MSTORE PUSH1 0x80 DUP2 ADD SWAP4 CALLER DUP6 MSTORE PUSH1 0xA0 DUP3 ADD SWAP4 PUSH1 0x1 SWAP7 DUP8 DUP7 MSTORE DUP10 DUP13 MSTORE DUP8 DUP12 MSTORE DUP9 DUP13 KECCAK256 SWAP4 MLOAD DUP5 SSTORE MLOAD DUP8 DUP5 ADD SSTORE MLOAD PUSH1 0x2 DUP4 ADD SSTORE MLOAD SWAP10 DUP11 MLOAD SWAP1 DUP2 GT PUSH2 0xBC5 JUMPI PUSH1 0x3 DUP3 ADD SWAP1 PUSH2 0xA57 DUP3 SLOAD PUSH2 0x13E9 JUMP JUMPDEST PUSH1 0x1F DUP2 GT PUSH2 0xB7F JUMPI JUMPDEST POP DUP10 PUSH1 0x1F DUP3 GT PUSH1 0x1 EQ PUSH2 0xB14 JUMPI DUP2 SWAP1 DUP13 SWAP14 PUSH2 0xAC6 SWAP10 SWAP11 SWAP12 SWAP13 SWAP14 SWAP3 PUSH2 0xB09 JUMPI POP POP PUSH1 0x0 NOT PUSH1 0x3 DUP4 SWAP1 SHL SHR NOT AND SWAP1 DUP9 SHL OR SWAP1 SSTORE SWAP3 MLOAD SWAP3 ADD DUP1 SLOAD SWAP2 MLOAD PUSH1 0x1 PUSH1 0x1 PUSH1 0xA8 SHL SUB NOT SWAP1 SWAP3 AND PUSH1 0x1 PUSH1 0x1 PUSH1 0xA0 SHL SUB SWAP4 SWAP1 SWAP4 AND SWAP3 SWAP1 SWAP3 OR SWAP1 ISZERO ISZERO PUSH1 0xA0 SHL PUSH1 0xFF PUSH1 0xA0 SHL AND OR SWAP1 SSTORE JUMP JUMPDEST DUP3 DUP6 MSTORE PUSH1 0x2 DUP5 MSTORE DUP2 DUP6 KECCAK256 SWAP1 PUSH1 0xFF NOT DUP3 SLOAD AND OR SWAP1 SSTORE CALLER DUP5 MSTORE PUSH1 0x3 DUP4 MSTORE PUSH2 0xAED DUP3 DUP3 DUP7 KECCAK256 PUSH2 0x1481 JUMP JUMPDEST PUSH2 0xAF6 DUP3 PUSH2 0x1423 JUMP JUMPDEST PUSH2 0xB01 PUSH1 0x5 SLOAD PUSH2 0x14AA JUMP JUMPDEST PUSH1 0x5 SSTORE PUSH2 0x9A8 JUMP JUMPDEST ADD MLOAD SWAP1 POP DUP14 DUP1 PUSH2 0x65A JUMP JUMPDEST DUP3 DUP13 MSTORE DUP11 DUP13 KECCAK256 SWAP13 PUSH1 0x1F NOT DUP4 AND DUP14 JUMPDEST DUP2 DUP2 LT PUSH2 0xB64 JUMPI POP SWAP2 DUP10 SWAP11 SWAP12 SWAP13 SWAP14 SWAP15 SWAP2 DUP5 PUSH2 0xAC6 SWAP12 SWAP6 SWAP5 LT PUSH2 0xB4B JUMPI POP POP POP DUP2 SHL ADD SWAP1 SSTORE PUSH2 0x66E JUMP JUMPDEST ADD MLOAD PUSH1 0x0 NOT PUSH1 0xF8 DUP5 PUSH1 0x3 SHL AND SHR NOT AND SWAP1 SSTORE DUP14 DUP1 DUP1 PUSH2 0x751 JUMP JUMPDEST SWAP2 SWAP15 DUP16 DUP12 DUP16 SWAP3 DUP7 DUP5 SWAP4 ADD MLOAD DUP2 SSTORE ADD SWAP5 ADD SWAP3 ADD SWAP15 SWAP2 SWAP3 SWAP15 PUSH2 0xB22 JUMP JUMPDEST DUP3 DUP13 MSTORE DUP11 DUP13 KECCAK256 PUSH1 0x1F DUP4 ADD PUSH1 0x5 SHR DUP2 ADD SWAP2 DUP13 DUP5 LT PUSH2 0xBBB JUMPI JUMPDEST PUSH1 0x1F ADD PUSH1 0x5 SHR ADD SWAP1 DUP9 SWAP1 JUMPDEST DUP3 DUP2 LT PUSH2 0xBB0 JUMPI POP POP PUSH2 0xA60 JUMP JUMPDEST DUP14 DUP2 SSTORE ADD DUP9 SWAP1 PUSH2 0xBA2 JUMP JUMPDEST SWAP1 SWAP2 POP DUP2 SWAP1 PUSH2 0xB97 JUMP JUMPDEST PUSH4 0x4E487B71 PUSH1 0xE0 SHL DUP11 MSTORE PUSH1 0x41 DUP4 MSTORE PUSH1 0x24 DUP11 REVERT JUMPDEST SWAP1 MLOAD PUSH4 0xB4FA3FB3 PUSH1 0xE0 SHL DUP2 MSTORE REVERT JUMPDEST SWAP1 MLOAD PUSH4 0xECD7B0D1 PUSH1 0xE0 SHL DUP2 MSTORE REVERT JUMPDEST SWAP1 MLOAD PUSH4 0x50068073 PUSH1 0xE1 SHL DUP2 MSTORE REVERT JUMPDEST POP PUSH1 0x24 CALLDATALOAD ISZERO PUSH2 0x935 JUMP JUMPDEST POP DUP3 CALLVALUE PUSH2 0x295 JUMPI DUP1 PUSH1 0x3 NOT CALLDATASIZE ADD SLT PUSH2 0x295 JUMPI PUSH1 0x5 SLOAD SWAP2 DUP2 DUP3 DUP6 SLOAD SWAP1 JUMPDEST DUP2 DUP2 LT PUSH2 0xC63 JUMPI POP POP DUP1 DUP5 SUB SWAP3 DUP5 DUP5 GT PUSH2 0xC50 JUMPI POP PUSH1 0x60 SWAP5 POP DUP2 MLOAD SWAP4 DUP5 MSTORE PUSH1 0x20 DUP5 ADD MSTORE DUP3 ADD MSTORE RETURN JUMPDEST PUSH4 0x4E487B71 PUSH1 0xE0 SHL DUP2 MSTORE PUSH1 0x11 DUP7 MSTORE PUSH1 0x24 SWAP1 REVERT JUMPDEST DUP1 PUSH32 0x8A35ACFBC15FF81A39AE7D344FD709F28E8600B4AA8C65C6B64BFE7FE36BD19B ADD SLOAD DUP6 MSTORE PUSH1 0x1 PUSH1 0x20 MSTORE PUSH1 0xFF DUP8 DUP6 DUP8 KECCAK256 ADD SLOAD PUSH1 0xA0 SHR AND PUSH2 0xCAD JUMPI JUMPDEST PUSH2 0xCA8 SWAP1 PUSH2 0x14AA JUMP JUMPDEST PUSH2 0xC28 JUMP JUMPDEST SWAP2 PUSH2 0xCBA PUSH2 0xCA8 SWAP2 PUSH2 0x14AA JUMP JUMPDEST SWAP3 SWAP1 POP PUSH2 0xC9F JUMP JUMPDEST POP DUP3 SWAP1 CALLVALUE PUSH2 0x31D JUMPI DUP1 PUSH1 0x3 NOT CALLDATASIZE ADD SLT PUSH2 0x31D JUMPI PUSH2 0xCDD PUSH2 0x11BD JUMP JUMPDEST SWAP1 CALLER PUSH1 0x1 PUSH1 0x1 PUSH1 0xA0 SHL SUB DUP4 AND SUB PUSH2 0xCFA JUMPI POP PUSH2 0x2FE SWAP2 SWAP3 CALLDATALOAD PUSH2 0x1374 JUMP JUMPDEST MLOAD PUSH4 0x334BD919 PUSH1 0xE1 SHL DUP2 MSTORE DUP4 SWAP1 REVERT JUMPDEST POP CALLVALUE PUSH2 0x298 JUMPI DUP1 PUSH1 0x3 NOT CALLDATASIZE ADD SLT PUSH2 0x298 JUMPI PUSH2 0x2FE SWAP2 CALLDATALOAD PUSH2 0xD2C PUSH1 0x1 PUSH2 0x2E8 PUSH2 0x11BD JUMP JUMPDEST PUSH2 0x12F6 JUMP JUMPDEST POP DUP3 SWAP1 CALLVALUE PUSH2 0x31D JUMPI PUSH2 0xD42 CALLDATASIZE PUSH2 0x118A JUMP JUMPDEST PUSH32 0xB346B2DDC13F08BD9685B83A95304A79A2CAAC0AA7AA64129E1AE9F4361B4661 SWAP1 DUP2 DUP6 MSTORE PUSH1 0x20 SWAP2 DUP6 DUP4 MSTORE DUP5 DUP7 KECCAK256 CALLER DUP8 MSTORE DUP4 MSTORE PUSH1 0xFF DUP6 DUP8 KECCAK256 SLOAD AND ISZERO PUSH2 0xFCA JUMPI POP DUP3 ISZERO PUSH2 0xFBA JUMPI DUP1 MLOAD ISZERO PUSH2 0xFAA JUMPI DUP3 DUP6 MSTORE PUSH1 0x2 DUP3 MSTORE PUSH1 0xFF DUP5 DUP7 KECCAK256 SLOAD AND PUSH2 0x7FF JUMPI DUP4 MLOAD SWAP6 PUSH12 0x2DA2A6A2A923A2A721ACAE9 PUSH1 0xA5 SHL DUP4 DUP9 ADD MSTORE PUSH2 0xDDF PUSH1 0x2C DUP9 DUP5 MLOAD PUSH2 0xDCF DUP2 DUP5 DUP5 ADD DUP10 DUP10 ADD PUSH2 0x120E JUMP JUMPDEST DUP2 ADD SUB PUSH1 0xC DUP2 ADD DUP11 MSTORE ADD DUP9 PUSH2 0x110C JUMP JUMPDEST DUP5 MLOAD PUSH2 0xDEA DUP2 PUSH2 0x10DA JUMP JUMPDEST DUP5 DUP2 MSTORE DUP4 DUP2 ADD SWAP2 DUP8 DUP4 MSTORE DUP7 DUP3 ADD SWAP1 TIMESTAMP DUP3 MSTORE PUSH1 0x60 DUP4 ADD SWAP10 DUP11 MSTORE PUSH1 0x80 DUP4 ADD SWAP3 CALLER DUP5 MSTORE PUSH1 0xA0 DUP2 ADD SWAP3 DUP11 DUP5 MSTORE DUP9 DUP12 MSTORE PUSH1 0x1 SWAP6 DUP7 DUP10 MSTORE DUP11 DUP13 KECCAK256 SWAP3 MLOAD DUP4 SSTORE MLOAD DUP7 DUP4 ADD SSTORE MLOAD PUSH1 0x2 DUP3 ADD SSTORE PUSH1 0x3 DUP2 ADD SWAP11 MLOAD SWAP11 DUP12 MLOAD PUSH8 0xFFFFFFFFFFFFFFFF DUP2 GT PUSH2 0x7EC JUMPI PUSH2 0xE4F DUP3 SLOAD PUSH2 0x13E9 JUMP JUMPDEST PUSH1 0x1F DUP2 GT PUSH2 0xF68 JUMPI JUMPDEST POP DUP12 DUP1 SWAP14 DUP13 SWAP14 SWAP13 SWAP11 SWAP12 SWAP13 POP DUP12 SWAP2 PUSH1 0x1F DUP5 GT PUSH1 0x1 EQ PUSH2 0xEDF JUMPI SWAP3 DUP1 PUSH1 0x0 DUP1 MLOAD PUSH1 0x20 PUSH2 0x1502 DUP4 CODECOPY DUP2 MLOAD SWAP2 MSTORE SWAP14 SWAP12 SWAP10 SWAP7 SWAP4 PUSH2 0x6F6 SWAP12 SWAP10 SWAP7 SWAP4 PUSH2 0x6A3 SWAP10 SWAP7 SWAP3 PUSH2 0x6FC JUMPI POP POP PUSH1 0x0 NOT PUSH1 0x3 DUP4 SWAP1 SHL SHR NOT AND SWAP1 DUP9 SHL OR SWAP1 SSTORE SWAP3 MLOAD SWAP3 ADD DUP1 SLOAD SWAP2 MLOAD PUSH1 0x1 PUSH1 0x1 PUSH1 0xA8 SHL SUB NOT SWAP1 SWAP3 AND PUSH1 0x1 PUSH1 0x1 PUSH1 0xA0 SHL SUB SWAP4 SWAP1 SWAP4 AND SWAP3 SWAP1 SWAP3 OR SWAP1 ISZERO ISZERO PUSH1 0xA0 SHL PUSH1 0xFF PUSH1 0xA0 SHL AND OR SWAP1 SSTORE JUMP JUMPDEST SWAP1 PUSH1 0x1F SWAP13 SWAP11 SWAP10 SWAP9 SWAP8 SWAP7 SWAP6 SWAP5 SWAP4 SWAP3 SWAP13 NOT DUP4 AND DUP5 DUP4 MSTORE DUP12 DUP4 KECCAK256 SWAP3 JUMPDEST DUP2 DUP2 LT PUSH2 0xF35 JUMPI POP SWAP3 DUP10 SWAP9 SWAP7 SWAP5 SWAP3 PUSH1 0x0 DUP1 MLOAD PUSH1 0x20 PUSH2 0x1502 DUP4 CODECOPY DUP2 MLOAD SWAP2 MSTORE SWAP15 PUSH2 0x6F6 SWAP13 SWAP12 SWAP4 DUP4 PUSH2 0x6A3 SWAP12 SWAP10 SWAP8 LT PUSH2 0x75E JUMPI POP POP POP DUP2 SHL ADD SWAP1 SSTORE PUSH2 0x66E JUMP JUMPDEST SWAP4 SWAP6 SWAP8 SWAP10 SWAP12 DUP15 SWAP6 SWAP8 SWAP10 SWAP12 SWAP14 POP DUP13 DUP2 SWAP16 SWAP5 DUP5 SWAP6 DUP4 SWAP5 SWAP6 ADD MLOAD DUP2 SSTORE ADD SWAP6 ADD SWAP4 ADD SWAP1 DUP16 SWAP13 SWAP11 SWAP9 SWAP7 SWAP5 SWAP3 SWAP2 SWAP14 SWAP12 SWAP10 SWAP8 SWAP6 SWAP4 SWAP14 PUSH2 0xEF8 JUMP JUMPDEST DUP3 DUP14 MSTORE DUP10 DUP14 KECCAK256 PUSH1 0x1F DUP4 ADD PUSH1 0x5 SHR DUP2 ADD SWAP2 DUP12 DUP5 LT PUSH2 0xFA0 JUMPI JUMPDEST PUSH1 0x1F ADD PUSH1 0x5 SHR ADD SWAP1 JUMPDEST DUP2 DUP2 LT PUSH2 0xF96 JUMPI POP PUSH2 0xE58 JUMP JUMPDEST DUP14 DUP2 SSTORE DUP9 ADD PUSH2 0xF89 JUMP JUMPDEST SWAP1 SWAP2 POP DUP2 SWAP1 PUSH2 0xF80 JUMP JUMPDEST DUP4 MLOAD PUSH4 0xECD7B0D1 PUSH1 0xE0 SHL DUP2 MSTORE DUP7 SWAP1 REVERT JUMPDEST DUP4 MLOAD PUSH4 0x50068073 PUSH1 0xE1 SHL DUP2 MSTORE DUP7 SWAP1 REVERT JUMPDEST DUP5 MLOAD PUSH4 0xE2517D3F PUSH1 0xE0 SHL DUP2 MSTORE CALLER DUP2 DUP10 ADD MSTORE PUSH1 0x24 DUP2 ADD SWAP2 SWAP1 SWAP2 MSTORE PUSH1 0x44 SWAP1 REVERT JUMPDEST POP SWAP1 CALLVALUE PUSH2 0x298 JUMPI PUSH1 0x20 CALLDATASIZE PUSH1 0x3 NOT ADD SLT PUSH2 0x298 JUMPI DUP2 PUSH1 0x20 SWAP4 PUSH1 0x1 SWAP3 CALLDATALOAD DUP2 MSTORE DUP1 DUP6 MSTORE KECCAK256 ADD SLOAD SWAP1 MLOAD SWAP1 DUP2 MSTORE RETURN JUMPDEST POP SWAP1 CALLVALUE PUSH2 0x298 JUMPI PUSH1 0x20 CALLDATASIZE PUSH1 0x3 NOT ADD SLT PUSH2 0x298 JUMPI DUP1 CALLDATALOAD SWAP1 DUP2 DUP5 MSTORE PUSH1 0x2 PUSH1 0x20 MSTORE PUSH1 0xFF DUP4 DUP6 KECCAK256 SLOAD AND ISZERO PUSH2 0x1053 JUMPI POP DUP2 DUP4 PUSH1 0x1 SWAP3 PUSH1 0x20 SWAP6 MSTORE DUP3 DUP6 MSTORE KECCAK256 ADD SLOAD SWAP1 MLOAD SWAP1 DUP2 MSTORE RETURN JUMPDEST SWAP2 MLOAD PUSH3 0x48F34D PUSH1 0xE5 SHL DUP2 MSTORE SWAP2 DUP3 ADD MSTORE PUSH1 0x24 SWAP1 REVERT JUMPDEST DUP4 DUP3 CALLVALUE PUSH2 0x31D JUMPI DUP2 PUSH1 0x3 NOT CALLDATASIZE ADD SLT PUSH2 0x31D JUMPI PUSH1 0x20 SWAP1 PUSH1 0x5 SLOAD SWAP1 MLOAD SWAP1 DUP2 MSTORE RETURN JUMPDEST DUP5 SWAP1 DUP5 CALLVALUE PUSH2 0x298 JUMPI PUSH1 0x20 CALLDATASIZE PUSH1 0x3 NOT ADD SLT PUSH2 0x298 JUMPI CALLDATALOAD PUSH4 0xFFFFFFFF PUSH1 0xE0 SHL DUP2 AND DUP1 SWAP2 SUB PUSH2 0x298 JUMPI PUSH1 0x20 SWAP3 POP PUSH4 0x7965DB0B PUSH1 0xE0 SHL DUP2 EQ SWAP1 DUP2 ISZERO PUSH2 0x10C9 JUMPI JUMPDEST POP ISZERO ISZERO DUP2 MSTORE RETURN JUMPDEST PUSH4 0x1FFC9A7 PUSH1 0xE0 SHL EQ SWAP1 POP DUP4 PUSH2 0x10C2 JUMP JUMPDEST PUSH1 0xC0 DUP2 ADD SWAP1 DUP2 LT PUSH8 0xFFFFFFFFFFFFFFFF DUP3 GT OR PUSH2 0x10F6 JUMPI PUSH1 0x40 MSTORE JUMP JUMPDEST PUSH4 0x4E487B71 PUSH1 0xE0 SHL PUSH1 0x0 MSTORE PUSH1 0x41 PUSH1 0x4 MSTORE PUSH1 0x24 PUSH1 0x0 REVERT JUMPDEST SWAP1 PUSH1 0x1F DUP1 NOT SWAP2 ADD AND DUP2 ADD SWAP1 DUP2 LT PUSH8 0xFFFFFFFFFFFFFFFF DUP3 GT OR PUSH2 0x10F6 JUMPI PUSH1 0x40 MSTORE JUMP JUMPDEST DUP2 PUSH1 0x1F DUP3 ADD SLT ISZERO PUSH2 0x1185 JUMPI DUP1 CALLDATALOAD SWAP1 PUSH8 0xFFFFFFFFFFFFFFFF DUP3 GT PUSH2 0x10F6 JUMPI PUSH1 0x40 MLOAD SWAP3 PUSH2 0x1163 PUSH1 0x1F DUP5 ADD PUSH1 0x1F NOT AND PUSH1 0x20 ADD DUP6 PUSH2 0x110C JUMP JUMPDEST DUP3 DUP5 MSTORE PUSH1 0x20 DUP4 DUP4 ADD ADD GT PUSH2 0x1185 JUMPI DUP2 PUSH1 0x0 SWAP3 PUSH1 0x20 DUP1 SWAP4 ADD DUP4 DUP7 ADD CALLDATACOPY DUP4 ADD ADD MSTORE SWAP1 JUMP JUMPDEST PUSH1 0x0 DUP1 REVERT JUMPDEST SWAP1 PUSH1 0x40 PUSH1 0x3 NOT DUP4 ADD SLT PUSH2 0x1185 JUMPI PUSH1 0x4 CALLDATALOAD SWAP2 PUSH1 0x24 CALLDATALOAD SWAP1 PUSH8 0xFFFFFFFFFFFFFFFF DUP3 GT PUSH2 0x1185 JUMPI PUSH2 0x11BA SWAP2 PUSH1 0x4 ADD PUSH2 0x112E JUMP JUMPDEST SWAP1 JUMP JUMPDEST PUSH1 0x24 CALLDATALOAD SWAP1 PUSH1 0x1 PUSH1 0x1 PUSH1 0xA0 SHL SUB DUP3 AND DUP3 SUB PUSH2 0x1185 JUMPI JUMP JUMPDEST PUSH1 0x20 SWAP1 DUP2 PUSH1 0x40 DUP2 DUP4 ADD SWAP3 DUP3 DUP2 MSTORE DUP6 MLOAD DUP1 SWAP5 MSTORE ADD SWAP4 ADD SWAP2 PUSH1 0x0 JUMPDEST DUP3 DUP2 LT PUSH2 0x11FA JUMPI POP POP POP POP SWAP1 JUMP JUMPDEST DUP4 MLOAD DUP6 MSTORE SWAP4 DUP2 ADD SWAP4 SWAP3 DUP2 ADD SWAP3 PUSH1 0x1 ADD PUSH2 0x11EC JUMP JUMPDEST PUSH1 0x0 JUMPDEST DUP4 DUP2 LT PUSH2 0x1221 JUMPI POP POP PUSH1 0x0 SWAP2 ADD MSTORE JUMP JUMPDEST DUP2 DUP2 ADD MLOAD DUP4 DUP3 ADD MSTORE PUSH1 0x20 ADD PUSH2 0x1211 JUMP JUMPDEST SWAP1 PUSH1 0x20 SWAP2 PUSH2 0x124A DUP2 MLOAD DUP1 SWAP3 DUP2 DUP6 MSTORE DUP6 DUP1 DUP7 ADD SWAP2 ADD PUSH2 0x120E JUMP JUMPDEST PUSH1 0x1F ADD PUSH1 0x1F NOT AND ADD ADD SWAP1 JUMP JUMPDEST CALLER PUSH1 0x0 SWAP1 DUP2 MSTORE PUSH32 0x75A62D95AD9FEF7BBA5C4DDE6E3FF662D5C539A6D57CB138A3D5C2F3A42773FF PUSH1 0x20 MSTORE PUSH1 0x40 SWAP1 KECCAK256 SLOAD PUSH32 0x4B90E70A23AD1C016CDBA1A015076C2DE977E305FCAD3881690CAFBE99D36190 SWAP1 PUSH1 0xFF AND ISZERO PUSH2 0x12B2 JUMPI POP JUMP JUMPDEST PUSH1 0x44 SWAP1 PUSH1 0x40 MLOAD SWAP1 PUSH4 0xE2517D3F PUSH1 0xE0 SHL DUP3 MSTORE CALLER PUSH1 0x4 DUP4 ADD MSTORE PUSH1 0x24 DUP3 ADD MSTORE REVERT JUMPDEST DUP1 PUSH1 0x0 MSTORE PUSH1 0x0 PUSH1 0x20 MSTORE PUSH1 0x40 PUSH1 0x0 KECCAK256 CALLER PUSH1 0x0 MSTORE PUSH1 0x20 MSTORE PUSH1 0xFF PUSH1 0x40 PUSH1 0x0 KECCAK256 SLOAD AND ISZERO PUSH2 0x12B2 JUMPI POP JUMP JUMPDEST SWAP1 PUSH1 0x0 SWAP2 DUP1 DUP4 MSTORE DUP3 PUSH1 0x20 MSTORE PUSH1 0x40 DUP4 KECCAK256 SWAP2 PUSH1 0x1 DUP1 PUSH1 0xA0 SHL SUB AND SWAP2 DUP3 DUP5 MSTORE PUSH1 0x20 MSTORE PUSH1 0xFF PUSH1 0x40 DUP5 KECCAK256 SLOAD AND ISZERO PUSH1 0x0 EQ PUSH2 0x136F JUMPI DUP1 DUP4 MSTORE DUP3 PUSH1 0x20 MSTORE PUSH1 0x40 DUP4 KECCAK256 DUP3 DUP5 MSTORE PUSH1 0x20 MSTORE PUSH1 0x40 DUP4 KECCAK256 PUSH1 0x1 PUSH1 0xFF NOT DUP3 SLOAD AND OR SWAP1 SSTORE PUSH32 0x2F8788117E7EFF1D82E926EC794901D17C78024A50270940304540A733656F0D CALLER SWAP4 DUP1 LOG4 PUSH1 0x1 SWAP1 JUMP JUMPDEST POP POP SWAP1 JUMP JUMPDEST SWAP1 PUSH1 0x0 SWAP2 DUP1 DUP4 MSTORE DUP3 PUSH1 0x20 MSTORE PUSH1 0x40 DUP4 KECCAK256 SWAP2 PUSH1 0x1 DUP1 PUSH1 0xA0 SHL SUB AND SWAP2 DUP3 DUP5 MSTORE PUSH1 0x20 MSTORE PUSH1 0xFF PUSH1 0x40 DUP5 KECCAK256 SLOAD AND PUSH1 0x0 EQ PUSH2 0x136F JUMPI DUP1 DUP4 MSTORE DUP3 PUSH1 0x20 MSTORE PUSH1 0x40 DUP4 KECCAK256 DUP3 DUP5 MSTORE PUSH1 0x20 MSTORE PUSH1 0x40 DUP4 KECCAK256 PUSH1 0xFF NOT DUP2 SLOAD AND SWAP1 SSTORE PUSH32 0xF6391F5C32D9C69D2A47EA670B442974B53935D1EDC7FD64EB21E047A839171B CALLER SWAP4 DUP1 LOG4 PUSH1 0x1 SWAP1 JUMP JUMPDEST SWAP1 PUSH1 0x1 DUP3 DUP2 SHR SWAP3 AND DUP1 ISZERO PUSH2 0x1419 JUMPI JUMPDEST PUSH1 0x20 DUP4 LT EQ PUSH2 0x1403 JUMPI JUMP JUMPDEST PUSH4 0x4E487B71 PUSH1 0xE0 SHL PUSH1 0x0 MSTORE PUSH1 0x22 PUSH1 0x4 MSTORE PUSH1 0x24 PUSH1 0x0 REVERT JUMPDEST SWAP2 PUSH1 0x7F AND SWAP2 PUSH2 0x13F8 JUMP JUMPDEST PUSH1 0x4 SLOAD PUSH1 0x1 PUSH1 0x40 SHL DUP2 LT ISZERO PUSH2 0x10F6 JUMPI PUSH1 0x1 DUP2 ADD DUP1 PUSH1 0x4 SSTORE DUP2 LT ISZERO PUSH2 0x146B JUMPI PUSH1 0x4 PUSH1 0x0 MSTORE PUSH32 0x8A35ACFBC15FF81A39AE7D344FD709F28E8600B4AA8C65C6B64BFE7FE36BD19B ADD SSTORE JUMP JUMPDEST PUSH4 0x4E487B71 PUSH1 0xE0 SHL PUSH1 0x0 MSTORE PUSH1 0x32 PUSH1 0x4 MSTORE PUSH1 0x24 PUSH1 0x0 REVERT JUMPDEST DUP1 SLOAD SWAP1 PUSH1 0x1 PUSH1 0x40 SHL DUP3 LT ISZERO PUSH2 0x10F6 JUMPI PUSH1 0x1 DUP3 ADD DUP1 DUP3 SSTORE DUP3 LT ISZERO PUSH2 0x146B JUMPI PUSH1 0x0 MSTORE PUSH1 0x20 PUSH1 0x0 KECCAK256 ADD SSTORE JUMP JUMPDEST PUSH1 0x0 NOT DUP2 EQ PUSH2 0x14B9 JUMPI PUSH1 0x1 ADD SWAP1 JUMP JUMPDEST PUSH4 0x4E487B71 PUSH1 0xE0 SHL PUSH1 0x0 MSTORE PUSH1 0x11 PUSH1 0x4 MSTORE PUSH1 0x24 PUSH1 0x0 REVERT JUMPDEST PUSH1 0x0 MSTORE PUSH1 0x2 PUSH1 0x20 MSTORE PUSH1 0xFF PUSH1 0x40 PUSH1 0x0 KECCAK256 SLOAD AND ISZERO PUSH2 0x14FC JUMPI PUSH1 0x1 PUSH1 0x20 MSTORE PUSH1 0xFF PUSH1 0x4 PUSH1 0x40 PUSH1 0x0 KECCAK256 ADD SLOAD PUSH1 0xA0 SHR AND SWAP1 JUMP JUMPDEST PUSH1 0x0 SWAP1 JUMP INVALID 0x2D 0xC9 LT PUSH1 0x2B PUSH4 0xB3A70FAD PUSH13 0xED1F1EC487C86FC854530555B5 0xFC 0xE6 0xC8 0x2E 0xBB 0xD1 PUSH1 0x4E LOG2 PUSH5 0x6970667358 0x22 SLT KECCAK256 SWAP15 DUP13 GAS 0xBF 0xC0 SHR GAS PUSH8 0xD55B20D711424AF4 0xBA GAS JUMPI 0xB1 BLOCKHASH PUSH6 0xD2739D5F4E83 DUP3 LOG2 PUSH24 0x4064736F6C634300081400332F8788117E7EFF1D82E926EC PUSH26 0x4901D17C78024A50270940304540A733656F0D00000000000000 "},"methodIdentifiers":{"DEFAULT_ADMIN_ROLE()":"a217fddf","correctCertificate(bytes32,bytes32,string)":"3ac43398","emergencyRevoke(bytes32,string)":"26568c40","getAllRevokedCertificates()":"5503f593","getAuditTrail(bytes32)":"73a8ce8b","getReplacementCertificate(bytes32)":"217cd91b","getRevocationRecord(bytes32)":"f6593f66","getRevokedCertificatesByIssuer(address)":"98408a43","getRoleAdmin(bytes32)":"248a9ca3","getStatistics()":"372d6b27","getTotalRevocations()":"1405e7cf","grantRole(bytes32,address)":"2f2ff15d","hasRole(bytes32,address)":"91d14854","isCertificateCorrected(bytes32)":"dec6ac4e","isRevoked(bytes32)":"4294857f","renounceRole(bytes32,address)":"36568abe","revokeCertificate(bytes32,string)":"5bf4adfb","revokeRole(bytes32,address)":"d547741f","supportsInterface(bytes4)":"01ffc9a7"}}}}}