{"src/bc-cvs/ValidatorConsensus.sol":{"ValidatorConsensus":{"abi":[{"inputs":[{"internalType":"address","name":"_admin","type":"address"},{"internalType":"address[]","name":"_initialValidators","type":"address[]"}],"stateMutability":"nonpayable","type":"constructor"},{"inputs":[],"name":"AccessControlBadConfirmation","type":"error"},{"inputs":[{"internalType":"address","name":"account","type":"address"},{"internalType":"bytes32","name":"neededRole","type":"bytes32"}],"name":"AccessControlUnauthorizedAccount","type":"error"},{"inputs":[{"internalType":"uint256","name":"proposalId","type":"uint256"},{"internalType":"address","name":"validator","type":"address"}],"name":"AlreadyVoted","type":"error"},{"inputs":[],"name":"EmptyString","type":"error"},{"inputs":[{"internalType":"address","name":"institution","type":"address"}],"name":"InstitutionAlreadyRegistered","type":"error"},{"inputs":[],"name":"InvalidInput","type":"error"},{"inputs":[{"internalType":"address","name":"caller","type":"address"}],"name":"NotValidator","type":"error"},{"inputs":[{"internalType":"string","name":"reason","type":"string"}],"name":"OperationFailed","type":"error"},{"inputs":[{"internalType":"uint256","name":"proposalId","type":"uint256"}],"name":"ProposalAlreadyExecuted","type":"error"},{"inputs":[{"internalType":"uint256","name":"proposalId","type":"uint256"}],"name":"ProposalAlreadyRejected","type":"error"},{"inputs":[{"internalType":"uint256","name":"proposalId","type":"uint256"}],"name":"ProposalNotFound","type":"error"},{"inputs":[],"name":"UnanimousApprovalRequired","type":"error"},{"inputs":[{"internalType":"address","name":"validator","type":"address"}],"name":"ValidatorAlreadyExists","type":"error"},{"inputs":[{"internalType":"address","name":"validator","type":"address"}],"name":"ValidatorNotFound","type":"error"},{"inputs":[],"name":"ZeroAddress","type":"error"},{"anonymous":false,"inputs":[{"indexed":true,"internalType":"uint256","name":"proposalId","type":"uint256"},{"indexed":true,"internalType":"address","name":"institutionAddress","type":"address"},{"indexed":false,"internalType":"string","name":"name","type":"string"},{"indexed":true,"internalType":"address","name":"proposer","type":"address"},{"indexed":false,"internalType":"uint256","name":"timestamp","type":"uint256"}],"name":"InstitutionProposed","type":"event"},{"anonymous":false,"inputs":[{"indexed":true,"internalType":"uint256","name":"proposalId","type":"uint256"},{"indexed":true,"internalType":"address","name":"institutionAddress","type":"address"},{"indexed":false,"internalType":"uint256","name":"approvalCount","type":"uint256"},{"indexed":false,"internalType":"uint256","name":"timestamp","type":"uint256"}],"name":"ProposalExecuted","type":"event"},{"anonymous":false,"inputs":[{"indexed":true,"internalType":"uint256","name":"proposalId","type":"uint256"},{"indexed":false,"internalType":"string","name":"reason","type":"string"},{"indexed":false,"internalType":"uint256","name":"timestamp","type":"uint256"}],"name":"ProposalRejected","type":"event"},{"anonymous":false,"inputs":[{"indexed":true,"internalType":"bytes32","name":"role","type":"bytes32"},{"indexed":true,"internalType":"bytes32","name":"previousAdminRole","type":"bytes32"},{"indexed":true,"internalType":"bytes32","name":"newAdminRole","type":"bytes32"}],"name":"RoleAdminChanged","type":"event"},{"anonymous":false,"inputs":[{"indexed":true,"internalType":"bytes32","name":"role","type":"bytes32"},{"indexed":true,"internalType":"address","name":"account","type":"address"},{"indexed":true,"internalType":"address","name":"sender","type":"address"}],"name":"RoleGranted","type":"event"},{"anonymous":false,"inputs":[{"indexed":true,"internalType":"bytes32","name":"role","type":"bytes32"},{"indexed":true,"internalType":"address","name":"account","type":"address"},{"indexed":true,"internalType":"address","name":"sender","type":"address"}],"name":"RoleRevoked","type":"event"},{"anonymous":false,"inputs":[{"indexed":true,"internalType":"address","name":"validator","type":"address"},{"indexed":false,"internalType":"uint256","name":"timestamp","type":"uint256"}],"name":"ValidatorAdded","type":"event"},{"anonymous":false,"inputs":[{"indexed":true,"internalType":"address","name":"validator","type":"address"},{"indexed":false,"internalType":"uint256","name":"timestamp","type":"uint256"}],"name":"ValidatorRemoved","type":"event"},{"anonymous":false,"inputs":[{"indexed":true,"internalType":"uint256","name":"proposalId","type":"uint256"},{"indexed":true,"internalType":"address","name":"validator","type":"address"},{"indexed":false,"internalType":"uint256","name":"timestamp","type":"uint256"}],"name":"VoteCast","type":"event"},{"inputs":[],"name":"DEFAULT_ADMIN_ROLE","outputs":[{"internalType":"bytes32","name":"","type":"bytes32"}],"stateMutability":"view","type":"function"},{"inputs":[{"internalType":"address","name":"_validator","type":"address"}],"name":"addValidator","outputs":[],"stateMutability":"nonpayable","type":"function"},{"inputs":[{"internalType":"uint256","name":"_proposalId","type":"uint256"}],"name":"executeProposal","outputs":[],"stateMutability":"nonpayable","type":"function"},{"inputs":[{"internalType":"uint256","name":"_proposalId","type":"uint256"}],"name":"getProposal","outputs":[{"components":[{"internalType":"address","name":"institutionAddress","type":"address"},{"internalType":"string","name":"name","type":"string"},{"internalType":"bytes32","name":"documentHash","type":"bytes32"},{"internalType":"address","name":"proposer","type":"address"},{"internalType":"uint256","name":"approvalCount","type":"uint256"},{"internalType":"uint256","name":"totalValidatorsAtProposal","type":"uint256"},{"internalType":"uint256","name":"createdAt","type":"uint256"},{"internalType":"bool","name":"executed","type":"bool"},{"internalType":"bool","name":"rejected","type":"bool"}],"internalType":"struct IValidatorConsensus.InstitutionProposal","name":"proposal","type":"tuple"}],"stateMutability":"view","type":"function"},{"inputs":[],"name":"getProposalCount","outputs":[{"internalType":"uint256","name":"count","type":"uint256"}],"stateMutability":"view","type":"function"},{"inputs":[{"internalType":"uint256","name":"_proposalId","type":"uint256"},{"internalType":"address[]","name":"_validatorList","type":"address[]"}],"name":"getProposalVotes","outputs":[{"internalType":"bool[]","name":"voted","type":"bool[]"}],"stateMutability":"view","type":"function"},{"inputs":[{"internalType":"bytes32","name":"role","type":"bytes32"}],"name":"getRoleAdmin","outputs":[{"internalType":"bytes32","name":"","type":"bytes32"}],"stateMutability":"view","type":"function"},{"inputs":[],"name":"getValidatorCount","outputs":[{"internalType":"uint256","name":"count","type":"uint256"}],"stateMutability":"view","type":"function"},{"inputs":[],"name":"getValidators","outputs":[{"internalType":"address[]","name":"validatorList","type":"address[]"}],"stateMutability":"view","type":"function"},{"inputs":[{"internalType":"bytes32","name":"role","type":"bytes32"},{"internalType":"address","name":"account","type":"address"}],"name":"grantRole","outputs":[],"stateMutability":"nonpayable","type":"function"},{"inputs":[{"internalType":"bytes32","name":"role","type":"bytes32"},{"internalType":"address","name":"account","type":"address"}],"name":"hasRole","outputs":[{"internalType":"bool","name":"","type":"bool"}],"stateMutability":"view","type":"function"},{"inputs":[{"internalType":"uint256","name":"_proposalId","type":"uint256"}],"name":"hasUnanimousApproval","outputs":[{"internalType":"bool","name":"isUnanimous","type":"bool"}],"stateMutability":"view","type":"function"},{"inputs":[{"internalType":"uint256","name":"_proposalId","type":"uint256"},{"internalType":"address","name":"_validator","type":"address"}],"name":"hasVoted","outputs":[{"internalType":"bool","name":"","type":"bool"}],"stateMutability":"view","type":"function"},{"inputs":[{"internalType":"address","name":"_institution","type":"address"}],"name":"isInstitutionRegistered","outputs":[{"internalType":"bool","name":"isRegistered","type":"bool"}],"stateMutability":"view","type":"function"},{"inputs":[{"internalType":"address","name":"_address","type":"address"}],"name":"isValidator","outputs":[{"internalType":"bool","name":"isValidatorAddress","type":"bool"}],"stateMutability":"view","type":"function"},{"inputs":[{"internalType":"address","name":"_institutionAddress","type":"address"},{"internalType":"string","name":"_name","type":"string"},{"internalType":"bytes32","name":"_documentHash","type":"bytes32"}],"name":"proposeInstitution","outputs":[{"internalType":"uint256","name":"proposalId","type":"uint256"}],"stateMutability":"nonpayable","type":"function"},{"inputs":[{"internalType":"uint256","name":"_proposalId","type":"uint256"},{"internalType":"string","name":"_reason","type":"string"}],"name":"rejectProposal","outputs":[],"stateMutability":"nonpayable","type":"function"},{"inputs":[{"internalType":"address","name":"_validator","type":"address"}],"name":"removeValidator","outputs":[],"stateMutability":"nonpayable","type":"function"},{"inputs":[{"internalType":"bytes32","name":"role","type":"bytes32"},{"internalType":"address","name":"callerConfirmation","type":"address"}],"name":"renounceRole","outputs":[],"stateMutability":"nonpayable","type":"function"},{"inputs":[{"internalType":"bytes32","name":"role","type":"bytes32"},{"internalType":"address","name":"account","type":"address"}],"name":"revokeRole","outputs":[],"stateMutability":"nonpayable","type":"function"},{"inputs":[{"internalType":"bytes4","name":"interfaceId","type":"bytes4"}],"name":"supportsInterface","outputs":[{"internalType":"bool","name":"","type":"bool"}],"stateMutability":"view","type":"function"},{"inputs":[{"internalType":"uint256","name":"_proposalId","type":"uint256"}],"name":"voteForInstitution","outputs":[],"stateMutability":"nonpayable","type":"function"}],"evm":{"bytecode":{"linkReferences":{},"object":"604060808152346200028f5762001d2990813803806200001f8162000294565b93843982019181818403126200028f576200003a81620002ba565b6020828101516001600160401b03939192918482116200028f57019480601f870112156200028f578551938411620002185760059584871b9084806200008281850162000294565b8098815201928201019283116200028f5784809101915b8383106200027457506001600160a01b03939250505080821615620002545780620000c8620000cf92620002e4565b5062000364565b5060005b8351811015620002655781620000ea8286620002cf565b511615620002545781620000ff8286620002cf565b5116600052600380845260ff8660002054166200022e5782620001238387620002cf565b511690875491680100000000000000008310156200021857600192838101808b55811015620002025760008a81528790200180546001600160a01b031916909117905583620001738488620002cf565b51166000528452856000209060ff19825416179055620001a182620001998387620002cf565b511662000406565b5081620001af8286620002cf565b51167f9000b209805850a65058f21361a9978cb30f1413ed555553ab52a59b440b5d99848751428152a26000198114620001ec57600101620000d3565b634e487b7160e01b600052601160045260246000fd5b634e487b7160e01b600052603260045260246000fd5b634e487b7160e01b600052604160045260246000fd5b602486846200023e8589620002cf565b51915163164688df60e21b815291166004820152fd5b845163d92e233d60e01b8152600490fd5b84516118659081620004a48239f35b81906200028184620002ba565b815201910190849062000099565b600080fd5b6040519190601f01601f191682016001600160401b038111838210176200021857604052565b51906001600160a01b03821682036200028f57565b8051821015620002025760209160051b010190565b6001600160a01b031660008181527fad3228b676f7d3cd4284a5443f17f1962b36e491b30a40b2405849e597ba5fb5602052604081205490919060ff166200036057818052816020526040822081835260205260408220600160ff19825416179055339160008051602062001d098339815191528180a4600190565b5090565b6001600160a01b031660008181527fcef3a433619e8274f84bbe9ad5323e8b252fcf8ed48affbce8d2049d944ea6de60205260408120549091907fb346b2ddc13f08bd9685b83a95304a79a2caac0aa7aa64129e1ae9f4361b46619060ff166200040157808352826020526040832082845260205260408320600160ff1982541617905560008051602062001d09833981519152339380a4600190565b505090565b6001600160a01b031660008181527fb68174101826fd4a886da9e533ca4a1b2428978f4cade74ed8e80f9e912c9a9560205260408120549091907f39801f02b377382934882402b272ec2b64d7f3cd17fc59f578996fa5030de3979060ff166200040157808352826020526040832082845260205260408320600160ff1982541617905560008051602062001d09833981519152339380a460019056fe608080604052600436101561001357600080fd5b60003560e01c90816301ffc9a7146111c9575080630d61b51914611112578063248a9ca3146110e35780632f2ff15d146110a457806336568abe1461105d57806340a141ff14610f085780634385963214610ebb5780634d238c8e14610dc45780635550896e14610c5e5780637071688a14610c4057806383c0e35414610c015780638430963c14610bd957806391d1485414610b8c578063952a5be714610a95578063a217fddf14610a79578063a49a46c7146106c5578063b7ab4db5146105fd578063c08cc02d146105df578063c7f758a8146103cb578063d547741f1461038c578063facd743b1461034d5763fb4085651461011157600080fd5b346103485760208060031936011261034857600435907f39801f02b377382934882402b272ec2b64d7f3cd17fc59f578996fa5030de3978060005260008252604060002033600052825260ff604060002054161561032a5750336000526003815260ff60406000205416156103125781600052600181526040600020600681015480156102f957600782015460ff81166102e05760081c60ff166102c85762278d0081018091116102b2574211610279578260005260028252604060002033600052825260ff6040600020541661025a57600590836000526002835260406000203360005283526040600020600160ff19825416179055600481019261021784546116b0565b809455847f2acce567deca3aabf56327adbb4524bd5318936eaefa69e3a5208ffda0cfec09604051924284523393a301541461024f57005b610258906117a9565b005b6040516304f9da6360e01b815260048101849052336024820152604490fd5b604051630c0092c960e21b815260048101839052601060248201526f141c9bdc1bdcd85b08195e1c1a5c995960821b6044820152606490fd5b634e487b7160e01b600052601160045260246000fd5b60405162ad547760e71b815260048101859052602490fd5b604051632776407360e11b815260048101869052602490fd5b60405163428d06a960e01b815260048101859052602490fd5b604051633b4f6e2b60e21b8152336004820152602490fd5b6044906040519063e2517d3f60e01b82523360048301526024820152fd5b600080fd5b34610348576020366003190112610348576001600160a01b0361036e611232565b166000526003602052602060ff604060002054166040519015158152f35b34610348576040366003190112610348576102586004356103ab61121c565b908060005260006020526103c6600160406000200154611392565b61163b565b346103485760208060031936011261034857600435906040516103ed81611248565b60008152606082820152600060408201526000606082015260006080820152600060a0820152600060c0820152600060e0820152600061010080920152826000526001928383526040600020906040519261044784611248565b60018060a01b0393848454168152868401604051809860009083549361046c856116bf565b948585528b83821691826000146105bd57505060011461057d575b505061049592500388611265565b85810196875260028401549360408201948552856003820154166060830190815260048201546080840190815260058301549160a08501928352600684015494600760c082019587875201549760e082019660ff8a161515885260ff8984019a60081c1615158a52156105655750906105338a9b9c60409a9b938b519e8f9e8f928284525116910152518c6101209b8c9101526101408d01906112f6565b995160608c0152511660808a01525160a08901525160c08801525160e087015251151590850152511515908301520390f35b6024906040519063428d06a960e01b82526004820152fd5b8a925060005281600020906000915b8583106105a457505061049593508201018a80610487565b819484848396959654920101520191018a928a9261058c565b925093505061049594915060ff191682840152151560051b8201018a80610487565b34610348576000366003190112610348576020600654604051908152f35b3461034857600036600319011261034857604051806005548083526020809301809160056000527f036b6384b5eca791c62761152d0c79bb0604c104a5fb6f4eb0703f3154bb3db09060005b868282106106a857868661065f82880383611265565b604051928392818401908285525180915260408401929160005b82811061068857505050500390f35b83516001600160a01b031685528695509381019392810192600101610679565b83546001600160a01b031685529093019260019283019201610649565b34610348576060366003190112610348576106de611232565b60243567ffffffffffffffff8111610348576106fe90369060040161129f565b6001600160a01b03821615610a6757805115610a5557610100815111610a435760443515610a43576001600160a01b03821660009081526004602052604090205460ff16610a22576005549182156109e6576006549161075d836116b0565b6006556040519361076d85611248565b60018060a01b038316855281602086015260443560408601523360608601526000608086015260a08501524260c0850152600060e0850152600061010085015282600052600160205260406000209360018060a01b038151166bffffffffffffffffffffffff60a01b865416178555602081015194855167ffffffffffffffff81116109d05761080060018301546116bf565b96601f8811610989575b602097508790601f831160011461091a5760079392916000918361090f575b50508160011b916000199060031b1c19161760018201555b604083015160028201556003810160018060a01b036060850151166bffffffffffffffffffffffff60a01b8254161790556080830151600482015560a0830151600582015560c08301516006820155019060e081015115159060ff61ff006101008554930151151560081b1692169061ffff191617179055827fdee571dac818a19907f783f8f3c36d7b2c135e093a6294f3ce9d712c2e34df3b6108f0604051936040855260408501906112f6565b428785015233946001600160a01b0316939081900390a4604051908152f35b015190508980610829565b90601f1983169160018501600052896000209260005b8181106109725750916001939185600797969410610959575b505050811b016001820155610841565b015160001960f88460031b161c19169055898080610949565b92938b600181928786015181550195019301610930565b600183016000526020600020601f830160051c8101602084106109c9575b601f8a0160051c820181106109bd57505061080a565b600081556001016109a7565b50806109a7565b634e487b7160e01b600052604160045260246000fd5b604051630c0092c960e21b8152602060048201526013602482015272139bc81d985b1a59185d1bdc9cc8195e1a5cdd606a1b6044820152606490fd5b60405163c28e848f60e01b81526001600160a01b0383166004820152602490fd5b60405163b4fa3fb360e01b8152600490fd5b60405163ecd7b0d160e01b8152600490fd5b60405163d92e233d60e01b8152600490fd5b3461034857600036600319011261034857602060405160008152f35b346103485760403660031901126103485760043560243567ffffffffffffffff811161034857610ac990369060040161129f565b610ad1611336565b8160005260016020526040600020600681015415610b73576007019081549060ff8216610b5a5760ff8260081c166102c857805115610a55577f723a1f5fe17e5d38698c52867c48bbab9697b28d6834132d18fdb76c7754a9a192610100610b4f9361ff0019161790556040519182916040835260408301906112f6565b4260208301520390a2005b604051632776407360e11b815260048101859052602490fd5b60405163428d06a960e01b815260048101849052602490fd5b3461034857604036600319011261034857610ba561121c565b600435600052600060205260406000209060018060a01b0316600052602052602060ff604060002054166040519015158152f35b34610348576020366003190112610348576020610bf7600435611746565b6040519015158152f35b34610348576020366003190112610348576001600160a01b03610c22611232565b166000526004602052602060ff604060002054166040519015158152f35b34610348576000366003190112610348576020600554604051908152f35b346103485760403660031901126103485760243560043567ffffffffffffffff8211610348573660238301121561034857816004013591610c9e83611287565b90610cac6040519283611265565b83825260209360248584019160051b8301019136831161034857602401905b828210610da557505050805190610cfa610ce483611287565b92610cf26040519485611265565b808452611287565b8285019390601f190136853760005b8251811015610d5f5760008281526002875260409020610d5a91906001600160a01b03610d368387611795565b5116600052875260ff60406000205416610d508287611795565b90151590526116b0565b610d09565b50505090604051928392818401908285525180915260408401929160005b828110610d8c57505050500390f35b8351151585528695509381019392810192600101610d7d565b81356001600160a01b0381168103610348578152908501908501610ccb565b3461034857602036600319011261034857610ddd611232565b610de5611336565b6001600160a01b038116908115610a675781600052600360205260ff60406000205416610ea25760055490680100000000000000008210156109d057610e5781610e38846001610e7596016005556116f9565b90919082549060031b9160018060a01b03809116831b921b1916179055565b8260005260036020526040600020600160ff198254161790556113b8565b507f9000b209805850a65058f21361a9978cb30f1413ed555553ab52a59b440b5d996020604051428152a2005b60405163164688df60e21b815260048101839052602490fd5b3461034857604036600319011261034857610ed461121c565b600435600052600260205260406000209060018060a01b0316600052602052602060ff604060002054166040519015158152f35b3461034857602036600319011261034857610f21611232565b610f29611336565b6001600160a01b03818116918215610a67578260005260038060205260ff60406000205416156110445760005b6005805480831015611037578686610f6d856116f9565b905490871b1c1614610f89575050610f84906116b0565b610f56565b60001995928187019182116102b257610e3884610fa8610fb5946116f9565b905490881b1c16916116f9565b805494851561102157610ff4950191610fcd836116f9565b9091825491861b1b19169055555b83600052602052604060002060ff198154169055611590565b507f50ecbf35c0ff0910f48ecaf45471c41781b549230264f6cb51997d7d425a02c36020604051428152a2005b634e487b7160e01b600052603160045260246000fd5b505050610ff49250610fdb565b604051635a4887e160e01b815260048101859052602490fd5b346103485760403660031901126103485761107661121c565b336001600160a01b03821603611092576102589060043561163b565b60405163334bd91960e11b8152600490fd5b34610348576040366003190112610348576102586004356110c361121c565b908060005260006020526110de600160406000200154611392565b611517565b346103485760203660031901126103485760043560005260006020526020600160406000200154604051908152f35b346103485760203660031901126103485760043580600052600160205260406000206006810154156111b057600781015460ff81166111975760081c60ff1661117f57600560048201549101540361116d57610258906117a9565b604051636fd923e760e11b8152600490fd5b60405162ad547760e71b815260048101839052602490fd5b604051632776407360e11b815260048101849052602490fd5b60405163428d06a960e01b815260048101839052602490fd5b34610348576020366003190112610348576004359063ffffffff60e01b821680920361034857602091637965db0b60e01b811490811561120b575b5015158152f35b6301ffc9a760e01b14905083611204565b602435906001600160a01b038216820361034857565b600435906001600160a01b038216820361034857565b610120810190811067ffffffffffffffff8211176109d057604052565b90601f8019910116810190811067ffffffffffffffff8211176109d057604052565b67ffffffffffffffff81116109d05760051b60200190565b81601f820112156103485780359067ffffffffffffffff82116109d057604051926112d4601f8401601f191660200185611265565b8284526020838301011161034857816000926020809301838601378301015290565b919082519283825260005b848110611322575050826000602080949584010152601f8019910116010190565b602081830181015184830182015201611301565b3360009081527fcef3a433619e8274f84bbe9ad5323e8b252fcf8ed48affbce8d2049d944ea6de60205260409020547fb346b2ddc13f08bd9685b83a95304a79a2caac0aa7aa64129e1ae9f4361b46619060ff161561032a5750565b80600052600060205260406000203360005260205260ff604060002054161561032a5750565b6001600160a01b031660008181527fb68174101826fd4a886da9e533ca4a1b2428978f4cade74ed8e80f9e912c9a9560205260408120549091907f39801f02b377382934882402b272ec2b64d7f3cd17fc59f578996fa5030de3979060ff1661146557808352826020526040832082845260205260408320600160ff198254161790557f2f8788117e7eff1d82e926ec794901d17c78024a50270940304540a733656f0d339380a4600190565b505090565b6001600160a01b031660008181527f75a62d95ad9fef7bba5c4dde6e3ff662d5c539a6d57cb138a3d5c2f3a42773ff60205260408120549091907f4b90e70a23ad1c016cdba1a015076c2de977e305fcad3881690cafbe99d361909060ff1661146557808352826020526040832082845260205260408320600160ff198254161790557f2f8788117e7eff1d82e926ec794901d17c78024a50270940304540a733656f0d339380a4600190565b9060009180835282602052604083209160018060a01b03169182845260205260ff6040842054161560001461146557808352826020526040832082845260205260408320600160ff198254161790557f2f8788117e7eff1d82e926ec794901d17c78024a50270940304540a733656f0d339380a4600190565b6001600160a01b031660008181527fb68174101826fd4a886da9e533ca4a1b2428978f4cade74ed8e80f9e912c9a9560205260408120549091907f39801f02b377382934882402b272ec2b64d7f3cd17fc59f578996fa5030de3979060ff16156114655780835282602052604083208284526020526040832060ff1981541690557ff6391f5c32d9c69d2a47ea670b442974b53935d1edc7fd64eb21e047a839171b339380a4600190565b9060009180835282602052604083209160018060a01b03169182845260205260ff6040842054166000146114655780835282602052604083208284526020526040832060ff1981541690557ff6391f5c32d9c69d2a47ea670b442974b53935d1edc7fd64eb21e047a839171b339380a4600190565b60001981146102b25760010190565b90600182811c921680156116ef575b60208310146116d957565b634e487b7160e01b600052602260045260246000fd5b91607f16916116ce565b6005548110156117305760056000527f036b6384b5eca791c62761152d0c79bb0604c104a5fb6f4eb0703f3154bb3db00190600090565b634e487b7160e01b600052603260045260246000fd5b6000526001602052604060002060068101541561178157600781015460ff8116908115611787575b5061178157600560048201549101541490565b50600090565b60ff915060081c163861176e565b80518210156117305760209160051b010190565b8060005260016020526040600020907f2d436577633120007446fc8116bf731759187b21264eb8a052e92be53c64c61e604060046007850160ff199060018282541617905560018060a01b039081875416600052826020526001846000209182541617905561181a8187541661146a565b508554169401548151908152426020820152a356fea26469706673582212202cbbac15ea7753f237720e08499d55a761cc117f4ee64ebbabf19ecb5f72f6ae64736f6c634300081400332f8788117e7eff1d82e926ec794901d17c78024a50270940304540a733656f0d","opcodes":"PUSH1 0x40 PUSH1 0x80 DUP2 MSTORE CALLVALUE PUSH3 0x28F JUMPI PUSH3 0x1D29 SWAP1 DUP2 CODESIZE SUB DUP1 PUSH3 0x1F DUP2 PUSH3 0x294 JUMP JUMPDEST SWAP4 DUP5 CODECOPY DUP3 ADD SWAP2 DUP2 DUP2 DUP5 SUB SLT PUSH3 0x28F JUMPI PUSH3 0x3A DUP2 PUSH3 0x2BA JUMP JUMPDEST PUSH1 0x20 DUP3 DUP2 ADD MLOAD PUSH1 0x1 PUSH1 0x1 PUSH1 0x40 SHL SUB SWAP4 SWAP2 SWAP3 SWAP2 DUP5 DUP3 GT PUSH3 0x28F JUMPI ADD SWAP5 DUP1 PUSH1 0x1F DUP8 ADD SLT ISZERO PUSH3 0x28F JUMPI DUP6 MLOAD SWAP4 DUP5 GT PUSH3 0x218 JUMPI PUSH1 0x5 SWAP6 DUP5 DUP8 SHL SWAP1 DUP5 DUP1 PUSH3 0x82 DUP2 DUP6 ADD PUSH3 0x294 JUMP JUMPDEST DUP1 SWAP9 DUP2 MSTORE ADD SWAP3 DUP3 ADD ADD SWAP3 DUP4 GT PUSH3 0x28F JUMPI DUP5 DUP1 SWAP2 ADD SWAP2 JUMPDEST DUP4 DUP4 LT PUSH3 0x274 JUMPI POP PUSH1 0x1 PUSH1 0x1 PUSH1 0xA0 SHL SUB SWAP4 SWAP3 POP POP POP DUP1 DUP3 AND ISZERO PUSH3 0x254 JUMPI DUP1 PUSH3 0xC8 PUSH3 0xCF SWAP3 PUSH3 0x2E4 JUMP JUMPDEST POP PUSH3 0x364 JUMP JUMPDEST POP PUSH1 0x0 JUMPDEST DUP4 MLOAD DUP2 LT ISZERO PUSH3 0x265 JUMPI DUP2 PUSH3 0xEA DUP3 DUP7 PUSH3 0x2CF JUMP JUMPDEST MLOAD AND ISZERO PUSH3 0x254 JUMPI DUP2 PUSH3 0xFF DUP3 DUP7 PUSH3 0x2CF JUMP JUMPDEST MLOAD AND PUSH1 0x0 MSTORE PUSH1 0x3 DUP1 DUP5 MSTORE PUSH1 0xFF DUP7 PUSH1 0x0 KECCAK256 SLOAD AND PUSH3 0x22E JUMPI DUP3 PUSH3 0x123 DUP4 DUP8 PUSH3 0x2CF JUMP JUMPDEST MLOAD AND SWAP1 DUP8 SLOAD SWAP2 PUSH9 0x10000000000000000 DUP4 LT ISZERO PUSH3 0x218 JUMPI PUSH1 0x1 SWAP3 DUP4 DUP2 ADD DUP1 DUP12 SSTORE DUP2 LT ISZERO PUSH3 0x202 JUMPI PUSH1 0x0 DUP11 DUP2 MSTORE DUP8 SWAP1 KECCAK256 ADD DUP1 SLOAD PUSH1 0x1 PUSH1 0x1 PUSH1 0xA0 SHL SUB NOT AND SWAP1 SWAP2 OR SWAP1 SSTORE DUP4 PUSH3 0x173 DUP5 DUP9 PUSH3 0x2CF JUMP JUMPDEST MLOAD AND PUSH1 0x0 MSTORE DUP5 MSTORE DUP6 PUSH1 0x0 KECCAK256 SWAP1 PUSH1 0xFF NOT DUP3 SLOAD AND OR SWAP1 SSTORE PUSH3 0x1A1 DUP3 PUSH3 0x199 DUP4 DUP8 PUSH3 0x2CF JUMP JUMPDEST MLOAD AND PUSH3 0x406 JUMP JUMPDEST POP DUP2 PUSH3 0x1AF DUP3 DUP7 PUSH3 0x2CF JUMP JUMPDEST MLOAD AND PUSH32 0x9000B209805850A65058F21361A9978CB30F1413ED555553AB52A59B440B5D99 DUP5 DUP8 MLOAD TIMESTAMP DUP2 MSTORE LOG2 PUSH1 0x0 NOT DUP2 EQ PUSH3 0x1EC JUMPI PUSH1 0x1 ADD PUSH3 0xD3 JUMP JUMPDEST PUSH4 0x4E487B71 PUSH1 0xE0 SHL PUSH1 0x0 MSTORE PUSH1 0x11 PUSH1 0x4 MSTORE PUSH1 0x24 PUSH1 0x0 REVERT JUMPDEST PUSH4 0x4E487B71 PUSH1 0xE0 SHL PUSH1 0x0 MSTORE PUSH1 0x32 PUSH1 0x4 MSTORE PUSH1 0x24 PUSH1 0x0 REVERT JUMPDEST PUSH4 0x4E487B71 PUSH1 0xE0 SHL PUSH1 0x0 MSTORE PUSH1 0x41 PUSH1 0x4 MSTORE PUSH1 0x24 PUSH1 0x0 REVERT JUMPDEST PUSH1 0x24 DUP7 DUP5 PUSH3 0x23E DUP6 DUP10 PUSH3 0x2CF JUMP JUMPDEST MLOAD SWAP2 MLOAD PUSH4 0x164688DF PUSH1 0xE2 SHL DUP2 MSTORE SWAP2 AND PUSH1 0x4 DUP3 ADD MSTORE REVERT JUMPDEST DUP5 MLOAD PUSH4 0xD92E233D PUSH1 0xE0 SHL DUP2 MSTORE PUSH1 0x4 SWAP1 REVERT JUMPDEST DUP5 MLOAD PUSH2 0x1865 SWAP1 DUP2 PUSH3 0x4A4 DUP3 CODECOPY RETURN JUMPDEST DUP2 SWAP1 PUSH3 0x281 DUP5 PUSH3 0x2BA JUMP JUMPDEST DUP2 MSTORE ADD SWAP2 ADD SWAP1 DUP5 SWAP1 PUSH3 0x99 JUMP JUMPDEST PUSH1 0x0 DUP1 REVERT JUMPDEST PUSH1 0x40 MLOAD SWAP2 SWAP1 PUSH1 0x1F ADD PUSH1 0x1F NOT AND DUP3 ADD PUSH1 0x1 PUSH1 0x1 PUSH1 0x40 SHL SUB DUP2 GT DUP4 DUP3 LT OR PUSH3 0x218 JUMPI PUSH1 0x40 MSTORE JUMP JUMPDEST MLOAD SWAP1 PUSH1 0x1 PUSH1 0x1 PUSH1 0xA0 SHL SUB DUP3 AND DUP3 SUB PUSH3 0x28F JUMPI JUMP JUMPDEST DUP1 MLOAD DUP3 LT ISZERO PUSH3 0x202 JUMPI PUSH1 0x20 SWAP2 PUSH1 0x5 SHL ADD ADD SWAP1 JUMP JUMPDEST PUSH1 0x1 PUSH1 0x1 PUSH1 0xA0 SHL SUB AND PUSH1 0x0 DUP2 DUP2 MSTORE PUSH32 0xAD3228B676F7D3CD4284A5443F17F1962B36E491B30A40B2405849E597BA5FB5 PUSH1 0x20 MSTORE PUSH1 0x40 DUP2 KECCAK256 SLOAD SWAP1 SWAP2 SWAP1 PUSH1 0xFF AND PUSH3 0x360 JUMPI DUP2 DUP1 MSTORE DUP2 PUSH1 0x20 MSTORE PUSH1 0x40 DUP3 KECCAK256 DUP2 DUP4 MSTORE PUSH1 0x20 MSTORE PUSH1 0x40 DUP3 KECCAK256 PUSH1 0x1 PUSH1 0xFF NOT DUP3 SLOAD AND OR SWAP1 SSTORE CALLER SWAP2 PUSH1 0x0 DUP1 MLOAD PUSH1 0x20 PUSH3 0x1D09 DUP4 CODECOPY DUP2 MLOAD SWAP2 MSTORE DUP2 DUP1 LOG4 PUSH1 0x1 SWAP1 JUMP JUMPDEST POP SWAP1 JUMP JUMPDEST PUSH1 0x1 PUSH1 0x1 PUSH1 0xA0 SHL SUB AND PUSH1 0x0 DUP2 DUP2 MSTORE PUSH32 0xCEF3A433619E8274F84BBE9AD5323E8B252FCF8ED48AFFBCE8D2049D944EA6DE PUSH1 0x20 MSTORE PUSH1 0x40 DUP2 KECCAK256 SLOAD SWAP1 SWAP2 SWAP1 PUSH32 0xB346B2DDC13F08BD9685B83A95304A79A2CAAC0AA7AA64129E1AE9F4361B4661 SWAP1 PUSH1 0xFF AND PUSH3 0x401 JUMPI DUP1 DUP4 MSTORE DUP3 PUSH1 0x20 MSTORE PUSH1 0x40 DUP4 KECCAK256 DUP3 DUP5 MSTORE PUSH1 0x20 MSTORE PUSH1 0x40 DUP4 KECCAK256 PUSH1 0x1 PUSH1 0xFF NOT DUP3 SLOAD AND OR SWAP1 SSTORE PUSH1 0x0 DUP1 MLOAD PUSH1 0x20 PUSH3 0x1D09 DUP4 CODECOPY DUP2 MLOAD SWAP2 MSTORE CALLER SWAP4 DUP1 LOG4 PUSH1 0x1 SWAP1 JUMP JUMPDEST POP POP SWAP1 JUMP JUMPDEST PUSH1 0x1 PUSH1 0x1 PUSH1 0xA0 SHL SUB AND PUSH1 0x0 DUP2 DUP2 MSTORE PUSH32 0xB68174101826FD4A886DA9E533CA4A1B2428978F4CADE74ED8E80F9E912C9A95 PUSH1 0x20 MSTORE PUSH1 0x40 DUP2 KECCAK256 SLOAD SWAP1 SWAP2 SWAP1 PUSH32 0x39801F02B377382934882402B272EC2B64D7F3CD17FC59F578996FA5030DE397 SWAP1 PUSH1 0xFF AND PUSH3 0x401 JUMPI DUP1 DUP4 MSTORE DUP3 PUSH1 0x20 MSTORE PUSH1 0x40 DUP4 KECCAK256 DUP3 DUP5 MSTORE PUSH1 0x20 MSTORE PUSH1 0x40 DUP4 KECCAK256 PUSH1 0x1 PUSH1 0xFF NOT DUP3 SLOAD AND OR SWAP1 SSTORE PUSH1 0x0 DUP1 MLOAD PUSH1 0x20 PUSH3 0x1D09 DUP4 CODECOPY DUP2 MLOAD SWAP2 MSTORE CALLER SWAP4 DUP1 LOG4 PUSH1 0x1 SWAP1 JUMP INVALID PUSH1 0x80 DUP1 PUSH1 0x40 MSTORE PUSH1 0x4 CALLDATASIZE LT ISZERO PUSH2 0x13 JUMPI PUSH1 0x0 DUP1 REVERT JUMPDEST PUSH1 0x0 CALLDATALOAD PUSH1 0xE0 SHR SWAP1 DUP2 PUSH4 0x1FFC9A7 EQ PUSH2 0x11C9 JUMPI POP DUP1 PUSH4 0xD61B519 EQ PUSH2 0x1112 JUMPI DUP1 PUSH4 0x248A9CA3 EQ PUSH2 0x10E3 JUMPI DUP1 PUSH4 0x2F2FF15D EQ PUSH2 0x10A4 JUMPI DUP1 PUSH4 0x36568ABE EQ PUSH2 0x105D JUMPI DUP1 PUSH4 0x40A141FF EQ PUSH2 0xF08 JUMPI DUP1 PUSH4 0x43859632 EQ PUSH2 0xEBB JUMPI DUP1 PUSH4 0x4D238C8E EQ PUSH2 0xDC4 JUMPI DUP1 PUSH4 0x5550896E EQ PUSH2 0xC5E JUMPI DUP1 PUSH4 0x7071688A EQ PUSH2 0xC40 JUMPI DUP1 PUSH4 0x83C0E354 EQ PUSH2 0xC01 JUMPI DUP1 PUSH4 0x8430963C EQ PUSH2 0xBD9 JUMPI DUP1 PUSH4 0x91D14854 EQ PUSH2 0xB8C JUMPI DUP1 PUSH4 0x952A5BE7 EQ PUSH2 0xA95 JUMPI DUP1 PUSH4 0xA217FDDF EQ PUSH2 0xA79 JUMPI DUP1 PUSH4 0xA49A46C7 EQ PUSH2 0x6C5 JUMPI DUP1 PUSH4 0xB7AB4DB5 EQ PUSH2 0x5FD JUMPI DUP1 PUSH4 0xC08CC02D EQ PUSH2 0x5DF JUMPI DUP1 PUSH4 0xC7F758A8 EQ PUSH2 0x3CB JUMPI DUP1 PUSH4 0xD547741F EQ PUSH2 0x38C JUMPI DUP1 PUSH4 0xFACD743B EQ PUSH2 0x34D JUMPI PUSH4 0xFB408565 EQ PUSH2 0x111 JUMPI PUSH1 0x0 DUP1 REVERT JUMPDEST CALLVALUE PUSH2 0x348 JUMPI PUSH1 0x20 DUP1 PUSH1 0x3 NOT CALLDATASIZE ADD SLT PUSH2 0x348 JUMPI PUSH1 0x4 CALLDATALOAD SWAP1 PUSH32 0x39801F02B377382934882402B272EC2B64D7F3CD17FC59F578996FA5030DE397 DUP1 PUSH1 0x0 MSTORE PUSH1 0x0 DUP3 MSTORE PUSH1 0x40 PUSH1 0x0 KECCAK256 CALLER PUSH1 0x0 MSTORE DUP3 MSTORE PUSH1 0xFF PUSH1 0x40 PUSH1 0x0 KECCAK256 SLOAD AND ISZERO PUSH2 0x32A JUMPI POP CALLER PUSH1 0x0 MSTORE PUSH1 0x3 DUP2 MSTORE PUSH1 0xFF PUSH1 0x40 PUSH1 0x0 KECCAK256 SLOAD AND ISZERO PUSH2 0x312 JUMPI DUP2 PUSH1 0x0 MSTORE PUSH1 0x1 DUP2 MSTORE PUSH1 0x40 PUSH1 0x0 KECCAK256 PUSH1 0x6 DUP2 ADD SLOAD DUP1 ISZERO PUSH2 0x2F9 JUMPI PUSH1 0x7 DUP3 ADD SLOAD PUSH1 0xFF DUP2 AND PUSH2 0x2E0 JUMPI PUSH1 0x8 SHR PUSH1 0xFF AND PUSH2 0x2C8 JUMPI PUSH3 0x278D00 DUP2 ADD DUP1 SWAP2 GT PUSH2 0x2B2 JUMPI TIMESTAMP GT PUSH2 0x279 JUMPI DUP3 PUSH1 0x0 MSTORE PUSH1 0x2 DUP3 MSTORE PUSH1 0x40 PUSH1 0x0 KECCAK256 CALLER PUSH1 0x0 MSTORE DUP3 MSTORE PUSH1 0xFF PUSH1 0x40 PUSH1 0x0 KECCAK256 SLOAD AND PUSH2 0x25A JUMPI PUSH1 0x5 SWAP1 DUP4 PUSH1 0x0 MSTORE PUSH1 0x2 DUP4 MSTORE PUSH1 0x40 PUSH1 0x0 KECCAK256 CALLER PUSH1 0x0 MSTORE DUP4 MSTORE PUSH1 0x40 PUSH1 0x0 KECCAK256 PUSH1 0x1 PUSH1 0xFF NOT DUP3 SLOAD AND OR SWAP1 SSTORE PUSH1 0x4 DUP2 ADD SWAP3 PUSH2 0x217 DUP5 SLOAD PUSH2 0x16B0 JUMP JUMPDEST DUP1 SWAP5 SSTORE DUP5 PUSH32 0x2ACCE567DECA3AABF56327ADBB4524BD5318936EAEFA69E3A5208FFDA0CFEC09 PUSH1 0x40 MLOAD SWAP3 TIMESTAMP DUP5 MSTORE CALLER SWAP4 LOG3 ADD SLOAD EQ PUSH2 0x24F JUMPI STOP JUMPDEST PUSH2 0x258 SWAP1 PUSH2 0x17A9 JUMP JUMPDEST STOP JUMPDEST PUSH1 0x40 MLOAD PUSH4 0x4F9DA63 PUSH1 0xE0 SHL DUP2 MSTORE PUSH1 0x4 DUP2 ADD DUP5 SWAP1 MSTORE CALLER PUSH1 0x24 DUP3 ADD MSTORE PUSH1 0x44 SWAP1 REVERT JUMPDEST PUSH1 0x40 MLOAD PUSH4 0xC0092C9 PUSH1 0xE2 SHL DUP2 MSTORE PUSH1 0x4 DUP2 ADD DUP4 SWAP1 MSTORE PUSH1 0x10 PUSH1 0x24 DUP3 ADD MSTORE PUSH16 0x141C9BDC1BDCD85B08195E1C1A5C9959 PUSH1 0x82 SHL PUSH1 0x44 DUP3 ADD MSTORE PUSH1 0x64 SWAP1 REVERT JUMPDEST PUSH4 0x4E487B71 PUSH1 0xE0 SHL PUSH1 0x0 MSTORE PUSH1 0x11 PUSH1 0x4 MSTORE PUSH1 0x24 PUSH1 0x0 REVERT JUMPDEST PUSH1 0x40 MLOAD PUSH3 0xAD5477 PUSH1 0xE7 SHL DUP2 MSTORE PUSH1 0x4 DUP2 ADD DUP6 SWAP1 MSTORE PUSH1 0x24 SWAP1 REVERT JUMPDEST PUSH1 0x40 MLOAD PUSH4 0x27764073 PUSH1 0xE1 SHL DUP2 MSTORE PUSH1 0x4 DUP2 ADD DUP7 SWAP1 MSTORE PUSH1 0x24 SWAP1 REVERT JUMPDEST PUSH1 0x40 MLOAD PUSH4 0x428D06A9 PUSH1 0xE0 SHL DUP2 MSTORE PUSH1 0x4 DUP2 ADD DUP6 SWAP1 MSTORE PUSH1 0x24 SWAP1 REVERT JUMPDEST PUSH1 0x40 MLOAD PUSH4 0x3B4F6E2B PUSH1 0xE2 SHL DUP2 MSTORE CALLER PUSH1 0x4 DUP3 ADD MSTORE PUSH1 0x24 SWAP1 REVERT JUMPDEST PUSH1 0x44 SWAP1 PUSH1 0x40 MLOAD SWAP1 PUSH4 0xE2517D3F PUSH1 0xE0 SHL DUP3 MSTORE CALLER PUSH1 0x4 DUP4 ADD MSTORE PUSH1 0x24 DUP3 ADD MSTORE REVERT JUMPDEST PUSH1 0x0 DUP1 REVERT JUMPDEST CALLVALUE PUSH2 0x348 JUMPI PUSH1 0x20 CALLDATASIZE PUSH1 0x3 NOT ADD SLT PUSH2 0x348 JUMPI PUSH1 0x1 PUSH1 0x1 PUSH1 0xA0 SHL SUB PUSH2 0x36E PUSH2 0x1232 JUMP JUMPDEST AND PUSH1 0x0 MSTORE PUSH1 0x3 PUSH1 0x20 MSTORE PUSH1 0x20 PUSH1 0xFF PUSH1 0x40 PUSH1 0x0 KECCAK256 SLOAD AND PUSH1 0x40 MLOAD SWAP1 ISZERO ISZERO DUP2 MSTORE RETURN JUMPDEST CALLVALUE PUSH2 0x348 JUMPI PUSH1 0x40 CALLDATASIZE PUSH1 0x3 NOT ADD SLT PUSH2 0x348 JUMPI PUSH2 0x258 PUSH1 0x4 CALLDATALOAD PUSH2 0x3AB PUSH2 0x121C JUMP JUMPDEST SWAP1 DUP1 PUSH1 0x0 MSTORE PUSH1 0x0 PUSH1 0x20 MSTORE PUSH2 0x3C6 PUSH1 0x1 PUSH1 0x40 PUSH1 0x0 KECCAK256 ADD SLOAD PUSH2 0x1392 JUMP JUMPDEST PUSH2 0x163B JUMP JUMPDEST CALLVALUE PUSH2 0x348 JUMPI PUSH1 0x20 DUP1 PUSH1 0x3 NOT CALLDATASIZE ADD SLT PUSH2 0x348 JUMPI PUSH1 0x4 CALLDATALOAD SWAP1 PUSH1 0x40 MLOAD PUSH2 0x3ED DUP2 PUSH2 0x1248 JUMP JUMPDEST PUSH1 0x0 DUP2 MSTORE PUSH1 0x60 DUP3 DUP3 ADD MSTORE PUSH1 0x0 PUSH1 0x40 DUP3 ADD MSTORE PUSH1 0x0 PUSH1 0x60 DUP3 ADD MSTORE PUSH1 0x0 PUSH1 0x80 DUP3 ADD MSTORE PUSH1 0x0 PUSH1 0xA0 DUP3 ADD MSTORE PUSH1 0x0 PUSH1 0xC0 DUP3 ADD MSTORE PUSH1 0x0 PUSH1 0xE0 DUP3 ADD MSTORE PUSH1 0x0 PUSH2 0x100 DUP1 SWAP3 ADD MSTORE DUP3 PUSH1 0x0 MSTORE PUSH1 0x1 SWAP3 DUP4 DUP4 MSTORE PUSH1 0x40 PUSH1 0x0 KECCAK256 SWAP1 PUSH1 0x40 MLOAD SWAP3 PUSH2 0x447 DUP5 PUSH2 0x1248 JUMP JUMPDEST PUSH1 0x1 DUP1 PUSH1 0xA0 SHL SUB SWAP4 DUP5 DUP5 SLOAD AND DUP2 MSTORE DUP7 DUP5 ADD PUSH1 0x40 MLOAD DUP1 SWAP9 PUSH1 0x0 SWAP1 DUP4 SLOAD SWAP4 PUSH2 0x46C DUP6 PUSH2 0x16BF JUMP JUMPDEST SWAP5 DUP6 DUP6 MSTORE DUP12 DUP4 DUP3 AND SWAP2 DUP3 PUSH1 0x0 EQ PUSH2 0x5BD JUMPI POP POP PUSH1 0x1 EQ PUSH2 0x57D JUMPI JUMPDEST POP POP PUSH2 0x495 SWAP3 POP SUB DUP9 PUSH2 0x1265 JUMP JUMPDEST DUP6 DUP2 ADD SWAP7 DUP8 MSTORE PUSH1 0x2 DUP5 ADD SLOAD SWAP4 PUSH1 0x40 DUP3 ADD SWAP5 DUP6 MSTORE DUP6 PUSH1 0x3 DUP3 ADD SLOAD AND PUSH1 0x60 DUP4 ADD SWAP1 DUP2 MSTORE PUSH1 0x4 DUP3 ADD SLOAD PUSH1 0x80 DUP5 ADD SWAP1 DUP2 MSTORE PUSH1 0x5 DUP4 ADD SLOAD SWAP2 PUSH1 0xA0 DUP6 ADD SWAP3 DUP4 MSTORE PUSH1 0x6 DUP5 ADD SLOAD SWAP5 PUSH1 0x7 PUSH1 0xC0 DUP3 ADD SWAP6 DUP8 DUP8 MSTORE ADD SLOAD SWAP8 PUSH1 0xE0 DUP3 ADD SWAP7 PUSH1 0xFF DUP11 AND ISZERO ISZERO DUP9 MSTORE PUSH1 0xFF DUP10 DUP5 ADD SWAP11 PUSH1 0x8 SHR AND ISZERO ISZERO DUP11 MSTORE ISZERO PUSH2 0x565 JUMPI POP SWAP1 PUSH2 0x533 DUP11 SWAP12 SWAP13 PUSH1 0x40 SWAP11 SWAP12 SWAP4 DUP12 MLOAD SWAP15 DUP16 SWAP15 DUP16 SWAP3 DUP3 DUP5 MSTORE MLOAD AND SWAP2 ADD MSTORE MLOAD DUP13 PUSH2 0x120 SWAP12 DUP13 SWAP2 ADD MSTORE PUSH2 0x140 DUP14 ADD SWAP1 PUSH2 0x12F6 JUMP JUMPDEST SWAP10 MLOAD PUSH1 0x60 DUP13 ADD MSTORE MLOAD AND PUSH1 0x80 DUP11 ADD MSTORE MLOAD PUSH1 0xA0 DUP10 ADD MSTORE MLOAD PUSH1 0xC0 DUP9 ADD MSTORE MLOAD PUSH1 0xE0 DUP8 ADD MSTORE MLOAD ISZERO ISZERO SWAP1 DUP6 ADD MSTORE MLOAD ISZERO ISZERO SWAP1 DUP4 ADD MSTORE SUB SWAP1 RETURN JUMPDEST PUSH1 0x24 SWAP1 PUSH1 0x40 MLOAD SWAP1 PUSH4 0x428D06A9 PUSH1 0xE0 SHL DUP3 MSTORE PUSH1 0x4 DUP3 ADD MSTORE REVERT JUMPDEST DUP11 SWAP3 POP PUSH1 0x0 MSTORE DUP2 PUSH1 0x0 KECCAK256 SWAP1 PUSH1 0x0 SWAP2 JUMPDEST DUP6 DUP4 LT PUSH2 0x5A4 JUMPI POP POP PUSH2 0x495 SWAP4 POP DUP3 ADD ADD DUP11 DUP1 PUSH2 0x487 JUMP JUMPDEST DUP2 SWAP5 DUP5 DUP5 DUP4 SWAP7 SWAP6 SWAP7 SLOAD SWAP3 ADD ADD MSTORE ADD SWAP2 ADD DUP11 SWAP3 DUP11 SWAP3 PUSH2 0x58C JUMP JUMPDEST SWAP3 POP SWAP4 POP POP PUSH2 0x495 SWAP5 SWAP2 POP PUSH1 0xFF NOT AND DUP3 DUP5 ADD MSTORE ISZERO ISZERO PUSH1 0x5 SHL DUP3 ADD ADD DUP11 DUP1 PUSH2 0x487 JUMP JUMPDEST CALLVALUE PUSH2 0x348 JUMPI PUSH1 0x0 CALLDATASIZE PUSH1 0x3 NOT ADD SLT PUSH2 0x348 JUMPI PUSH1 0x20 PUSH1 0x6 SLOAD PUSH1 0x40 MLOAD SWAP1 DUP2 MSTORE RETURN JUMPDEST CALLVALUE PUSH2 0x348 JUMPI PUSH1 0x0 CALLDATASIZE PUSH1 0x3 NOT ADD SLT PUSH2 0x348 JUMPI PUSH1 0x40 MLOAD DUP1 PUSH1 0x5 SLOAD DUP1 DUP4 MSTORE PUSH1 0x20 DUP1 SWAP4 ADD DUP1 SWAP2 PUSH1 0x5 PUSH1 0x0 MSTORE PUSH32 0x36B6384B5ECA791C62761152D0C79BB0604C104A5FB6F4EB0703F3154BB3DB0 SWAP1 PUSH1 0x0 JUMPDEST DUP7 DUP3 DUP3 LT PUSH2 0x6A8 JUMPI DUP7 DUP7 PUSH2 0x65F DUP3 DUP9 SUB DUP4 PUSH2 0x1265 JUMP JUMPDEST PUSH1 0x40 MLOAD SWAP3 DUP4 SWAP3 DUP2 DUP5 ADD SWAP1 DUP3 DUP6 MSTORE MLOAD DUP1 SWAP2 MSTORE PUSH1 0x40 DUP5 ADD SWAP3 SWAP2 PUSH1 0x0 JUMPDEST DUP3 DUP2 LT PUSH2 0x688 JUMPI POP POP POP POP SUB SWAP1 RETURN JUMPDEST DUP4 MLOAD PUSH1 0x1 PUSH1 0x1 PUSH1 0xA0 SHL SUB AND DUP6 MSTORE DUP7 SWAP6 POP SWAP4 DUP2 ADD SWAP4 SWAP3 DUP2 ADD SWAP3 PUSH1 0x1 ADD PUSH2 0x679 JUMP JUMPDEST DUP4 SLOAD PUSH1 0x1 PUSH1 0x1 PUSH1 0xA0 SHL SUB AND DUP6 MSTORE SWAP1 SWAP4 ADD SWAP3 PUSH1 0x1 SWAP3 DUP4 ADD SWAP3 ADD PUSH2 0x649 JUMP JUMPDEST CALLVALUE PUSH2 0x348 JUMPI PUSH1 0x60 CALLDATASIZE PUSH1 0x3 NOT ADD SLT PUSH2 0x348 JUMPI PUSH2 0x6DE PUSH2 0x1232 JUMP JUMPDEST PUSH1 0x24 CALLDATALOAD PUSH8 0xFFFFFFFFFFFFFFFF DUP2 GT PUSH2 0x348 JUMPI PUSH2 0x6FE SWAP1 CALLDATASIZE SWAP1 PUSH1 0x4 ADD PUSH2 0x129F JUMP JUMPDEST PUSH1 0x1 PUSH1 0x1 PUSH1 0xA0 SHL SUB DUP3 AND ISZERO PUSH2 0xA67 JUMPI DUP1 MLOAD ISZERO PUSH2 0xA55 JUMPI PUSH2 0x100 DUP2 MLOAD GT PUSH2 0xA43 JUMPI PUSH1 0x44 CALLDATALOAD ISZERO PUSH2 0xA43 JUMPI PUSH1 0x1 PUSH1 0x1 PUSH1 0xA0 SHL SUB DUP3 AND PUSH1 0x0 SWAP1 DUP2 MSTORE PUSH1 0x4 PUSH1 0x20 MSTORE PUSH1 0x40 SWAP1 KECCAK256 SLOAD PUSH1 0xFF AND PUSH2 0xA22 JUMPI PUSH1 0x5 SLOAD SWAP2 DUP3 ISZERO PUSH2 0x9E6 JUMPI PUSH1 0x6 SLOAD SWAP2 PUSH2 0x75D DUP4 PUSH2 0x16B0 JUMP JUMPDEST PUSH1 0x6 SSTORE PUSH1 0x40 MLOAD SWAP4 PUSH2 0x76D DUP6 PUSH2 0x1248 JUMP JUMPDEST PUSH1 0x1 DUP1 PUSH1 0xA0 SHL SUB DUP4 AND DUP6 MSTORE DUP2 PUSH1 0x20 DUP7 ADD MSTORE PUSH1 0x44 CALLDATALOAD PUSH1 0x40 DUP7 ADD MSTORE CALLER PUSH1 0x60 DUP7 ADD MSTORE PUSH1 0x0 PUSH1 0x80 DUP7 ADD MSTORE PUSH1 0xA0 DUP6 ADD MSTORE TIMESTAMP PUSH1 0xC0 DUP6 ADD MSTORE PUSH1 0x0 PUSH1 0xE0 DUP6 ADD MSTORE PUSH1 0x0 PUSH2 0x100 DUP6 ADD MSTORE DUP3 PUSH1 0x0 MSTORE PUSH1 0x1 PUSH1 0x20 MSTORE PUSH1 0x40 PUSH1 0x0 KECCAK256 SWAP4 PUSH1 0x1 DUP1 PUSH1 0xA0 SHL SUB DUP2 MLOAD AND PUSH12 0xFFFFFFFFFFFFFFFFFFFFFFFF PUSH1 0xA0 SHL DUP7 SLOAD AND OR DUP6 SSTORE PUSH1 0x20 DUP2 ADD MLOAD SWAP5 DUP6 MLOAD PUSH8 0xFFFFFFFFFFFFFFFF DUP2 GT PUSH2 0x9D0 JUMPI PUSH2 0x800 PUSH1 0x1 DUP4 ADD SLOAD PUSH2 0x16BF JUMP JUMPDEST SWAP7 PUSH1 0x1F DUP9 GT PUSH2 0x989 JUMPI JUMPDEST PUSH1 0x20 SWAP8 POP DUP8 SWAP1 PUSH1 0x1F DUP4 GT PUSH1 0x1 EQ PUSH2 0x91A JUMPI PUSH1 0x7 SWAP4 SWAP3 SWAP2 PUSH1 0x0 SWAP2 DUP4 PUSH2 0x90F JUMPI JUMPDEST POP POP DUP2 PUSH1 0x1 SHL SWAP2 PUSH1 0x0 NOT SWAP1 PUSH1 0x3 SHL SHR NOT AND OR PUSH1 0x1 DUP3 ADD SSTORE JUMPDEST PUSH1 0x40 DUP4 ADD MLOAD PUSH1 0x2 DUP3 ADD SSTORE PUSH1 0x3 DUP2 ADD PUSH1 0x1 DUP1 PUSH1 0xA0 SHL SUB PUSH1 0x60 DUP6 ADD MLOAD AND PUSH12 0xFFFFFFFFFFFFFFFFFFFFFFFF PUSH1 0xA0 SHL DUP3 SLOAD AND OR SWAP1 SSTORE PUSH1 0x80 DUP4 ADD MLOAD PUSH1 0x4 DUP3 ADD SSTORE PUSH1 0xA0 DUP4 ADD MLOAD PUSH1 0x5 DUP3 ADD SSTORE PUSH1 0xC0 DUP4 ADD MLOAD PUSH1 0x6 DUP3 ADD SSTORE ADD SWAP1 PUSH1 0xE0 DUP2 ADD MLOAD ISZERO ISZERO SWAP1 PUSH1 0xFF PUSH2 0xFF00 PUSH2 0x100 DUP6 SLOAD SWAP4 ADD MLOAD ISZERO ISZERO PUSH1 0x8 SHL AND SWAP3 AND SWAP1 PUSH2 0xFFFF NOT AND OR OR SWAP1 SSTORE DUP3 PUSH32 0xDEE571DAC818A19907F783F8F3C36D7B2C135E093A6294F3CE9D712C2E34DF3B PUSH2 0x8F0 PUSH1 0x40 MLOAD SWAP4 PUSH1 0x40 DUP6 MSTORE PUSH1 0x40 DUP6 ADD SWAP1 PUSH2 0x12F6 JUMP JUMPDEST TIMESTAMP DUP8 DUP6 ADD MSTORE CALLER SWAP5 PUSH1 0x1 PUSH1 0x1 PUSH1 0xA0 SHL SUB AND SWAP4 SWAP1 DUP2 SWAP1 SUB SWAP1 LOG4 PUSH1 0x40 MLOAD SWAP1 DUP2 MSTORE RETURN JUMPDEST ADD MLOAD SWAP1 POP DUP10 DUP1 PUSH2 0x829 JUMP JUMPDEST SWAP1 PUSH1 0x1F NOT DUP4 AND SWAP2 PUSH1 0x1 DUP6 ADD PUSH1 0x0 MSTORE DUP10 PUSH1 0x0 KECCAK256 SWAP3 PUSH1 0x0 JUMPDEST DUP2 DUP2 LT PUSH2 0x972 JUMPI POP SWAP2 PUSH1 0x1 SWAP4 SWAP2 DUP6 PUSH1 0x7 SWAP8 SWAP7 SWAP5 LT PUSH2 0x959 JUMPI JUMPDEST POP POP POP DUP2 SHL ADD PUSH1 0x1 DUP3 ADD SSTORE PUSH2 0x841 JUMP JUMPDEST ADD MLOAD PUSH1 0x0 NOT PUSH1 0xF8 DUP5 PUSH1 0x3 SHL AND SHR NOT AND SWAP1 SSTORE DUP10 DUP1 DUP1 PUSH2 0x949 JUMP JUMPDEST SWAP3 SWAP4 DUP12 PUSH1 0x1 DUP2 SWAP3 DUP8 DUP7 ADD MLOAD DUP2 SSTORE ADD SWAP6 ADD SWAP4 ADD PUSH2 0x930 JUMP JUMPDEST PUSH1 0x1 DUP4 ADD PUSH1 0x0 MSTORE PUSH1 0x20 PUSH1 0x0 KECCAK256 PUSH1 0x1F DUP4 ADD PUSH1 0x5 SHR DUP2 ADD PUSH1 0x20 DUP5 LT PUSH2 0x9C9 JUMPI JUMPDEST PUSH1 0x1F DUP11 ADD PUSH1 0x5 SHR DUP3 ADD DUP2 LT PUSH2 0x9BD JUMPI POP POP PUSH2 0x80A JUMP JUMPDEST PUSH1 0x0 DUP2 SSTORE PUSH1 0x1 ADD PUSH2 0x9A7 JUMP JUMPDEST POP DUP1 PUSH2 0x9A7 JUMP JUMPDEST PUSH4 0x4E487B71 PUSH1 0xE0 SHL PUSH1 0x0 MSTORE PUSH1 0x41 PUSH1 0x4 MSTORE PUSH1 0x24 PUSH1 0x0 REVERT JUMPDEST PUSH1 0x40 MLOAD PUSH4 0xC0092C9 PUSH1 0xE2 SHL DUP2 MSTORE PUSH1 0x20 PUSH1 0x4 DUP3 ADD MSTORE PUSH1 0x13 PUSH1 0x24 DUP3 ADD MSTORE PUSH19 0x139BC81D985B1A59185D1BDC9CC8195E1A5CDD PUSH1 0x6A SHL PUSH1 0x44 DUP3 ADD MSTORE PUSH1 0x64 SWAP1 REVERT JUMPDEST PUSH1 0x40 MLOAD PUSH4 0xC28E848F PUSH1 0xE0 SHL DUP2 MSTORE PUSH1 0x1 PUSH1 0x1 PUSH1 0xA0 SHL SUB DUP4 AND PUSH1 0x4 DUP3 ADD MSTORE PUSH1 0x24 SWAP1 REVERT JUMPDEST PUSH1 0x40 MLOAD PUSH4 0xB4FA3FB3 PUSH1 0xE0 SHL DUP2 MSTORE PUSH1 0x4 SWAP1 REVERT JUMPDEST PUSH1 0x40 MLOAD PUSH4 0xECD7B0D1 PUSH1 0xE0 SHL DUP2 MSTORE PUSH1 0x4 SWAP1 REVERT JUMPDEST PUSH1 0x40 MLOAD PUSH4 0xD92E233D PUSH1 0xE0 SHL DUP2 MSTORE PUSH1 0x4 SWAP1 REVERT JUMPDEST CALLVALUE PUSH2 0x348 JUMPI PUSH1 0x0 CALLDATASIZE PUSH1 0x3 NOT ADD SLT PUSH2 0x348 JUMPI PUSH1 0x20 PUSH1 0x40 MLOAD PUSH1 0x0 DUP2 MSTORE RETURN JUMPDEST CALLVALUE PUSH2 0x348 JUMPI PUSH1 0x40 CALLDATASIZE PUSH1 0x3 NOT ADD SLT PUSH2 0x348 JUMPI PUSH1 0x4 CALLDATALOAD PUSH1 0x24 CALLDATALOAD PUSH8 0xFFFFFFFFFFFFFFFF DUP2 GT PUSH2 0x348 JUMPI PUSH2 0xAC9 SWAP1 CALLDATASIZE SWAP1 PUSH1 0x4 ADD PUSH2 0x129F JUMP JUMPDEST PUSH2 0xAD1 PUSH2 0x1336 JUMP JUMPDEST DUP2 PUSH1 0x0 MSTORE PUSH1 0x1 PUSH1 0x20 MSTORE PUSH1 0x40 PUSH1 0x0 KECCAK256 PUSH1 0x6 DUP2 ADD SLOAD ISZERO PUSH2 0xB73 JUMPI PUSH1 0x7 ADD SWAP1 DUP2 SLOAD SWAP1 PUSH1 0xFF DUP3 AND PUSH2 0xB5A JUMPI PUSH1 0xFF DUP3 PUSH1 0x8 SHR AND PUSH2 0x2C8 JUMPI DUP1 MLOAD ISZERO PUSH2 0xA55 JUMPI PUSH32 0x723A1F5FE17E5D38698C52867C48BBAB9697B28D6834132D18FDB76C7754A9A1 SWAP3 PUSH2 0x100 PUSH2 0xB4F SWAP4 PUSH2 0xFF00 NOT AND OR SWAP1 SSTORE PUSH1 0x40 MLOAD SWAP2 DUP3 SWAP2 PUSH1 0x40 DUP4 MSTORE PUSH1 0x40 DUP4 ADD SWAP1 PUSH2 0x12F6 JUMP JUMPDEST TIMESTAMP PUSH1 0x20 DUP4 ADD MSTORE SUB SWAP1 LOG2 STOP JUMPDEST PUSH1 0x40 MLOAD PUSH4 0x27764073 PUSH1 0xE1 SHL DUP2 MSTORE PUSH1 0x4 DUP2 ADD DUP6 SWAP1 MSTORE PUSH1 0x24 SWAP1 REVERT JUMPDEST PUSH1 0x40 MLOAD PUSH4 0x428D06A9 PUSH1 0xE0 SHL DUP2 MSTORE PUSH1 0x4 DUP2 ADD DUP5 SWAP1 MSTORE PUSH1 0x24 SWAP1 REVERT JUMPDEST CALLVALUE PUSH2 0x348 JUMPI PUSH1 0x40 CALLDATASIZE PUSH1 0x3 NOT ADD SLT PUSH2 0x348 JUMPI PUSH2 0xBA5 PUSH2 0x121C JUMP JUMPDEST PUSH1 0x4 CALLDATALOAD PUSH1 0x0 MSTORE PUSH1 0x0 PUSH1 0x20 MSTORE PUSH1 0x40 PUSH1 0x0 KECCAK256 SWAP1 PUSH1 0x1 DUP1 PUSH1 0xA0 SHL SUB AND PUSH1 0x0 MSTORE PUSH1 0x20 MSTORE PUSH1 0x20 PUSH1 0xFF PUSH1 0x40 PUSH1 0x0 KECCAK256 SLOAD AND PUSH1 0x40 MLOAD SWAP1 ISZERO ISZERO DUP2 MSTORE RETURN JUMPDEST CALLVALUE PUSH2 0x348 JUMPI PUSH1 0x20 CALLDATASIZE PUSH1 0x3 NOT ADD SLT PUSH2 0x348 JUMPI PUSH1 0x20 PUSH2 0xBF7 PUSH1 0x4 CALLDATALOAD PUSH2 0x1746 JUMP JUMPDEST PUSH1 0x40 MLOAD SWAP1 ISZERO ISZERO DUP2 MSTORE RETURN JUMPDEST CALLVALUE PUSH2 0x348 JUMPI PUSH1 0x20 CALLDATASIZE PUSH1 0x3 NOT ADD SLT PUSH2 0x348 JUMPI PUSH1 0x1 PUSH1 0x1 PUSH1 0xA0 SHL SUB PUSH2 0xC22 PUSH2 0x1232 JUMP JUMPDEST AND PUSH1 0x0 MSTORE PUSH1 0x4 PUSH1 0x20 MSTORE PUSH1 0x20 PUSH1 0xFF PUSH1 0x40 PUSH1 0x0 KECCAK256 SLOAD AND PUSH1 0x40 MLOAD SWAP1 ISZERO ISZERO DUP2 MSTORE RETURN JUMPDEST CALLVALUE PUSH2 0x348 JUMPI PUSH1 0x0 CALLDATASIZE PUSH1 0x3 NOT ADD SLT PUSH2 0x348 JUMPI PUSH1 0x20 PUSH1 0x5 SLOAD PUSH1 0x40 MLOAD SWAP1 DUP2 MSTORE RETURN JUMPDEST CALLVALUE PUSH2 0x348 JUMPI PUSH1 0x40 CALLDATASIZE PUSH1 0x3 NOT ADD SLT PUSH2 0x348 JUMPI PUSH1 0x24 CALLDATALOAD PUSH1 0x4 CALLDATALOAD PUSH8 0xFFFFFFFFFFFFFFFF DUP3 GT PUSH2 0x348 JUMPI CALLDATASIZE PUSH1 0x23 DUP4 ADD SLT ISZERO PUSH2 0x348 JUMPI DUP2 PUSH1 0x4 ADD CALLDATALOAD SWAP2 PUSH2 0xC9E DUP4 PUSH2 0x1287 JUMP JUMPDEST SWAP1 PUSH2 0xCAC PUSH1 0x40 MLOAD SWAP3 DUP4 PUSH2 0x1265 JUMP JUMPDEST DUP4 DUP3 MSTORE PUSH1 0x20 SWAP4 PUSH1 0x24 DUP6 DUP5 ADD SWAP2 PUSH1 0x5 SHL DUP4 ADD ADD SWAP2 CALLDATASIZE DUP4 GT PUSH2 0x348 JUMPI PUSH1 0x24 ADD SWAP1 JUMPDEST DUP3 DUP3 LT PUSH2 0xDA5 JUMPI POP POP POP DUP1 MLOAD SWAP1 PUSH2 0xCFA PUSH2 0xCE4 DUP4 PUSH2 0x1287 JUMP JUMPDEST SWAP3 PUSH2 0xCF2 PUSH1 0x40 MLOAD SWAP5 DUP6 PUSH2 0x1265 JUMP JUMPDEST DUP1 DUP5 MSTORE PUSH2 0x1287 JUMP JUMPDEST DUP3 DUP6 ADD SWAP4 SWAP1 PUSH1 0x1F NOT ADD CALLDATASIZE DUP6 CALLDATACOPY PUSH1 0x0 JUMPDEST DUP3 MLOAD DUP2 LT ISZERO PUSH2 0xD5F JUMPI PUSH1 0x0 DUP3 DUP2 MSTORE PUSH1 0x2 DUP8 MSTORE PUSH1 0x40 SWAP1 KECCAK256 PUSH2 0xD5A SWAP2 SWAP1 PUSH1 0x1 PUSH1 0x1 PUSH1 0xA0 SHL SUB PUSH2 0xD36 DUP4 DUP8 PUSH2 0x1795 JUMP JUMPDEST MLOAD AND PUSH1 0x0 MSTORE DUP8 MSTORE PUSH1 0xFF PUSH1 0x40 PUSH1 0x0 KECCAK256 SLOAD AND PUSH2 0xD50 DUP3 DUP8 PUSH2 0x1795 JUMP JUMPDEST SWAP1 ISZERO ISZERO SWAP1 MSTORE PUSH2 0x16B0 JUMP JUMPDEST PUSH2 0xD09 JUMP JUMPDEST POP POP POP SWAP1 PUSH1 0x40 MLOAD SWAP3 DUP4 SWAP3 DUP2 DUP5 ADD SWAP1 DUP3 DUP6 MSTORE MLOAD DUP1 SWAP2 MSTORE PUSH1 0x40 DUP5 ADD SWAP3 SWAP2 PUSH1 0x0 JUMPDEST DUP3 DUP2 LT PUSH2 0xD8C JUMPI POP POP POP POP SUB SWAP1 RETURN JUMPDEST DUP4 MLOAD ISZERO ISZERO DUP6 MSTORE DUP7 SWAP6 POP SWAP4 DUP2 ADD SWAP4 SWAP3 DUP2 ADD SWAP3 PUSH1 0x1 ADD PUSH2 0xD7D JUMP JUMPDEST DUP2 CALLDATALOAD PUSH1 0x1 PUSH1 0x1 PUSH1 0xA0 SHL SUB DUP2 AND DUP2 SUB PUSH2 0x348 JUMPI DUP2 MSTORE SWAP1 DUP6 ADD SWAP1 DUP6 ADD PUSH2 0xCCB JUMP JUMPDEST CALLVALUE PUSH2 0x348 JUMPI PUSH1 0x20 CALLDATASIZE PUSH1 0x3 NOT ADD SLT PUSH2 0x348 JUMPI PUSH2 0xDDD PUSH2 0x1232 JUMP JUMPDEST PUSH2 0xDE5 PUSH2 0x1336 JUMP JUMPDEST PUSH1 0x1 PUSH1 0x1 PUSH1 0xA0 SHL SUB DUP2 AND SWAP1 DUP2 ISZERO PUSH2 0xA67 JUMPI DUP2 PUSH1 0x0 MSTORE PUSH1 0x3 PUSH1 0x20 MSTORE PUSH1 0xFF PUSH1 0x40 PUSH1 0x0 KECCAK256 SLOAD AND PUSH2 0xEA2 JUMPI PUSH1 0x5 SLOAD SWAP1 PUSH9 0x10000000000000000 DUP3 LT ISZERO PUSH2 0x9D0 JUMPI PUSH2 0xE57 DUP2 PUSH2 0xE38 DUP5 PUSH1 0x1 PUSH2 0xE75 SWAP7 ADD PUSH1 0x5 SSTORE PUSH2 0x16F9 JUMP JUMPDEST SWAP1 SWAP2 SWAP1 DUP3 SLOAD SWAP1 PUSH1 0x3 SHL SWAP2 PUSH1 0x1 DUP1 PUSH1 0xA0 SHL SUB DUP1 SWAP2 AND DUP4 SHL SWAP3 SHL NOT AND OR SWAP1 SSTORE JUMP JUMPDEST DUP3 PUSH1 0x0 MSTORE PUSH1 0x3 PUSH1 0x20 MSTORE PUSH1 0x40 PUSH1 0x0 KECCAK256 PUSH1 0x1 PUSH1 0xFF NOT DUP3 SLOAD AND OR SWAP1 SSTORE PUSH2 0x13B8 JUMP JUMPDEST POP PUSH32 0x9000B209805850A65058F21361A9978CB30F1413ED555553AB52A59B440B5D99 PUSH1 0x20 PUSH1 0x40 MLOAD TIMESTAMP DUP2 MSTORE LOG2 STOP JUMPDEST PUSH1 0x40 MLOAD PUSH4 0x164688DF PUSH1 0xE2 SHL DUP2 MSTORE PUSH1 0x4 DUP2 ADD DUP4 SWAP1 MSTORE PUSH1 0x24 SWAP1 REVERT JUMPDEST CALLVALUE PUSH2 0x348 JUMPI PUSH1 0x40 CALLDATASIZE PUSH1 0x3 NOT ADD SLT PUSH2 0x348 JUMPI PUSH2 0xED4 PUSH2 0x121C JUMP JUMPDEST PUSH1 0x4 CALLDATALOAD PUSH1 0x0 MSTORE PUSH1 0x2 PUSH1 0x20 MSTORE PUSH1 0x40 PUSH1 0x0 KECCAK256 SWAP1 PUSH1 0x1 DUP1 PUSH1 0xA0 SHL SUB AND PUSH1 0x0 MSTORE PUSH1 0x20 MSTORE PUSH1 0x20 PUSH1 0xFF PUSH1 0x40 PUSH1 0x0 KECCAK256 SLOAD AND PUSH1 0x40 MLOAD SWAP1 ISZERO ISZERO DUP2 MSTORE RETURN JUMPDEST CALLVALUE PUSH2 0x348 JUMPI PUSH1 0x20 CALLDATASIZE PUSH1 0x3 NOT ADD SLT PUSH2 0x348 JUMPI PUSH2 0xF21 PUSH2 0x1232 JUMP JUMPDEST PUSH2 0xF29 PUSH2 0x1336 JUMP JUMPDEST PUSH1 0x1 PUSH1 0x1 PUSH1 0xA0 SHL SUB DUP2 DUP2 AND SWAP2 DUP3 ISZERO PUSH2 0xA67 JUMPI DUP3 PUSH1 0x0 MSTORE PUSH1 0x3 DUP1 PUSH1 0x20 MSTORE PUSH1 0xFF PUSH1 0x40 PUSH1 0x0 KECCAK256 SLOAD AND ISZERO PUSH2 0x1044 JUMPI PUSH1 0x0 JUMPDEST PUSH1 0x5 DUP1 SLOAD DUP1 DUP4 LT ISZERO PUSH2 0x1037 JUMPI DUP7 DUP7 PUSH2 0xF6D DUP6 PUSH2 0x16F9 JUMP JUMPDEST SWAP1 SLOAD SWAP1 DUP8 SHL SHR AND EQ PUSH2 0xF89 JUMPI POP POP PUSH2 0xF84 SWAP1 PUSH2 0x16B0 JUMP JUMPDEST PUSH2 0xF56 JUMP JUMPDEST PUSH1 0x0 NOT SWAP6 SWAP3 DUP2 DUP8 ADD SWAP2 DUP3 GT PUSH2 0x2B2 JUMPI PUSH2 0xE38 DUP5 PUSH2 0xFA8 PUSH2 0xFB5 SWAP5 PUSH2 0x16F9 JUMP JUMPDEST SWAP1 SLOAD SWAP1 DUP9 SHL SHR AND SWAP2 PUSH2 0x16F9 JUMP JUMPDEST DUP1 SLOAD SWAP5 DUP6 ISZERO PUSH2 0x1021 JUMPI PUSH2 0xFF4 SWAP6 ADD SWAP2 PUSH2 0xFCD DUP4 PUSH2 0x16F9 JUMP JUMPDEST SWAP1 SWAP2 DUP3 SLOAD SWAP2 DUP7 SHL SHL NOT AND SWAP1 SSTORE SSTORE JUMPDEST DUP4 PUSH1 0x0 MSTORE PUSH1 0x20 MSTORE PUSH1 0x40 PUSH1 0x0 KECCAK256 PUSH1 0xFF NOT DUP2 SLOAD AND SWAP1 SSTORE PUSH2 0x1590 JUMP JUMPDEST POP PUSH32 0x50ECBF35C0FF0910F48ECAF45471C41781B549230264F6CB51997D7D425A02C3 PUSH1 0x20 PUSH1 0x40 MLOAD TIMESTAMP DUP2 MSTORE LOG2 STOP JUMPDEST PUSH4 0x4E487B71 PUSH1 0xE0 SHL PUSH1 0x0 MSTORE PUSH1 0x31 PUSH1 0x4 MSTORE PUSH1 0x24 PUSH1 0x0 REVERT JUMPDEST POP POP POP PUSH2 0xFF4 SWAP3 POP PUSH2 0xFDB JUMP JUMPDEST PUSH1 0x40 MLOAD PUSH4 0x5A4887E1 PUSH1 0xE0 SHL DUP2 MSTORE PUSH1 0x4 DUP2 ADD DUP6 SWAP1 MSTORE PUSH1 0x24 SWAP1 REVERT JUMPDEST CALLVALUE PUSH2 0x348 JUMPI PUSH1 0x40 CALLDATASIZE PUSH1 0x3 NOT ADD SLT PUSH2 0x348 JUMPI PUSH2 0x1076 PUSH2 0x121C JUMP JUMPDEST CALLER PUSH1 0x1 PUSH1 0x1 PUSH1 0xA0 SHL SUB DUP3 AND SUB PUSH2 0x1092 JUMPI PUSH2 0x258 SWAP1 PUSH1 0x4 CALLDATALOAD PUSH2 0x163B JUMP JUMPDEST PUSH1 0x40 MLOAD PUSH4 0x334BD919 PUSH1 0xE1 SHL DUP2 MSTORE PUSH1 0x4 SWAP1 REVERT JUMPDEST CALLVALUE PUSH2 0x348 JUMPI PUSH1 0x40 CALLDATASIZE PUSH1 0x3 NOT ADD SLT PUSH2 0x348 JUMPI PUSH2 0x258 PUSH1 0x4 CALLDATALOAD PUSH2 0x10C3 PUSH2 0x121C JUMP JUMPDEST SWAP1 DUP1 PUSH1 0x0 MSTORE PUSH1 0x0 PUSH1 0x20 MSTORE PUSH2 0x10DE PUSH1 0x1 PUSH1 0x40 PUSH1 0x0 KECCAK256 ADD SLOAD PUSH2 0x1392 JUMP JUMPDEST PUSH2 0x1517 JUMP JUMPDEST CALLVALUE PUSH2 0x348 JUMPI PUSH1 0x20 CALLDATASIZE PUSH1 0x3 NOT ADD SLT PUSH2 0x348 JUMPI PUSH1 0x4 CALLDATALOAD PUSH1 0x0 MSTORE PUSH1 0x0 PUSH1 0x20 MSTORE PUSH1 0x20 PUSH1 0x1 PUSH1 0x40 PUSH1 0x0 KECCAK256 ADD SLOAD PUSH1 0x40 MLOAD SWAP1 DUP2 MSTORE RETURN JUMPDEST CALLVALUE PUSH2 0x348 JUMPI PUSH1 0x20 CALLDATASIZE PUSH1 0x3 NOT ADD SLT PUSH2 0x348 JUMPI PUSH1 0x4 CALLDATALOAD DUP1 PUSH1 0x0 MSTORE PUSH1 0x1 PUSH1 0x20 MSTORE PUSH1 0x40 PUSH1 0x0 KECCAK256 PUSH1 0x6 DUP2 ADD SLOAD ISZERO PUSH2 0x11B0 JUMPI PUSH1 0x7 DUP2 ADD SLOAD PUSH1 0xFF DUP2 AND PUSH2 0x1197 JUMPI PUSH1 0x8 SHR PUSH1 0xFF AND PUSH2 0x117F JUMPI PUSH1 0x5 PUSH1 0x4 DUP3 ADD SLOAD SWAP2 ADD SLOAD SUB PUSH2 0x116D JUMPI PUSH2 0x258 SWAP1 PUSH2 0x17A9 JUMP JUMPDEST PUSH1 0x40 MLOAD PUSH4 0x6FD923E7 PUSH1 0xE1 SHL DUP2 MSTORE PUSH1 0x4 SWAP1 REVERT JUMPDEST PUSH1 0x40 MLOAD PUSH3 0xAD5477 PUSH1 0xE7 SHL DUP2 MSTORE PUSH1 0x4 DUP2 ADD DUP4 SWAP1 MSTORE PUSH1 0x24 SWAP1 REVERT JUMPDEST PUSH1 0x40 MLOAD PUSH4 0x27764073 PUSH1 0xE1 SHL DUP2 MSTORE PUSH1 0x4 DUP2 ADD DUP5 SWAP1 MSTORE PUSH1 0x24 SWAP1 REVERT JUMPDEST PUSH1 0x40 MLOAD PUSH4 0x428D06A9 PUSH1 0xE0 SHL DUP2 MSTORE PUSH1 0x4 DUP2 ADD DUP4 SWAP1 MSTORE PUSH1 0x24 SWAP1 REVERT JUMPDEST CALLVALUE PUSH2 0x348 JUMPI PUSH1 0x20 CALLDATASIZE PUSH1 0x3 NOT ADD SLT PUSH2 0x348 JUMPI PUSH1 0x4 CALLDATALOAD SWAP1 PUSH4 0xFFFFFFFF PUSH1 0xE0 SHL DUP3 AND DUP1 SWAP3 SUB PUSH2 0x348 JUMPI PUSH1 0x20 SWAP2 PUSH4 0x7965DB0B PUSH1 0xE0 SHL DUP2 EQ SWAP1 DUP2 ISZERO PUSH2 0x120B JUMPI JUMPDEST POP ISZERO ISZERO DUP2 MSTORE RETURN JUMPDEST PUSH4 0x1FFC9A7 PUSH1 0xE0 SHL EQ SWAP1 POP DUP4 PUSH2 0x1204 JUMP JUMPDEST PUSH1 0x24 CALLDATALOAD SWAP1 PUSH1 0x1 PUSH1 0x1 PUSH1 0xA0 SHL SUB DUP3 AND DUP3 SUB PUSH2 0x348 JUMPI JUMP JUMPDEST PUSH1 0x4 CALLDATALOAD SWAP1 PUSH1 0x1 PUSH1 0x1 PUSH1 0xA0 SHL SUB DUP3 AND DUP3 SUB PUSH2 0x348 JUMPI JUMP JUMPDEST PUSH2 0x120 DUP2 ADD SWAP1 DUP2 LT PUSH8 0xFFFFFFFFFFFFFFFF DUP3 GT OR PUSH2 0x9D0 JUMPI PUSH1 0x40 MSTORE JUMP JUMPDEST SWAP1 PUSH1 0x1F DUP1 NOT SWAP2 ADD AND DUP2 ADD SWAP1 DUP2 LT PUSH8 0xFFFFFFFFFFFFFFFF DUP3 GT OR PUSH2 0x9D0 JUMPI PUSH1 0x40 MSTORE JUMP JUMPDEST PUSH8 0xFFFFFFFFFFFFFFFF DUP2 GT PUSH2 0x9D0 JUMPI PUSH1 0x5 SHL PUSH1 0x20 ADD SWAP1 JUMP JUMPDEST DUP2 PUSH1 0x1F DUP3 ADD SLT ISZERO PUSH2 0x348 JUMPI DUP1 CALLDATALOAD SWAP1 PUSH8 0xFFFFFFFFFFFFFFFF DUP3 GT PUSH2 0x9D0 JUMPI PUSH1 0x40 MLOAD SWAP3 PUSH2 0x12D4 PUSH1 0x1F DUP5 ADD PUSH1 0x1F NOT AND PUSH1 0x20 ADD DUP6 PUSH2 0x1265 JUMP JUMPDEST DUP3 DUP5 MSTORE PUSH1 0x20 DUP4 DUP4 ADD ADD GT PUSH2 0x348 JUMPI DUP2 PUSH1 0x0 SWAP3 PUSH1 0x20 DUP1 SWAP4 ADD DUP4 DUP7 ADD CALLDATACOPY DUP4 ADD ADD MSTORE SWAP1 JUMP JUMPDEST SWAP2 SWAP1 DUP3 MLOAD SWAP3 DUP4 DUP3 MSTORE PUSH1 0x0 JUMPDEST DUP5 DUP2 LT PUSH2 0x1322 JUMPI POP POP DUP3 PUSH1 0x0 PUSH1 0x20 DUP1 SWAP5 SWAP6 DUP5 ADD ADD MSTORE PUSH1 0x1F DUP1 NOT SWAP2 ADD AND ADD ADD SWAP1 JUMP JUMPDEST PUSH1 0x20 DUP2 DUP4 ADD DUP2 ADD MLOAD DUP5 DUP4 ADD DUP3 ADD MSTORE ADD PUSH2 0x1301 JUMP JUMPDEST CALLER PUSH1 0x0 SWAP1 DUP2 MSTORE PUSH32 0xCEF3A433619E8274F84BBE9AD5323E8B252FCF8ED48AFFBCE8D2049D944EA6DE PUSH1 0x20 MSTORE PUSH1 0x40 SWAP1 KECCAK256 SLOAD PUSH32 0xB346B2DDC13F08BD9685B83A95304A79A2CAAC0AA7AA64129E1AE9F4361B4661 SWAP1 PUSH1 0xFF AND ISZERO PUSH2 0x32A JUMPI POP JUMP JUMPDEST DUP1 PUSH1 0x0 MSTORE PUSH1 0x0 PUSH1 0x20 MSTORE PUSH1 0x40 PUSH1 0x0 KECCAK256 CALLER PUSH1 0x0 MSTORE PUSH1 0x20 MSTORE PUSH1 0xFF PUSH1 0x40 PUSH1 0x0 KECCAK256 SLOAD AND ISZERO PUSH2 0x32A JUMPI POP JUMP JUMPDEST PUSH1 0x1 PUSH1 0x1 PUSH1 0xA0 SHL SUB AND PUSH1 0x0 DUP2 DUP2 MSTORE PUSH32 0xB68174101826FD4A886DA9E533CA4A1B2428978F4CADE74ED8E80F9E912C9A95 PUSH1 0x20 MSTORE PUSH1 0x40 DUP2 KECCAK256 SLOAD SWAP1 SWAP2 SWAP1 PUSH32 0x39801F02B377382934882402B272EC2B64D7F3CD17FC59F578996FA5030DE397 SWAP1 PUSH1 0xFF AND PUSH2 0x1465 JUMPI DUP1 DUP4 MSTORE DUP3 PUSH1 0x20 MSTORE PUSH1 0x40 DUP4 KECCAK256 DUP3 DUP5 MSTORE PUSH1 0x20 MSTORE PUSH1 0x40 DUP4 KECCAK256 PUSH1 0x1 PUSH1 0xFF NOT DUP3 SLOAD AND OR SWAP1 SSTORE PUSH32 0x2F8788117E7EFF1D82E926EC794901D17C78024A50270940304540A733656F0D CALLER SWAP4 DUP1 LOG4 PUSH1 0x1 SWAP1 JUMP JUMPDEST POP POP SWAP1 JUMP JUMPDEST PUSH1 0x1 PUSH1 0x1 PUSH1 0xA0 SHL SUB AND PUSH1 0x0 DUP2 DUP2 MSTORE PUSH32 0x75A62D95AD9FEF7BBA5C4DDE6E3FF662D5C539A6D57CB138A3D5C2F3A42773FF PUSH1 0x20 MSTORE PUSH1 0x40 DUP2 KECCAK256 SLOAD SWAP1 SWAP2 SWAP1 PUSH32 0x4B90E70A23AD1C016CDBA1A015076C2DE977E305FCAD3881690CAFBE99D36190 SWAP1 PUSH1 0xFF AND PUSH2 0x1465 JUMPI DUP1 DUP4 MSTORE DUP3 PUSH1 0x20 MSTORE PUSH1 0x40 DUP4 KECCAK256 DUP3 DUP5 MSTORE PUSH1 0x20 MSTORE PUSH1 0x40 DUP4 KECCAK256 PUSH1 0x1 PUSH1 0xFF NOT DUP3 SLOAD AND OR SWAP1 SSTORE PUSH32 0x2F8788117E7EFF1D82E926EC794901D17C78024A50270940304540A733656F0D CALLER SWAP4 DUP1 LOG4 PUSH1 0x1 SWAP1 JUMP JUMPDEST SWAP1 PUSH1 0x0 SWAP2 DUP1 DUP4 MSTORE DUP3 PUSH1 0x20 MSTORE PUSH1 0x40 DUP4 KECCAK256 SWAP2 PUSH1 0x1 DUP1 PUSH1 0xA0 SHL SUB AND SWAP2 DUP3 DUP5 MSTORE PUSH1 0x20 MSTORE PUSH1 0xFF PUSH1 0x40 DUP5 KECCAK256 SLOAD AND ISZERO PUSH1 0x0 EQ PUSH2 0x1465 JUMPI DUP1 DUP4 MSTORE DUP3 PUSH1 0x20 MSTORE PUSH1 0x40 DUP4 KECCAK256 DUP3 DUP5 MSTORE PUSH1 0x20 MSTORE PUSH1 0x40 DUP4 KECCAK256 PUSH1 0x1 PUSH1 0xFF NOT DUP3 SLOAD AND OR SWAP1 SSTORE PUSH32 0x2F8788117E7EFF1D82E926EC794901D17C78024A50270940304540A733656F0D CALLER SWAP4 DUP1 LOG4 PUSH1 0x1 SWAP1 JUMP JUMPDEST PUSH1 0x1 PUSH1 0x1 PUSH1 0xA0 SHL SUB AND PUSH1 0x0 DUP2 DUP2 MSTORE PUSH32 0xB68174101826FD4A886DA9E533CA4A1B2428978F4CADE74ED8E80F9E912C9A95 PUSH1 0x20 MSTORE PUSH1 0x40 DUP2 KECCAK256 SLOAD SWAP1 SWAP2 SWAP1 PUSH32 0x39801F02B377382934882402B272EC2B64D7F3CD17FC59F578996FA5030DE397 SWAP1 PUSH1 0xFF AND ISZERO PUSH2 0x1465 JUMPI DUP1 DUP4 MSTORE DUP3 PUSH1 0x20 MSTORE PUSH1 0x40 DUP4 KECCAK256 DUP3 DUP5 MSTORE PUSH1 0x20 MSTORE PUSH1 0x40 DUP4 KECCAK256 PUSH1 0xFF NOT DUP2 SLOAD AND SWAP1 SSTORE PUSH32 0xF6391F5C32D9C69D2A47EA670B442974B53935D1EDC7FD64EB21E047A839171B CALLER SWAP4 DUP1 LOG4 PUSH1 0x1 SWAP1 JUMP JUMPDEST SWAP1 PUSH1 0x0 SWAP2 DUP1 DUP4 MSTORE DUP3 PUSH1 0x20 MSTORE PUSH1 0x40 DUP4 KECCAK256 SWAP2 PUSH1 0x1 DUP1 PUSH1 0xA0 SHL SUB AND SWAP2 DUP3 DUP5 MSTORE PUSH1 0x20 MSTORE PUSH1 0xFF PUSH1 0x40 DUP5 KECCAK256 SLOAD AND PUSH1 0x0 EQ PUSH2 0x1465 JUMPI DUP1 DUP4 MSTORE DUP3 PUSH1 0x20 MSTORE PUSH1 0x40 DUP4 KECCAK256 DUP3 DUP5 MSTORE PUSH1 0x20 MSTORE PUSH1 0x40 DUP4 KECCAK256 PUSH1 0xFF NOT DUP2 SLOAD AND SWAP1 SSTORE PUSH32 0xF6391F5C32D9C69D2A47EA670B442974B53935D1EDC7FD64EB21E047A839171B CALLER SWAP4 DUP1 LOG4 PUSH1 0x1 SWAP1 JUMP JUMPDEST PUSH1 0x0 NOT DUP2 EQ PUSH2 0x2B2 JUMPI PUSH1 0x1 ADD SWAP1 JUMP JUMPDEST SWAP1 PUSH1 0x1 DUP3 DUP2 SHR SWAP3 AND DUP1 ISZERO PUSH2 0x16EF JUMPI JUMPDEST PUSH1 0x20 DUP4 LT EQ PUSH2 0x16D9 JUMPI JUMP JUMPDEST PUSH4 0x4E487B71 PUSH1 0xE0 SHL PUSH1 0x0 MSTORE PUSH1 0x22 PUSH1 0x4 MSTORE PUSH1 0x24 PUSH1 0x0 REVERT JUMPDEST SWAP2 PUSH1 0x7F AND SWAP2 PUSH2 0x16CE JUMP JUMPDEST PUSH1 0x5 SLOAD DUP2 LT ISZERO PUSH2 0x1730 JUMPI PUSH1 0x5 PUSH1 0x0 MSTORE PUSH32 0x36B6384B5ECA791C62761152D0C79BB0604C104A5FB6F4EB0703F3154BB3DB0 ADD SWAP1 PUSH1 0x0 SWAP1 JUMP JUMPDEST PUSH4 0x4E487B71 PUSH1 0xE0 SHL PUSH1 0x0 MSTORE PUSH1 0x32 PUSH1 0x4 MSTORE PUSH1 0x24 PUSH1 0x0 REVERT JUMPDEST PUSH1 0x0 MSTORE PUSH1 0x1 PUSH1 0x20 MSTORE PUSH1 0x40 PUSH1 0x0 KECCAK256 PUSH1 0x6 DUP2 ADD SLOAD ISZERO PUSH2 0x1781 JUMPI PUSH1 0x7 DUP2 ADD SLOAD PUSH1 0xFF DUP2 AND SWAP1 DUP2 ISZERO PUSH2 0x1787 JUMPI JUMPDEST POP PUSH2 0x1781 JUMPI PUSH1 0x5 PUSH1 0x4 DUP3 ADD SLOAD SWAP2 ADD SLOAD EQ SWAP1 JUMP JUMPDEST POP PUSH1 0x0 SWAP1 JUMP JUMPDEST PUSH1 0xFF SWAP2 POP PUSH1 0x8 SHR AND CODESIZE PUSH2 0x176E JUMP JUMPDEST DUP1 MLOAD DUP3 LT ISZERO PUSH2 0x1730 JUMPI PUSH1 0x20 SWAP2 PUSH1 0x5 SHL ADD ADD SWAP1 JUMP JUMPDEST DUP1 PUSH1 0x0 MSTORE PUSH1 0x1 PUSH1 0x20 MSTORE PUSH1 0x40 PUSH1 0x0 KECCAK256 SWAP1 PUSH32 0x2D436577633120007446FC8116BF731759187B21264EB8A052E92BE53C64C61E PUSH1 0x40 PUSH1 0x4 PUSH1 0x7 DUP6 ADD PUSH1 0xFF NOT SWAP1 PUSH1 0x1 DUP3 DUP3 SLOAD AND OR SWAP1 SSTORE PUSH1 0x1 DUP1 PUSH1 0xA0 SHL SUB SWAP1 DUP2 DUP8 SLOAD AND PUSH1 0x0 MSTORE DUP3 PUSH1 0x20 MSTORE PUSH1 0x1 DUP5 PUSH1 0x0 KECCAK256 SWAP2 DUP3 SLOAD AND OR SWAP1 SSTORE PUSH2 0x181A DUP2 DUP8 SLOAD AND PUSH2 0x146A JUMP JUMPDEST POP DUP6 SLOAD AND SWAP5 ADD SLOAD DUP2 MLOAD SWAP1 DUP2 MSTORE TIMESTAMP PUSH1 0x20 DUP3 ADD MSTORE LOG3 JUMP INVALID LOG2 PUSH5 0x6970667358 0x22 SLT KECCAK256 0x2C 0xBB 0xAC ISZERO 0xEA PUSH24 0x53F237720E08499D55A761CC117F4EE64EBBABF19ECB5F72 0xF6 0xAE PUSH5 0x736F6C6343 STOP ADDMOD EQ STOP CALLER 0x2F DUP8 DUP9 GT PUSH31 0x7EFF1D82E926EC794901D17C78024A50270940304540A733656F0D00000000 "},"methodIdentifiers":{"DEFAULT_ADMIN_ROLE()":"a217fddf","addValidator(address)":"4d238c8e","executeProposal(uint256)":"0d61b519","getProposal(uint256)":"c7f758a8","getProposalCount()":"c08cc02d","getProposalVotes(uint256,address[])":"5550896e","getRoleAdmin(bytes32)":"248a9ca3","getValidatorCount()":"7071688a","getValidators()":"b7ab4db5","grantRole(bytes32,address)":"2f2ff15d","hasRole(bytes32,address)":"91d14854","hasUnanimousApproval(uint256)":"8430963c","hasVoted(uint256,address)":"43859632","isInstitutionRegistered(address)":"83c0e354","isValidator(address)":"facd743b","proposeInstitution(address,string,bytes32)":"a49a46c7","rejectProposal(uint256,string)":"952a5be7","removeValidator(address)":"40a141ff","renounceRole(bytes32,address)":"36568abe","revokeRole(bytes32,address)":"d547741f","supportsInterface(bytes4)":"01ffc9a7","voteForInstitution(uint256)":"fb408565"}}}}}