{"libs/Roles.sol":{"Roles":{"abi":[{"inputs":[],"name":"ADMINISTRATOR","outputs":[{"internalType":"bytes32","name":"","type":"bytes32"}],"stateMutability":"view","type":"function"},{"inputs":[],"name":"BLOOM_FILTER_MANAGER","outputs":[{"internalType":"bytes32","name":"","type":"bytes32"}],"stateMutability":"view","type":"function"},{"inputs":[],"name":"CERTIFICATE_HOLDER","outputs":[{"internalType":"bytes32","name":"","type":"bytes32"}],"stateMutability":"view","type":"function"},{"inputs":[],"name":"CERTIFICATE_ISSUER","outputs":[{"internalType":"bytes32","name":"","type":"bytes32"}],"stateMutability":"view","type":"function"},{"inputs":[],"name":"IDENTITY_ADMIN","outputs":[{"internalType":"bytes32","name":"","type":"bytes32"}],"stateMutability":"view","type":"function"},{"inputs":[],"name":"ORGANIZATION_ADMIN","outputs":[{"internalType":"bytes32","name":"","type":"bytes32"}],"stateMutability":"view","type":"function"},{"inputs":[],"name":"ORGANIZATION_ISSUER","outputs":[{"internalType":"bytes32","name":"","type":"bytes32"}],"stateMutability":"view","type":"function"},{"inputs":[],"name":"SYSTEM_ADMIN","outputs":[{"internalType":"bytes32","name":"","type":"bytes32"}],"stateMutability":"view","type":"function"},{"inputs":[],"name":"TRUST_SCORE_UPDATER","outputs":[{"internalType":"bytes32","name":"","type":"bytes32"}],"stateMutability":"view","type":"function"},{"inputs":[],"name":"VALIDATOR_INSTITUTION","outputs":[{"internalType":"bytes32","name":"","type":"bytes32"}],"stateMutability":"view","type":"function"},{"inputs":[],"name":"VERIFICATION_PROVIDER","outputs":[{"internalType":"bytes32","name":"","type":"bytes32"}],"stateMutability":"view","type":"function"},{"inputs":[],"name":"VERIFIER","outputs":[{"internalType":"bytes32","name":"","type":"bytes32"}],"stateMutability":"view","type":"function"}],"evm":{"bytecode":{"linkReferences":{},"object":"6080806040523461001a5761035b9081610020823930815050f35b600080fdfe60806040818152600436101561001457600080fd5b600091823560e01c90816308c84e70146102f0575080630cb3c546146102bb5780630e713551146102865780632a31b5a31461025157806359fe72791461021c5780637aee7ea2146101e7578063852757ad146101b25780639ac22ba41461017d578063a436c5d614610148578063b0e0fa1014610113578063bb7c6c29146100de5763e159a5b9146100a657600080fd5b816003193601126100da57602090517fab177dfaad07e591a0d8b3ffe3295635c44b202d328a06e6425597562949bc478152f35b5080fd5b50816003193601126100da57602090517f502392af4b20018a8e94aec3e8c015aa38c7090fe5e5b7ecbb16f99c3a1ec14d8152f35b50816003193601126100da57602090517f39801f02b377382934882402b272ec2b64d7f3cd17fc59f578996fa5030de3978152f35b50816003193601126100da57602090517fa81d4d92d11ca246da5d8aeb815136263d43f98a044816bc6c34a1c90f1aa63c8152f35b50816003193601126100da57602090517f9b4486f863c18a7ef3a9a59ad7d081b4cbdd2529c65ddfa56f92eb9bf12b4a908152f35b50816003193601126100da57602090517f74966176c367549066de941fecec46be0069530384452daa9c31d709c544e6398152f35b50816003193601126100da57602090517f95db38da2bdceeb0c3cc1c1c6bf13d1b48a5cc148ba8dd82ab7367ba40ca30278152f35b50816003193601126100da57602090517fb346b2ddc13f08bd9685b83a95304a79a2caac0aa7aa64129e1ae9f4361b46618152f35b50816003193601126100da57602090517f4b90e70a23ad1c016cdba1a015076c2de977e305fcad3881690cafbe99d361908152f35b50816003193601126100da57602090517fdaf8d2444f01f0f236a7b812caef27f52798f186168f76e1a89f1e87c096ee888152f35b50816003193601126100da57602090517f1683a59f33ab748a9c997926b92986e440dbba95653ba6fa3fb5bf828e15b9e18152f35b8390816003193601126100da57807fa48c898f5241be426b79d4b5a3c206f9c9a06576e1b72c338c3ec849771d568660209252f3fea264697066735822122086411ec8fb1af62edebfcc744c28d0576faa5f0ed2af1b31d243af4866f472f364736f6c63430008140033","opcodes":"PUSH1 0x80 DUP1 PUSH1 0x40 MSTORE CALLVALUE PUSH2 0x1A JUMPI PUSH2 0x35B SWAP1 DUP2 PUSH2 0x20 DUP3 CODECOPY ADDRESS DUP2 POP POP RETURN JUMPDEST PUSH1 0x0 DUP1 REVERT INVALID PUSH1 0x80 PUSH1 0x40 DUP2 DUP2 MSTORE PUSH1 0x4 CALLDATASIZE LT ISZERO PUSH2 0x14 JUMPI PUSH1 0x0 DUP1 REVERT JUMPDEST PUSH1 0x0 SWAP2 DUP3 CALLDATALOAD PUSH1 0xE0 SHR SWAP1 DUP2 PUSH4 0x8C84E70 EQ PUSH2 0x2F0 JUMPI POP DUP1 PUSH4 0xCB3C546 EQ PUSH2 0x2BB JUMPI DUP1 PUSH4 0xE713551 EQ PUSH2 0x286 JUMPI DUP1 PUSH4 0x2A31B5A3 EQ PUSH2 0x251 JUMPI DUP1 PUSH4 0x59FE7279 EQ PUSH2 0x21C JUMPI DUP1 PUSH4 0x7AEE7EA2 EQ PUSH2 0x1E7 JUMPI DUP1 PUSH4 0x852757AD EQ PUSH2 0x1B2 JUMPI DUP1 PUSH4 0x9AC22BA4 EQ PUSH2 0x17D JUMPI DUP1 PUSH4 0xA436C5D6 EQ PUSH2 0x148 JUMPI DUP1 PUSH4 0xB0E0FA10 EQ PUSH2 0x113 JUMPI DUP1 PUSH4 0xBB7C6C29 EQ PUSH2 0xDE JUMPI PUSH4 0xE159A5B9 EQ PUSH2 0xA6 JUMPI PUSH1 0x0 DUP1 REVERT JUMPDEST DUP2 PUSH1 0x3 NOT CALLDATASIZE ADD SLT PUSH2 0xDA JUMPI PUSH1 0x20 SWAP1 MLOAD PUSH32 0xAB177DFAAD07E591A0D8B3FFE3295635C44B202D328A06E6425597562949BC47 DUP2 MSTORE RETURN JUMPDEST POP DUP1 REVERT JUMPDEST POP DUP2 PUSH1 0x3 NOT CALLDATASIZE ADD SLT PUSH2 0xDA JUMPI PUSH1 0x20 SWAP1 MLOAD PUSH32 0x502392AF4B20018A8E94AEC3E8C015AA38C7090FE5E5B7ECBB16F99C3A1EC14D DUP2 MSTORE RETURN JUMPDEST POP DUP2 PUSH1 0x3 NOT CALLDATASIZE ADD SLT PUSH2 0xDA JUMPI PUSH1 0x20 SWAP1 MLOAD PUSH32 0x39801F02B377382934882402B272EC2B64D7F3CD17FC59F578996FA5030DE397 DUP2 MSTORE RETURN JUMPDEST POP DUP2 PUSH1 0x3 NOT CALLDATASIZE ADD SLT PUSH2 0xDA JUMPI PUSH1 0x20 SWAP1 MLOAD PUSH32 0xA81D4D92D11CA246DA5D8AEB815136263D43F98A044816BC6C34A1C90F1AA63C DUP2 MSTORE RETURN JUMPDEST POP DUP2 PUSH1 0x3 NOT CALLDATASIZE ADD SLT PUSH2 0xDA JUMPI PUSH1 0x20 SWAP1 MLOAD PUSH32 0x9B4486F863C18A7EF3A9A59AD7D081B4CBDD2529C65DDFA56F92EB9BF12B4A90 DUP2 MSTORE RETURN JUMPDEST POP DUP2 PUSH1 0x3 NOT CALLDATASIZE ADD SLT PUSH2 0xDA JUMPI PUSH1 0x20 SWAP1 MLOAD PUSH32 0x74966176C367549066DE941FECEC46BE0069530384452DAA9C31D709C544E639 DUP2 MSTORE RETURN JUMPDEST POP DUP2 PUSH1 0x3 NOT CALLDATASIZE ADD SLT PUSH2 0xDA JUMPI PUSH1 0x20 SWAP1 MLOAD PUSH32 0x95DB38DA2BDCEEB0C3CC1C1C6BF13D1B48A5CC148BA8DD82AB7367BA40CA3027 DUP2 MSTORE RETURN JUMPDEST POP DUP2 PUSH1 0x3 NOT CALLDATASIZE ADD SLT PUSH2 0xDA JUMPI PUSH1 0x20 SWAP1 MLOAD PUSH32 0xB346B2DDC13F08BD9685B83A95304A79A2CAAC0AA7AA64129E1AE9F4361B4661 DUP2 MSTORE RETURN JUMPDEST POP DUP2 PUSH1 0x3 NOT CALLDATASIZE ADD SLT PUSH2 0xDA JUMPI PUSH1 0x20 SWAP1 MLOAD PUSH32 0x4B90E70A23AD1C016CDBA1A015076C2DE977E305FCAD3881690CAFBE99D36190 DUP2 MSTORE RETURN JUMPDEST POP DUP2 PUSH1 0x3 NOT CALLDATASIZE ADD SLT PUSH2 0xDA JUMPI PUSH1 0x20 SWAP1 MLOAD PUSH32 0xDAF8D2444F01F0F236A7B812CAEF27F52798F186168F76E1A89F1E87C096EE88 DUP2 MSTORE RETURN JUMPDEST POP DUP2 PUSH1 0x3 NOT CALLDATASIZE ADD SLT PUSH2 0xDA JUMPI PUSH1 0x20 SWAP1 MLOAD PUSH32 0x1683A59F33AB748A9C997926B92986E440DBBA95653BA6FA3FB5BF828E15B9E1 DUP2 MSTORE RETURN JUMPDEST DUP4 SWAP1 DUP2 PUSH1 0x3 NOT CALLDATASIZE ADD SLT PUSH2 0xDA JUMPI DUP1 PUSH32 0xA48C898F5241BE426B79D4B5A3C206F9C9A06576E1B72C338C3EC849771D5686 PUSH1 0x20 SWAP3 MSTORE RETURN INVALID LOG2 PUSH5 0x6970667358 0x22 SLT KECCAK256 DUP7 COINBASE 0x1E 0xC8 0xFB BYTE 0xF6 0x2E 0xDE 0xBF 0xCC PUSH21 0x4C28D0576FAA5F0ED2AF1B31D243AF4866F472F364 PUSH20 0x6F6C634300081400330000000000000000000000 "},"methodIdentifiers":{"ADMINISTRATOR()":"59fe7279","BLOOM_FILTER_MANAGER()":"bb7c6c29","CERTIFICATE_HOLDER()":"7aee7ea2","CERTIFICATE_ISSUER()":"2a31b5a3","IDENTITY_ADMIN()":"9ac22ba4","ORGANIZATION_ADMIN()":"0e713551","ORGANIZATION_ISSUER()":"a436c5d6","SYSTEM_ADMIN()":"852757ad","TRUST_SCORE_UPDATER()":"e159a5b9","VALIDATOR_INSTITUTION()":"b0e0fa10","VERIFICATION_PROVIDER()":"0cb3c546","VERIFIER()":"08c84e70"}}}}}