{
  "_format": "hh-sol-artifact-1",
  "contractName": "Roles",
  "sourceName": "src/libs/Roles.sol",
  "abi": [
    {
      "inputs": [],
      "name": "ADMINISTRATOR",
      "outputs": [
        {
          "internalType": "bytes32",
          "name": "",
          "type": "bytes32"
        }
      ],
      "stateMutability": "view",
      "type": "function"
    },
    {
      "inputs": [],
      "name": "BLOOM_FILTER_MANAGER",
      "outputs": [
        {
          "internalType": "bytes32",
          "name": "",
          "type": "bytes32"
        }
      ],
      "stateMutability": "view",
      "type": "function"
    },
    {
      "inputs": [],
      "name": "CERTIFICATE_HOLDER",
      "outputs": [
        {
          "internalType": "bytes32",
          "name": "",
          "type": "bytes32"
        }
      ],
      "stateMutability": "view",
      "type": "function"
    },
    {
      "inputs": [],
      "name": "CERTIFICATE_ISSUER",
      "outputs": [
        {
          "internalType": "bytes32",
          "name": "",
          "type": "bytes32"
        }
      ],
      "stateMutability": "view",
      "type": "function"
    },
    {
      "inputs": [],
      "name": "IDENTITY_ADMIN",
      "outputs": [
        {
          "internalType": "bytes32",
          "name": "",
          "type": "bytes32"
        }
      ],
      "stateMutability": "view",
      "type": "function"
    },
    {
      "inputs": [],
      "name": "ORGANIZATION_ADMIN",
      "outputs": [
        {
          "internalType": "bytes32",
          "name": "",
          "type": "bytes32"
        }
      ],
      "stateMutability": "view",
      "type": "function"
    },
    {
      "inputs": [],
      "name": "ORGANIZATION_ISSUER",
      "outputs": [
        {
          "internalType": "bytes32",
          "name": "",
          "type": "bytes32"
        }
      ],
      "stateMutability": "view",
      "type": "function"
    },
    {
      "inputs": [],
      "name": "SYSTEM_ADMIN",
      "outputs": [
        {
          "internalType": "bytes32",
          "name": "",
          "type": "bytes32"
        }
      ],
      "stateMutability": "view",
      "type": "function"
    },
    {
      "inputs": [],
      "name": "TRUST_SCORE_UPDATER",
      "outputs": [
        {
          "internalType": "bytes32",
          "name": "",
          "type": "bytes32"
        }
      ],
      "stateMutability": "view",
      "type": "function"
    },
    {
      "inputs": [],
      "name": "VALIDATOR_INSTITUTION",
      "outputs": [
        {
          "internalType": "bytes32",
          "name": "",
          "type": "bytes32"
        }
      ],
      "stateMutability": "view",
      "type": "function"
    },
    {
      "inputs": [],
      "name": "VERIFICATION_PROVIDER",
      "outputs": [
        {
          "internalType": "bytes32",
          "name": "",
          "type": "bytes32"
        }
      ],
      "stateMutability": "view",
      "type": "function"
    },
    {
      "inputs": [],
      "name": "VERIFIER",
      "outputs": [
        {
          "internalType": "bytes32",
          "name": "",
          "type": "bytes32"
        }
      ],
      "stateMutability": "view",
      "type": "function"
    }
  ],
  "bytecode": "0x6080806040523461001a5761035b9081610020823930815050f35b600080fdfe60806040818152600436101561001457600080fd5b600091823560e01c90816308c84e70146102f0575080630cb3c546146102bb5780630e713551146102865780632a31b5a31461025157806359fe72791461021c5780637aee7ea2146101e7578063852757ad146101b25780639ac22ba41461017d578063a436c5d614610148578063b0e0fa1014610113578063bb7c6c29146100de5763e159a5b9146100a657600080fd5b816003193601126100da57602090517fab177dfaad07e591a0d8b3ffe3295635c44b202d328a06e6425597562949bc478152f35b5080fd5b50816003193601126100da57602090517f502392af4b20018a8e94aec3e8c015aa38c7090fe5e5b7ecbb16f99c3a1ec14d8152f35b50816003193601126100da57602090517f39801f02b377382934882402b272ec2b64d7f3cd17fc59f578996fa5030de3978152f35b50816003193601126100da57602090517fa81d4d92d11ca246da5d8aeb815136263d43f98a044816bc6c34a1c90f1aa63c8152f35b50816003193601126100da57602090517f9b4486f863c18a7ef3a9a59ad7d081b4cbdd2529c65ddfa56f92eb9bf12b4a908152f35b50816003193601126100da57602090517f74966176c367549066de941fecec46be0069530384452daa9c31d709c544e6398152f35b50816003193601126100da57602090517f95db38da2bdceeb0c3cc1c1c6bf13d1b48a5cc148ba8dd82ab7367ba40ca30278152f35b50816003193601126100da57602090517fb346b2ddc13f08bd9685b83a95304a79a2caac0aa7aa64129e1ae9f4361b46618152f35b50816003193601126100da57602090517f4b90e70a23ad1c016cdba1a015076c2de977e305fcad3881690cafbe99d361908152f35b50816003193601126100da57602090517fdaf8d2444f01f0f236a7b812caef27f52798f186168f76e1a89f1e87c096ee888152f35b50816003193601126100da57602090517f1683a59f33ab748a9c997926b92986e440dbba95653ba6fa3fb5bf828e15b9e18152f35b8390816003193601126100da57807fa48c898f5241be426b79d4b5a3c206f9c9a06576e1b72c338c3ec849771d568660209252f3fea2646970667358221220b0175637458f658e6766d5ec58dabd011d26ee55a476421d4fe007a1bd22311d64736f6c63430008140033",
  "linkReferences": {},
  "deployedLinkReferences": {}
}