{
  "_format": "hh-sol-artifact-1",
  "contractName": "ValidatorConsensus",
  "sourceName": "src/bc-cvs/ValidatorConsensus.sol",
  "abi": [
    {
      "inputs": [
        {
          "internalType": "address",
          "name": "_admin",
          "type": "address"
        },
        {
          "internalType": "address[]",
          "name": "_initialValidators",
          "type": "address[]"
        }
      ],
      "stateMutability": "nonpayable",
      "type": "constructor"
    },
    {
      "inputs": [],
      "name": "AccessControlBadConfirmation",
      "type": "error"
    },
    {
      "inputs": [
        {
          "internalType": "address",
          "name": "account",
          "type": "address"
        },
        {
          "internalType": "bytes32",
          "name": "neededRole",
          "type": "bytes32"
        }
      ],
      "name": "AccessControlUnauthorizedAccount",
      "type": "error"
    },
    {
      "inputs": [
        {
          "internalType": "uint256",
          "name": "proposalId",
          "type": "uint256"
        },
        {
          "internalType": "address",
          "name": "validator",
          "type": "address"
        }
      ],
      "name": "AlreadyVoted",
      "type": "error"
    },
    {
      "inputs": [],
      "name": "EmptyString",
      "type": "error"
    },
    {
      "inputs": [
        {
          "internalType": "address",
          "name": "institution",
          "type": "address"
        }
      ],
      "name": "InstitutionAlreadyRegistered",
      "type": "error"
    },
    {
      "inputs": [],
      "name": "InvalidInput",
      "type": "error"
    },
    {
      "inputs": [
        {
          "internalType": "address",
          "name": "caller",
          "type": "address"
        }
      ],
      "name": "NotValidator",
      "type": "error"
    },
    {
      "inputs": [
        {
          "internalType": "string",
          "name": "reason",
          "type": "string"
        }
      ],
      "name": "OperationFailed",
      "type": "error"
    },
    {
      "inputs": [
        {
          "internalType": "uint256",
          "name": "proposalId",
          "type": "uint256"
        }
      ],
      "name": "ProposalAlreadyExecuted",
      "type": "error"
    },
    {
      "inputs": [
        {
          "internalType": "uint256",
          "name": "proposalId",
          "type": "uint256"
        }
      ],
      "name": "ProposalAlreadyRejected",
      "type": "error"
    },
    {
      "inputs": [
        {
          "internalType": "uint256",
          "name": "proposalId",
          "type": "uint256"
        }
      ],
      "name": "ProposalNotFound",
      "type": "error"
    },
    {
      "inputs": [],
      "name": "UnanimousApprovalRequired",
      "type": "error"
    },
    {
      "inputs": [
        {
          "internalType": "address",
          "name": "validator",
          "type": "address"
        }
      ],
      "name": "ValidatorAlreadyExists",
      "type": "error"
    },
    {
      "inputs": [
        {
          "internalType": "address",
          "name": "validator",
          "type": "address"
        }
      ],
      "name": "ValidatorNotFound",
      "type": "error"
    },
    {
      "inputs": [],
      "name": "ZeroAddress",
      "type": "error"
    },
    {
      "anonymous": false,
      "inputs": [
        {
          "indexed": true,
          "internalType": "uint256",
          "name": "proposalId",
          "type": "uint256"
        },
        {
          "indexed": true,
          "internalType": "address",
          "name": "institutionAddress",
          "type": "address"
        },
        {
          "indexed": false,
          "internalType": "string",
          "name": "name",
          "type": "string"
        },
        {
          "indexed": true,
          "internalType": "address",
          "name": "proposer",
          "type": "address"
        },
        {
          "indexed": false,
          "internalType": "uint256",
          "name": "timestamp",
          "type": "uint256"
        }
      ],
      "name": "InstitutionProposed",
      "type": "event"
    },
    {
      "anonymous": false,
      "inputs": [
        {
          "indexed": true,
          "internalType": "uint256",
          "name": "proposalId",
          "type": "uint256"
        },
        {
          "indexed": true,
          "internalType": "address",
          "name": "institutionAddress",
          "type": "address"
        },
        {
          "indexed": false,
          "internalType": "uint256",
          "name": "approvalCount",
          "type": "uint256"
        },
        {
          "indexed": false,
          "internalType": "uint256",
          "name": "timestamp",
          "type": "uint256"
        }
      ],
      "name": "ProposalExecuted",
      "type": "event"
    },
    {
      "anonymous": false,
      "inputs": [
        {
          "indexed": true,
          "internalType": "uint256",
          "name": "proposalId",
          "type": "uint256"
        },
        {
          "indexed": false,
          "internalType": "string",
          "name": "reason",
          "type": "string"
        },
        {
          "indexed": false,
          "internalType": "uint256",
          "name": "timestamp",
          "type": "uint256"
        }
      ],
      "name": "ProposalRejected",
      "type": "event"
    },
    {
      "anonymous": false,
      "inputs": [
        {
          "indexed": true,
          "internalType": "bytes32",
          "name": "role",
          "type": "bytes32"
        },
        {
          "indexed": true,
          "internalType": "bytes32",
          "name": "previousAdminRole",
          "type": "bytes32"
        },
        {
          "indexed": true,
          "internalType": "bytes32",
          "name": "newAdminRole",
          "type": "bytes32"
        }
      ],
      "name": "RoleAdminChanged",
      "type": "event"
    },
    {
      "anonymous": false,
      "inputs": [
        {
          "indexed": true,
          "internalType": "bytes32",
          "name": "role",
          "type": "bytes32"
        },
        {
          "indexed": true,
          "internalType": "address",
          "name": "account",
          "type": "address"
        },
        {
          "indexed": true,
          "internalType": "address",
          "name": "sender",
          "type": "address"
        }
      ],
      "name": "RoleGranted",
      "type": "event"
    },
    {
      "anonymous": false,
      "inputs": [
        {
          "indexed": true,
          "internalType": "bytes32",
          "name": "role",
          "type": "bytes32"
        },
        {
          "indexed": true,
          "internalType": "address",
          "name": "account",
          "type": "address"
        },
        {
          "indexed": true,
          "internalType": "address",
          "name": "sender",
          "type": "address"
        }
      ],
      "name": "RoleRevoked",
      "type": "event"
    },
    {
      "anonymous": false,
      "inputs": [
        {
          "indexed": true,
          "internalType": "address",
          "name": "validator",
          "type": "address"
        },
        {
          "indexed": false,
          "internalType": "uint256",
          "name": "timestamp",
          "type": "uint256"
        }
      ],
      "name": "ValidatorAdded",
      "type": "event"
    },
    {
      "anonymous": false,
      "inputs": [
        {
          "indexed": true,
          "internalType": "address",
          "name": "validator",
          "type": "address"
        },
        {
          "indexed": false,
          "internalType": "uint256",
          "name": "timestamp",
          "type": "uint256"
        }
      ],
      "name": "ValidatorRemoved",
      "type": "event"
    },
    {
      "anonymous": false,
      "inputs": [
        {
          "indexed": true,
          "internalType": "uint256",
          "name": "proposalId",
          "type": "uint256"
        },
        {
          "indexed": true,
          "internalType": "address",
          "name": "validator",
          "type": "address"
        },
        {
          "indexed": false,
          "internalType": "uint256",
          "name": "timestamp",
          "type": "uint256"
        }
      ],
      "name": "VoteCast",
      "type": "event"
    },
    {
      "inputs": [],
      "name": "DEFAULT_ADMIN_ROLE",
      "outputs": [
        {
          "internalType": "bytes32",
          "name": "",
          "type": "bytes32"
        }
      ],
      "stateMutability": "view",
      "type": "function"
    },
    {
      "inputs": [
        {
          "internalType": "address",
          "name": "_validator",
          "type": "address"
        }
      ],
      "name": "addValidator",
      "outputs": [],
      "stateMutability": "nonpayable",
      "type": "function"
    },
    {
      "inputs": [
        {
          "internalType": "uint256",
          "name": "_proposalId",
          "type": "uint256"
        }
      ],
      "name": "executeProposal",
      "outputs": [],
      "stateMutability": "nonpayable",
      "type": "function"
    },
    {
      "inputs": [
        {
          "internalType": "uint256",
          "name": "_proposalId",
          "type": "uint256"
        }
      ],
      "name": "getProposal",
      "outputs": [
        {
          "components": [
            {
              "internalType": "address",
              "name": "institutionAddress",
              "type": "address"
            },
            {
              "internalType": "string",
              "name": "name",
              "type": "string"
            },
            {
              "internalType": "bytes32",
              "name": "documentHash",
              "type": "bytes32"
            },
            {
              "internalType": "address",
              "name": "proposer",
              "type": "address"
            },
            {
              "internalType": "uint256",
              "name": "approvalCount",
              "type": "uint256"
            },
            {
              "internalType": "uint256",
              "name": "totalValidatorsAtProposal",
              "type": "uint256"
            },
            {
              "internalType": "uint256",
              "name": "createdAt",
              "type": "uint256"
            },
            {
              "internalType": "bool",
              "name": "executed",
              "type": "bool"
            },
            {
              "internalType": "bool",
              "name": "rejected",
              "type": "bool"
            }
          ],
          "internalType": "struct IValidatorConsensus.InstitutionProposal",
          "name": "proposal",
          "type": "tuple"
        }
      ],
      "stateMutability": "view",
      "type": "function"
    },
    {
      "inputs": [],
      "name": "getProposalCount",
      "outputs": [
        {
          "internalType": "uint256",
          "name": "count",
          "type": "uint256"
        }
      ],
      "stateMutability": "view",
      "type": "function"
    },
    {
      "inputs": [
        {
          "internalType": "uint256",
          "name": "_proposalId",
          "type": "uint256"
        },
        {
          "internalType": "address[]",
          "name": "_validatorList",
          "type": "address[]"
        }
      ],
      "name": "getProposalVotes",
      "outputs": [
        {
          "internalType": "bool[]",
          "name": "voted",
          "type": "bool[]"
        }
      ],
      "stateMutability": "view",
      "type": "function"
    },
    {
      "inputs": [
        {
          "internalType": "bytes32",
          "name": "role",
          "type": "bytes32"
        }
      ],
      "name": "getRoleAdmin",
      "outputs": [
        {
          "internalType": "bytes32",
          "name": "",
          "type": "bytes32"
        }
      ],
      "stateMutability": "view",
      "type": "function"
    },
    {
      "inputs": [],
      "name": "getValidatorCount",
      "outputs": [
        {
          "internalType": "uint256",
          "name": "count",
          "type": "uint256"
        }
      ],
      "stateMutability": "view",
      "type": "function"
    },
    {
      "inputs": [],
      "name": "getValidators",
      "outputs": [
        {
          "internalType": "address[]",
          "name": "validatorList",
          "type": "address[]"
        }
      ],
      "stateMutability": "view",
      "type": "function"
    },
    {
      "inputs": [
        {
          "internalType": "bytes32",
          "name": "role",
          "type": "bytes32"
        },
        {
          "internalType": "address",
          "name": "account",
          "type": "address"
        }
      ],
      "name": "grantRole",
      "outputs": [],
      "stateMutability": "nonpayable",
      "type": "function"
    },
    {
      "inputs": [
        {
          "internalType": "bytes32",
          "name": "role",
          "type": "bytes32"
        },
        {
          "internalType": "address",
          "name": "account",
          "type": "address"
        }
      ],
      "name": "hasRole",
      "outputs": [
        {
          "internalType": "bool",
          "name": "",
          "type": "bool"
        }
      ],
      "stateMutability": "view",
      "type": "function"
    },
    {
      "inputs": [
        {
          "internalType": "uint256",
          "name": "_proposalId",
          "type": "uint256"
        }
      ],
      "name": "hasUnanimousApproval",
      "outputs": [
        {
          "internalType": "bool",
          "name": "isUnanimous",
          "type": "bool"
        }
      ],
      "stateMutability": "view",
      "type": "function"
    },
    {
      "inputs": [
        {
          "internalType": "uint256",
          "name": "_proposalId",
          "type": "uint256"
        },
        {
          "internalType": "address",
          "name": "_validator",
          "type": "address"
        }
      ],
      "name": "hasVoted",
      "outputs": [
        {
          "internalType": "bool",
          "name": "",
          "type": "bool"
        }
      ],
      "stateMutability": "view",
      "type": "function"
    },
    {
      "inputs": [
        {
          "internalType": "address",
          "name": "_institution",
          "type": "address"
        }
      ],
      "name": "isInstitutionRegistered",
      "outputs": [
        {
          "internalType": "bool",
          "name": "isRegistered",
          "type": "bool"
        }
      ],
      "stateMutability": "view",
      "type": "function"
    },
    {
      "inputs": [
        {
          "internalType": "address",
          "name": "_address",
          "type": "address"
        }
      ],
      "name": "isValidator",
      "outputs": [
        {
          "internalType": "bool",
          "name": "isValidatorAddress",
          "type": "bool"
        }
      ],
      "stateMutability": "view",
      "type": "function"
    },
    {
      "inputs": [
        {
          "internalType": "address",
          "name": "_institutionAddress",
          "type": "address"
        },
        {
          "internalType": "string",
          "name": "_name",
          "type": "string"
        },
        {
          "internalType": "bytes32",
          "name": "_documentHash",
          "type": "bytes32"
        }
      ],
      "name": "proposeInstitution",
      "outputs": [
        {
          "internalType": "uint256",
          "name": "proposalId",
          "type": "uint256"
        }
      ],
      "stateMutability": "nonpayable",
      "type": "function"
    },
    {
      "inputs": [
        {
          "internalType": "uint256",
          "name": "_proposalId",
          "type": "uint256"
        },
        {
          "internalType": "string",
          "name": "_reason",
          "type": "string"
        }
      ],
      "name": "rejectProposal",
      "outputs": [],
      "stateMutability": "nonpayable",
      "type": "function"
    },
    {
      "inputs": [
        {
          "internalType": "address",
          "name": "_validator",
          "type": "address"
        }
      ],
      "name": "removeValidator",
      "outputs": [],
      "stateMutability": "nonpayable",
      "type": "function"
    },
    {
      "inputs": [
        {
          "internalType": "bytes32",
          "name": "role",
          "type": "bytes32"
        },
        {
          "internalType": "address",
          "name": "callerConfirmation",
          "type": "address"
        }
      ],
      "name": "renounceRole",
      "outputs": [],
      "stateMutability": "nonpayable",
      "type": "function"
    },
    {
      "inputs": [
        {
          "internalType": "bytes32",
          "name": "role",
          "type": "bytes32"
        },
        {
          "internalType": "address",
          "name": "account",
          "type": "address"
        }
      ],
      "name": "revokeRole",
      "outputs": [],
      "stateMutability": "nonpayable",
      "type": "function"
    },
    {
      "inputs": [
        {
          "internalType": "bytes4",
          "name": "interfaceId",
          "type": "bytes4"
        }
      ],
      "name": "supportsInterface",
      "outputs": [
        {
          "internalType": "bool",
          "name": "",
          "type": "bool"
        }
      ],
      "stateMutability": "view",
      "type": "function"
    },
    {
      "inputs": [
        {
          "internalType": "uint256",
          "name": "_proposalId",
          "type": "uint256"
        }
      ],
      "name": "voteForInstitution",
      "outputs": [],
      "stateMutability": "nonpayable",
      "type": "function"
    }
  ],
  "bytecode": "0x604060808152346200028f5762001d2990813803806200001f8162000294565b93843982019181818403126200028f576200003a81620002ba565b6020828101516001600160401b03939192918482116200028f57019480601f870112156200028f578551938411620002185760059584871b9084806200008281850162000294565b8098815201928201019283116200028f5784809101915b8383106200027457506001600160a01b03939250505080821615620002545780620000c8620000cf92620002e4565b5062000364565b5060005b8351811015620002655781620000ea8286620002cf565b511615620002545781620000ff8286620002cf565b5116600052600380845260ff8660002054166200022e5782620001238387620002cf565b511690875491680100000000000000008310156200021857600192838101808b55811015620002025760008a81528790200180546001600160a01b031916909117905583620001738488620002cf565b51166000528452856000209060ff19825416179055620001a182620001998387620002cf565b511662000406565b5081620001af8286620002cf565b51167f9000b209805850a65058f21361a9978cb30f1413ed555553ab52a59b440b5d99848751428152a26000198114620001ec57600101620000d3565b634e487b7160e01b600052601160045260246000fd5b634e487b7160e01b600052603260045260246000fd5b634e487b7160e01b600052604160045260246000fd5b602486846200023e8589620002cf565b51915163164688df60e21b815291166004820152fd5b845163d92e233d60e01b8152600490fd5b84516118659081620004a48239f35b81906200028184620002ba565b815201910190849062000099565b600080fd5b6040519190601f01601f191682016001600160401b038111838210176200021857604052565b51906001600160a01b03821682036200028f57565b8051821015620002025760209160051b010190565b6001600160a01b031660008181527fad3228b676f7d3cd4284a5443f17f1962b36e491b30a40b2405849e597ba5fb5602052604081205490919060ff166200036057818052816020526040822081835260205260408220600160ff19825416179055339160008051602062001d098339815191528180a4600190565b5090565b6001600160a01b031660008181527fcef3a433619e8274f84bbe9ad5323e8b252fcf8ed48affbce8d2049d944ea6de60205260408120549091907fb346b2ddc13f08bd9685b83a95304a79a2caac0aa7aa64129e1ae9f4361b46619060ff166200040157808352826020526040832082845260205260408320600160ff1982541617905560008051602062001d09833981519152339380a4600190565b505090565b6001600160a01b031660008181527fb68174101826fd4a886da9e533ca4a1b2428978f4cade74ed8e80f9e912c9a9560205260408120549091907f39801f02b377382934882402b272ec2b64d7f3cd17fc59f578996fa5030de3979060ff166200040157808352826020526040832082845260205260408320600160ff1982541617905560008051602062001d09833981519152339380a460019056fe608080604052600436101561001357600080fd5b60003560e01c90816301ffc9a7146111c9575080630d61b51914611112578063248a9ca3146110e35780632f2ff15d146110a457806336568abe1461105d57806340a141ff14610f085780634385963214610ebb5780634d238c8e14610dc45780635550896e14610c5e5780637071688a14610c4057806383c0e35414610c015780638430963c14610bd957806391d1485414610b8c578063952a5be714610a95578063a217fddf14610a79578063a49a46c7146106c5578063b7ab4db5146105fd578063c08cc02d146105df578063c7f758a8146103cb578063d547741f1461038c578063facd743b1461034d5763fb4085651461011157600080fd5b346103485760208060031936011261034857600435907f39801f02b377382934882402b272ec2b64d7f3cd17fc59f578996fa5030de3978060005260008252604060002033600052825260ff604060002054161561032a5750336000526003815260ff60406000205416156103125781600052600181526040600020600681015480156102f957600782015460ff81166102e05760081c60ff166102c85762278d0081018091116102b2574211610279578260005260028252604060002033600052825260ff6040600020541661025a57600590836000526002835260406000203360005283526040600020600160ff19825416179055600481019261021784546116b0565b809455847f2acce567deca3aabf56327adbb4524bd5318936eaefa69e3a5208ffda0cfec09604051924284523393a301541461024f57005b610258906117a9565b005b6040516304f9da6360e01b815260048101849052336024820152604490fd5b604051630c0092c960e21b815260048101839052601060248201526f141c9bdc1bdcd85b08195e1c1a5c995960821b6044820152606490fd5b634e487b7160e01b600052601160045260246000fd5b60405162ad547760e71b815260048101859052602490fd5b604051632776407360e11b815260048101869052602490fd5b60405163428d06a960e01b815260048101859052602490fd5b604051633b4f6e2b60e21b8152336004820152602490fd5b6044906040519063e2517d3f60e01b82523360048301526024820152fd5b600080fd5b34610348576020366003190112610348576001600160a01b0361036e611232565b166000526003602052602060ff604060002054166040519015158152f35b34610348576040366003190112610348576102586004356103ab61121c565b908060005260006020526103c6600160406000200154611392565b61163b565b346103485760208060031936011261034857600435906040516103ed81611248565b60008152606082820152600060408201526000606082015260006080820152600060a0820152600060c0820152600060e0820152600061010080920152826000526001928383526040600020906040519261044784611248565b60018060a01b0393848454168152868401604051809860009083549361046c856116bf565b948585528b83821691826000146105bd57505060011461057d575b505061049592500388611265565b85810196875260028401549360408201948552856003820154166060830190815260048201546080840190815260058301549160a08501928352600684015494600760c082019587875201549760e082019660ff8a161515885260ff8984019a60081c1615158a52156105655750906105338a9b9c60409a9b938b519e8f9e8f928284525116910152518c6101209b8c9101526101408d01906112f6565b995160608c0152511660808a01525160a08901525160c08801525160e087015251151590850152511515908301520390f35b6024906040519063428d06a960e01b82526004820152fd5b8a925060005281600020906000915b8583106105a457505061049593508201018a80610487565b819484848396959654920101520191018a928a9261058c565b925093505061049594915060ff191682840152151560051b8201018a80610487565b34610348576000366003190112610348576020600654604051908152f35b3461034857600036600319011261034857604051806005548083526020809301809160056000527f036b6384b5eca791c62761152d0c79bb0604c104a5fb6f4eb0703f3154bb3db09060005b868282106106a857868661065f82880383611265565b604051928392818401908285525180915260408401929160005b82811061068857505050500390f35b83516001600160a01b031685528695509381019392810192600101610679565b83546001600160a01b031685529093019260019283019201610649565b34610348576060366003190112610348576106de611232565b60243567ffffffffffffffff8111610348576106fe90369060040161129f565b6001600160a01b03821615610a6757805115610a5557610100815111610a435760443515610a43576001600160a01b03821660009081526004602052604090205460ff16610a22576005549182156109e6576006549161075d836116b0565b6006556040519361076d85611248565b60018060a01b038316855281602086015260443560408601523360608601526000608086015260a08501524260c0850152600060e0850152600061010085015282600052600160205260406000209360018060a01b038151166bffffffffffffffffffffffff60a01b865416178555602081015194855167ffffffffffffffff81116109d05761080060018301546116bf565b96601f8811610989575b602097508790601f831160011461091a5760079392916000918361090f575b50508160011b916000199060031b1c19161760018201555b604083015160028201556003810160018060a01b036060850151166bffffffffffffffffffffffff60a01b8254161790556080830151600482015560a0830151600582015560c08301516006820155019060e081015115159060ff61ff006101008554930151151560081b1692169061ffff191617179055827fdee571dac818a19907f783f8f3c36d7b2c135e093a6294f3ce9d712c2e34df3b6108f0604051936040855260408501906112f6565b428785015233946001600160a01b0316939081900390a4604051908152f35b015190508980610829565b90601f1983169160018501600052896000209260005b8181106109725750916001939185600797969410610959575b505050811b016001820155610841565b015160001960f88460031b161c19169055898080610949565b92938b600181928786015181550195019301610930565b600183016000526020600020601f830160051c8101602084106109c9575b601f8a0160051c820181106109bd57505061080a565b600081556001016109a7565b50806109a7565b634e487b7160e01b600052604160045260246000fd5b604051630c0092c960e21b8152602060048201526013602482015272139bc81d985b1a59185d1bdc9cc8195e1a5cdd606a1b6044820152606490fd5b60405163c28e848f60e01b81526001600160a01b0383166004820152602490fd5b60405163b4fa3fb360e01b8152600490fd5b60405163ecd7b0d160e01b8152600490fd5b60405163d92e233d60e01b8152600490fd5b3461034857600036600319011261034857602060405160008152f35b346103485760403660031901126103485760043560243567ffffffffffffffff811161034857610ac990369060040161129f565b610ad1611336565b8160005260016020526040600020600681015415610b73576007019081549060ff8216610b5a5760ff8260081c166102c857805115610a55577f723a1f5fe17e5d38698c52867c48bbab9697b28d6834132d18fdb76c7754a9a192610100610b4f9361ff0019161790556040519182916040835260408301906112f6565b4260208301520390a2005b604051632776407360e11b815260048101859052602490fd5b60405163428d06a960e01b815260048101849052602490fd5b3461034857604036600319011261034857610ba561121c565b600435600052600060205260406000209060018060a01b0316600052602052602060ff604060002054166040519015158152f35b34610348576020366003190112610348576020610bf7600435611746565b6040519015158152f35b34610348576020366003190112610348576001600160a01b03610c22611232565b166000526004602052602060ff604060002054166040519015158152f35b34610348576000366003190112610348576020600554604051908152f35b346103485760403660031901126103485760243560043567ffffffffffffffff8211610348573660238301121561034857816004013591610c9e83611287565b90610cac6040519283611265565b83825260209360248584019160051b8301019136831161034857602401905b828210610da557505050805190610cfa610ce483611287565b92610cf26040519485611265565b808452611287565b8285019390601f190136853760005b8251811015610d5f5760008281526002875260409020610d5a91906001600160a01b03610d368387611795565b5116600052875260ff60406000205416610d508287611795565b90151590526116b0565b610d09565b50505090604051928392818401908285525180915260408401929160005b828110610d8c57505050500390f35b8351151585528695509381019392810192600101610d7d565b81356001600160a01b0381168103610348578152908501908501610ccb565b3461034857602036600319011261034857610ddd611232565b610de5611336565b6001600160a01b038116908115610a675781600052600360205260ff60406000205416610ea25760055490680100000000000000008210156109d057610e5781610e38846001610e7596016005556116f9565b90919082549060031b9160018060a01b03809116831b921b1916179055565b8260005260036020526040600020600160ff198254161790556113b8565b507f9000b209805850a65058f21361a9978cb30f1413ed555553ab52a59b440b5d996020604051428152a2005b60405163164688df60e21b815260048101839052602490fd5b3461034857604036600319011261034857610ed461121c565b600435600052600260205260406000209060018060a01b0316600052602052602060ff604060002054166040519015158152f35b3461034857602036600319011261034857610f21611232565b610f29611336565b6001600160a01b03818116918215610a67578260005260038060205260ff60406000205416156110445760005b6005805480831015611037578686610f6d856116f9565b905490871b1c1614610f89575050610f84906116b0565b610f56565b60001995928187019182116102b257610e3884610fa8610fb5946116f9565b905490881b1c16916116f9565b805494851561102157610ff4950191610fcd836116f9565b9091825491861b1b19169055555b83600052602052604060002060ff198154169055611590565b507f50ecbf35c0ff0910f48ecaf45471c41781b549230264f6cb51997d7d425a02c36020604051428152a2005b634e487b7160e01b600052603160045260246000fd5b505050610ff49250610fdb565b604051635a4887e160e01b815260048101859052602490fd5b346103485760403660031901126103485761107661121c565b336001600160a01b03821603611092576102589060043561163b565b60405163334bd91960e11b8152600490fd5b34610348576040366003190112610348576102586004356110c361121c565b908060005260006020526110de600160406000200154611392565b611517565b346103485760203660031901126103485760043560005260006020526020600160406000200154604051908152f35b346103485760203660031901126103485760043580600052600160205260406000206006810154156111b057600781015460ff81166111975760081c60ff1661117f57600560048201549101540361116d57610258906117a9565b604051636fd923e760e11b8152600490fd5b60405162ad547760e71b815260048101839052602490fd5b604051632776407360e11b815260048101849052602490fd5b60405163428d06a960e01b815260048101839052602490fd5b34610348576020366003190112610348576004359063ffffffff60e01b821680920361034857602091637965db0b60e01b811490811561120b575b5015158152f35b6301ffc9a760e01b14905083611204565b602435906001600160a01b038216820361034857565b600435906001600160a01b038216820361034857565b610120810190811067ffffffffffffffff8211176109d057604052565b90601f8019910116810190811067ffffffffffffffff8211176109d057604052565b67ffffffffffffffff81116109d05760051b60200190565b81601f820112156103485780359067ffffffffffffffff82116109d057604051926112d4601f8401601f191660200185611265565b8284526020838301011161034857816000926020809301838601378301015290565b919082519283825260005b848110611322575050826000602080949584010152601f8019910116010190565b602081830181015184830182015201611301565b3360009081527fcef3a433619e8274f84bbe9ad5323e8b252fcf8ed48affbce8d2049d944ea6de60205260409020547fb346b2ddc13f08bd9685b83a95304a79a2caac0aa7aa64129e1ae9f4361b46619060ff161561032a5750565b80600052600060205260406000203360005260205260ff604060002054161561032a5750565b6001600160a01b031660008181527fb68174101826fd4a886da9e533ca4a1b2428978f4cade74ed8e80f9e912c9a9560205260408120549091907f39801f02b377382934882402b272ec2b64d7f3cd17fc59f578996fa5030de3979060ff1661146557808352826020526040832082845260205260408320600160ff198254161790557f2f8788117e7eff1d82e926ec794901d17c78024a50270940304540a733656f0d339380a4600190565b505090565b6001600160a01b031660008181527f75a62d95ad9fef7bba5c4dde6e3ff662d5c539a6d57cb138a3d5c2f3a42773ff60205260408120549091907f4b90e70a23ad1c016cdba1a015076c2de977e305fcad3881690cafbe99d361909060ff1661146557808352826020526040832082845260205260408320600160ff198254161790557f2f8788117e7eff1d82e926ec794901d17c78024a50270940304540a733656f0d339380a4600190565b9060009180835282602052604083209160018060a01b03169182845260205260ff6040842054161560001461146557808352826020526040832082845260205260408320600160ff198254161790557f2f8788117e7eff1d82e926ec794901d17c78024a50270940304540a733656f0d339380a4600190565b6001600160a01b031660008181527fb68174101826fd4a886da9e533ca4a1b2428978f4cade74ed8e80f9e912c9a9560205260408120549091907f39801f02b377382934882402b272ec2b64d7f3cd17fc59f578996fa5030de3979060ff16156114655780835282602052604083208284526020526040832060ff1981541690557ff6391f5c32d9c69d2a47ea670b442974b53935d1edc7fd64eb21e047a839171b339380a4600190565b9060009180835282602052604083209160018060a01b03169182845260205260ff6040842054166000146114655780835282602052604083208284526020526040832060ff1981541690557ff6391f5c32d9c69d2a47ea670b442974b53935d1edc7fd64eb21e047a839171b339380a4600190565b60001981146102b25760010190565b90600182811c921680156116ef575b60208310146116d957565b634e487b7160e01b600052602260045260246000fd5b91607f16916116ce565b6005548110156117305760056000527f036b6384b5eca791c62761152d0c79bb0604c104a5fb6f4eb0703f3154bb3db00190600090565b634e487b7160e01b600052603260045260246000fd5b6000526001602052604060002060068101541561178157600781015460ff8116908115611787575b5061178157600560048201549101541490565b50600090565b60ff915060081c163861176e565b80518210156117305760209160051b010190565b8060005260016020526040600020907f2d436577633120007446fc8116bf731759187b21264eb8a052e92be53c64c61e604060046007850160ff199060018282541617905560018060a01b039081875416600052826020526001846000209182541617905561181a8187541661146a565b508554169401548151908152426020820152a356fea26469706673582212202cbbac15ea7753f237720e08499d55a761cc117f4ee64ebbabf19ecb5f72f6ae64736f6c634300081400332f8788117e7eff1d82e926ec794901d17c78024a50270940304540a733656f0d",
  "linkReferences": {},
  "deployedLinkReferences": {}
}