{
  "_format": "hh-sol-artifact-1",
  "contractName": "BloomFilter",
  "sourceName": "src/bc-cvs/BloomFilter.sol",
  "abi": [
    {
      "inputs": [
        {
          "internalType": "address",
          "name": "_admin",
          "type": "address"
        }
      ],
      "stateMutability": "nonpayable",
      "type": "constructor"
    },
    {
      "inputs": [],
      "name": "AccessControlBadConfirmation",
      "type": "error"
    },
    {
      "inputs": [
        {
          "internalType": "address",
          "name": "account",
          "type": "address"
        },
        {
          "internalType": "bytes32",
          "name": "neededRole",
          "type": "bytes32"
        }
      ],
      "name": "AccessControlUnauthorizedAccount",
      "type": "error"
    },
    {
      "inputs": [],
      "name": "EmptyBatchOperation",
      "type": "error"
    },
    {
      "inputs": [
        {
          "internalType": "uint256",
          "name": "index",
          "type": "uint256"
        }
      ],
      "name": "InvalidBitIndex",
      "type": "error"
    },
    {
      "inputs": [],
      "name": "InvalidCertificateHash",
      "type": "error"
    },
    {
      "inputs": [],
      "name": "ZeroAddress",
      "type": "error"
    },
    {
      "anonymous": false,
      "inputs": [
        {
          "indexed": true,
          "internalType": "address",
          "name": "admin",
          "type": "address"
        },
        {
          "indexed": false,
          "internalType": "uint256",
          "name": "timestamp",
          "type": "uint256"
        }
      ],
      "name": "BloomFilterReset",
      "type": "event"
    },
    {
      "anonymous": false,
      "inputs": [
        {
          "indexed": true,
          "internalType": "bytes32",
          "name": "element",
          "type": "bytes32"
        },
        {
          "indexed": true,
          "internalType": "uint256",
          "name": "index",
          "type": "uint256"
        },
        {
          "indexed": false,
          "internalType": "uint256",
          "name": "timestamp",
          "type": "uint256"
        }
      ],
      "name": "ElementAdded",
      "type": "event"
    },
    {
      "anonymous": false,
      "inputs": [
        {
          "indexed": true,
          "internalType": "bytes32",
          "name": "role",
          "type": "bytes32"
        },
        {
          "indexed": true,
          "internalType": "bytes32",
          "name": "previousAdminRole",
          "type": "bytes32"
        },
        {
          "indexed": true,
          "internalType": "bytes32",
          "name": "newAdminRole",
          "type": "bytes32"
        }
      ],
      "name": "RoleAdminChanged",
      "type": "event"
    },
    {
      "anonymous": false,
      "inputs": [
        {
          "indexed": true,
          "internalType": "bytes32",
          "name": "role",
          "type": "bytes32"
        },
        {
          "indexed": true,
          "internalType": "address",
          "name": "account",
          "type": "address"
        },
        {
          "indexed": true,
          "internalType": "address",
          "name": "sender",
          "type": "address"
        }
      ],
      "name": "RoleGranted",
      "type": "event"
    },
    {
      "anonymous": false,
      "inputs": [
        {
          "indexed": true,
          "internalType": "bytes32",
          "name": "role",
          "type": "bytes32"
        },
        {
          "indexed": true,
          "internalType": "address",
          "name": "account",
          "type": "address"
        },
        {
          "indexed": true,
          "internalType": "address",
          "name": "sender",
          "type": "address"
        }
      ],
      "name": "RoleRevoked",
      "type": "event"
    },
    {
      "anonymous": false,
      "inputs": [
        {
          "indexed": false,
          "internalType": "uint256",
          "name": "totalElements",
          "type": "uint256"
        },
        {
          "indexed": false,
          "internalType": "uint256",
          "name": "timestamp",
          "type": "uint256"
        }
      ],
      "name": "StatisticsUpdated",
      "type": "event"
    },
    {
      "inputs": [],
      "name": "ARRAY_SIZE",
      "outputs": [
        {
          "internalType": "uint256",
          "name": "",
          "type": "uint256"
        }
      ],
      "stateMutability": "view",
      "type": "function"
    },
    {
      "inputs": [],
      "name": "DEFAULT_ADMIN_ROLE",
      "outputs": [
        {
          "internalType": "bytes32",
          "name": "",
          "type": "bytes32"
        }
      ],
      "stateMutability": "view",
      "type": "function"
    },
    {
      "inputs": [],
      "name": "TOTAL_BITS",
      "outputs": [
        {
          "internalType": "uint256",
          "name": "",
          "type": "uint256"
        }
      ],
      "stateMutability": "view",
      "type": "function"
    },
    {
      "inputs": [
        {
          "internalType": "bytes32",
          "name": "_hash",
          "type": "bytes32"
        }
      ],
      "name": "add",
      "outputs": [],
      "stateMutability": "nonpayable",
      "type": "function"
    },
    {
      "inputs": [
        {
          "internalType": "bytes32[]",
          "name": "_hashes",
          "type": "bytes32[]"
        }
      ],
      "name": "addBatch",
      "outputs": [],
      "stateMutability": "nonpayable",
      "type": "function"
    },
    {
      "inputs": [
        {
          "internalType": "bytes32",
          "name": "_hash",
          "type": "bytes32"
        }
      ],
      "name": "check",
      "outputs": [
        {
          "internalType": "bool",
          "name": "mightExist",
          "type": "bool"
        }
      ],
      "stateMutability": "view",
      "type": "function"
    },
    {
      "inputs": [
        {
          "internalType": "bytes32[]",
          "name": "_hashes",
          "type": "bytes32[]"
        }
      ],
      "name": "checkBatch",
      "outputs": [
        {
          "internalType": "bool[]",
          "name": "results",
          "type": "bool[]"
        }
      ],
      "stateMutability": "view",
      "type": "function"
    },
    {
      "inputs": [],
      "name": "getBitArraySize",
      "outputs": [
        {
          "internalType": "uint256",
          "name": "size",
          "type": "uint256"
        }
      ],
      "stateMutability": "pure",
      "type": "function"
    },
    {
      "inputs": [
        {
          "internalType": "bytes32",
          "name": "_hash",
          "type": "bytes32"
        }
      ],
      "name": "getIndex",
      "outputs": [
        {
          "internalType": "uint256",
          "name": "index",
          "type": "uint256"
        }
      ],
      "stateMutability": "pure",
      "type": "function"
    },
    {
      "inputs": [
        {
          "internalType": "bytes32",
          "name": "role",
          "type": "bytes32"
        }
      ],
      "name": "getRoleAdmin",
      "outputs": [
        {
          "internalType": "bytes32",
          "name": "",
          "type": "bytes32"
        }
      ],
      "stateMutability": "view",
      "type": "function"
    },
    {
      "inputs": [],
      "name": "getStatistics",
      "outputs": [
        {
          "internalType": "uint256",
          "name": "totalBits",
          "type": "uint256"
        },
        {
          "internalType": "uint256",
          "name": "elementsAdded",
          "type": "uint256"
        },
        {
          "internalType": "uint256",
          "name": "fillRate",
          "type": "uint256"
        }
      ],
      "stateMutability": "view",
      "type": "function"
    },
    {
      "inputs": [],
      "name": "getTotalElements",
      "outputs": [
        {
          "internalType": "uint256",
          "name": "count",
          "type": "uint256"
        }
      ],
      "stateMutability": "view",
      "type": "function"
    },
    {
      "inputs": [
        {
          "internalType": "address",
          "name": "_manager",
          "type": "address"
        }
      ],
      "name": "grantManagerRole",
      "outputs": [],
      "stateMutability": "nonpayable",
      "type": "function"
    },
    {
      "inputs": [
        {
          "internalType": "bytes32",
          "name": "role",
          "type": "bytes32"
        },
        {
          "internalType": "address",
          "name": "account",
          "type": "address"
        }
      ],
      "name": "grantRole",
      "outputs": [],
      "stateMutability": "nonpayable",
      "type": "function"
    },
    {
      "inputs": [
        {
          "internalType": "bytes32",
          "name": "role",
          "type": "bytes32"
        },
        {
          "internalType": "address",
          "name": "account",
          "type": "address"
        }
      ],
      "name": "hasRole",
      "outputs": [
        {
          "internalType": "bool",
          "name": "",
          "type": "bool"
        }
      ],
      "stateMutability": "view",
      "type": "function"
    },
    {
      "inputs": [
        {
          "internalType": "bytes32",
          "name": "role",
          "type": "bytes32"
        },
        {
          "internalType": "address",
          "name": "callerConfirmation",
          "type": "address"
        }
      ],
      "name": "renounceRole",
      "outputs": [],
      "stateMutability": "nonpayable",
      "type": "function"
    },
    {
      "inputs": [],
      "name": "reset",
      "outputs": [],
      "stateMutability": "nonpayable",
      "type": "function"
    },
    {
      "inputs": [
        {
          "internalType": "address",
          "name": "_manager",
          "type": "address"
        }
      ],
      "name": "revokeManagerRole",
      "outputs": [],
      "stateMutability": "nonpayable",
      "type": "function"
    },
    {
      "inputs": [
        {
          "internalType": "bytes32",
          "name": "role",
          "type": "bytes32"
        },
        {
          "internalType": "address",
          "name": "account",
          "type": "address"
        }
      ],
      "name": "revokeRole",
      "outputs": [],
      "stateMutability": "nonpayable",
      "type": "function"
    },
    {
      "inputs": [
        {
          "internalType": "bytes4",
          "name": "interfaceId",
          "type": "bytes4"
        }
      ],
      "name": "supportsInterface",
      "outputs": [
        {
          "internalType": "bool",
          "name": "",
          "type": "bool"
        }
      ],
      "stateMutability": "view",
      "type": "function"
    },
    {
      "inputs": [
        {
          "internalType": "bytes32",
          "name": "_hash",
          "type": "bytes32"
        }
      ],
      "name": "wasExplicitlyAdded",
      "outputs": [
        {
          "internalType": "bool",
          "name": "wasAdded",
          "type": "bool"
        }
      ],
      "stateMutability": "view",
      "type": "function"
    }
  ],
  "bytecode": "0x60803461009457601f610fb638819003918201601f19168301916001600160401b038311848410176100995780849260209460405283398101031261009457516001600160a01b03811680820361009457156100825780610062610072926100af565b5061006c8161012d565b506101cd565b50604051610d2d90816102698239f35b60405163d92e233d60e01b8152600490fd5b600080fd5b634e487b7160e01b600052604160045260246000fd5b6001600160a01b031660008181527fad3228b676f7d3cd4284a5443f17f1962b36e491b30a40b2405849e597ba5fb5602052604081205490919060ff1661012957818052816020526040822081835260205260408220600160ff198254161790553391600080516020610f968339815191528180a4600190565b5090565b6001600160a01b031660008181527fcef3a433619e8274f84bbe9ad5323e8b252fcf8ed48affbce8d2049d944ea6de60205260408120549091907fb346b2ddc13f08bd9685b83a95304a79a2caac0aa7aa64129e1ae9f4361b46619060ff166101c857808352826020526040832082845260205260408320600160ff19825416179055600080516020610f96833981519152339380a4600190565b505090565b6001600160a01b031660008181527fe466daab6bb65a41449e91bfac16f15530d3e7df6c277e389842463c9c78f96560205260408120549091907f502392af4b20018a8e94aec3e8c015aa38c7090fe5e5b7ecbb16f99c3a1ec14d9060ff166101c857808352826020526040832082845260205260408320600160ff19825416179055600080516020610f96833981519152339380a460019056fe608060408181526004918236101561001657600080fd5b600092833560e01c91826301ffc9a71461078b57508163245c7ee61461076e578163248a9ca31461074457816326e885e3146107075781632f2ff15d146106dd57816336568abe14610697578163372d6b271461061a578163399e0792146105f1578163446bffba1461054a578163735c4cb9146103155781637aa63a861461052a5781638527831b1461050357816391d14854146104bd57816397168c2f1461037c57816398a51e5d1461034e578163a217fddf14610333578163ac9a748f14610315578163be4dc94f146102cb578163d547741f1461028857508063d826f88f146101ee5763f81a8f1e1461010c57600080fd5b346101ea5761011a36610863565b805161013961013061012b8361084b565b61080f565b9180835261084b565b6020939082850190601f1901368237855b84518110156101a957806101616101939287610c44565b51156101985761017f627fffff6101788389610c44565b5116610ccd565b6101898287610c44565b9015159052610c1f565b61014a565b876101a38287610c44565b52610c1f565b5081518581528351818701819052909283929083019187895b8281106101d157505050500390f35b83511515855286955093810193928101926001016101c2565b5080fd5b50346101ea57816003193601126101ea576102076108d8565b815b618000811061027457507f338f67e2968e67831be923fa5195d483621b5773680f59506aca37ca7be148fa90826180015580514281527f4fc82f9ae74bf06d68b7ccb0bbc5f809919ed02e4eed4642499e5d597a3cef9160203392a28051838152426020820152a180f35b80836102839260010155610c1f565b610209565b919050346102c757806003193601126102c7576102c391356102be60016102ad6107f9565b9383875286602052862001546109ae565b610baa565b5080f35b8280fd5b9050346102c75760203660031901126102c7576102e66107de565b916102ef6108d8565b6001600160a01b0383161561030857836102c384610aff565b5163d92e233d60e01b8152fd5b5050346101ea57816003193601126101ea5760209051628000008152f35b5050346101ea57816003193601126101ea5751908152602090f35b9050346102c75760203660031901126102c7578160209360ff92358152618002855220541690519015158152f35b919050346102c75761038d36610863565b90610396610952565b8151156104ae57835b8251811015610478576103b28184610c44565b51156104685780627fffff6103ca6104319386610c44565b51166103d581610c8b565b6103df8286610c44565b51875261800260209080825260ff868a20541615610436575b507f018fc6e41869aeb9db060f0f058a1cddfb10fa9d315dbdae82caddd74026054a6104248488610c44565b51918651428152a3610c1f565b61039f565b6104408488610c44565b5189528152848820600160ff198254161790556180016104608154610c1f565b9055386103f8565b8151635006807360e11b81528490fd5b847f338f67e2968e67831be923fa5195d483621b5773680f59506aca37ca7be148fa83618001548151908152426020820152a180f35b51631b87119360e31b81529050fd5b9050346102c757816003193601126102c7578160209360ff926104de6107f9565b903582528186528282206001600160a01b039091168252855220549151911615158152f35b905082346105275760203660031901126105275750627fffff602092519135168152f35b80fd5b5050346101ea57816003193601126101ea57602090618001549051908152f35b9050346102c75760203660031901126102c757803590610568610952565b81156105e357507f018fc6e41869aeb9db060f0f058a1cddfb10fa9d315dbdae82caddd74026054a6020627fffff8316936105a285610c8b565b8386526180028252808620805460ff8116156105c3575b505051428152a380f35b60ff1916600117905561800180546105da90610c1f565b905538806105b9565b8251635006807360e11b8152fd5b828434610527576020366003190112610527575061061160209235610c6e565b90519015158152f35b8383346101ea57816003193601126101ea5761800154918261064f5760609350905b8051926280000084526020840152820152f35b6280000083111561066757506060925060649061063c565b606483029083820460640361068457506060935060171c9061063c565b634e487b7160e01b815260118552602490fd5b8383346101ea57806003193601126101ea576106b16107f9565b90336001600160a01b038316036106ce57506102c3919235610baa565b5163334bd91960e11b81528390fd5b919050346102c757806003193601126102c7576102c3913561070260016102ad6107f9565b610a86565b9050346102c75760203660031901126102c7576107226107de565b9161072b6108d8565b6001600160a01b0383161561030857836102c3846109d4565b9050346102c75760203660031901126102c757816020936001923581528085522001549051908152f35b5050346101ea57816003193601126101ea57602090516180008152f35b8491346102c75760203660031901126102c7573563ffffffff60e01b81168091036102c75760209250637965db0b60e01b81149081156107cd575b5015158152f35b6301ffc9a760e01b149050836107c6565b600435906001600160a01b03821682036107f457565b600080fd5b602435906001600160a01b03821682036107f457565b6040519190601f01601f1916820167ffffffffffffffff81118382101761083557604052565b634e487b7160e01b600052604160045260246000fd5b67ffffffffffffffff81116108355760051b60200190565b6020806003198301126107f4576004359167ffffffffffffffff83116107f457806023840112156107f457826004013561089f61012b8261084b565b9360248486848152019260051b8201019283116107f457602401905b8282106108c9575050505090565b813581529083019083016108bb565b3360009081527fcef3a433619e8274f84bbe9ad5323e8b252fcf8ed48affbce8d2049d944ea6de60205260409020547fb346b2ddc13f08bd9685b83a95304a79a2caac0aa7aa64129e1ae9f4361b46619060ff16156109345750565b6044906040519063e2517d3f60e01b82523360048301526024820152fd5b3360009081527fe466daab6bb65a41449e91bfac16f15530d3e7df6c277e389842463c9c78f96560205260409020547f502392af4b20018a8e94aec3e8c015aa38c7090fe5e5b7ecbb16f99c3a1ec14d9060ff16156109345750565b80600052600060205260406000203360005260205260ff60406000205416156109345750565b6001600160a01b031660008181527fe466daab6bb65a41449e91bfac16f15530d3e7df6c277e389842463c9c78f96560205260408120549091907f502392af4b20018a8e94aec3e8c015aa38c7090fe5e5b7ecbb16f99c3a1ec14d9060ff16610a8157808352826020526040832082845260205260408320600160ff198254161790557f2f8788117e7eff1d82e926ec794901d17c78024a50270940304540a733656f0d339380a4600190565b505090565b9060009180835282602052604083209160018060a01b03169182845260205260ff60408420541615600014610a8157808352826020526040832082845260205260408320600160ff198254161790557f2f8788117e7eff1d82e926ec794901d17c78024a50270940304540a733656f0d339380a4600190565b6001600160a01b031660008181527fe466daab6bb65a41449e91bfac16f15530d3e7df6c277e389842463c9c78f96560205260408120549091907f502392af4b20018a8e94aec3e8c015aa38c7090fe5e5b7ecbb16f99c3a1ec14d9060ff1615610a815780835282602052604083208284526020526040832060ff1981541690557ff6391f5c32d9c69d2a47ea670b442974b53935d1edc7fd64eb21e047a839171b339380a4600190565b9060009180835282602052604083209160018060a01b03169182845260205260ff604084205416600014610a815780835282602052604083208284526020526040832060ff1981541690557ff6391f5c32d9c69d2a47ea670b442974b53935d1edc7fd64eb21e047a839171b339380a4600190565b6000198114610c2e5760010190565b634e487b7160e01b600052601160045260246000fd5b8051821015610c585760209160051b010190565b634e487b7160e01b600052603260045260246000fd5b8015610c8557627fffff610c829116610ccd565b90565b50600090565b62800000811015610cb5578060081c618000811015610c585760ff600191820192161b8154179055565b6024906040519063492e683f60e11b82526004820152fd5b62800000811015610c85578060081c618000811015610c585760ff60019182015492161b1615159056fea2646970667358221220998ef918418c1e934ae58fe650e223613251bdfc006a1aaf8fd8472ef564320664736f6c634300081400332f8788117e7eff1d82e926ec794901d17c78024a50270940304540a733656f0d",
  "linkReferences": {},
  "deployedLinkReferences": {}
}